{"contracts/AvaxGods.sol":{"AVAXGods":{"abi":[{"inputs":[{"internalType":"string","name":"_metadataURI","type":"string"}],"stateMutability":"nonpayable","type":"constructor"},{"anonymous":false,"inputs":[{"indexed":true,"internalType":"address","name":"account","type":"address"},{"indexed":true,"internalType":"address","name":"operator","type":"address"},{"indexed":false,"internalType":"bool","name":"approved","type":"bool"}],"name":"ApprovalForAll","type":"event"},{"anonymous":false,"inputs":[{"indexed":false,"internalType":"string","name":"battleName","type":"string"},{"indexed":true,"internalType":"address","name":"winner","type":"address"},{"indexed":true,"internalType":"address","name":"loser","type":"address"}],"name":"BattleEnded","type":"event"},{"anonymous":false,"inputs":[{"indexed":true,"internalType":"string","name":"battleName","type":"string"},{"indexed":true,"internalType":"bool","name":"isFirstMove","type":"bool"}],"name":"BattleMove","type":"event"},{"anonymous":false,"inputs":[{"indexed":false,"internalType":"string","name":"battleName","type":"string"},{"indexed":true,"internalType":"address","name":"player1","type":"address"},{"indexed":true,"internalType":"address","name":"player2","type":"address"}],"name":"NewBattle","type":"event"},{"anonymous":false,"inputs":[{"indexed":true,"internalType":"address","name":"owner","type":"address"},{"indexed":false,"internalType":"uint256","name":"id","type":"uint256"},{"indexed":false,"internalType":"uint256","name":"attackStrength","type":"uint256"},{"indexed":false,"internalType":"uint256","name":"defenseStrength","type":"uint256"}],"name":"NewGameToken","type":"event"},{"anonymous":false,"inputs":[{"indexed":true,"internalType":"address","name":"owner","type":"address"},{"indexed":false,"internalType":"string","name":"name","type":"string"}],"name":"NewPlayer","type":"event"},{"anonymous":false,"inputs":[{"indexed":true,"internalType":"address","name":"previousOwner","type":"address"},{"indexed":true,"internalType":"address","name":"newOwner","type":"address"}],"name":"OwnershipTransferred","type":"event"},{"anonymous":false,"inputs":[{"indexed":false,"internalType":"address[2]","name":"damagedPlayers","type":"address[2]"}],"name":"RoundEnded","type":"event"},{"anonymous":false,"inputs":[{"indexed":true,"internalType":"address","name":"operator","type":"address"},{"indexed":true,"internalType":"address","name":"from","type":"address"},{"indexed":true,"internalType":"address","name":"to","type":"address"},{"indexed":false,"internalType":"uint256[]","name":"ids","type":"uint256[]"},{"indexed":false,"internalType":"uint256[]","name":"values","type":"uint256[]"}],"name":"TransferBatch","type":"event"},{"anonymous":false,"inputs":[{"indexed":true,"internalType":"address","name":"operator","type":"address"},{"indexed":true,"internalType":"address","name":"from","type":"address"},{"indexed":true,"internalType":"address","name":"to","type":"address"},{"indexed":false,"internalType":"uint256","name":"id","type":"uint256"},{"indexed":false,"internalType":"uint256","name":"value","type":"uint256"}],"name":"TransferSingle","type":"event"},{"anonymous":false,"inputs":[{"indexed":false,"internalType":"string","name":"value","type":"string"},{"indexed":true,"internalType":"uint256","name":"id","type":"uint256"}],"name":"URI","type":"event"},{"inputs":[],"name":"CELESTION","outputs":[{"internalType":"uint256","name":"","type":"uint256"}],"stateMutability":"view","type":"function"},{"inputs":[],"name":"DEVIL","outputs":[{"internalType":"uint256","name":"","type":"uint256"}],"stateMutability":"view","type":"function"},{"inputs":[],"name":"FIREBIRD","outputs":[{"internalType":"uint256","name":"","type":"uint256"}],"stateMutability":"view","type":"function"},{"inputs":[],"name":"GRIFFIN","outputs":[{"internalType":"uint256","name":"","type":"uint256"}],"stateMutability":"view","type":"function"},{"inputs":[],"name":"KAMO","outputs":[{"internalType":"uint256","name":"","type":"uint256"}],"stateMutability":"view","type":"function"},{"inputs":[],"name":"KUKULKAN","outputs":[{"internalType":"uint256","name":"","type":"uint256"}],"stateMutability":"view","type":"function"},{"inputs":[],"name":"MAX_ATTACK_DEFEND_STRENGTH","outputs":[{"internalType":"uint256","name":"","type":"uint256"}],"stateMutability":"view","type":"function"},{"inputs":[{"internalType":"uint8","name":"_choice","type":"uint8"},{"internalType":"string","name":"_battleName","type":"string"}],"name":"attackOrDefendChoice","outputs":[],"stateMutability":"nonpayable","type":"function"},{"inputs":[{"internalType":"address","name":"account","type":"address"},{"internalType":"uint256","name":"id","type":"uint256"}],"name":"balanceOf","outputs":[{"internalType":"uint256","name":"","type":"uint256"}],"stateMutability":"view","type":"function"},{"inputs":[{"internalType":"address[]","name":"accounts","type":"address[]"},{"internalType":"uint256[]","name":"ids","type":"uint256[]"}],"name":"balanceOfBatch","outputs":[{"internalType":"uint256[]","name":"","type":"uint256[]"}],"stateMutability":"view","type":"function"},{"inputs":[],"name":"baseURI","outputs":[{"internalType":"string","name":"","type":"string"}],"stateMutability":"view","type":"function"},{"inputs":[{"internalType":"string","name":"","type":"string"}],"name":"battleInfo","outputs":[{"internalType":"uint256","name":"","type":"uint256"}],"stateMutability":"view","type":"function"},{"inputs":[{"internalType":"uint256","name":"","type":"uint256"}],"name":"battles","outputs":[{"internalType":"enum AVAXGods.BattleStatus","name":"battleStatus","type":"uint8"},{"internalType":"bytes32","name":"battleHash","type":"bytes32"},{"internalType":"string","name":"name","type":"string"},{"internalType":"address","name":"winner","type":"address"}],"stateMutability":"view","type":"function"},{"inputs":[{"internalType":"string","name":"_name","type":"string"}],"name":"createBattle","outputs":[{"components":[{"internalType":"enum AVAXGods.BattleStatus","name":"battleStatus","type":"uint8"},{"internalType":"bytes32","name":"battleHash","type":"bytes32"},{"internalType":"string","name":"name","type":"string"},{"internalType":"address[2]","name":"players","type":"address[2]"},{"internalType":"uint8[2]","name":"moves","type":"uint8[2]"},{"internalType":"address","name":"winner","type":"address"}],"internalType":"struct AVAXGods.Battle","name":"","type":"tuple"}],"stateMutability":"nonpayable","type":"function"},{"inputs":[{"internalType":"string","name":"_name","type":"string"}],"name":"createRandomGameToken","outputs":[],"stateMutability":"nonpayable","type":"function"},{"inputs":[{"internalType":"uint256","name":"id","type":"uint256"}],"name":"exists","outputs":[{"internalType":"bool","name":"","type":"bool"}],"stateMutability":"view","type":"function"},{"inputs":[{"internalType":"uint256","name":"","type":"uint256"}],"name":"gameTokens","outputs":[{"internalType":"string","name":"name","type":"string"},{"internalType":"uint256","name":"id","type":"uint256"},{"internalType":"uint256","name":"attackStrength","type":"uint256"},{"internalType":"uint256","name":"defenseStrength","type":"uint256"}],"stateMutability":"view","type":"function"},{"inputs":[],"name":"getAllBattles","outputs":[{"components":[{"internalType":"enum AVAXGods.BattleStatus","name":"battleStatus","type":"uint8"},{"internalType":"bytes32","name":"battleHash","type":"bytes32"},{"internalType":"string","name":"name","type":"string"},{"internalType":"address[2]","name":"players","type":"address[2]"},{"internalType":"uint8[2]","name":"moves","type":"uint8[2]"},{"internalType":"address","name":"winner","type":"address"}],"internalType":"struct AVAXGods.Battle[]","name":"","type":"tuple[]"}],"stateMutability":"view","type":"function"},{"inputs":[],"name":"getAllPlayerTokens","outputs":[{"components":[{"internalType":"string","name":"name","type":"string"},{"internalType":"uint256","name":"id","type":"uint256"},{"internalType":"uint256","name":"attackStrength","type":"uint256"},{"internalType":"uint256","name":"defenseStrength","type":"uint256"}],"internalType":"struct AVAXGods.GameToken[]","name":"","type":"tuple[]"}],"stateMutability":"view","type":"function"},{"inputs":[],"name":"getAllPlayers","outputs":[{"components":[{"internalType":"address","name":"playerAddress","type":"address"},{"internalType":"string","name":"playerName","type":"string"},{"internalType":"uint256","name":"playerMana","type":"uint256"},{"internalType":"uint256","name":"playerHealth","type":"uint256"},{"internalType":"bool","name":"inBattle","type":"bool"}],"internalType":"struct AVAXGods.Player[]","name":"","type":"tuple[]"}],"stateMutability":"view","type":"function"},{"inputs":[{"internalType":"string","name":"_name","type":"string"}],"name":"getBattle","outputs":[{"components":[{"internalType":"enum AVAXGods.BattleStatus","name":"battleStatus","type":"uint8"},{"internalType":"bytes32","name":"battleHash","type":"bytes32"},{"internalType":"string","name":"name","type":"string"},{"internalType":"address[2]","name":"players","type":"address[2]"},{"internalType":"uint8[2]","name":"moves","type":"uint8[2]"},{"internalType":"address","name":"winner","type":"address"}],"internalType":"struct AVAXGods.Battle","name":"","type":"tuple"}],"stateMutability":"view","type":"function"},{"inputs":[{"internalType":"string","name":"_battleName","type":"string"}],"name":"getBattleMoves","outputs":[{"internalType":"uint256","name":"P1Move","type":"uint256"},{"internalType":"uint256","name":"P2Move","type":"uint256"}],"stateMutability":"view","type":"function"},{"inputs":[{"internalType":"address","name":"addr","type":"address"}],"name":"getPlayer","outputs":[{"components":[{"internalType":"address","name":"playerAddress","type":"address"},{"internalType":"string","name":"playerName","type":"string"},{"internalType":"uint256","name":"playerMana","type":"uint256"},{"internalType":"uint256","name":"playerHealth","type":"uint256"},{"internalType":"bool","name":"inBattle","type":"bool"}],"internalType":"struct AVAXGods.Player","name":"","type":"tuple"}],"stateMutability":"view","type":"function"},{"inputs":[{"internalType":"address","name":"addr","type":"address"}],"name":"getPlayerToken","outputs":[{"components":[{"internalType":"string","name":"name","type":"string"},{"internalType":"uint256","name":"id","type":"uint256"},{"internalType":"uint256","name":"attackStrength","type":"uint256"},{"internalType":"uint256","name":"defenseStrength","type":"uint256"}],"internalType":"struct AVAXGods.GameToken","name":"","type":"tuple"}],"stateMutability":"view","type":"function"},{"inputs":[],"name":"getTotalSupply","outputs":[{"internalType":"uint256","name":"","type":"uint256"}],"stateMutability":"view","type":"function"},{"inputs":[{"internalType":"address","name":"account","type":"address"},{"internalType":"address","name":"operator","type":"address"}],"name":"isApprovedForAll","outputs":[{"internalType":"bool","name":"","type":"bool"}],"stateMutability":"view","type":"function"},{"inputs":[{"internalType":"string","name":"_name","type":"string"}],"name":"isBattle","outputs":[{"internalType":"bool","name":"","type":"bool"}],"stateMutability":"view","type":"function"},{"inputs":[{"internalType":"address","name":"addr","type":"address"}],"name":"isPlayer","outputs":[{"internalType":"bool","name":"","type":"bool"}],"stateMutability":"view","type":"function"},{"inputs":[{"internalType":"address","name":"addr","type":"address"}],"name":"isPlayerToken","outputs":[{"internalType":"bool","name":"","type":"bool"}],"stateMutability":"view","type":"function"},{"inputs":[{"internalType":"string","name":"_name","type":"string"}],"name":"joinBattle","outputs":[{"components":[{"internalType":"enum AVAXGods.BattleStatus","name":"battleStatus","type":"uint8"},{"internalType":"bytes32","name":"battleHash","type":"bytes32"},{"internalType":"string","name":"name","type":"string"},{"internalType":"address[2]","name":"players","type":"address[2]"},{"internalType":"uint8[2]","name":"moves","type":"uint8[2]"},{"internalType":"address","name":"winner","type":"address"}],"internalType":"struct AVAXGods.Battle","name":"","type":"tuple"}],"stateMutability":"nonpayable","type":"function"},{"inputs":[],"name":"owner","outputs":[{"internalType":"address","name":"","type":"address"}],"stateMutability":"view","type":"function"},{"inputs":[{"internalType":"address","name":"","type":"address"}],"name":"playerInfo","outputs":[{"internalType":"uint256","name":"","type":"uint256"}],"stateMutability":"view","type":"function"},{"inputs":[{"internalType":"address","name":"","type":"address"}],"name":"playerTokenInfo","outputs":[{"internalType":"uint256","name":"","type":"uint256"}],"stateMutability":"view","type":"function"},{"inputs":[{"internalType":"uint256","name":"","type":"uint256"}],"name":"players","outputs":[{"internalType":"address","name":"playerAddress","type":"address"},{"internalType":"string","name":"playerName","type":"string"},{"internalType":"uint256","name":"playerMana","type":"uint256"},{"internalType":"uint256","name":"playerHealth","type":"uint256"},{"internalType":"bool","name":"inBattle","type":"bool"}],"stateMutability":"view","type":"function"},{"inputs":[{"internalType":"string","name":"_battleName","type":"string"}],"name":"quitBattle","outputs":[],"stateMutability":"nonpayable","type":"function"},{"inputs":[{"internalType":"string","name":"_name","type":"string"},{"internalType":"string","name":"_gameTokenName","type":"string"}],"name":"registerPlayer","outputs":[],"stateMutability":"nonpayable","type":"function"},{"inputs":[],"name":"renounceOwnership","outputs":[],"stateMutability":"nonpayable","type":"function"},{"inputs":[{"internalType":"address","name":"from","type":"address"},{"internalType":"address","name":"to","type":"address"},{"internalType":"uint256[]","name":"ids","type":"uint256[]"},{"internalType":"uint256[]","name":"amounts","type":"uint256[]"},{"internalType":"bytes","name":"data","type":"bytes"}],"name":"safeBatchTransferFrom","outputs":[],"stateMutability":"nonpayable","type":"function"},{"inputs":[{"internalType":"address","name":"from","type":"address"},{"internalType":"address","name":"to","type":"address"},{"internalType":"uint256","name":"id","type":"uint256"},{"internalType":"uint256","name":"amount","type":"uint256"},{"internalType":"bytes","name":"data","type":"bytes"}],"name":"safeTransferFrom","outputs":[],"stateMutability":"nonpayable","type":"function"},{"inputs":[{"internalType":"address","name":"operator","type":"address"},{"internalType":"bool","name":"approved","type":"bool"}],"name":"setApprovalForAll","outputs":[],"stateMutability":"nonpayable","type":"function"},{"inputs":[{"internalType":"string","name":"newuri","type":"string"}],"name":"setURI","outputs":[],"stateMutability":"nonpayable","type":"function"},{"inputs":[{"internalType":"bytes4","name":"interfaceId","type":"bytes4"}],"name":"supportsInterface","outputs":[{"internalType":"bool","name":"","type":"bool"}],"stateMutability":"view","type":"function"},{"inputs":[{"internalType":"uint256","name":"tokenId","type":"uint256"}],"name":"tokenURI","outputs":[{"internalType":"string","name":"","type":"string"}],"stateMutability":"view","type":"function"},{"inputs":[],"name":"totalSupply","outputs":[{"internalType":"uint256","name":"","type":"uint256"}],"stateMutability":"view","type":"function"},{"inputs":[{"internalType":"uint256","name":"id","type":"uint256"}],"name":"totalSupply","outputs":[{"internalType":"uint256","name":"","type":"uint256"}],"stateMutability":"view","type":"function"},{"inputs":[{"internalType":"address","name":"newOwner","type":"address"}],"name":"transferOwnership","outputs":[],"stateMutability":"nonpayable","type":"function"},{"inputs":[{"internalType":"uint256","name":"","type":"uint256"}],"name":"uri","outputs":[{"internalType":"string","name":"","type":"string"}],"stateMutability":"view","type":"function"}],"evm":{"bytecode":{"linkReferences":{},"object":"60806040523462000aad5762004fc0803803806200001d8162000af2565b92833981019060208183031262000aad578051906001600160401b03821162000aad570181601f8201121562000aad578051906001600160401b038211620007355762000074601f8301601f191660200162000af2565b928284526020838301011162000aad5760005b82811062000a9757600083850160200152835184906001600160401b0381116200073557600254600181811c9116801562000a8c575b60208210146200071457601f811162000a4a575b50806020601f8211600114620009d257600091620009c6575b508160011b916000199060031b1c1916176002555b60038054336001600160a01b0319821681179092556001600160a01b03167f8be0079c531659141344cd1fd0a4f28419497f9722a3daafe3b4186f6b6457e0600080a380516001600160401b0381116200073557600554600181811c91168015620009bb575b60208210146200071457601f811162000984575b50602091601f82116001146200091a579181926000926200090e575b50508160011b916000199060031b1c1916176005555b604051608081016001600160401b038111828210176200073557604052620001d262000ad2565b6000815281526020810190600082526040810160008152606082019060008252600b546801000000000000000081101562000735576001810180600b558110156200076157600b600052925180519460029490941b7f0175b7a638427703f0dbe7bb9bbf987a2551717b34e79f33b5b1008d1fa01db90193906001600160401b03861162000735578454600181811c9116801562000903575b60208210146200071457601f8111620008cd575b50602090601f87116001146200085e579580916003969760009262000852575b50508160011b9160001990871b1c19161785555b5160018501555160028401555191015560405160a081016001600160401b03811182821017620007355760405260008152620002ee62000ad2565b600081526020820152600060408201526000606082015260006080820152600a54906801000000000000000082101562000735576001820180600a558210156200076157600a6000528051600583027fc65a7bb8d6351c1cf70c95a316cc6a92839c986682d98bc35f958f4883f9d2a890810180546001600160a01b0319166001600160a01b039390931692909217909155602082015180519093906001600160401b038111620007355760016005830284010154600181811c9116801562000847575b60208210146200071457601f811162000809575b506020601f821160011462000783579181600592600495946080979860009262000777575b50508160011b916000199060031b1c1916176001838302850101555b60408601516002838302850101556060860151600383830285010155020101910151151560ff801983541691161790556200044162000ab2565b60008152600060208201526200045662000ab2565b60008082526020820152604051916001600160401b0360c0840190811190841117620007355760c0830160405260008352600060208401526200049862000ad2565b60008152604084015260608301526080820152600060a0820152600c54906801000000000000000082101562000735576001820180600c558210156200076157600c60005280517fdf6966c971051c3d54ec59162606531493a51404a002842f56009d7e5cf4a8c79060038110156200074b57600784028201805460ff191660ff929092169190911781556020830151600182015560408301518051600290920191906001600160401b0382116200073557825490600182811c921680156200072a575b6020831014620007145781601f849311620006d2575b50602090601f831160011462000667576000926200065b575b50508160011b916000199060031b1c19161790555b606082015160005b6002811062000635575050608082015192600093845b600281106200060d576007830284016005810187905560a086015160069190910180546001600160a01b0319166001600160a01b039290921691909117905560405161446e908162000b328239f35b9094602060019160ff885116908460031b60ff811b9283911b169119161796019101620005be565b81516001600160a01b0316600360078702850183010155602090910190600101620005a8565b0151905086806200058b565b6000858152602081209350601f198516905b818110620006b957509084600195949392106200069f575b505050811b019055620005a0565b015160001960f88460031b161c1916905586808062000691565b9293602060018192878601518155019501930162000679565b6200070290856000526020600020601f850160051c8101916020861062000709575b601f0160051c019062000b18565b8762000572565b9091508190620006f4565b634e487b7160e01b600052602260045260246000fd5b91607f16916200055c565b634e487b7160e01b600052604160045260246000fd5b634e487b7160e01b600052602160045260246000fd5b634e487b7160e01b600052603260045260246000fd5b015190508880620003eb565b60016005840285010160005260206000209560005b601f1984168110620007f0575082608096976004969593600193600596601f19811610620007d6575b505050811b0160018383028501015562000407565b015160001960f88460031b161c19169055888080620007c1565b8282015188556001909701966020928301920162000798565b62000840906001600585028601016000526020600020601f840160051c810191602085106200070957601f0160051c019062000b18565b85620003c6565b90607f1690620003b2565b0151905087806200029f565b90601f198716918660005260206000209260005b818110620008b457509160019391896003999a94106200089b575b505050811b018555620002b3565b015160001983891b60f8161c191690558780806200088d565b9293602060018192878601518155019501930162000872565b620008fc90866000526020600020601f890160051c81019160208a106200070957601f0160051c019062000b18565b866200027f565b90607f16906200026b565b01519050828062000195565b601f19821692600560005260206000209160005b8581106200096b5750836001951062000951575b505050811b01600555620001ab565b015160001960f88460031b161c1916905582808062000942565b919260206001819286850151815501940192016200092e565b620009b49060056000526020600020601f840160051c810191602085106200070957601f0160051c019062000b18565b8262000179565b90607f169062000165565b905082015183620000ea565b6002600090815260008051602062004fa08339815191529250601f198416905b81811062000a315750908360019493921062000a17575b5050811b01600255620000ff565b84015160001960f88460031b161c19169055838062000a09565b91926020600181928689015181550194019201620009f2565b600260005262000a859060008051602062004fa0833981519152601f840160051c810191602085106200070957601f0160051c019062000b18565b82620000d1565b90607f1690620000bd565b8060208092840101518282870101520162000087565b600080fd5b60408051919082016001600160401b038111838210176200073557604052565b60405190602082016001600160401b038111838210176200073557604052565b6040519190601f01601f191682016001600160401b038111838210176200073557604052565b81811062000b24575050565b6000815560010162000b1856fe6080604052600436101561001257600080fd5b60003560e01c8062fdd58e14612ddb578063015a379214612cf257806301ffc9a714612c8457806302fe530514612b5b5780630677aa4e14612b3f57806309c95e1014612b1c5780630daea2cd14612b005780630e89341c14612a4f57806310898e4c14612a175780631107ae3d146129dd57806316801d171461299357806318160ddd146109da5780632711162e146129595780632ca04522146127dc5780632eb2c2d61461239b5780633835e2b51461233f5780634b114691146123055780634e1273f4146121675780634f558e79146121395780635c12cd4b146121015780635c93fc3d14612018578063606d2e9614611f915780636c0360eb14611eaf578063703730a514611e93578063715018a614611e36578063845f433b14611b625780638da5cb5b14611b39578063996d7bea14611a665780639b09cc8714611a105780639e4ecd11146119f45780639ec40aa3146119bc578063a1b4f57c146117a2578063a22cb465146116b5578063ba27495614610ae0578063bd85b03914610ab4578063bf034b6914610a25578063bf103a4d146109f8578063c4e41b22146109da578063c87b56dd146108ce578063d2198cc5146108b2578063de96cefc14610896578063e985e9c514610840578063efa1c48214610757578063f1da73391461073b578063f242432a14610372578063f2fde38b146102af5763f71d96cb1461022057600080fd5b346102aa5760203660031901126102aa57600435600a548110156102aa57600a6000526005602060002091020160018060a01b03815416610263600183016131bd565b9160028101549060ff600460038301549201541690610294604051958695865260a0602087015260a0860190612e59565b9260408501526060840152151560808301520390f35b600080fd5b346102aa5760203660031901126102aa576102c8612e0a565b6102d06132a1565b6001600160a01b0390811690811561031e57600380546001600160a01b031981168417909155167f8be0079c531659141344cd1fd0a4f28419497f9722a3daafe3b4186f6b6457e0600080a3005b60405162461bcd60e51b815260206004820152602660248201527f4f776e61626c653a206e6577206f776e657220697320746865207a65726f206160448201526564647265737360d01b6064820152608490fd5b346102aa5760a03660031901126102aa5761038b612e0a565b610393612e20565b90608480356001600160401b0381116102aa576103b4903690600401612f5a565b6001600160a01b03919083831633148015610710575b6103d3906133c4565b828516156103e18115613427565b6103ec60443561363a565b6103f760643561363a565b91858716156106b0575b6105f0575b50506044356000526020946000865260406000208486166000528652604060002054610436606435821015613481565b604435600052600087526040600020858716600052875260643590036040600020556044356000526000865260406000208482166000528652604060002061048160643582546134e0565b905560405160443581526064358782015284821690858716907fc3d58168c5ae7397731d063d5bbf3d657854427343f4c083240f7aacaa2d0f6260403392a4803b6104c857005b60a06000610512958895604051978896879586938563f23a6e6160e01b9d8e87523360048801521660248601526044356044860152606435606486015284015260a4830190612e59565b0393165af1600091816105c1575b50610597575050600190610532613556565b6308c379a014610562575b50610545575b005b60405162461bcd60e51b81528061055e600482016135e5565b0390fd5b61056a613574565b9081610576575061053d565b61055e60405192839262461bcd60e51b845260048401526024830190612e59565b6001600160e01b0319161490506105435760405162461bcd60e51b81528061055e6004820161350d565b6105e2919250843d86116105e9575b6105da8183612f1e565b8101906134ed565b9084610520565b503d6105d0565b92959194909360005b84518110156106a15761060c81866133b0565b519061061881886133b0565b5182600052600460205260406000205481811061064c576106479360005260046020520360406000205561337e565b6105f9565b60405162461bcd60e51b815260206004820152602860248201527f455243313135353a206275726e20616d6f756e74206578636565647320746f74604482015267616c537570706c7960c01b60648201528b90fd5b50935093909491508580610406565b959260009794919592975b865181101561070257806106d26106fd928b6133b0565b516106dd828a6133b0565b5160005260046020526106f660406000209182546134e0565b905561337e565b6106bb565b509295969194909396610401565b5082841660005260016020526040600020336000526020526103d360ff6040600020541690506103ca565b346102aa5760003660031901126102aa57602060405160048152f35b346102aa5760003660031901126102aa57600a546107748161305d565b906107826040519283612f1e565b808252600a6000908152602091828401917fc65a7bb8d6351c1cf70c95a316cc6a92839c986682d98bc35f958f4883f9d2a8835b83831061081d5750505050604051918083019381845251809452604083019360408160051b85010192916000955b8287106107f15785850386f35b90919293828061080d600193603f198a82030186528851613106565b96019201960195929190926107e4565b60058660019261082f859a999a61367c565b8152019201920191909594956107b6565b346102aa5760403660031901126102aa57610859612e0a565b610861612e20565b9060018060a01b03809116600052600160205260406000209116600052602052602060ff604060002054166040519015158152f35b346102aa5760003660031901126102aa57602060405160018152f35b346102aa5760003660031901126102aa57602060405160008152f35b346102aa576020806003193601126102aa576108eb600435614350565b9060405191826000916005549261090184613183565b6001948686821691826000146109b5575050600114610973575b509264173539b7b760d91b6006939285602f60f81b61095b9752610947825180938a8785019101612e36565b019182015203601919810185520183612f1e565b61096f604051928284938452830190612e59565b0390f35b8591506005600052816000206000905b82821061099d57505083010164173539b7b760d91b61091b565b80548983018501528895508793909101908601610983565b60ff1916818701528215159092028501909101915064173539b7b760d91b905061091b565b346102aa5760003660031901126102aa576020600654604051908152f35b346102aa5760203660031901126102aa576020610a1b610a16612e0a565b61376c565b6040519015158152f35b346102aa5760203660031901126102aa57600435600b548110156102aa57600b600052610aa09060021b7f0175b7a638427703f0dbe7bb9bbf987a2551717b34e79f33b5b1008d1fa01db901610a7a816131bd565b906001810154906003600282015491015490604051948594608086526080860190612e59565b926020850152604084015260608301520390f35b346102aa5760203660031901126102aa5760043560005260046020526020604060002054604051908152f35b346102aa5760403660031901126102aa5760043560ff81168091036102aa5760249081356001600160401b0381116102aa57610b20903690600401612f5a565b90610b2a826139af565b8051600381101561162c57600103611641578051600381101561162c576002146115ed576060810190815160018060a01b0381511633149081156115d6575b501561159257608001518151516001600160a01b0316330361158a576000905b600260ff8316101561148657611fe060ff9260051b160151166115465751516001600160a01b0316330361153f5760005b60018214808015611535575b156114f157156114ea5760036040610bdd336136cc565b015110155b1561149b5760405191610c1384519360208181880196610c0381838a612e36565b810160098152030190205461314e565b5090600260ff8416101561148657601f6005610c4993600786831c160101931683549060031b60ff811b9283911b169119161790565b90556080610c56836139af565b0180515160ff1661147d5760ff60005b166002039060ff821161120057516020015160ff166114735760ff8060005b1691160360ff81116111205760ff16906001820361146857610cb56001915b604051809281928751928391612e36565b8101039020901515907f54b82b77e7ae55a8e6c9e89deba70c7191dea2a3b08ae647b380e9f981d6a0f8600080a315610cea57005b610cf3906139af565b606081015180516001600160a01b03163314908115611451575b50156113f957608081015160ff815116151590816113e8575b501561139a5760018060a01b0360608201515116600052600760205260406000205460ff608083015151166060610d6860018060a01b038286015151166136cc565b0151606084015151604090610d85906001600160a01b03166137f0565b015160608581015151919291610da3906001600160a01b03166137f0565b01519260405194610db386612ee8565b8552602085015260408401526060830152608082015260018060a01b0360206060840151015116600052600760205260406000205460ff602060808501510151166060610e0e60018060a01b036020838801510151166136cc565b0151606085015160200151604090610e2e906001600160a01b03166137f0565b015160608681015160200151919291610e4f906001600160a01b03166137f0565b01519260405194610e5f86612ee8565b8552602085015260408401526060830152608082015260405191610e8283612eb2565b60008352600060208401528260208201516001811480809161138c575b1561114a57505050606081015160408301511161106f575050606082015151610ed29083906001600160a01b03166141ed565b505b604051906000825b6002821061104f5750505060407fc6bf860cbc15f7020f73993a671f01bbb1831a8a7a12c126ca735eb632e7577591a160006080820151526000602060808301510152610f2d816040810151614183565b606081015151610f45906001600160a01b0316613f67565b60018060a01b03606083015151166000526008602052806002610f6c604060002054613263565b500155600a03600a811161103a5760018060a01b036060830151511660005260086020526003610fa0604060002054613263565b500155606081015160200151610fbe906001600160a01b0316613f67565b60018060a01b03602060608401510151166000526008602052806002610fe8604060002054613263565b500155600a0391600a831161102657506020606060018060a01b0392015101511660005260086020526003611021604060002054613263565b500155005b634e487b7160e01b60009081526011600452fd5b82634e487b7160e01b60005260116004526000fd5b82516001600160a01b031681526020928301926001929092019101610edc565b6060820151604082015181106110a55750505060608201516020015161109f9083906001600160a01b03166141ed565b50610ed4565b6002929350906110e6916110c860036110be8451613282565b5001918254613f5a565b905560608101516110de60036110be8751613282565b905551613282565b50018054600219928382019291831161113557600292611107925551613282565b5001805491820191821161112057556060810151610ed4565b83634e487b7160e01b60005260116004526000fd5b85634e487b7160e01b60005260116004526000fd5b8061137e575b15611238575061116960408401516080850151906134e0565b6060830151909290918383106111985750505060608401515161109f92508491506001600160a01b03166141ed565b6002936111cb93806080880151116000146112155750505060408401515b60036111c28651613282565b50015551613282565b50018054600219810192908311611135576002926111ea925551613282565b5001805490600382018092116112005755610ed4565b84634e487b7160e01b60005260116004526000fd5b61121e91613f5a565b6060880151602001516001600160a01b03169091526111b6565b6002148080611370575b1561130c575061125b60408301516080840151906134e0565b60608401519092909183831061128d5750505060608401516020015161109f92508491506001600160a01b03166141ed565b6002936112b793806080850151116000146112ec5750505060408101515b60036111c28351613282565b500180549160038301809311611135576002926112d5925551613282565b500180546002198101919082116112005755610ed4565b6112f591613f5a565b6060880151516001600160a01b03169091526112ab565b905080611362575b611320575b5050610ed4565b61132c60029151613282565b5001805491600383018093116111355760029261134a925551613282565b50018054906003820180921161120057558380611319565b506002602083015114611314565b506001602085015114611242565b506002602085015114611150565b506001602086015114610e9f565b60405162461bcd60e51b8152602060048201526021818401527f506c6179657273207374696c6c206e65656420746f206d616b652061206d6f766044820152606560f81b6064820152608490fd5b60ff91506020015116151583610d26565b60405162461bcd60e51b815260206004820152602b818401527f4f6e6c7920706c617965727320696e207468697320626174746c652063616e2060448201526a6d616b652061206d6f766560a81b6064820152608490fd5b602001516001600160a01b03163314905083610d0d565b610cb5600091610ca4565b60ff806001610c85565b60ff6001610c66565b85634e487b7160e01b60005260326004526000fd5b60405162461bcd60e51b8152602060048201526022818601527f4d616e61206e6f742073756666696369656e7420666f722061747461636b696e604482015261672160f01b6064820152608490fd5b6001610be2565b60405162461bcd60e51b815260206004820152601f818701527f43686f6963652073686f756c64206265206569746865722031206f72203221006044820152606490fd5b5060028314610bc6565b6001610bba565b60405162461bcd60e51b815260206004820152601d818601527f596f75206861766520616c7265616479206d6164652061206d6f7665210000006044820152606490fd5b600190610b89565b60405162461bcd60e51b815260206004820152601a818701527f596f7520617265206e6f7420696e207468697320626174746c650000000000006044820152606490fd5b602001516001600160a01b03163314905086610b69565b60405162461bcd60e51b8152602060048201526018818601527710985d1d1b19481a185cc8185b1c9958591e48195b99195960421b6044820152606490fd5b84634e487b7160e01b60005260216004526000fd5b60405162461bcd60e51b8152602060048201526041818601527f426174746c65206e6f7420737461727465642e20506c656173652074656c6c2060448201527f616e6f7468657220706c6179657220746f206a6f696e2074686520626174746c6064820152606560f81b608482015260a490fd5b346102aa5760403660031901126102aa576116ce612e0a565b60243590811515908183036102aa576001600160a01b03169133831461174b5761171d9033600052600160205260406000208460005260205260406000209060ff801983541691151516179055565b6040519081527f17307eab39ab6107e8899845ad3d59bd9653f200f220920489ca2b5937696c3160203392a3005b60405162461bcd60e51b815260206004820152602960248201527f455243313135353a2073657474696e6720617070726f76616c20737461747573604482015268103337b91039b2b63360b91b6064820152608490fd5b346102aa576020806003193601126102aa576004356001600160401b0381116102aa576117d3903690600401612f5a565b906117dc6138a0565b506117e6826139af565b91825160038110156119a657611967576060830180515190916001600160a01b03918216331461191857608061181b336136cc565b01516118df57846118359160018252338686510152614183565b8082515116600052600783526004611851604060002054613282565b500160ff1990600182825416179055818484510151166000526007845260016004611880604060002054613282565b5001918254161790556040840151915151167f024187b16c217a79f8d8e6252b542ec6e278fa91304acd9cfd866f2bbf00bd08604051848152806118c8339587830190612e59565b0390a361096f604051928284938452830190612fae565b60405162461bcd60e51b8152600481018590526011602482015270416c726561647920696e20626174746c6560781b6044820152606490fd5b60405162461bcd60e51b815260048101859052602160248201527f4f6e6c7920706c617965722074776f2063616e206a6f696e206120626174746c6044820152606560f81b6064820152608490fd5b60405162461bcd60e51b8152600481018390526017602482015276426174746c6520616c726561647920737461727465642160481b6044820152606490fd5b634e487b7160e01b600052602160045260246000fd5b346102aa5760203660031901126102aa576004356001600160401b0381116102aa576119ef610543913690600401612f5a565b613a8b565b346102aa5760003660031901126102aa57602060405160058152f35b346102aa5760203660031901126102aa576004356001600160401b0381116102aa576080611a4c611a476040933690600401612f5a565b6139af565b015160ff6020818351169201511682519182526020820152f35b346102aa5760203660031901126102aa576004356001600160401b0381116102aa57611a47611a99913690600401612f5a565b6060810190815160018060a01b0390818151163314908115611b29575b5015611ae4578251518116338103611ad85750602061054393510151166141ed565b905061054392506141ed565b60405162461bcd60e51b815260206004820152601b60248201527f596f7520617265206e6f7420696e207468697320626174746c652100000000006044820152606490fd5b6020015182163314905084611ab6565b346102aa5760003660031901126102aa576003546040516001600160a01b039091168152602090f35b346102aa5760403660031901126102aa576001600160401b036004358181116102aa57611b93903690600401612f5a565b6024358281116102aa57611bab903690600401612f5a565b611bb43361365f565b611df557600a54604051611bc781612ee8565b338152602081019084825260408101600a815260608201906019825260006080840152600160401b851015611dc95760018501600a55611c0685613282565b949094611ddf57835185546001600160a01b0319166001600160a01b039190911617855551805190988111611dc957611c426001860154613183565b601f8111611d89575b506020601f8211600114611d0b579260809282611caf979693600496611cc39c9d600092611d00575b50508160011b916000199060031b1c19161760018701555b5160028601555160038501550151151591019060ff801983541691151516179055565b336000526007602052604060002055613a8b565b7f81ef79d1cda814a60c0fc60792e648a06d9c6bae67176346d1cc8b63030bfccd6040516020815280611cfb33946020830190612e59565b0390a2005b015190508d80611c74565b6001860160005260206000209960005b601f1984168110611d71575092600183611cc39b9c60049794608097611caf9b9a97601f19811610611d58575b505050811b016001870155611c8c565b015160001960f88460031b161c191690558d8080611d48565b828201518c556001909b019a60209283019201611d1b565b611db990600187016000526020600020601f840160051c81019160208510611dbf575b601f0160051c0190613a28565b89611c4b565b9091508190611dac565b634e487b7160e01b600052604160045260246000fd5b634e487b7160e01b600052600060045260246000fd5b60405162461bcd60e51b8152602060048201526019602482015278141b185e595c88185b1c9958591e481c9959da5cdd195c9959603a1b6044820152606490fd5b346102aa5760003660031901126102aa57611e4f6132a1565b600380546001600160a01b031981169091556000906001600160a01b03167f8be0079c531659141344cd1fd0a4f28419497f9722a3daafe3b4186f6b6457e08280a3005b346102aa5760003660031901126102aa57602060405160028152f35b346102aa5760003660031901126102aa57604051600090600554611ed281613183565b808352600191808316908115611f695750600114611f0f575b61096f83611efb81870382612f1e565b604051918291602083526020830190612e59565b6005600090815260209450917f036b6384b5eca791c62761152d0c79bb0604c104a5fb6f4eb0703f3154bb3db05b828410611f5657505050810190910190611efb81611eeb565b8054858501870152928501928101611f3d565b61096f9550611efb93506020915091849260ff191682840152151560051b8201019350611eeb565b346102aa5760203660031901126102aa57600435600c548110156102aa57611ff890600c6000526007602060002091020160ff8154169061200e600182015491611fdd600282016131bd565b90600660018060a01b03910154169260405195868096612fa1565b6020850152608060408501526080840190612e59565b9060608301520390f35b346102aa5760003660031901126102aa57600c546120358161305d565b906120436040519283612f1e565b808252600c6000908152602091828401917fdf6966c971051c3d54ec59162606531493a51404a002842f56009d7e5cf4a8c7835b8383106120de5750505050604051918083019381845251809452604083019360408160051b85010192916000955b8287106120b25785850386f35b9091929382806120ce600193603f198a82030186528851612fae565b96019201960195929190926120a5565b6007866001926120f0859a999a6138ef565b815201920192019190959495612077565b346102aa5760203660031901126102aa5761096f612125612120612e0a565b6136cc565b604051918291602083526020830190613106565b346102aa5760203660031901126102aa57600435600052600460205260206040600020541515604051908152f35b346102aa5760403660031901126102aa576004356001600160401b038082116102aa57366023830112156102aa578160040135906121a48261305d565b926121b26040519485612f1e565b82845260209260248486019160051b830101913683116102aa57602401905b8282106122e6575050506024359081116102aa576121f3903690600401613074565b825181510361228f578251926122088461305d565b936122166040519586612f1e565b808552612225601f199161305d565b01368486013760005b815181101561227857612273906122636001600160a01b0361225083866133b0565b511661225c83876133b0565b51906132f9565b61226d82886133b0565b5261337e565b61222e565b50505061096f6040519282849384528301906130d2565b60405162461bcd60e51b815260048101839052602960248201527f455243313135353a206163636f756e747320616e6420696473206c656e677468604482015268040dad2e6dac2e8c6d60bb1b6064820152608490fd5b81356001600160a01b03811681036102aa5781529084019084016121d1565b346102aa5760203660031901126102aa576001600160a01b03612326612e0a565b1660005260076020526020604060002054604051908152f35b346102aa5760203660031901126102aa576004356001600160401b0381116102aa57612388602061237581933690600401612f5a565b8160405193828580945193849201612e36565b8101600981520301902054604051908152f35b346102aa5760031960a0368201126102aa576123b5612e0a565b906123be612e20565b906001600160401b03604480358281116102aa576123e0903690600401613074565b9060649081358481116102aa576123fb903690600401613074565b9460849485359081116102aa57612416903690600401612f5a565b6001600160a01b0398891698909190338a1480156127b3575b612438906133c4565b85518851036127605788169586156124508115613427565b8a1561271d575b612658575b60005b86518110156124ef57806124766124ea92896133b0565b518c612482838d6133b0565b51918060005282602092600084526040600020816000528452604060002054906124ae83831015613481565b8360005260008552604060002090600052845203604060002055600052600081526040600020908b600052526106f660406000209182546134e0565b61245f565b5090919293968998878a604051604081527f4a39dc06d4c0dbc64b70af90fd698a233a518aa5d07e595d983b8c0526c8f7fb61252e604083018c6130d2565b918083036020820152806125433394896130d2565b0390a43b61254d57005b604051978896879663bc197c8160e01b9b8c89523360048a01526024890152870160a0905260a4870161257f916130d2565b90848783030190870152612592916130d2565b9184830301908401526125a491612e59565b03815a602094600091f160009181612638575b5061261057505060016125c8613556565b6308c379a0146125d9575b61054557005b6125e1613574565b806125ec57506125d3565b60405162461bcd60e51b81526020600482015290819061055e906024830190612e59565b6001600160e01b031916146105435760405162461bcd60e51b81528061055e6004820161350d565b61265191925060203d81116105e9576105da8183612f1e565b90836125b7565b96949398929590979160005b855181101561270e5761267781876133b0565b5161268282896133b0565b519080600052602060048152604060002054918383106126bb576126b694939291600491600052520360406000205561337e565b612664565b508b9067616c537570706c7960c01b8f7f455243313135353a206275726e20616d6f756e74206578636565647320746f748e6040519462461bcd60e51b8652600486015260286024860152840152820152fd5b5091979095929893949661245c565b98959996949392919060005b8b5181101561275157808c6106dd8261274561274c958f6133b0565b51926133b0565b612729565b50909192939496999598612457565b60405162461bcd60e51b815260206004820152602860248201527f455243313135353a2069647320616e6420616d6f756e7473206c656e6774682081860152670dad2e6dac2e8c6d60c31b818701528790fd5b5089600052600160205260406000203360005260205261243860ff60406000205416905061242f565b346102aa576020806003193601126102aa576004356001600160401b0381116102aa5761280d903690600401612f5a565b906128166138a0565b506128286128233361365f565b613a3f565b6128318261386f565b61291c57806040518181019082825261285f816128516040820188612e59565b03601f198101835282612f1e565b5190209260405161286f81612eb2565b3381526000838201526040519061288582612eb2565b600082526000848301526040519561289c87612ecd565b600087528487015282604087015260608601526080850152600060a08501526128d7600c549283928160405193828580945193849201612e36565b8101600981520301902055600160401b811015611dc957826129028260016129089401600c5561314e565b90613fb3565b61096f604051928284938452830190612fae565b6064906040519062461bcd60e51b825260048201526016602482015275426174746c6520616c7265616479206578697374732160501b6044820152fd5b346102aa5760203660031901126102aa576001600160a01b0361297a612e0a565b1660005260086020526020604060002054604051908152f35b346102aa5760203660031901126102aa576004356001600160401b0381116102aa576129c9611a4761096f923690600401612f5a565b604051918291602083526020830190612fae565b346102aa5760203660031901126102aa576004356001600160401b0381116102aa57610a1b612a126020923690600401612f5a565b61386f565b346102aa5760203660031901126102aa5761096f612a3b612a36612e0a565b6137f0565b604051918291602083526020830190612e7e565b346102aa576020806003193601126102aa576040519060008260025491612a7583613183565b92838352600190858282169182600014612ae0575050600114612aa0575b5061095b92500383612f1e565b849150600260005281600020906000915b858310612ac857505061095b935082010185612a93565b80548389018501528794508693909201918101612ab1565b60ff19168582015261095b95151560051b8501019250879150612a939050565b346102aa5760003660031901126102aa576020604051600a8152f35b346102aa5760203660031901126102aa576020610a1b612b3a612e0a565b61365f565b346102aa5760003660031901126102aa57602060405160038152f35b346102aa576020806003193601126102aa576001600160401b036004358181116102aa57612b8d903690600401612f5a565b91612b966132a1565b8251918211611dc957612baa600254613183565b601f8111612c53575b5080601f8311600114612bef57508192600092612be4575b5050600019600383901b1c191660019190911b17600255005b015190508280612bcb565b90601f19831693600260005282600020926000905b868210612c3b5750508360019510612c22575b505050811b01600255005b015160001960f88460031b161c19169055828080612c17565b80600185968294968601518155019501930190612c04565b612c7e90600260005282600020601f850160051c810191848610611dbf57601f0160051c0190613a28565b83612bb3565b346102aa5760203660031901126102aa5760043563ffffffff60e01b81168091036102aa57602090636cdb3d1360e11b8114908115612ce1575b8115612cd0575b506040519015158152f35b6301ffc9a760e01b14905082612cc5565b6303a24d0760e21b81149150612cbe565b346102aa5760003660031901126102aa57600b54612d0f8161305d565b90612d1d6040519283612f1e565b808252600b6000908152602091828401917f0175b7a638427703f0dbe7bb9bbf987a2551717b34e79f33b5b1008d1fa01db9835b838310612db85750505050604051918083019381845251809452604083019360408160051b85010192916000955b828710612d8c5785850386f35b909192938280612da8600193603f198a82030186528851612e7e565b9601920196019592919092612d7f565b600486600192612dca859a999a6137b7565b815201920192019190959495612d51565b346102aa5760403660031901126102aa576020612e02612df9612e0a565b602435906132f9565b604051908152f35b600435906001600160a01b03821682036102aa57565b602435906001600160a01b03821682036102aa57565b60005b838110612e495750506000910152565b8181015183820152602001612e39565b90602091612e7281518092818552858086019101612e36565b601f01601f1916010190565b90606080612e958451608085526080850190612e59565b936020810151602085015260408101516040850152015191015290565b604081019081106001600160401b03821117611dc957604052565b60c081019081106001600160401b03821117611dc957604052565b60a081019081106001600160401b03821117611dc957604052565b608081019081106001600160401b03821117611dc957604052565b90601f801991011681019081106001600160401b03821117611dc957604052565b6001600160401b038111611dc957601f01601f191660200190565b81601f820112156102aa57803590612f7182612f3f565b92612f7f6040519485612f1e565b828452602083830101116102aa57816000926020809301838601378301015290565b9060038210156119a65752565b90612fba818351612fa1565b6020918281015183830152612fde6040820151610100806040860152840190612e59565b926060820151606084016000905b836002831061303f5750505050608082015190600060a085015b60028210613027575050505060e09060a0600180821b039101511691015290565b828060019260ff875116815201940191019092613006565b83516001600160a01b03168252928301926001929092019101612fec565b6001600160401b038111611dc95760051b60200190565b81601f820112156102aa5780359161308b8361305d565b926130996040519485612f1e565b808452602092838086019260051b8201019283116102aa578301905b8282106130c3575050505090565b813581529083019083016130b5565b90815180825260208080930193019160005b8281106130f2575050505090565b8351855293810193928101926001016130e4565b9060018060a01b03825116815260808061312f602085015160a0602086015260a0850190612e59565b9360408101516040850152606081015160608501520151151591015290565b600c5481101561316d57600c6000526007602060002091020190600090565b634e487b7160e01b600052603260045260246000fd5b90600182811c921680156131b3575b602083101461319d57565b634e487b7160e01b600052602260045260246000fd5b91607f1691613192565b90604051918260008254926131d184613183565b90818452600194858116908160001461324057506001146131fd575b50506131fb92500383612f1e565b565b9093915060005260209081600020936000915b8183106132285750506131fb935082010138806131ed565b85548884018501529485019487945091830191613210565b9150506131fb94506020925060ff191682840152151560051b82010138806131ed565b600b5481101561316d57600b60005260206000209060021b0190600090565b600a5481101561316d57600a6000526005602060002091020190600090565b6003546001600160a01b031633036132b557565b606460405162461bcd60e51b815260206004820152602060248201527f4f776e61626c653a2063616c6c6572206973206e6f7420746865206f776e65726044820152fd5b6001600160a01b031690811561332657600052600060205260406000209060005260205260406000205490565b60405162461bcd60e51b815260206004820152602a60248201527f455243313135353a2061646472657373207a65726f206973206e6f742061207660448201526930b634b21037bbb732b960b11b6064820152608490fd5b600019811461338d5760010190565b634e487b7160e01b600052601160045260246000fd5b80511561316d5760200190565b805182101561316d5760209160051b010190565b156133cb57565b60405162461bcd60e51b815260206004820152602e60248201527f455243313135353a2063616c6c6572206973206e6f7420746f6b656e206f776e60448201526d195c881bdc88185c1c1c9bdd995960921b6064820152608490fd5b1561342e57565b60405162461bcd60e51b815260206004820152602560248201527f455243313135353a207472616e7366657220746f20746865207a65726f206164604482015264647265737360d81b6064820152608490fd5b1561348857565b60405162461bcd60e51b815260206004820152602a60248201527f455243313135353a20696e73756666696369656e742062616c616e636520666f60448201526939103a3930b739b332b960b11b6064820152608490fd5b9190820180921161338d57565b908160209103126102aa57516001600160e01b0319811681036102aa5790565b60809060208152602860208201527f455243313135353a204552433131353552656365697665722072656a656374656040820152676420746f6b656e7360c01b60608201520190565b60009060033d1161356357565b905060046000803e60005160e01c90565b600060443d106135d157604051600319913d83016004833e81516001600160401b03918282113d6024840111176135d4578184019485519384116135dc573d850101602084870101116135d457506135d192910160200190612f1e565b90565b949350505050565b50949350505050565b60809060208152603460208201527f455243313135353a207472616e7366657220746f206e6f6e2d455243313135356040820152732932b1b2b4bb32b91034b6b83632b6b2b73a32b960611b60608201520190565b6040519061364782612eb2565b600182526020368184013761365b826133a3565b5290565b6001600160a01b0316600090815260076020526040902054151590565b9060405161368981612ee8565b608060ff6004839560018060a01b0381541685526136a9600182016131bd565b602086015260028101546040860152600381015460608601520154161515910152565b60806040516136da81612ee8565b60009181838093526060602082015282604082015282606082015201526137008261365f565b1561372f576001600160a01b039091168152600760205260409020546135d19061372990613282565b5061367c565b60405162461bcd60e51b8152602060048201526015602482015274506c6179657220646f65736e27742065786973742160581b6044820152606490fd5b6001600160a01b031660009081526008602052604090205461378d57600090565b600190565b6040519061379f82612f03565b60006060838181528260208201528260408201520152565b906040516137c481612f03565b6060600382946137d3816131bd565b845260018101546020850152600281015460408501520154910152565b6137f8613792565b506138028161376c565b1561382e5760018060a01b031660005260086020526135d1613828604060002054613263565b506137b7565b60405162461bcd60e51b815260206004820152601960248201527847616d6520746f6b656e20646f65736e27742065786973742160381b6044820152606490fd5b6020613888918160405193828580945193849201612e36565b81016009815203019020541560001461378d57600090565b604090600060a083516138b281612ecd565b809483825283602083015260608183015280516138ce81612eb2565b8136823760608301528051906138e382612eb2565b36823760808201520152565b906040516138fc81612ecd565b809260ff81541660038110156119a6578252600180820154906020918285015260029061392a8285016131bd565b60408601526040519182600386016000915b838310613993575050505050908161395660a09493612eb2565b60608501526040519060ff6005840154818116845260081c169082015261397c81612eb2565b6080840152600601546000196001831b0116910152565b81546001600160a01b031681529184019190840190860161393c565b6139b76138a0565b506139c18161386f565b156139eb576139e5610c0360206135d1938160405193828580945193849201612e36565b506138ef565b60405162461bcd60e51b8152602060048201526015602482015274426174746c6520646f65736e27742065786973742160581b6044820152606490fd5b818110613a33575050565b60008155600101613a28565b15613a4657565b60405162461bcd60e51b815260206004820152601c60248201527f506c6561736520526567697374657220506c61796572204669727374000000006044820152606490fd5b6080613a96336136cc565b0151613f1d57613aa86128233361365f565b613ab0613792565b50613aba33613f67565b80600a0390600a821161338d576040908151602090818101904282523360601b858201526034815260608101966001600160401b0392828910848a1117611dc95760ff60646006928b8a528551902006160660ff8116918215613f07575b60ff9250613b258a612f03565b89521696608082019188835260c060a08201918783520190888252600b5493600160401b851015611dc957600195868601600b55613b6286613263565b959095611ddf57518051918211611dc957613b7d8654613183565b601f8111613ed7575b508890601f8311600114613e6f576003959493929160009183613e64575b505060001982871b1c191690881b1785555b518685015551600284015551910155336000526008835284600020558351613bdd81612eb2565b600381526203078360ec1b838201523315613e1657613bfb8761363a565b82865191613c0883612eb2565b81835285368185013781613c1b846133a3565b526000825b613dd2575b505050508660005260008352846000203360005283528460002080549083820180921161338d575584518781528284820152600033917fc3d58168c5ae7397731d063d5bbf3d657854427343f4c083240f7aacaa2d0f62883392a4333b613cca575b5050613c9460065461337e565b60065582519485528401528201527fca8ab07e9ed17d119729fc652dd24df9d8430ca862dda4631925b5b4b99da36260603392a2565b8451838180613d0863f23a6e6160e01b95868352336004840152600060248401528c604484015287606484015260a0608484015260a4830190612e59565b03816000335af160009181613db3575b50613d8a575050613d27613556565b6308c379a014613d56575b613d3e575b3880613c87565b825162461bcd60e51b81528061055e600482016135e5565b613d5e613574565b80613d695750613d32565b8261055e865192839262461bcd60e51b845260048401526024830190612e59565b6001600160e01b031916149050613d3757825162461bcd60e51b81528061055e6004820161350d565b613dcb919250853d87116105e9576105da8183612f1e565b9038613d18565b8151811015613e115780613de9613e0b92866133b0565b51613df482856133b0565b51600052600489526106f68b6000209182546134e0565b82613c20565b613c25565b845162461bcd60e51b815260048101849052602160248201527f455243313135353a206d696e7420746f20746865207a65726f206164647265736044820152607360f81b6064820152608490fd5b015190503880613ba4565b949392918891601f19821690886000528b6000209160005b8d828210613ec1575050978360039910613ea9575b505050811b018555613bb6565b015160001983891b60f8161c19169055388080613e9c565b838b015185558d96909401939283019201613e87565b613f0190876000528a600020601f850160051c8101918c8610611dbf57601f0160051c0190613a28565b38613b86565b905060ff821461338d57600160ff920190613b18565b60405162461bcd60e51b8152602060048201526015602482015274506c6179657220697320696e206120626174746c6560581b6044820152606490fd5b9190820391821161338d57565b600a9060405160208101914483524260408301526bffffffffffffffffffffffff199060601b16606082015260548152613fa081612f03565b519020068015613fad5790565b50600590565b929190611ddf578051926003808510156119a65760ff1982541660ff80961617825560209081840151906001918285015560029081850160408701518051906001600160401b038211611dc957819061400c8454613183565b601f8111614153575b508790601f83116001146140f1576000926140e6575b505060001982851b1c191690851b1790555b606086015160005b8381106140ca5750505090608085015191600093845b82811061409a575050505050600582015560a09091015160069190910180546001600160a01b0319166001600160a01b03929092169190911790559050565b909192826140be8697848d85995116919060031b60ff811b9283911b169119161790565b9601949392910161405b565b81516001600160a01b0316878201840155908501908401614045565b01519050388061402b565b90879350601f1983169185600052896000209260005b8b82821061413d5750508411614125575b505050811b01905561403d565b015160001983871b60f8161c19169055388080614118565b8385015186558b97909501949384019301614107565b61417d908560005289600020601f850160051c8101918b8610611dbf57601f0160051c0190613a28565b38614015565b9061418d8261386f565b156141b157612902610c0360206131fb948160405193828580945193849201612e36565b60405162461bcd60e51b815260206004820152601460248201527310985d1d1b1948191bd95cdb89dd08195e1a5cdd60621b6044820152606490fd5b6141f56138a0565b50815160038110156119a657600214614314576002825260018060a01b038091168060a08401527fae6e5eafb6cd1cb4b139e7a0b9140aa182ee7d50e99f50d660156f79212acbc0604084019261424d858551614183565b806060860181815151166000526007602052600a60026142d360406000205485602086510151166000526040600020549084846142b0600461428e85613282565b50019360ff1994858154169055601960036142a883613282565b500155613282565b50015560046142be83613282565b5001908154169055601960036142a883613282565b500155518051821685810361430b57506020015116935b51936143056040519283926020845216956020830190612e59565b0390a390565b915050936142ea565b60405162461bcd60e51b815260206004820152601460248201527310985d1d1b1948185b1c9958591e48195b99195960621b6044820152606490fd5b908115614419579080816000925b6143ff575061436c82612f3f565b9161437a6040519384612f1e565b808352601f1961438982612f3f565b01366020850137905b8181156143f957600019830192831161338d5782600a908184049382850292858404148515171561338d576143ca60ff938492613f5a565b1660300191821161338d578551111561316d5760f81b6001600160f81b03191660001a908401601f0153614392565b50505090565b9161440e600a9194929461337e565b92048093919361435e565b905060405161442781612eb2565b60018152600360fc1b60208201529056fea264697066735822122051b530216c24011eb1cd5e77923dd54eb0219efe1045fc61955765d824e0d14764736f6c63430008110033405787fa12a823e0f2b7631cc41b3ba8828b3321ca811111fa75cd3aa3bb5ace","opcodes":"PUSH1 0x80 PUSH1 0x40 MSTORE CALLVALUE PUSH3 0xAAD JUMPI PUSH3 0x4FC0 DUP1 CODESIZE SUB DUP1 PUSH3 0x1D DUP2 PUSH3 0xAF2 JUMP JUMPDEST SWAP3 DUP4 CODECOPY DUP2 ADD SWAP1 PUSH1 0x20 DUP2 DUP4 SUB SLT PUSH3 0xAAD JUMPI DUP1 MLOAD SWAP1 PUSH1 0x1 PUSH1 0x1 PUSH1 0x40 SHL SUB DUP3 GT PUSH3 0xAAD JUMPI ADD DUP2 PUSH1 0x1F DUP3 ADD SLT ISZERO PUSH3 0xAAD JUMPI DUP1 MLOAD SWAP1 PUSH1 0x1 PUSH1 0x1 PUSH1 0x40 SHL SUB DUP3 GT PUSH3 0x735 JUMPI PUSH3 0x74 PUSH1 0x1F DUP4 ADD PUSH1 0x1F NOT AND PUSH1 0x20 ADD PUSH3 0xAF2 JUMP JUMPDEST SWAP3 DUP3 DUP5 MSTORE PUSH1 0x20 DUP4 DUP4 ADD ADD GT PUSH3 0xAAD JUMPI PUSH1 0x0 JUMPDEST DUP3 DUP2 LT PUSH3 0xA97 JUMPI PUSH1 0x0 DUP4 DUP6 ADD PUSH1 0x20 ADD MSTORE DUP4 MLOAD DUP5 SWAP1 PUSH1 0x1 PUSH1 0x1 PUSH1 0x40 SHL SUB DUP2 GT PUSH3 0x735 JUMPI PUSH1 0x2 SLOAD PUSH1 0x1 DUP2 DUP2 SHR SWAP2 AND DUP1 ISZERO PUSH3 0xA8C JUMPI JUMPDEST PUSH1 0x20 DUP3 LT EQ PUSH3 0x714 JUMPI PUSH1 0x1F DUP2 GT PUSH3 0xA4A JUMPI JUMPDEST POP DUP1 PUSH1 0x20 PUSH1 0x1F DUP3 GT PUSH1 0x1 EQ PUSH3 0x9D2 JUMPI PUSH1 0x0 SWAP2 PUSH3 0x9C6 JUMPI JUMPDEST POP DUP2 PUSH1 0x1 SHL SWAP2 PUSH1 0x0 NOT SWAP1 PUSH1 0x3 SHL SHR NOT AND OR PUSH1 0x2 SSTORE JUMPDEST PUSH1 0x3 DUP1 SLOAD CALLER PUSH1 0x1 PUSH1 0x1 PUSH1 0xA0 SHL SUB NOT DUP3 AND DUP2 OR SWAP1 SWAP3 SSTORE PUSH1 0x1 PUSH1 0x1 PUSH1 0xA0 SHL SUB AND PUSH32 0x8BE0079C531659141344CD1FD0A4F28419497F9722A3DAAFE3B4186F6B6457E0 PUSH1 0x0 DUP1 LOG3 DUP1 MLOAD PUSH1 0x1 PUSH1 0x1 PUSH1 0x40 SHL SUB DUP2 GT PUSH3 0x735 JUMPI PUSH1 0x5 SLOAD PUSH1 0x1 DUP2 DUP2 SHR SWAP2 AND DUP1 ISZERO PUSH3 0x9BB JUMPI JUMPDEST PUSH1 0x20 DUP3 LT EQ PUSH3 0x714 JUMPI PUSH1 0x1F DUP2 GT PUSH3 0x984 JUMPI JUMPDEST POP PUSH1 0x20 SWAP2 PUSH1 0x1F DUP3 GT PUSH1 0x1 EQ PUSH3 0x91A JUMPI SWAP2 DUP2 SWAP3 PUSH1 0x0 SWAP3 PUSH3 0x90E JUMPI JUMPDEST POP POP DUP2 PUSH1 0x1 SHL SWAP2 PUSH1 0x0 NOT SWAP1 PUSH1 0x3 SHL SHR NOT AND OR PUSH1 0x5 SSTORE JUMPDEST PUSH1 0x40 MLOAD PUSH1 0x80 DUP2 ADD PUSH1 0x1 PUSH1 0x1 PUSH1 0x40 SHL SUB DUP2 GT DUP3 DUP3 LT OR PUSH3 0x735 JUMPI PUSH1 0x40 MSTORE PUSH3 0x1D2 PUSH3 0xAD2 JUMP JUMPDEST PUSH1 0x0 DUP2 MSTORE DUP2 MSTORE PUSH1 0x20 DUP2 ADD SWAP1 PUSH1 0x0 DUP3 MSTORE PUSH1 0x40 DUP2 ADD PUSH1 0x0 DUP2 MSTORE PUSH1 0x60 DUP3 ADD SWAP1 PUSH1 0x0 DUP3 MSTORE PUSH1 0xB SLOAD PUSH9 0x10000000000000000 DUP2 LT ISZERO PUSH3 0x735 JUMPI PUSH1 0x1 DUP2 ADD DUP1 PUSH1 0xB SSTORE DUP2 LT ISZERO PUSH3 0x761 JUMPI PUSH1 0xB PUSH1 0x0 MSTORE SWAP3 MLOAD DUP1 MLOAD SWAP5 PUSH1 0x2 SWAP5 SWAP1 SWAP5 SHL PUSH32 0x175B7A638427703F0DBE7BB9BBF987A2551717B34E79F33B5B1008D1FA01DB9 ADD SWAP4 SWAP1 PUSH1 0x1 PUSH1 0x1 PUSH1 0x40 SHL SUB DUP7 GT PUSH3 0x735 JUMPI DUP5 SLOAD PUSH1 0x1 DUP2 DUP2 SHR SWAP2 AND DUP1 ISZERO PUSH3 0x903 JUMPI JUMPDEST PUSH1 0x20 DUP3 LT EQ PUSH3 0x714 JUMPI PUSH1 0x1F DUP2 GT PUSH3 0x8CD JUMPI JUMPDEST POP PUSH1 0x20 SWAP1 PUSH1 0x1F DUP8 GT PUSH1 0x1 EQ PUSH3 0x85E JUMPI SWAP6 DUP1 SWAP2 PUSH1 0x3 SWAP7 SWAP8 PUSH1 0x0 SWAP3 PUSH3 0x852 JUMPI JUMPDEST POP POP DUP2 PUSH1 0x1 SHL SWAP2 PUSH1 0x0 NOT SWAP1 DUP8 SHL SHR NOT AND OR DUP6 SSTORE JUMPDEST MLOAD PUSH1 0x1 DUP6 ADD SSTORE MLOAD PUSH1 0x2 DUP5 ADD SSTORE MLOAD SWAP2 ADD SSTORE PUSH1 0x40 MLOAD PUSH1 0xA0 DUP2 ADD PUSH1 0x1 PUSH1 0x1 PUSH1 0x40 SHL SUB DUP2 GT DUP3 DUP3 LT OR PUSH3 0x735 JUMPI PUSH1 0x40 MSTORE PUSH1 0x0 DUP2 MSTORE PUSH3 0x2EE PUSH3 0xAD2 JUMP JUMPDEST PUSH1 0x0 DUP2 MSTORE PUSH1 0x20 DUP3 ADD MSTORE PUSH1 0x0 PUSH1 0x40 DUP3 ADD MSTORE PUSH1 0x0 PUSH1 0x60 DUP3 ADD MSTORE PUSH1 0x0 PUSH1 0x80 DUP3 ADD MSTORE PUSH1 0xA SLOAD SWAP1 PUSH9 0x10000000000000000 DUP3 LT ISZERO PUSH3 0x735 JUMPI PUSH1 0x1 DUP3 ADD DUP1 PUSH1 0xA SSTORE DUP3 LT ISZERO PUSH3 0x761 JUMPI PUSH1 0xA PUSH1 0x0 MSTORE DUP1 MLOAD PUSH1 0x5 DUP4 MUL PUSH32 0xC65A7BB8D6351C1CF70C95A316CC6A92839C986682D98BC35F958F4883F9D2A8 SWAP1 DUP2 ADD DUP1 SLOAD PUSH1 0x1 PUSH1 0x1 PUSH1 0xA0 SHL SUB NOT AND PUSH1 0x1 PUSH1 0x1 PUSH1 0xA0 SHL SUB SWAP4 SWAP1 SWAP4 AND SWAP3 SWAP1 SWAP3 OR SWAP1 SWAP2 SSTORE PUSH1 0x20 DUP3 ADD MLOAD DUP1 MLOAD SWAP1 SWAP4 SWAP1 PUSH1 0x1 PUSH1 0x1 PUSH1 0x40 SHL SUB DUP2 GT PUSH3 0x735 JUMPI PUSH1 0x1 PUSH1 0x5 DUP4 MUL DUP5 ADD ADD SLOAD PUSH1 0x1 DUP2 DUP2 SHR SWAP2 AND DUP1 ISZERO PUSH3 0x847 JUMPI JUMPDEST PUSH1 0x20 DUP3 LT EQ PUSH3 0x714 JUMPI PUSH1 0x1F DUP2 GT PUSH3 0x809 JUMPI JUMPDEST POP PUSH1 0x20 PUSH1 0x1F DUP3 GT PUSH1 0x1 EQ PUSH3 0x783 JUMPI SWAP2 DUP2 PUSH1 0x5 SWAP3 PUSH1 0x4 SWAP6 SWAP5 PUSH1 0x80 SWAP8 SWAP9 PUSH1 0x0 SWAP3 PUSH3 0x777 JUMPI JUMPDEST POP POP DUP2 PUSH1 0x1 SHL SWAP2 PUSH1 0x0 NOT SWAP1 PUSH1 0x3 SHL SHR NOT AND OR PUSH1 0x1 DUP4 DUP4 MUL DUP6 ADD ADD SSTORE JUMPDEST PUSH1 0x40 DUP7 ADD MLOAD PUSH1 0x2 DUP4 DUP4 MUL DUP6 ADD ADD SSTORE PUSH1 0x60 DUP7 ADD MLOAD PUSH1 0x3 DUP4 DUP4 MUL DUP6 ADD ADD SSTORE MUL ADD ADD SWAP2 ADD MLOAD ISZERO ISZERO PUSH1 0xFF DUP1 NOT DUP4 SLOAD AND SWAP2 AND OR SWAP1 SSTORE PUSH3 0x441 PUSH3 0xAB2 JUMP JUMPDEST PUSH1 0x0 DUP2 MSTORE PUSH1 0x0 PUSH1 0x20 DUP3 ADD MSTORE PUSH3 0x456 PUSH3 0xAB2 JUMP JUMPDEST PUSH1 0x0 DUP1 DUP3 MSTORE PUSH1 0x20 DUP3 ADD MSTORE PUSH1 0x40 MLOAD SWAP2 PUSH1 0x1 PUSH1 0x1 PUSH1 0x40 SHL SUB PUSH1 0xC0 DUP5 ADD SWAP1 DUP2 GT SWAP1 DUP5 GT OR PUSH3 0x735 JUMPI PUSH1 0xC0 DUP4 ADD PUSH1 0x40 MSTORE PUSH1 0x0 DUP4 MSTORE PUSH1 0x0 PUSH1 0x20 DUP5 ADD MSTORE PUSH3 0x498 PUSH3 0xAD2 JUMP JUMPDEST PUSH1 0x0 DUP2 MSTORE PUSH1 0x40 DUP5 ADD MSTORE PUSH1 0x60 DUP4 ADD MSTORE PUSH1 0x80 DUP3 ADD MSTORE PUSH1 0x0 PUSH1 0xA0 DUP3 ADD MSTORE PUSH1 0xC SLOAD SWAP1 PUSH9 0x10000000000000000 DUP3 LT ISZERO PUSH3 0x735 JUMPI PUSH1 0x1 DUP3 ADD DUP1 PUSH1 0xC SSTORE DUP3 LT ISZERO PUSH3 0x761 JUMPI PUSH1 0xC PUSH1 0x0 MSTORE DUP1 MLOAD PUSH32 0xDF6966C971051C3D54EC59162606531493A51404A002842F56009D7E5CF4A8C7 SWAP1 PUSH1 0x3 DUP2 LT ISZERO PUSH3 0x74B JUMPI PUSH1 0x7 DUP5 MUL DUP3 ADD DUP1 SLOAD PUSH1 0xFF NOT AND PUSH1 0xFF SWAP3 SWAP1 SWAP3 AND SWAP2 SWAP1 SWAP2 OR DUP2 SSTORE PUSH1 0x20 DUP4 ADD MLOAD PUSH1 0x1 DUP3 ADD SSTORE PUSH1 0x40 DUP4 ADD MLOAD DUP1 MLOAD PUSH1 0x2 SWAP1 SWAP3 ADD SWAP2 SWAP1 PUSH1 0x1 PUSH1 0x1 PUSH1 0x40 SHL SUB DUP3 GT PUSH3 0x735 JUMPI DUP3 SLOAD SWAP1 PUSH1 0x1 DUP3 DUP2 SHR SWAP3 AND DUP1 ISZERO PUSH3 0x72A JUMPI JUMPDEST PUSH1 0x20 DUP4 LT EQ PUSH3 0x714 JUMPI DUP2 PUSH1 0x1F DUP5 SWAP4 GT PUSH3 0x6D2 JUMPI JUMPDEST POP PUSH1 0x20 SWAP1 PUSH1 0x1F DUP4 GT PUSH1 0x1 EQ PUSH3 0x667 JUMPI PUSH1 0x0 SWAP3 PUSH3 0x65B JUMPI JUMPDEST POP POP DUP2 PUSH1 0x1 SHL SWAP2 PUSH1 0x0 NOT SWAP1 PUSH1 0x3 SHL SHR NOT AND OR SWAP1 SSTORE JUMPDEST PUSH1 0x60 DUP3 ADD MLOAD PUSH1 0x0 JUMPDEST PUSH1 0x2 DUP2 LT PUSH3 0x635 JUMPI POP POP PUSH1 0x80 DUP3 ADD MLOAD SWAP3 PUSH1 0x0 SWAP4 DUP5 JUMPDEST PUSH1 0x2 DUP2 LT PUSH3 0x60D JUMPI PUSH1 0x7 DUP4 MUL DUP5 ADD PUSH1 0x5 DUP2 ADD DUP8 SWAP1 SSTORE PUSH1 0xA0 DUP7 ADD MLOAD PUSH1 0x6 SWAP2 SWAP1 SWAP2 ADD DUP1 SLOAD PUSH1 0x1 PUSH1 0x1 PUSH1 0xA0 SHL SUB NOT AND PUSH1 0x1 PUSH1 0x1 PUSH1 0xA0 SHL SUB SWAP3 SWAP1 SWAP3 AND SWAP2 SWAP1 SWAP2 OR SWAP1 SSTORE PUSH1 0x40 MLOAD PUSH2 0x446E SWAP1 DUP2 PUSH3 0xB32 DUP3 CODECOPY RETURN JUMPDEST SWAP1 SWAP5 PUSH1 0x20 PUSH1 0x1 SWAP2 PUSH1 0xFF DUP9 MLOAD AND SWAP1 DUP5 PUSH1 0x3 SHL PUSH1 0xFF DUP2 SHL SWAP3 DUP4 SWAP2 SHL AND SWAP2 NOT AND OR SWAP7 ADD SWAP2 ADD PUSH3 0x5BE JUMP JUMPDEST DUP2 MLOAD PUSH1 0x1 PUSH1 0x1 PUSH1 0xA0 SHL SUB AND PUSH1 0x3 PUSH1 0x7 DUP8 MUL DUP6 ADD DUP4 ADD ADD SSTORE PUSH1 0x20 SWAP1 SWAP2 ADD SWAP1 PUSH1 0x1 ADD PUSH3 0x5A8 JUMP JUMPDEST ADD MLOAD SWAP1 POP DUP7 DUP1 PUSH3 0x58B JUMP JUMPDEST PUSH1 0x0 DUP6 DUP2 MSTORE PUSH1 0x20 DUP2 KECCAK256 SWAP4 POP PUSH1 0x1F NOT DUP6 AND SWAP1 JUMPDEST DUP2 DUP2 LT PUSH3 0x6B9 JUMPI POP SWAP1 DUP5 PUSH1 0x1 SWAP6 SWAP5 SWAP4 SWAP3 LT PUSH3 0x69F JUMPI JUMPDEST POP POP POP DUP2 SHL ADD SWAP1 SSTORE PUSH3 0x5A0 JUMP JUMPDEST ADD MLOAD PUSH1 0x0 NOT PUSH1 0xF8 DUP5 PUSH1 0x3 SHL AND SHR NOT AND SWAP1 SSTORE DUP7 DUP1 DUP1 PUSH3 0x691 JUMP JUMPDEST SWAP3 SWAP4 PUSH1 0x20 PUSH1 0x1 DUP2 SWAP3 DUP8 DUP7 ADD MLOAD DUP2 SSTORE ADD SWAP6 ADD SWAP4 ADD PUSH3 0x679 JUMP JUMPDEST PUSH3 0x702 SWAP1 DUP6 PUSH1 0x0 MSTORE PUSH1 0x20 PUSH1 0x0 KECCAK256 PUSH1 0x1F DUP6 ADD PUSH1 0x5 SHR DUP2 ADD SWAP2 PUSH1 0x20 DUP7 LT PUSH3 0x709 JUMPI JUMPDEST PUSH1 0x1F ADD PUSH1 0x5 SHR ADD SWAP1 PUSH3 0xB18 JUMP JUMPDEST DUP8 PUSH3 0x572 JUMP JUMPDEST SWAP1 SWAP2 POP DUP2 SWAP1 PUSH3 0x6F4 JUMP JUMPDEST PUSH4 0x4E487B71 PUSH1 0xE0 SHL PUSH1 0x0 MSTORE PUSH1 0x22 PUSH1 0x4 MSTORE PUSH1 0x24 PUSH1 0x0 REVERT JUMPDEST SWAP2 PUSH1 0x7F AND SWAP2 PUSH3 0x55C JUMP JUMPDEST PUSH4 0x4E487B71 PUSH1 0xE0 SHL PUSH1 0x0 MSTORE PUSH1 0x41 PUSH1 0x4 MSTORE PUSH1 0x24 PUSH1 0x0 REVERT JUMPDEST PUSH4 0x4E487B71 PUSH1 0xE0 SHL PUSH1 0x0 MSTORE PUSH1 0x21 PUSH1 0x4 MSTORE PUSH1 0x24 PUSH1 0x0 REVERT JUMPDEST PUSH4 0x4E487B71 PUSH1 0xE0 SHL PUSH1 0x0 MSTORE PUSH1 0x32 PUSH1 0x4 MSTORE PUSH1 0x24 PUSH1 0x0 REVERT JUMPDEST ADD MLOAD SWAP1 POP DUP9 DUP1 PUSH3 0x3EB JUMP JUMPDEST PUSH1 0x1 PUSH1 0x5 DUP5 MUL DUP6 ADD ADD PUSH1 0x0 MSTORE PUSH1 0x20 PUSH1 0x0 KECCAK256 SWAP6 PUSH1 0x0 JUMPDEST PUSH1 0x1F NOT DUP5 AND DUP2 LT PUSH3 0x7F0 JUMPI POP DUP3 PUSH1 0x80 SWAP7 SWAP8 PUSH1 0x4 SWAP7 SWAP6 SWAP4 PUSH1 0x1 SWAP4 PUSH1 0x5 SWAP7 PUSH1 0x1F NOT DUP2 AND LT PUSH3 0x7D6 JUMPI JUMPDEST POP POP POP DUP2 SHL ADD PUSH1 0x1 DUP4 DUP4 MUL DUP6 ADD ADD SSTORE PUSH3 0x407 JUMP JUMPDEST ADD MLOAD PUSH1 0x0 NOT PUSH1 0xF8 DUP5 PUSH1 0x3 SHL AND SHR NOT AND SWAP1 SSTORE DUP9 DUP1 DUP1 PUSH3 0x7C1 JUMP JUMPDEST DUP3 DUP3 ADD MLOAD DUP9 SSTORE PUSH1 0x1 SWAP1 SWAP8 ADD SWAP7 PUSH1 0x20 SWAP3 DUP4 ADD SWAP3 ADD PUSH3 0x798 JUMP JUMPDEST PUSH3 0x840 SWAP1 PUSH1 0x1 PUSH1 0x5 DUP6 MUL DUP7 ADD ADD PUSH1 0x0 MSTORE PUSH1 0x20 PUSH1 0x0 KECCAK256 PUSH1 0x1F DUP5 ADD PUSH1 0x5 SHR DUP2 ADD SWAP2 PUSH1 0x20 DUP6 LT PUSH3 0x709 JUMPI PUSH1 0x1F ADD PUSH1 0x5 SHR ADD SWAP1 PUSH3 0xB18 JUMP JUMPDEST DUP6 PUSH3 0x3C6 JUMP JUMPDEST SWAP1 PUSH1 0x7F AND SWAP1 PUSH3 0x3B2 JUMP JUMPDEST ADD MLOAD SWAP1 POP DUP8 DUP1 PUSH3 0x29F JUMP JUMPDEST SWAP1 PUSH1 0x1F NOT DUP8 AND SWAP2 DUP7 PUSH1 0x0 MSTORE PUSH1 0x20 PUSH1 0x0 KECCAK256 SWAP3 PUSH1 0x0 JUMPDEST DUP2 DUP2 LT PUSH3 0x8B4 JUMPI POP SWAP2 PUSH1 0x1 SWAP4 SWAP2 DUP10 PUSH1 0x3 SWAP10 SWAP11 SWAP5 LT PUSH3 0x89B JUMPI JUMPDEST POP POP POP DUP2 SHL ADD DUP6 SSTORE PUSH3 0x2B3 JUMP JUMPDEST ADD MLOAD PUSH1 0x0 NOT DUP4 DUP10 SHL PUSH1 0xF8 AND SHR NOT AND SWAP1 SSTORE DUP8 DUP1 DUP1 PUSH3 0x88D JUMP JUMPDEST SWAP3 SWAP4 PUSH1 0x20 PUSH1 0x1 DUP2 SWAP3 DUP8 DUP7 ADD MLOAD DUP2 SSTORE ADD SWAP6 ADD SWAP4 ADD PUSH3 0x872 JUMP JUMPDEST PUSH3 0x8FC SWAP1 DUP7 PUSH1 0x0 MSTORE PUSH1 0x20 PUSH1 0x0 KECCAK256 PUSH1 0x1F DUP10 ADD PUSH1 0x5 SHR DUP2 ADD SWAP2 PUSH1 0x20 DUP11 LT PUSH3 0x709 JUMPI PUSH1 0x1F ADD PUSH1 0x5 SHR ADD SWAP1 PUSH3 0xB18 JUMP JUMPDEST DUP7 PUSH3 0x27F JUMP JUMPDEST SWAP1 PUSH1 0x7F AND SWAP1 PUSH3 0x26B JUMP JUMPDEST ADD MLOAD SWAP1 POP DUP3 DUP1 PUSH3 0x195 JUMP JUMPDEST PUSH1 0x1F NOT DUP3 AND SWAP3 PUSH1 0x5 PUSH1 0x0 MSTORE PUSH1 0x20 PUSH1 0x0 KECCAK256 SWAP2 PUSH1 0x0 JUMPDEST DUP6 DUP2 LT PUSH3 0x96B JUMPI POP DUP4 PUSH1 0x1 SWAP6 LT PUSH3 0x951 JUMPI JUMPDEST POP POP POP DUP2 SHL ADD PUSH1 0x5 SSTORE PUSH3 0x1AB JUMP JUMPDEST ADD MLOAD PUSH1 0x0 NOT PUSH1 0xF8 DUP5 PUSH1 0x3 SHL AND SHR NOT AND SWAP1 SSTORE DUP3 DUP1 DUP1 PUSH3 0x942 JUMP JUMPDEST SWAP2 SWAP3 PUSH1 0x20 PUSH1 0x1 DUP2 SWAP3 DUP7 DUP6 ADD MLOAD DUP2 SSTORE ADD SWAP5 ADD SWAP3 ADD PUSH3 0x92E JUMP JUMPDEST PUSH3 0x9B4 SWAP1 PUSH1 0x5 PUSH1 0x0 MSTORE PUSH1 0x20 PUSH1 0x0 KECCAK256 PUSH1 0x1F DUP5 ADD PUSH1 0x5 SHR DUP2 ADD SWAP2 PUSH1 0x20 DUP6 LT PUSH3 0x709 JUMPI PUSH1 0x1F ADD PUSH1 0x5 SHR ADD SWAP1 PUSH3 0xB18 JUMP JUMPDEST DUP3 PUSH3 0x179 JUMP JUMPDEST SWAP1 PUSH1 0x7F AND SWAP1 PUSH3 0x165 JUMP JUMPDEST SWAP1 POP DUP3 ADD MLOAD DUP4 PUSH3 0xEA JUMP JUMPDEST PUSH1 0x2 PUSH1 0x0 SWAP1 DUP2 MSTORE PUSH1 0x0 DUP1 MLOAD PUSH1 0x20 PUSH3 0x4FA0 DUP4 CODECOPY DUP2 MLOAD SWAP2 MSTORE SWAP3 POP PUSH1 0x1F NOT DUP5 AND SWAP1 JUMPDEST DUP2 DUP2 LT PUSH3 0xA31 JUMPI POP SWAP1 DUP4 PUSH1 0x1 SWAP5 SWAP4 SWAP3 LT PUSH3 0xA17 JUMPI JUMPDEST POP POP DUP2 SHL ADD PUSH1 0x2 SSTORE PUSH3 0xFF JUMP JUMPDEST DUP5 ADD MLOAD PUSH1 0x0 NOT PUSH1 0xF8 DUP5 PUSH1 0x3 SHL AND SHR NOT AND SWAP1 SSTORE DUP4 DUP1 PUSH3 0xA09 JUMP JUMPDEST SWAP2 SWAP3 PUSH1 0x20 PUSH1 0x1 DUP2 SWAP3 DUP7 DUP10 ADD MLOAD DUP2 SSTORE ADD SWAP5 ADD SWAP3 ADD PUSH3 0x9F2 JUMP JUMPDEST PUSH1 0x2 PUSH1 0x0 MSTORE PUSH3 0xA85 SWAP1 PUSH1 0x0 DUP1 MLOAD PUSH1 0x20 PUSH3 0x4FA0 DUP4 CODECOPY DUP2 MLOAD SWAP2 MSTORE PUSH1 0x1F DUP5 ADD PUSH1 0x5 SHR DUP2 ADD SWAP2 PUSH1 0x20 DUP6 LT PUSH3 0x709 JUMPI PUSH1 0x1F ADD PUSH1 0x5 SHR ADD SWAP1 PUSH3 0xB18 JUMP JUMPDEST DUP3 PUSH3 0xD1 JUMP JUMPDEST SWAP1 PUSH1 0x7F AND SWAP1 PUSH3 0xBD JUMP JUMPDEST DUP1 PUSH1 0x20 DUP1 SWAP3 DUP5 ADD ADD MLOAD DUP3 DUP3 DUP8 ADD ADD MSTORE ADD PUSH3 0x87 JUMP JUMPDEST PUSH1 0x0 DUP1 REVERT JUMPDEST PUSH1 0x40 DUP1 MLOAD SWAP2 SWAP1 DUP3 ADD PUSH1 0x1 PUSH1 0x1 PUSH1 0x40 SHL SUB DUP2 GT DUP4 DUP3 LT OR PUSH3 0x735 JUMPI PUSH1 0x40 MSTORE JUMP JUMPDEST PUSH1 0x40 MLOAD SWAP1 PUSH1 0x20 DUP3 ADD PUSH1 0x1 PUSH1 0x1 PUSH1 0x40 SHL SUB DUP2 GT DUP4 DUP3 LT OR PUSH3 0x735 JUMPI PUSH1 0x40 MSTORE JUMP JUMPDEST PUSH1 0x40 MLOAD SWAP2 SWAP1 PUSH1 0x1F ADD PUSH1 0x1F NOT AND DUP3 ADD PUSH1 0x1 PUSH1 0x1 PUSH1 0x40 SHL SUB DUP2 GT DUP4 DUP3 LT OR PUSH3 0x735 JUMPI PUSH1 0x40 MSTORE JUMP JUMPDEST DUP2 DUP2 LT PUSH3 0xB24 JUMPI POP POP JUMP JUMPDEST PUSH1 0x0 DUP2 SSTORE PUSH1 0x1 ADD PUSH3 0xB18 JUMP INVALID PUSH1 0x80 PUSH1 0x40 MSTORE PUSH1 0x4 CALLDATASIZE LT ISZERO PUSH2 0x12 JUMPI PUSH1 0x0 DUP1 REVERT JUMPDEST PUSH1 0x0 CALLDATALOAD PUSH1 0xE0 SHR DUP1 PUSH3 0xFDD58E EQ PUSH2 0x2DDB JUMPI DUP1 PUSH4 0x15A3792 EQ PUSH2 0x2CF2 JUMPI DUP1 PUSH4 0x1FFC9A7 EQ PUSH2 0x2C84 JUMPI DUP1 PUSH4 0x2FE5305 EQ PUSH2 0x2B5B JUMPI DUP1 PUSH4 0x677AA4E EQ PUSH2 0x2B3F JUMPI DUP1 PUSH4 0x9C95E10 EQ PUSH2 0x2B1C JUMPI DUP1 PUSH4 0xDAEA2CD EQ PUSH2 0x2B00 JUMPI DUP1 PUSH4 0xE89341C EQ PUSH2 0x2A4F JUMPI DUP1 PUSH4 0x10898E4C EQ PUSH2 0x2A17 JUMPI DUP1 PUSH4 0x1107AE3D EQ PUSH2 0x29DD JUMPI DUP1 PUSH4 0x16801D17 EQ PUSH2 0x2993 JUMPI DUP1 PUSH4 0x18160DDD EQ PUSH2 0x9DA JUMPI DUP1 PUSH4 0x2711162E EQ PUSH2 0x2959 JUMPI DUP1 PUSH4 0x2CA04522 EQ PUSH2 0x27DC JUMPI DUP1 PUSH4 0x2EB2C2D6 EQ PUSH2 0x239B JUMPI DUP1 PUSH4 0x3835E2B5 EQ PUSH2 0x233F JUMPI DUP1 PUSH4 0x4B114691 EQ PUSH2 0x2305 JUMPI DUP1 PUSH4 0x4E1273F4 EQ PUSH2 0x2167 JUMPI DUP1 PUSH4 0x4F558E79 EQ PUSH2 0x2139 JUMPI DUP1 PUSH4 0x5C12CD4B EQ PUSH2 0x2101 JUMPI DUP1 PUSH4 0x5C93FC3D EQ PUSH2 0x2018 JUMPI DUP1 PUSH4 0x606D2E96 EQ PUSH2 0x1F91 JUMPI DUP1 PUSH4 0x6C0360EB EQ PUSH2 0x1EAF JUMPI DUP1 PUSH4 0x703730A5 EQ PUSH2 0x1E93 JUMPI DUP1 PUSH4 0x715018A6 EQ PUSH2 0x1E36 JUMPI DUP1 PUSH4 0x845F433B EQ PUSH2 0x1B62 JUMPI DUP1 PUSH4 0x8DA5CB5B EQ PUSH2 0x1B39 JUMPI DUP1 PUSH4 0x996D7BEA EQ PUSH2 0x1A66 JUMPI DUP1 PUSH4 0x9B09CC87 EQ PUSH2 0x1A10 JUMPI DUP1 PUSH4 0x9E4ECD11 EQ PUSH2 0x19F4 JUMPI DUP1 PUSH4 0x9EC40AA3 EQ PUSH2 0x19BC JUMPI DUP1 PUSH4 0xA1B4F57C EQ PUSH2 0x17A2 JUMPI DUP1 PUSH4 0xA22CB465 EQ PUSH2 0x16B5 JUMPI DUP1 PUSH4 0xBA274956 EQ PUSH2 0xAE0 JUMPI DUP1 PUSH4 0xBD85B039 EQ PUSH2 0xAB4 JUMPI DUP1 PUSH4 0xBF034B69 EQ PUSH2 0xA25 JUMPI DUP1 PUSH4 0xBF103A4D EQ PUSH2 0x9F8 JUMPI DUP1 PUSH4 0xC4E41B22 EQ PUSH2 0x9DA JUMPI DUP1 PUSH4 0xC87B56DD EQ PUSH2 0x8CE JUMPI DUP1 PUSH4 0xD2198CC5 EQ PUSH2 0x8B2 JUMPI DUP1 PUSH4 0xDE96CEFC EQ PUSH2 0x896 JUMPI DUP1 PUSH4 0xE985E9C5 EQ PUSH2 0x840 JUMPI DUP1 PUSH4 0xEFA1C482 EQ PUSH2 0x757 JUMPI DUP1 PUSH4 0xF1DA7339 EQ PUSH2 0x73B JUMPI DUP1 PUSH4 0xF242432A EQ PUSH2 0x372 JUMPI DUP1 PUSH4 0xF2FDE38B EQ PUSH2 0x2AF JUMPI PUSH4 0xF71D96CB EQ PUSH2 0x220 JUMPI PUSH1 0x0 DUP1 REVERT JUMPDEST CALLVALUE PUSH2 0x2AA JUMPI PUSH1 0x20 CALLDATASIZE PUSH1 0x3 NOT ADD SLT PUSH2 0x2AA JUMPI PUSH1 0x4 CALLDATALOAD PUSH1 0xA SLOAD DUP2 LT ISZERO PUSH2 0x2AA JUMPI PUSH1 0xA PUSH1 0x0 MSTORE PUSH1 0x5 PUSH1 0x20 PUSH1 0x0 KECCAK256 SWAP2 MUL ADD PUSH1 0x1 DUP1 PUSH1 0xA0 SHL SUB DUP2 SLOAD AND PUSH2 0x263 PUSH1 0x1 DUP4 ADD PUSH2 0x31BD JUMP JUMPDEST SWAP2 PUSH1 0x2 DUP2 ADD SLOAD SWAP1 PUSH1 0xFF PUSH1 0x4 PUSH1 0x3 DUP4 ADD SLOAD SWAP3 ADD SLOAD AND SWAP1 PUSH2 0x294 PUSH1 0x40 MLOAD SWAP6 DUP7 SWAP6 DUP7 MSTORE PUSH1 0xA0 PUSH1 0x20 DUP8 ADD MSTORE PUSH1 0xA0 DUP7 ADD SWAP1 PUSH2 0x2E59 JUMP JUMPDEST SWAP3 PUSH1 0x40 DUP6 ADD MSTORE PUSH1 0x60 DUP5 ADD MSTORE ISZERO ISZERO PUSH1 0x80 DUP4 ADD MSTORE SUB SWAP1 RETURN JUMPDEST PUSH1 0x0 DUP1 REVERT JUMPDEST CALLVALUE PUSH2 0x2AA JUMPI PUSH1 0x20 CALLDATASIZE PUSH1 0x3 NOT ADD SLT PUSH2 0x2AA JUMPI PUSH2 0x2C8 PUSH2 0x2E0A JUMP JUMPDEST PUSH2 0x2D0 PUSH2 0x32A1 JUMP JUMPDEST PUSH1 0x1 PUSH1 0x1 PUSH1 0xA0 SHL SUB SWAP1 DUP2 AND SWAP1 DUP2 ISZERO PUSH2 0x31E JUMPI PUSH1 0x3 DUP1 SLOAD PUSH1 0x1 PUSH1 0x1 PUSH1 0xA0 SHL SUB NOT DUP2 AND DUP5 OR SWAP1 SWAP2 SSTORE AND PUSH32 0x8BE0079C531659141344CD1FD0A4F28419497F9722A3DAAFE3B4186F6B6457E0 PUSH1 0x0 DUP1 LOG3 STOP JUMPDEST PUSH1 0x40 MLOAD PUSH3 0x461BCD PUSH1 0xE5 SHL DUP2 MSTORE PUSH1 0x20 PUSH1 0x4 DUP3 ADD MSTORE PUSH1 0x26 PUSH1 0x24 DUP3 ADD MSTORE PUSH32 0x4F776E61626C653A206E6577206F776E657220697320746865207A65726F2061 PUSH1 0x44 DUP3 ADD MSTORE PUSH6 0x646472657373 PUSH1 0xD0 SHL PUSH1 0x64 DUP3 ADD MSTORE PUSH1 0x84 SWAP1 REVERT JUMPDEST CALLVALUE PUSH2 0x2AA JUMPI PUSH1 0xA0 CALLDATASIZE PUSH1 0x3 NOT ADD SLT PUSH2 0x2AA JUMPI PUSH2 0x38B PUSH2 0x2E0A JUMP JUMPDEST PUSH2 0x393 PUSH2 0x2E20 JUMP JUMPDEST SWAP1 PUSH1 0x84 DUP1 CALLDATALOAD PUSH1 0x1 PUSH1 0x1 PUSH1 0x40 SHL SUB DUP2 GT PUSH2 0x2AA JUMPI PUSH2 0x3B4 SWAP1 CALLDATASIZE SWAP1 PUSH1 0x4 ADD PUSH2 0x2F5A JUMP JUMPDEST PUSH1 0x1 PUSH1 0x1 PUSH1 0xA0 SHL SUB SWAP2 SWAP1 DUP4 DUP4 AND CALLER EQ DUP1 ISZERO PUSH2 0x710 JUMPI JUMPDEST PUSH2 0x3D3 SWAP1 PUSH2 0x33C4 JUMP JUMPDEST DUP3 DUP6 AND ISZERO PUSH2 0x3E1 DUP2 ISZERO PUSH2 0x3427 JUMP JUMPDEST PUSH2 0x3EC PUSH1 0x44 CALLDATALOAD PUSH2 0x363A JUMP JUMPDEST PUSH2 0x3F7 PUSH1 0x64 CALLDATALOAD PUSH2 0x363A JUMP JUMPDEST SWAP2 DUP6 DUP8 AND ISZERO PUSH2 0x6B0 JUMPI JUMPDEST PUSH2 0x5F0 JUMPI JUMPDEST POP POP PUSH1 0x44 CALLDATALOAD PUSH1 0x0 MSTORE PUSH1 0x20 SWAP5 PUSH1 0x0 DUP7 MSTORE PUSH1 0x40 PUSH1 0x0 KECCAK256 DUP5 DUP7 AND PUSH1 0x0 MSTORE DUP7 MSTORE PUSH1 0x40 PUSH1 0x0 KECCAK256 SLOAD PUSH2 0x436 PUSH1 0x64 CALLDATALOAD DUP3 LT ISZERO PUSH2 0x3481 JUMP JUMPDEST PUSH1 0x44 CALLDATALOAD PUSH1 0x0 MSTORE PUSH1 0x0 DUP8 MSTORE PUSH1 0x40 PUSH1 0x0 KECCAK256 DUP6 DUP8 AND PUSH1 0x0 MSTORE DUP8 MSTORE PUSH1 0x64 CALLDATALOAD SWAP1 SUB PUSH1 0x40 PUSH1 0x0 KECCAK256 SSTORE PUSH1 0x44 CALLDATALOAD PUSH1 0x0 MSTORE PUSH1 0x0 DUP7 MSTORE PUSH1 0x40 PUSH1 0x0 KECCAK256 DUP5 DUP3 AND PUSH1 0x0 MSTORE DUP7 MSTORE PUSH1 0x40 PUSH1 0x0 KECCAK256 PUSH2 0x481 PUSH1 0x64 CALLDATALOAD DUP3 SLOAD PUSH2 0x34E0 JUMP JUMPDEST SWAP1 SSTORE PUSH1 0x40 MLOAD PUSH1 0x44 CALLDATALOAD DUP2 MSTORE PUSH1 0x64 CALLDATALOAD DUP8 DUP3 ADD MSTORE DUP5 DUP3 AND SWAP1 DUP6 DUP8 AND SWAP1 PUSH32 0xC3D58168C5AE7397731D063D5BBF3D657854427343F4C083240F7AACAA2D0F62 PUSH1 0x40 CALLER SWAP3 LOG4 DUP1 EXTCODESIZE PUSH2 0x4C8 JUMPI STOP JUMPDEST PUSH1 0xA0 PUSH1 0x0 PUSH2 0x512 SWAP6 DUP9 SWAP6 PUSH1 0x40 MLOAD SWAP8 DUP9 SWAP7 DUP8 SWAP6 DUP7 SWAP4 DUP6 PUSH4 0xF23A6E61 PUSH1 0xE0 SHL SWAP14 DUP15 DUP8 MSTORE CALLER PUSH1 0x4 DUP9 ADD MSTORE AND PUSH1 0x24 DUP7 ADD MSTORE PUSH1 0x44 CALLDATALOAD PUSH1 0x44 DUP7 ADD MSTORE PUSH1 0x64 CALLDATALOAD PUSH1 0x64 DUP7 ADD MSTORE DUP5 ADD MSTORE PUSH1 0xA4 DUP4 ADD SWAP1 PUSH2 0x2E59 JUMP JUMPDEST SUB SWAP4 AND GAS CALL PUSH1 0x0 SWAP2 DUP2 PUSH2 0x5C1 JUMPI JUMPDEST POP PUSH2 0x597 JUMPI POP POP PUSH1 0x1 SWAP1 PUSH2 0x532 PUSH2 0x3556 JUMP JUMPDEST PUSH4 0x8C379A0 EQ PUSH2 0x562 JUMPI JUMPDEST POP PUSH2 0x545 JUMPI JUMPDEST STOP JUMPDEST PUSH1 0x40 MLOAD PUSH3 0x461BCD PUSH1 0xE5 SHL DUP2 MSTORE DUP1 PUSH2 0x55E PUSH1 0x4 DUP3 ADD PUSH2 0x35E5 JUMP JUMPDEST SUB SWAP1 REVERT JUMPDEST PUSH2 0x56A PUSH2 0x3574 JUMP JUMPDEST SWAP1 DUP2 PUSH2 0x576 JUMPI POP PUSH2 0x53D JUMP JUMPDEST PUSH2 0x55E PUSH1 0x40 MLOAD SWAP3 DUP4 SWAP3 PUSH3 0x461BCD PUSH1 0xE5 SHL DUP5 MSTORE PUSH1 0x4 DUP5 ADD MSTORE PUSH1 0x24 DUP4 ADD SWAP1 PUSH2 0x2E59 JUMP JUMPDEST PUSH1 0x1 PUSH1 0x1 PUSH1 0xE0 SHL SUB NOT AND EQ SWAP1 POP PUSH2 0x543 JUMPI PUSH1 0x40 MLOAD PUSH3 0x461BCD PUSH1 0xE5 SHL DUP2 MSTORE DUP1 PUSH2 0x55E PUSH1 0x4 DUP3 ADD PUSH2 0x350D JUMP JUMPDEST PUSH2 0x5E2 SWAP2 SWAP3 POP DUP5 RETURNDATASIZE DUP7 GT PUSH2 0x5E9 JUMPI JUMPDEST PUSH2 0x5DA DUP2 DUP4 PUSH2 0x2F1E JUMP JUMPDEST DUP2 ADD SWAP1 PUSH2 0x34ED JUMP JUMPDEST SWAP1 DUP5 PUSH2 0x520 JUMP JUMPDEST POP RETURNDATASIZE PUSH2 0x5D0 JUMP JUMPDEST SWAP3 SWAP6 SWAP2 SWAP5 SWAP1 SWAP4 PUSH1 0x0 JUMPDEST DUP5 MLOAD DUP2 LT ISZERO PUSH2 0x6A1 JUMPI PUSH2 0x60C DUP2 DUP7 PUSH2 0x33B0 JUMP JUMPDEST MLOAD SWAP1 PUSH2 0x618 DUP2 DUP9 PUSH2 0x33B0 JUMP JUMPDEST MLOAD DUP3 PUSH1 0x0 MSTORE PUSH1 0x4 PUSH1 0x20 MSTORE PUSH1 0x40 PUSH1 0x0 KECCAK256 SLOAD DUP2 DUP2 LT PUSH2 0x64C JUMPI PUSH2 0x647 SWAP4 PUSH1 0x0 MSTORE PUSH1 0x4 PUSH1 0x20 MSTORE SUB PUSH1 0x40 PUSH1 0x0 KECCAK256 SSTORE PUSH2 0x337E JUMP JUMPDEST PUSH2 0x5F9 JUMP JUMPDEST PUSH1 0x40 MLOAD PUSH3 0x461BCD PUSH1 0xE5 SHL DUP2 MSTORE PUSH1 0x20 PUSH1 0x4 DUP3 ADD MSTORE PUSH1 0x28 PUSH1 0x24 DUP3 ADD MSTORE PUSH32 0x455243313135353A206275726E20616D6F756E74206578636565647320746F74 PUSH1 0x44 DUP3 ADD MSTORE PUSH8 0x616C537570706C79 PUSH1 0xC0 SHL PUSH1 0x64 DUP3 ADD MSTORE DUP12 SWAP1 REVERT JUMPDEST POP SWAP4 POP SWAP4 SWAP1 SWAP5 SWAP2 POP DUP6 DUP1 PUSH2 0x406 JUMP JUMPDEST SWAP6 SWAP3 PUSH1 0x0 SWAP8 SWAP5 SWAP2 SWAP6 SWAP3 SWAP8 JUMPDEST DUP7 MLOAD DUP2 LT ISZERO PUSH2 0x702 JUMPI DUP1 PUSH2 0x6D2 PUSH2 0x6FD SWAP3 DUP12 PUSH2 0x33B0 JUMP JUMPDEST MLOAD PUSH2 0x6DD DUP3 DUP11 PUSH2 0x33B0 JUMP JUMPDEST MLOAD PUSH1 0x0 MSTORE PUSH1 0x4 PUSH1 0x20 MSTORE PUSH2 0x6F6 PUSH1 0x40 PUSH1 0x0 KECCAK256 SWAP2 DUP3 SLOAD PUSH2 0x34E0 JUMP JUMPDEST SWAP1 SSTORE PUSH2 0x337E JUMP JUMPDEST PUSH2 0x6BB JUMP JUMPDEST POP SWAP3 SWAP6 SWAP7 SWAP2 SWAP5 SWAP1 SWAP4 SWAP7 PUSH2 0x401 JUMP JUMPDEST POP DUP3 DUP5 AND PUSH1 0x0 MSTORE PUSH1 0x1 PUSH1 0x20 MSTORE PUSH1 0x40 PUSH1 0x0 KECCAK256 CALLER PUSH1 0x0 MSTORE PUSH1 0x20 MSTORE PUSH2 0x3D3 PUSH1 0xFF PUSH1 0x40 PUSH1 0x0 KECCAK256 SLOAD AND SWAP1 POP PUSH2 0x3CA JUMP JUMPDEST CALLVALUE PUSH2 0x2AA JUMPI PUSH1 0x0 CALLDATASIZE PUSH1 0x3 NOT ADD SLT PUSH2 0x2AA JUMPI PUSH1 0x20 PUSH1 0x40 MLOAD PUSH1 0x4 DUP2 MSTORE RETURN JUMPDEST CALLVALUE PUSH2 0x2AA JUMPI PUSH1 0x0 CALLDATASIZE PUSH1 0x3 NOT ADD SLT PUSH2 0x2AA JUMPI PUSH1 0xA SLOAD PUSH2 0x774 DUP2 PUSH2 0x305D JUMP JUMPDEST SWAP1 PUSH2 0x782 PUSH1 0x40 MLOAD SWAP3 DUP4 PUSH2 0x2F1E JUMP JUMPDEST DUP1 DUP3 MSTORE PUSH1 0xA PUSH1 0x0 SWAP1 DUP2 MSTORE PUSH1 0x20 SWAP2 DUP3 DUP5 ADD SWAP2 PUSH32 0xC65A7BB8D6351C1CF70C95A316CC6A92839C986682D98BC35F958F4883F9D2A8 DUP4 JUMPDEST DUP4 DUP4 LT PUSH2 0x81D JUMPI POP POP POP POP PUSH1 0x40 MLOAD SWAP2 DUP1 DUP4 ADD SWAP4 DUP2 DUP5 MSTORE MLOAD DUP1 SWAP5 MSTORE PUSH1 0x40 DUP4 ADD SWAP4 PUSH1 0x40 DUP2 PUSH1 0x5 SHL DUP6 ADD ADD SWAP3 SWAP2 PUSH1 0x0 SWAP6 JUMPDEST DUP3 DUP8 LT PUSH2 0x7F1 JUMPI DUP6 DUP6 SUB DUP7 RETURN JUMPDEST SWAP1 SWAP2 SWAP3 SWAP4 DUP3 DUP1 PUSH2 0x80D PUSH1 0x1 SWAP4 PUSH1 0x3F NOT DUP11 DUP3 SUB ADD DUP7 MSTORE DUP9 MLOAD PUSH2 0x3106 JUMP JUMPDEST SWAP7 ADD SWAP3 ADD SWAP7 ADD SWAP6 SWAP3 SWAP2 SWAP1 SWAP3 PUSH2 0x7E4 JUMP JUMPDEST PUSH1 0x5 DUP7 PUSH1 0x1 SWAP3 PUSH2 0x82F DUP6 SWAP11 SWAP10 SWAP11 PUSH2 0x367C JUMP JUMPDEST DUP2 MSTORE ADD SWAP3 ADD SWAP3 ADD SWAP2 SWAP1 SWAP6 SWAP5 SWAP6 PUSH2 0x7B6 JUMP JUMPDEST CALLVALUE PUSH2 0x2AA JUMPI PUSH1 0x40 CALLDATASIZE PUSH1 0x3 NOT ADD SLT PUSH2 0x2AA JUMPI PUSH2 0x859 PUSH2 0x2E0A JUMP JUMPDEST PUSH2 0x861 PUSH2 0x2E20 JUMP JUMPDEST SWAP1 PUSH1 0x1 DUP1 PUSH1 0xA0 SHL SUB DUP1 SWAP2 AND PUSH1 0x0 MSTORE PUSH1 0x1 PUSH1 0x20 MSTORE PUSH1 0x40 PUSH1 0x0 KECCAK256 SWAP2 AND PUSH1 0x0 MSTORE PUSH1 0x20 MSTORE PUSH1 0x20 PUSH1 0xFF PUSH1 0x40 PUSH1 0x0 KECCAK256 SLOAD AND PUSH1 0x40 MLOAD SWAP1 ISZERO ISZERO DUP2 MSTORE RETURN JUMPDEST CALLVALUE PUSH2 0x2AA JUMPI PUSH1 0x0 CALLDATASIZE PUSH1 0x3 NOT ADD SLT PUSH2 0x2AA JUMPI PUSH1 0x20 PUSH1 0x40 MLOAD PUSH1 0x1 DUP2 MSTORE RETURN JUMPDEST CALLVALUE PUSH2 0x2AA JUMPI PUSH1 0x0 CALLDATASIZE PUSH1 0x3 NOT ADD SLT PUSH2 0x2AA JUMPI PUSH1 0x20 PUSH1 0x40 MLOAD PUSH1 0x0 DUP2 MSTORE RETURN JUMPDEST CALLVALUE PUSH2 0x2AA JUMPI PUSH1 0x20 DUP1 PUSH1 0x3 NOT CALLDATASIZE ADD SLT PUSH2 0x2AA JUMPI PUSH2 0x8EB PUSH1 0x4 CALLDATALOAD PUSH2 0x4350 JUMP JUMPDEST SWAP1 PUSH1 0x40 MLOAD SWAP2 DUP3 PUSH1 0x0 SWAP2 PUSH1 0x5 SLOAD SWAP3 PUSH2 0x901 DUP5 PUSH2 0x3183 JUMP JUMPDEST PUSH1 0x1 SWAP5 DUP7 DUP7 DUP3 AND SWAP2 DUP3 PUSH1 0x0 EQ PUSH2 0x9B5 JUMPI POP POP PUSH1 0x1 EQ PUSH2 0x973 JUMPI JUMPDEST POP SWAP3 PUSH5 0x173539B7B7 PUSH1 0xD9 SHL PUSH1 0x6 SWAP4 SWAP3 DUP6 PUSH1 0x2F PUSH1 0xF8 SHL PUSH2 0x95B SWAP8 MSTORE PUSH2 0x947 DUP3 MLOAD DUP1 SWAP4 DUP11 DUP8 DUP6 ADD SWAP2 ADD PUSH2 0x2E36 JUMP JUMPDEST ADD SWAP2 DUP3 ADD MSTORE SUB PUSH1 0x19 NOT DUP2 ADD DUP6 MSTORE ADD DUP4 PUSH2 0x2F1E JUMP JUMPDEST PUSH2 0x96F PUSH1 0x40 MLOAD SWAP3 DUP3 DUP5 SWAP4 DUP5 MSTORE DUP4 ADD SWAP1 PUSH2 0x2E59 JUMP JUMPDEST SUB SWAP1 RETURN JUMPDEST DUP6 SWAP2 POP PUSH1 0x5 PUSH1 0x0 MSTORE DUP2 PUSH1 0x0 KECCAK256 PUSH1 0x0 SWAP1 JUMPDEST DUP3 DUP3 LT PUSH2 0x99D JUMPI POP POP DUP4 ADD ADD PUSH5 0x173539B7B7 PUSH1 0xD9 SHL PUSH2 0x91B JUMP JUMPDEST DUP1 SLOAD DUP10 DUP4 ADD DUP6 ADD MSTORE DUP9 SWAP6 POP DUP8 SWAP4 SWAP1 SWAP2 ADD SWAP1 DUP7 ADD PUSH2 0x983 JUMP JUMPDEST PUSH1 0xFF NOT AND DUP2 DUP8 ADD MSTORE DUP3 ISZERO ISZERO SWAP1 SWAP3 MUL DUP6 ADD SWAP1 SWAP2 ADD SWAP2 POP PUSH5 0x173539B7B7 PUSH1 0xD9 SHL SWAP1 POP PUSH2 0x91B JUMP JUMPDEST CALLVALUE PUSH2 0x2AA JUMPI PUSH1 0x0 CALLDATASIZE PUSH1 0x3 NOT ADD SLT PUSH2 0x2AA JUMPI PUSH1 0x20 PUSH1 0x6 SLOAD PUSH1 0x40 MLOAD SWAP1 DUP2 MSTORE RETURN JUMPDEST CALLVALUE PUSH2 0x2AA JUMPI PUSH1 0x20 CALLDATASIZE PUSH1 0x3 NOT ADD SLT PUSH2 0x2AA JUMPI PUSH1 0x20 PUSH2 0xA1B PUSH2 0xA16 PUSH2 0x2E0A JUMP JUMPDEST PUSH2 0x376C JUMP JUMPDEST PUSH1 0x40 MLOAD SWAP1 ISZERO ISZERO DUP2 MSTORE RETURN JUMPDEST CALLVALUE PUSH2 0x2AA JUMPI PUSH1 0x20 CALLDATASIZE PUSH1 0x3 NOT ADD SLT PUSH2 0x2AA JUMPI PUSH1 0x4 CALLDATALOAD PUSH1 0xB SLOAD DUP2 LT ISZERO PUSH2 0x2AA JUMPI PUSH1 0xB PUSH1 0x0 MSTORE PUSH2 0xAA0 SWAP1 PUSH1 0x2 SHL PUSH32 0x175B7A638427703F0DBE7BB9BBF987A2551717B34E79F33B5B1008D1FA01DB9 ADD PUSH2 0xA7A DUP2 PUSH2 0x31BD JUMP JUMPDEST SWAP1 PUSH1 0x1 DUP2 ADD SLOAD SWAP1 PUSH1 0x3 PUSH1 0x2 DUP3 ADD SLOAD SWAP2 ADD SLOAD SWAP1 PUSH1 0x40 MLOAD SWAP5 DUP6 SWAP5 PUSH1 0x80 DUP7 MSTORE PUSH1 0x80 DUP7 ADD SWAP1 PUSH2 0x2E59 JUMP JUMPDEST SWAP3 PUSH1 0x20 DUP6 ADD MSTORE PUSH1 0x40 DUP5 ADD MSTORE PUSH1 0x60 DUP4 ADD MSTORE SUB SWAP1 RETURN JUMPDEST CALLVALUE PUSH2 0x2AA JUMPI PUSH1 0x20 CALLDATASIZE PUSH1 0x3 NOT ADD SLT PUSH2 0x2AA JUMPI PUSH1 0x4 CALLDATALOAD PUSH1 0x0 MSTORE PUSH1 0x4 PUSH1 0x20 MSTORE PUSH1 0x20 PUSH1 0x40 PUSH1 0x0 KECCAK256 SLOAD PUSH1 0x40 MLOAD SWAP1 DUP2 MSTORE RETURN JUMPDEST CALLVALUE PUSH2 0x2AA JUMPI PUSH1 0x40 CALLDATASIZE PUSH1 0x3 NOT ADD SLT PUSH2 0x2AA JUMPI PUSH1 0x4 CALLDATALOAD PUSH1 0xFF DUP2 AND DUP1 SWAP2 SUB PUSH2 0x2AA JUMPI PUSH1 0x24 SWAP1 DUP2 CALLDATALOAD PUSH1 0x1 PUSH1 0x1 PUSH1 0x40 SHL SUB DUP2 GT PUSH2 0x2AA JUMPI PUSH2 0xB20 SWAP1 CALLDATASIZE SWAP1 PUSH1 0x4 ADD PUSH2 0x2F5A JUMP JUMPDEST SWAP1 PUSH2 0xB2A DUP3 PUSH2 0x39AF JUMP JUMPDEST DUP1 MLOAD PUSH1 0x3 DUP2 LT ISZERO PUSH2 0x162C JUMPI PUSH1 0x1 SUB PUSH2 0x1641 JUMPI DUP1 MLOAD PUSH1 0x3 DUP2 LT ISZERO PUSH2 0x162C JUMPI PUSH1 0x2 EQ PUSH2 0x15ED JUMPI PUSH1 0x60 DUP2 ADD SWAP1 DUP2 MLOAD PUSH1 0x1 DUP1 PUSH1 0xA0 SHL SUB DUP2 MLOAD AND CALLER EQ SWAP1 DUP2 ISZERO PUSH2 0x15D6 JUMPI JUMPDEST POP ISZERO PUSH2 0x1592 JUMPI PUSH1 0x80 ADD MLOAD DUP2 MLOAD MLOAD PUSH1 0x1 PUSH1 0x1 PUSH1 0xA0 SHL SUB AND CALLER SUB PUSH2 0x158A JUMPI PUSH1 0x0 SWAP1 JUMPDEST PUSH1 0x2 PUSH1 0xFF DUP4 AND LT ISZERO PUSH2 0x1486 JUMPI PUSH2 0x1FE0 PUSH1 0xFF SWAP3 PUSH1 0x5 SHL AND ADD MLOAD AND PUSH2 0x1546 JUMPI MLOAD MLOAD PUSH1 0x1 PUSH1 0x1 PUSH1 0xA0 SHL SUB AND CALLER SUB PUSH2 0x153F JUMPI PUSH1 0x0 JUMPDEST PUSH1 0x1 DUP3 EQ DUP1 DUP1 ISZERO PUSH2 0x1535 JUMPI JUMPDEST ISZERO PUSH2 0x14F1 JUMPI ISZERO PUSH2 0x14EA JUMPI PUSH1 0x3 PUSH1 0x40 PUSH2 0xBDD CALLER PUSH2 0x36CC JUMP JUMPDEST ADD MLOAD LT ISZERO JUMPDEST ISZERO PUSH2 0x149B JUMPI PUSH1 0x40 MLOAD SWAP2 PUSH2 0xC13 DUP5 MLOAD SWAP4 PUSH1 0x20 DUP2 DUP2 DUP9 ADD SWAP7 PUSH2 0xC03 DUP2 DUP4 DUP11 PUSH2 0x2E36 JUMP JUMPDEST DUP2 ADD PUSH1 0x9 DUP2 MSTORE SUB ADD SWAP1 KECCAK256 SLOAD PUSH2 0x314E JUMP JUMPDEST POP SWAP1 PUSH1 0x2 PUSH1 0xFF DUP5 AND LT ISZERO PUSH2 0x1486 JUMPI PUSH1 0x1F PUSH1 0x5 PUSH2 0xC49 SWAP4 PUSH1 0x7 DUP7 DUP4 SHR AND ADD ADD SWAP4 AND DUP4 SLOAD SWAP1 PUSH1 0x3 SHL PUSH1 0xFF DUP2 SHL SWAP3 DUP4 SWAP2 SHL AND SWAP2 NOT AND OR SWAP1 JUMP JUMPDEST SWAP1 SSTORE PUSH1 0x80 PUSH2 0xC56 DUP4 PUSH2 0x39AF JUMP JUMPDEST ADD DUP1 MLOAD MLOAD PUSH1 0xFF AND PUSH2 0x147D JUMPI PUSH1 0xFF PUSH1 0x0 JUMPDEST AND PUSH1 0x2 SUB SWAP1 PUSH1 0xFF DUP3 GT PUSH2 0x1200 JUMPI MLOAD PUSH1 0x20 ADD MLOAD PUSH1 0xFF AND PUSH2 0x1473 JUMPI PUSH1 0xFF DUP1 PUSH1 0x0 JUMPDEST AND SWAP2 AND SUB PUSH1 0xFF DUP2 GT PUSH2 0x1120 JUMPI PUSH1 0xFF AND SWAP1 PUSH1 0x1 DUP3 SUB PUSH2 0x1468 JUMPI PUSH2 0xCB5 PUSH1 0x1 SWAP2 JUMPDEST PUSH1 0x40 MLOAD DUP1 SWAP3 DUP2 SWAP3 DUP8 MLOAD SWAP3 DUP4 SWAP2 PUSH2 0x2E36 JUMP JUMPDEST DUP2 ADD SUB SWAP1 KECCAK256 SWAP1 ISZERO ISZERO SWAP1 PUSH32 0x54B82B77E7AE55A8E6C9E89DEBA70C7191DEA2A3B08AE647B380E9F981D6A0F8 PUSH1 0x0 DUP1 LOG3 ISZERO PUSH2 0xCEA JUMPI STOP JUMPDEST PUSH2 0xCF3 SWAP1 PUSH2 0x39AF JUMP JUMPDEST PUSH1 0x60 DUP2 ADD MLOAD DUP1 MLOAD PUSH1 0x1 PUSH1 0x1 PUSH1 0xA0 SHL SUB AND CALLER EQ SWAP1 DUP2 ISZERO PUSH2 0x1451 JUMPI JUMPDEST POP ISZERO PUSH2 0x13F9 JUMPI PUSH1 0x80 DUP2 ADD MLOAD PUSH1 0xFF DUP2 MLOAD AND ISZERO ISZERO SWAP1 DUP2 PUSH2 0x13E8 JUMPI JUMPDEST POP ISZERO PUSH2 0x139A JUMPI PUSH1 0x1 DUP1 PUSH1 0xA0 SHL SUB PUSH1 0x60 DUP3 ADD MLOAD MLOAD AND PUSH1 0x0 MSTORE PUSH1 0x7 PUSH1 0x20 MSTORE PUSH1 0x40 PUSH1 0x0 KECCAK256 SLOAD PUSH1 0xFF PUSH1 0x80 DUP4 ADD MLOAD MLOAD AND PUSH1 0x60 PUSH2 0xD68 PUSH1 0x1 DUP1 PUSH1 0xA0 SHL SUB DUP3 DUP7 ADD MLOAD MLOAD AND PUSH2 0x36CC JUMP JUMPDEST ADD MLOAD PUSH1 0x60 DUP5 ADD MLOAD MLOAD PUSH1 0x40 SWAP1 PUSH2 0xD85 SWAP1 PUSH1 0x1 PUSH1 0x1 PUSH1 0xA0 SHL SUB AND PUSH2 0x37F0 JUMP JUMPDEST ADD MLOAD PUSH1 0x60 DUP6 DUP2 ADD MLOAD MLOAD SWAP2 SWAP3 SWAP2 PUSH2 0xDA3 SWAP1 PUSH1 0x1 PUSH1 0x1 PUSH1 0xA0 SHL SUB AND PUSH2 0x37F0 JUMP JUMPDEST ADD MLOAD SWAP3 PUSH1 0x40 MLOAD SWAP5 PUSH2 0xDB3 DUP7 PUSH2 0x2EE8 JUMP JUMPDEST DUP6 MSTORE PUSH1 0x20 DUP6 ADD MSTORE PUSH1 0x40 DUP5 ADD MSTORE PUSH1 0x60 DUP4 ADD MSTORE PUSH1 0x80 DUP3 ADD MSTORE PUSH1 0x1 DUP1 PUSH1 0xA0 SHL SUB PUSH1 0x20 PUSH1 0x60 DUP5 ADD MLOAD ADD MLOAD AND PUSH1 0x0 MSTORE PUSH1 0x7 PUSH1 0x20 MSTORE PUSH1 0x40 PUSH1 0x0 KECCAK256 SLOAD PUSH1 0xFF PUSH1 0x20 PUSH1 0x80 DUP6 ADD MLOAD ADD MLOAD AND PUSH1 0x60 PUSH2 0xE0E PUSH1 0x1 DUP1 PUSH1 0xA0 SHL SUB PUSH1 0x20 DUP4 DUP9 ADD MLOAD ADD MLOAD AND PUSH2 0x36CC JUMP JUMPDEST ADD MLOAD PUSH1 0x60 DUP6 ADD MLOAD PUSH1 0x20 ADD MLOAD PUSH1 0x40 SWAP1 PUSH2 0xE2E SWAP1 PUSH1 0x1 PUSH1 0x1 PUSH1 0xA0 SHL SUB AND PUSH2 0x37F0 JUMP JUMPDEST ADD MLOAD PUSH1 0x60 DUP7 DUP2 ADD MLOAD PUSH1 0x20 ADD MLOAD SWAP2 SWAP3 SWAP2 PUSH2 0xE4F SWAP1 PUSH1 0x1 PUSH1 0x1 PUSH1 0xA0 SHL SUB AND PUSH2 0x37F0 JUMP JUMPDEST ADD MLOAD SWAP3 PUSH1 0x40 MLOAD SWAP5 PUSH2 0xE5F DUP7 PUSH2 0x2EE8 JUMP JUMPDEST DUP6 MSTORE PUSH1 0x20 DUP6 ADD MSTORE PUSH1 0x40 DUP5 ADD MSTORE PUSH1 0x60 DUP4 ADD MSTORE PUSH1 0x80 DUP3 ADD MSTORE PUSH1 0x40 MLOAD SWAP2 PUSH2 0xE82 DUP4 PUSH2 0x2EB2 JUMP JUMPDEST PUSH1 0x0 DUP4 MSTORE PUSH1 0x0 PUSH1 0x20 DUP5 ADD MSTORE DUP3 PUSH1 0x20 DUP3 ADD MLOAD PUSH1 0x1 DUP2 EQ DUP1 DUP1 SWAP2 PUSH2 0x138C JUMPI JUMPDEST ISZERO PUSH2 0x114A JUMPI POP POP POP PUSH1 0x60 DUP2 ADD MLOAD PUSH1 0x40 DUP4 ADD MLOAD GT PUSH2 0x106F JUMPI POP POP PUSH1 0x60 DUP3 ADD MLOAD MLOAD PUSH2 0xED2 SWAP1 DUP4 SWAP1 PUSH1 0x1 PUSH1 0x1 PUSH1 0xA0 SHL SUB AND PUSH2 0x41ED JUMP JUMPDEST POP JUMPDEST PUSH1 0x40 MLOAD SWAP1 PUSH1 0x0 DUP3 JUMPDEST PUSH1 0x2 DUP3 LT PUSH2 0x104F JUMPI POP POP POP PUSH1 0x40 PUSH32 0xC6BF860CBC15F7020F73993A671F01BBB1831A8A7A12C126CA735EB632E75775 SWAP2 LOG1 PUSH1 0x0 PUSH1 0x80 DUP3 ADD MLOAD MSTORE PUSH1 0x0 PUSH1 0x20 PUSH1 0x80 DUP4 ADD MLOAD ADD MSTORE PUSH2 0xF2D DUP2 PUSH1 0x40 DUP2 ADD MLOAD PUSH2 0x4183 JUMP JUMPDEST PUSH1 0x60 DUP2 ADD MLOAD MLOAD PUSH2 0xF45 SWAP1 PUSH1 0x1 PUSH1 0x1 PUSH1 0xA0 SHL SUB AND PUSH2 0x3F67 JUMP JUMPDEST PUSH1 0x1 DUP1 PUSH1 0xA0 SHL SUB PUSH1 0x60 DUP4 ADD MLOAD MLOAD AND PUSH1 0x0 MSTORE PUSH1 0x8 PUSH1 0x20 MSTORE DUP1 PUSH1 0x2 PUSH2 0xF6C PUSH1 0x40 PUSH1 0x0 KECCAK256 SLOAD PUSH2 0x3263 JUMP JUMPDEST POP ADD SSTORE PUSH1 0xA SUB PUSH1 0xA DUP2 GT PUSH2 0x103A JUMPI PUSH1 0x1 DUP1 PUSH1 0xA0 SHL SUB PUSH1 0x60 DUP4 ADD MLOAD MLOAD AND PUSH1 0x0 MSTORE PUSH1 0x8 PUSH1 0x20 MSTORE PUSH1 0x3 PUSH2 0xFA0 PUSH1 0x40 PUSH1 0x0 KECCAK256 SLOAD PUSH2 0x3263 JUMP JUMPDEST POP ADD SSTORE PUSH1 0x60 DUP2 ADD MLOAD PUSH1 0x20 ADD MLOAD PUSH2 0xFBE SWAP1 PUSH1 0x1 PUSH1 0x1 PUSH1 0xA0 SHL SUB AND PUSH2 0x3F67 JUMP JUMPDEST PUSH1 0x1 DUP1 PUSH1 0xA0 SHL SUB PUSH1 0x20 PUSH1 0x60 DUP5 ADD MLOAD ADD MLOAD AND PUSH1 0x0 MSTORE PUSH1 0x8 PUSH1 0x20 MSTORE DUP1 PUSH1 0x2 PUSH2 0xFE8 PUSH1 0x40 PUSH1 0x0 KECCAK256 SLOAD PUSH2 0x3263 JUMP JUMPDEST POP ADD SSTORE PUSH1 0xA SUB SWAP2 PUSH1 0xA DUP4 GT PUSH2 0x1026 JUMPI POP PUSH1 0x20 PUSH1 0x60 PUSH1 0x1 DUP1 PUSH1 0xA0 SHL SUB SWAP3 ADD MLOAD ADD MLOAD AND PUSH1 0x0 MSTORE PUSH1 0x8 PUSH1 0x20 MSTORE PUSH1 0x3 PUSH2 0x1021 PUSH1 0x40 PUSH1 0x0 KECCAK256 SLOAD PUSH2 0x3263 JUMP JUMPDEST POP ADD SSTORE STOP JUMPDEST PUSH4 0x4E487B71 PUSH1 0xE0 SHL PUSH1 0x0 SWAP1 DUP2 MSTORE PUSH1 0x11 PUSH1 0x4 MSTORE REVERT JUMPDEST DUP3 PUSH4 0x4E487B71 PUSH1 0xE0 SHL PUSH1 0x0 MSTORE PUSH1 0x11 PUSH1 0x4 MSTORE PUSH1 0x0 REVERT JUMPDEST DUP3 MLOAD PUSH1 0x1 PUSH1 0x1 PUSH1 0xA0 SHL SUB AND DUP2 MSTORE PUSH1 0x20 SWAP3 DUP4 ADD SWAP3 PUSH1 0x1 SWAP3 SWAP1 SWAP3 ADD SWAP2 ADD PUSH2 0xEDC JUMP JUMPDEST PUSH1 0x60 DUP3 ADD MLOAD PUSH1 0x40 DUP3 ADD MLOAD DUP2 LT PUSH2 0x10A5 JUMPI POP POP POP PUSH1 0x60 DUP3 ADD MLOAD PUSH1 0x20 ADD MLOAD PUSH2 0x109F SWAP1 DUP4 SWAP1 PUSH1 0x1 PUSH1 0x1 PUSH1 0xA0 SHL SUB AND PUSH2 0x41ED JUMP JUMPDEST POP PUSH2 0xED4 JUMP JUMPDEST PUSH1 0x2 SWAP3 SWAP4 POP SWAP1 PUSH2 0x10E6 SWAP2 PUSH2 0x10C8 PUSH1 0x3 PUSH2 0x10BE DUP5 MLOAD PUSH2 0x3282 JUMP JUMPDEST POP ADD SWAP2 DUP3 SLOAD PUSH2 0x3F5A JUMP JUMPDEST SWAP1 SSTORE PUSH1 0x60 DUP2 ADD MLOAD PUSH2 0x10DE PUSH1 0x3 PUSH2 0x10BE DUP8 MLOAD PUSH2 0x3282 JUMP JUMPDEST SWAP1 SSTORE MLOAD PUSH2 0x3282 JUMP JUMPDEST POP ADD DUP1 SLOAD PUSH1 0x2 NOT SWAP3 DUP4 DUP3 ADD SWAP3 SWAP2 DUP4 GT PUSH2 0x1135 JUMPI PUSH1 0x2 SWAP3 PUSH2 0x1107 SWAP3 SSTORE MLOAD PUSH2 0x3282 JUMP JUMPDEST POP ADD DUP1 SLOAD SWAP2 DUP3 ADD SWAP2 DUP3 GT PUSH2 0x1120 JUMPI SSTORE PUSH1 0x60 DUP2 ADD MLOAD PUSH2 0xED4 JUMP JUMPDEST DUP4 PUSH4 0x4E487B71 PUSH1 0xE0 SHL PUSH1 0x0 MSTORE PUSH1 0x11 PUSH1 0x4 MSTORE PUSH1 0x0 REVERT JUMPDEST DUP6 PUSH4 0x4E487B71 PUSH1 0xE0 SHL PUSH1 0x0 MSTORE PUSH1 0x11 PUSH1 0x4 MSTORE PUSH1 0x0 REVERT JUMPDEST DUP1 PUSH2 0x137E JUMPI JUMPDEST ISZERO PUSH2 0x1238 JUMPI POP PUSH2 0x1169 PUSH1 0x40 DUP5 ADD MLOAD PUSH1 0x80 DUP6 ADD MLOAD SWAP1 PUSH2 0x34E0 JUMP JUMPDEST PUSH1 0x60 DUP4 ADD MLOAD SWAP1 SWAP3 SWAP1 SWAP2 DUP4 DUP4 LT PUSH2 0x1198 JUMPI POP POP POP PUSH1 0x60 DUP5 ADD MLOAD MLOAD PUSH2 0x109F SWAP3 POP DUP5 SWAP2 POP PUSH1 0x1 PUSH1 0x1 PUSH1 0xA0 SHL SUB AND PUSH2 0x41ED JUMP JUMPDEST PUSH1 0x2 SWAP4 PUSH2 0x11CB SWAP4 DUP1 PUSH1 0x80 DUP9 ADD MLOAD GT PUSH1 0x0 EQ PUSH2 0x1215 JUMPI POP POP POP PUSH1 0x40 DUP5 ADD MLOAD JUMPDEST PUSH1 0x3 PUSH2 0x11C2 DUP7 MLOAD PUSH2 0x3282 JUMP JUMPDEST POP ADD SSTORE MLOAD PUSH2 0x3282 JUMP JUMPDEST POP ADD DUP1 SLOAD PUSH1 0x2 NOT DUP2 ADD SWAP3 SWAP1 DUP4 GT PUSH2 0x1135 JUMPI PUSH1 0x2 SWAP3 PUSH2 0x11EA SWAP3 SSTORE MLOAD PUSH2 0x3282 JUMP JUMPDEST POP ADD DUP1 SLOAD SWAP1 PUSH1 0x3 DUP3 ADD DUP1 SWAP3 GT PUSH2 0x1200 JUMPI SSTORE PUSH2 0xED4 JUMP JUMPDEST DUP5 PUSH4 0x4E487B71 PUSH1 0xE0 SHL PUSH1 0x0 MSTORE PUSH1 0x11 PUSH1 0x4 MSTORE PUSH1 0x0 REVERT JUMPDEST PUSH2 0x121E SWAP2 PUSH2 0x3F5A JUMP JUMPDEST PUSH1 0x60 DUP9 ADD MLOAD PUSH1 0x20 ADD MLOAD PUSH1 0x1 PUSH1 0x1 PUSH1 0xA0 SHL SUB AND SWAP1 SWAP2 MSTORE PUSH2 0x11B6 JUMP JUMPDEST PUSH1 0x2 EQ DUP1 DUP1 PUSH2 0x1370 JUMPI JUMPDEST ISZERO PUSH2 0x130C JUMPI POP PUSH2 0x125B PUSH1 0x40 DUP4 ADD MLOAD PUSH1 0x80 DUP5 ADD MLOAD SWAP1 PUSH2 0x34E0 JUMP JUMPDEST PUSH1 0x60 DUP5 ADD MLOAD SWAP1 SWAP3 SWAP1 SWAP2 DUP4 DUP4 LT PUSH2 0x128D JUMPI POP POP POP PUSH1 0x60 DUP5 ADD MLOAD PUSH1 0x20 ADD MLOAD PUSH2 0x109F SWAP3 POP DUP5 SWAP2 POP PUSH1 0x1 PUSH1 0x1 PUSH1 0xA0 SHL SUB AND PUSH2 0x41ED JUMP JUMPDEST PUSH1 0x2 SWAP4 PUSH2 0x12B7 SWAP4 DUP1 PUSH1 0x80 DUP6 ADD MLOAD GT PUSH1 0x0 EQ PUSH2 0x12EC JUMPI POP POP POP PUSH1 0x40 DUP2 ADD MLOAD JUMPDEST PUSH1 0x3 PUSH2 0x11C2 DUP4 MLOAD PUSH2 0x3282 JUMP JUMPDEST POP ADD DUP1 SLOAD SWAP2 PUSH1 0x3 DUP4 ADD DUP1 SWAP4 GT PUSH2 0x1135 JUMPI PUSH1 0x2 SWAP3 PUSH2 0x12D5 SWAP3 SSTORE MLOAD PUSH2 0x3282 JUMP JUMPDEST POP ADD DUP1 SLOAD PUSH1 0x2 NOT DUP2 ADD SWAP2 SWAP1 DUP3 GT PUSH2 0x1200 JUMPI SSTORE PUSH2 0xED4 JUMP JUMPDEST PUSH2 0x12F5 SWAP2 PUSH2 0x3F5A JUMP JUMPDEST PUSH1 0x60 DUP9 ADD MLOAD MLOAD PUSH1 0x1 PUSH1 0x1 PUSH1 0xA0 SHL SUB AND SWAP1 SWAP2 MSTORE PUSH2 0x12AB JUMP JUMPDEST SWAP1 POP DUP1 PUSH2 0x1362 JUMPI JUMPDEST PUSH2 0x1320 JUMPI JUMPDEST POP POP PUSH2 0xED4 JUMP JUMPDEST PUSH2 0x132C PUSH1 0x2 SWAP2 MLOAD PUSH2 0x3282 JUMP JUMPDEST POP ADD DUP1 SLOAD SWAP2 PUSH1 0x3 DUP4 ADD DUP1 SWAP4 GT PUSH2 0x1135 JUMPI PUSH1 0x2 SWAP3 PUSH2 0x134A SWAP3 SSTORE MLOAD PUSH2 0x3282 JUMP JUMPDEST POP ADD DUP1 SLOAD SWAP1 PUSH1 0x3 DUP3 ADD DUP1 SWAP3 GT PUSH2 0x1200 JUMPI SSTORE DUP4 DUP1 PUSH2 0x1319 JUMP JUMPDEST POP PUSH1 0x2 PUSH1 0x20 DUP4 ADD MLOAD EQ PUSH2 0x1314 JUMP JUMPDEST POP PUSH1 0x1 PUSH1 0x20 DUP6 ADD MLOAD EQ PUSH2 0x1242 JUMP JUMPDEST POP PUSH1 0x2 PUSH1 0x20 DUP6 ADD MLOAD EQ PUSH2 0x1150 JUMP JUMPDEST POP PUSH1 0x1 PUSH1 0x20 DUP7 ADD MLOAD EQ PUSH2 0xE9F JUMP JUMPDEST PUSH1 0x40 MLOAD PUSH3 0x461BCD PUSH1 0xE5 SHL DUP2 MSTORE PUSH1 0x20 PUSH1 0x4 DUP3 ADD MSTORE PUSH1 0x21 DUP2 DUP5 ADD MSTORE PUSH32 0x506C6179657273207374696C6C206E65656420746F206D616B652061206D6F76 PUSH1 0x44 DUP3 ADD MSTORE PUSH1 0x65 PUSH1 0xF8 SHL PUSH1 0x64 DUP3 ADD MSTORE PUSH1 0x84 SWAP1 REVERT JUMPDEST PUSH1 0xFF SWAP2 POP PUSH1 0x20 ADD MLOAD AND ISZERO ISZERO DUP4 PUSH2 0xD26 JUMP JUMPDEST PUSH1 0x40 MLOAD PUSH3 0x461BCD PUSH1 0xE5 SHL DUP2 MSTORE PUSH1 0x20 PUSH1 0x4 DUP3 ADD MSTORE PUSH1 0x2B DUP2 DUP5 ADD MSTORE PUSH32 0x4F6E6C7920706C617965727320696E207468697320626174746C652063616E20 PUSH1 0x44 DUP3 ADD MSTORE PUSH11 0x6D616B652061206D6F7665 PUSH1 0xA8 SHL PUSH1 0x64 DUP3 ADD MSTORE PUSH1 0x84 SWAP1 REVERT JUMPDEST PUSH1 0x20 ADD MLOAD PUSH1 0x1 PUSH1 0x1 PUSH1 0xA0 SHL SUB AND CALLER EQ SWAP1 POP DUP4 PUSH2 0xD0D JUMP JUMPDEST PUSH2 0xCB5 PUSH1 0x0 SWAP2 PUSH2 0xCA4 JUMP JUMPDEST PUSH1 0xFF DUP1 PUSH1 0x1 PUSH2 0xC85 JUMP JUMPDEST PUSH1 0xFF PUSH1 0x1 PUSH2 0xC66 JUMP JUMPDEST DUP6 PUSH4 0x4E487B71 PUSH1 0xE0 SHL PUSH1 0x0 MSTORE PUSH1 0x32 PUSH1 0x4 MSTORE PUSH1 0x0 REVERT JUMPDEST PUSH1 0x40 MLOAD PUSH3 0x461BCD PUSH1 0xE5 SHL DUP2 MSTORE PUSH1 0x20 PUSH1 0x4 DUP3 ADD MSTORE PUSH1 0x22 DUP2 DUP7 ADD MSTORE PUSH32 0x4D616E61206E6F742073756666696369656E7420666F722061747461636B696E PUSH1 0x44 DUP3 ADD MSTORE PUSH2 0x6721 PUSH1 0xF0 SHL PUSH1 0x64 DUP3 ADD MSTORE PUSH1 0x84 SWAP1 REVERT JUMPDEST PUSH1 0x1 PUSH2 0xBE2 JUMP JUMPDEST PUSH1 0x40 MLOAD PUSH3 0x461BCD PUSH1 0xE5 SHL DUP2 MSTORE PUSH1 0x20 PUSH1 0x4 DUP3 ADD MSTORE PUSH1 0x1F DUP2 DUP8 ADD MSTORE PUSH32 0x43686F6963652073686F756C64206265206569746865722031206F7220322100 PUSH1 0x44 DUP3 ADD MSTORE PUSH1 0x64 SWAP1 REVERT JUMPDEST POP PUSH1 0x2 DUP4 EQ PUSH2 0xBC6 JUMP JUMPDEST PUSH1 0x1 PUSH2 0xBBA JUMP JUMPDEST PUSH1 0x40 MLOAD PUSH3 0x461BCD PUSH1 0xE5 SHL DUP2 MSTORE PUSH1 0x20 PUSH1 0x4 DUP3 ADD MSTORE PUSH1 0x1D DUP2 DUP7 ADD MSTORE PUSH32 0x596F75206861766520616C7265616479206D6164652061206D6F766521000000 PUSH1 0x44 DUP3 ADD MSTORE PUSH1 0x64 SWAP1 REVERT JUMPDEST PUSH1 0x1 SWAP1 PUSH2 0xB89 JUMP JUMPDEST PUSH1 0x40 MLOAD PUSH3 0x461BCD PUSH1 0xE5 SHL DUP2 MSTORE PUSH1 0x20 PUSH1 0x4 DUP3 ADD MSTORE PUSH1 0x1A DUP2 DUP8 ADD MSTORE PUSH32 0x596F7520617265206E6F7420696E207468697320626174746C65000000000000 PUSH1 0x44 DUP3 ADD MSTORE PUSH1 0x64 SWAP1 REVERT JUMPDEST PUSH1 0x20 ADD MLOAD PUSH1 0x1 PUSH1 0x1 PUSH1 0xA0 SHL SUB AND CALLER EQ SWAP1 POP DUP7 PUSH2 0xB69 JUMP JUMPDEST PUSH1 0x40 MLOAD PUSH3 0x461BCD PUSH1 0xE5 SHL DUP2 MSTORE PUSH1 0x20 PUSH1 0x4 DUP3 ADD MSTORE PUSH1 0x18 DUP2 DUP7 ADD MSTORE PUSH24 0x10985D1D1B19481A185CC8185B1C9958591E48195B991959 PUSH1 0x42 SHL PUSH1 0x44 DUP3 ADD MSTORE PUSH1 0x64 SWAP1 REVERT JUMPDEST DUP5 PUSH4 0x4E487B71 PUSH1 0xE0 SHL PUSH1 0x0 MSTORE PUSH1 0x21 PUSH1 0x4 MSTORE PUSH1 0x0 REVERT JUMPDEST PUSH1 0x40 MLOAD PUSH3 0x461BCD PUSH1 0xE5 SHL DUP2 MSTORE PUSH1 0x20 PUSH1 0x4 DUP3 ADD MSTORE PUSH1 0x41 DUP2 DUP7 ADD MSTORE PUSH32 0x426174746C65206E6F7420737461727465642E20506C656173652074656C6C20 PUSH1 0x44 DUP3 ADD MSTORE PUSH32 0x616E6F7468657220706C6179657220746F206A6F696E2074686520626174746C PUSH1 0x64 DUP3 ADD MSTORE PUSH1 0x65 PUSH1 0xF8 SHL PUSH1 0x84 DUP3 ADD MSTORE PUSH1 0xA4 SWAP1 REVERT JUMPDEST CALLVALUE PUSH2 0x2AA JUMPI PUSH1 0x40 CALLDATASIZE PUSH1 0x3 NOT ADD SLT PUSH2 0x2AA JUMPI PUSH2 0x16CE PUSH2 0x2E0A JUMP JUMPDEST PUSH1 0x24 CALLDATALOAD SWAP1 DUP2 ISZERO ISZERO SWAP1 DUP2 DUP4 SUB PUSH2 0x2AA JUMPI PUSH1 0x1 PUSH1 0x1 PUSH1 0xA0 SHL SUB AND SWAP2 CALLER DUP4 EQ PUSH2 0x174B JUMPI PUSH2 0x171D SWAP1 CALLER PUSH1 0x0 MSTORE PUSH1 0x1 PUSH1 0x20 MSTORE PUSH1 0x40 PUSH1 0x0 KECCAK256 DUP5 PUSH1 0x0 MSTORE PUSH1 0x20 MSTORE PUSH1 0x40 PUSH1 0x0 KECCAK256 SWAP1 PUSH1 0xFF DUP1 NOT DUP4 SLOAD AND SWAP2 ISZERO ISZERO AND OR SWAP1 SSTORE JUMP JUMPDEST PUSH1 0x40 MLOAD SWAP1 DUP2 MSTORE PUSH32 0x17307EAB39AB6107E8899845AD3D59BD9653F200F220920489CA2B5937696C31 PUSH1 0x20 CALLER SWAP3 LOG3 STOP JUMPDEST PUSH1 0x40 MLOAD PUSH3 0x461BCD PUSH1 0xE5 SHL DUP2 MSTORE PUSH1 0x20 PUSH1 0x4 DUP3 ADD MSTORE PUSH1 0x29 PUSH1 0x24 DUP3 ADD MSTORE PUSH32 0x455243313135353A2073657474696E6720617070726F76616C20737461747573 PUSH1 0x44 DUP3 ADD MSTORE PUSH9 0x103337B91039B2B633 PUSH1 0xB9 SHL PUSH1 0x64 DUP3 ADD MSTORE PUSH1 0x84 SWAP1 REVERT JUMPDEST CALLVALUE PUSH2 0x2AA JUMPI PUSH1 0x20 DUP1 PUSH1 0x3 NOT CALLDATASIZE ADD SLT PUSH2 0x2AA JUMPI PUSH1 0x4 CALLDATALOAD PUSH1 0x1 PUSH1 0x1 PUSH1 0x40 SHL SUB DUP2 GT PUSH2 0x2AA JUMPI PUSH2 0x17D3 SWAP1 CALLDATASIZE SWAP1 PUSH1 0x4 ADD PUSH2 0x2F5A JUMP JUMPDEST SWAP1 PUSH2 0x17DC PUSH2 0x38A0 JUMP JUMPDEST POP PUSH2 0x17E6 DUP3 PUSH2 0x39AF JUMP JUMPDEST SWAP2 DUP3 MLOAD PUSH1 0x3 DUP2 LT ISZERO PUSH2 0x19A6 JUMPI PUSH2 0x1967 JUMPI PUSH1 0x60 DUP4 ADD DUP1 MLOAD MLOAD SWAP1 SWAP2 PUSH1 0x1 PUSH1 0x1 PUSH1 0xA0 SHL SUB SWAP2 DUP3 AND CALLER EQ PUSH2 0x1918 JUMPI PUSH1 0x80 PUSH2 0x181B CALLER PUSH2 0x36CC JUMP JUMPDEST ADD MLOAD PUSH2 0x18DF JUMPI DUP5 PUSH2 0x1835 SWAP2 PUSH1 0x1 DUP3 MSTORE CALLER DUP7 DUP7 MLOAD ADD MSTORE PUSH2 0x4183 JUMP JUMPDEST DUP1 DUP3 MLOAD MLOAD AND PUSH1 0x0 MSTORE PUSH1 0x7 DUP4 MSTORE PUSH1 0x4 PUSH2 0x1851 PUSH1 0x40 PUSH1 0x0 KECCAK256 SLOAD PUSH2 0x3282 JUMP JUMPDEST POP ADD PUSH1 0xFF NOT SWAP1 PUSH1 0x1 DUP3 DUP3 SLOAD AND OR SWAP1 SSTORE DUP2 DUP5 DUP5 MLOAD ADD MLOAD AND PUSH1 0x0 MSTORE PUSH1 0x7 DUP5 MSTORE PUSH1 0x1 PUSH1 0x4 PUSH2 0x1880 PUSH1 0x40 PUSH1 0x0 KECCAK256 SLOAD PUSH2 0x3282 JUMP JUMPDEST POP ADD SWAP2 DUP3 SLOAD AND OR SWAP1 SSTORE PUSH1 0x40 DUP5 ADD MLOAD SWAP2 MLOAD MLOAD AND PUSH32 0x24187B16C217A79F8D8E6252B542EC6E278FA91304ACD9CFD866F2BBF00BD08 PUSH1 0x40 MLOAD DUP5 DUP2 MSTORE DUP1 PUSH2 0x18C8 CALLER SWAP6 DUP8 DUP4 ADD SWAP1 PUSH2 0x2E59 JUMP JUMPDEST SUB SWAP1 LOG3 PUSH2 0x96F PUSH1 0x40 MLOAD SWAP3 DUP3 DUP5 SWAP4 DUP5 MSTORE DUP4 ADD SWAP1 PUSH2 0x2FAE JUMP JUMPDEST PUSH1 0x40 MLOAD PUSH3 0x461BCD PUSH1 0xE5 SHL DUP2 MSTORE PUSH1 0x4 DUP2 ADD DUP6 SWAP1 MSTORE PUSH1 0x11 PUSH1 0x24 DUP3 ADD MSTORE PUSH17 0x416C726561647920696E20626174746C65 PUSH1 0x78 SHL PUSH1 0x44 DUP3 ADD MSTORE PUSH1 0x64 SWAP1 REVERT JUMPDEST PUSH1 0x40 MLOAD PUSH3 0x461BCD PUSH1 0xE5 SHL DUP2 MSTORE PUSH1 0x4 DUP2 ADD DUP6 SWAP1 MSTORE PUSH1 0x21 PUSH1 0x24 DUP3 ADD MSTORE PUSH32 0x4F6E6C7920706C617965722074776F2063616E206A6F696E206120626174746C PUSH1 0x44 DUP3 ADD MSTORE PUSH1 0x65 PUSH1 0xF8 SHL PUSH1 0x64 DUP3 ADD MSTORE PUSH1 0x84 SWAP1 REVERT JUMPDEST PUSH1 0x40 MLOAD PUSH3 0x461BCD PUSH1 0xE5 SHL DUP2 MSTORE PUSH1 0x4 DUP2 ADD DUP4 SWAP1 MSTORE PUSH1 0x17 PUSH1 0x24 DUP3 ADD MSTORE PUSH23 0x426174746C6520616C7265616479207374617274656421 PUSH1 0x48 SHL PUSH1 0x44 DUP3 ADD MSTORE PUSH1 0x64 SWAP1 REVERT JUMPDEST PUSH4 0x4E487B71 PUSH1 0xE0 SHL PUSH1 0x0 MSTORE PUSH1 0x21 PUSH1 0x4 MSTORE PUSH1 0x24 PUSH1 0x0 REVERT JUMPDEST CALLVALUE PUSH2 0x2AA JUMPI PUSH1 0x20 CALLDATASIZE PUSH1 0x3 NOT ADD SLT PUSH2 0x2AA JUMPI PUSH1 0x4 CALLDATALOAD PUSH1 0x1 PUSH1 0x1 PUSH1 0x40 SHL SUB DUP2 GT PUSH2 0x2AA JUMPI PUSH2 0x19EF PUSH2 0x543 SWAP2 CALLDATASIZE SWAP1 PUSH1 0x4 ADD PUSH2 0x2F5A JUMP JUMPDEST PUSH2 0x3A8B JUMP JUMPDEST CALLVALUE PUSH2 0x2AA JUMPI PUSH1 0x0 CALLDATASIZE PUSH1 0x3 NOT ADD SLT PUSH2 0x2AA JUMPI PUSH1 0x20 PUSH1 0x40 MLOAD PUSH1 0x5 DUP2 MSTORE RETURN JUMPDEST CALLVALUE PUSH2 0x2AA JUMPI PUSH1 0x20 CALLDATASIZE PUSH1 0x3 NOT ADD SLT PUSH2 0x2AA JUMPI PUSH1 0x4 CALLDATALOAD PUSH1 0x1 PUSH1 0x1 PUSH1 0x40 SHL SUB DUP2 GT PUSH2 0x2AA JUMPI PUSH1 0x80 PUSH2 0x1A4C PUSH2 0x1A47 PUSH1 0x40 SWAP4 CALLDATASIZE SWAP1 PUSH1 0x4 ADD PUSH2 0x2F5A JUMP JUMPDEST PUSH2 0x39AF JUMP JUMPDEST ADD MLOAD PUSH1 0xFF PUSH1 0x20 DUP2 DUP4 MLOAD AND SWAP3 ADD MLOAD AND DUP3 MLOAD SWAP2 DUP3 MSTORE PUSH1 0x20 DUP3 ADD MSTORE RETURN JUMPDEST CALLVALUE PUSH2 0x2AA JUMPI PUSH1 0x20 CALLDATASIZE PUSH1 0x3 NOT ADD SLT PUSH2 0x2AA JUMPI PUSH1 0x4 CALLDATALOAD PUSH1 0x1 PUSH1 0x1 PUSH1 0x40 SHL SUB DUP2 GT PUSH2 0x2AA JUMPI PUSH2 0x1A47 PUSH2 0x1A99 SWAP2 CALLDATASIZE SWAP1 PUSH1 0x4 ADD PUSH2 0x2F5A JUMP JUMPDEST PUSH1 0x60 DUP2 ADD SWAP1 DUP2 MLOAD PUSH1 0x1 DUP1 PUSH1 0xA0 SHL SUB SWAP1 DUP2 DUP2 MLOAD AND CALLER EQ SWAP1 DUP2 ISZERO PUSH2 0x1B29 JUMPI JUMPDEST POP ISZERO PUSH2 0x1AE4 JUMPI DUP3 MLOAD MLOAD DUP2 AND CALLER DUP2 SUB PUSH2 0x1AD8 JUMPI POP PUSH1 0x20 PUSH2 0x543 SWAP4 MLOAD ADD MLOAD AND PUSH2 0x41ED JUMP JUMPDEST SWAP1 POP PUSH2 0x543 SWAP3 POP PUSH2 0x41ED JUMP JUMPDEST PUSH1 0x40 MLOAD PUSH3 0x461BCD PUSH1 0xE5 SHL DUP2 MSTORE PUSH1 0x20 PUSH1 0x4 DUP3 ADD MSTORE PUSH1 0x1B PUSH1 0x24 DUP3 ADD MSTORE PUSH32 0x596F7520617265206E6F7420696E207468697320626174746C65210000000000 PUSH1 0x44 DUP3 ADD MSTORE PUSH1 0x64 SWAP1 REVERT JUMPDEST PUSH1 0x20 ADD MLOAD DUP3 AND CALLER EQ SWAP1 POP DUP5 PUSH2 0x1AB6 JUMP JUMPDEST CALLVALUE PUSH2 0x2AA JUMPI PUSH1 0x0 CALLDATASIZE PUSH1 0x3 NOT ADD SLT PUSH2 0x2AA JUMPI PUSH1 0x3 SLOAD PUSH1 0x40 MLOAD PUSH1 0x1 PUSH1 0x1 PUSH1 0xA0 SHL SUB SWAP1 SWAP2 AND DUP2 MSTORE PUSH1 0x20 SWAP1 RETURN JUMPDEST CALLVALUE PUSH2 0x2AA JUMPI PUSH1 0x40 CALLDATASIZE PUSH1 0x3 NOT ADD SLT PUSH2 0x2AA JUMPI PUSH1 0x1 PUSH1 0x1 PUSH1 0x40 SHL SUB PUSH1 0x4 CALLDATALOAD DUP2 DUP2 GT PUSH2 0x2AA JUMPI PUSH2 0x1B93 SWAP1 CALLDATASIZE SWAP1 PUSH1 0x4 ADD PUSH2 0x2F5A JUMP JUMPDEST PUSH1 0x24 CALLDATALOAD DUP3 DUP2 GT PUSH2 0x2AA JUMPI PUSH2 0x1BAB SWAP1 CALLDATASIZE SWAP1 PUSH1 0x4 ADD PUSH2 0x2F5A JUMP JUMPDEST PUSH2 0x1BB4 CALLER PUSH2 0x365F JUMP JUMPDEST PUSH2 0x1DF5 JUMPI PUSH1 0xA SLOAD PUSH1 0x40 MLOAD PUSH2 0x1BC7 DUP2 PUSH2 0x2EE8 JUMP JUMPDEST CALLER DUP2 MSTORE PUSH1 0x20 DUP2 ADD SWAP1 DUP5 DUP3 MSTORE PUSH1 0x40 DUP2 ADD PUSH1 0xA DUP2 MSTORE PUSH1 0x60 DUP3 ADD SWAP1 PUSH1 0x19 DUP3 MSTORE PUSH1 0x0 PUSH1 0x80 DUP5 ADD MSTORE PUSH1 0x1 PUSH1 0x40 SHL DUP6 LT ISZERO PUSH2 0x1DC9 JUMPI PUSH1 0x1 DUP6 ADD PUSH1 0xA SSTORE PUSH2 0x1C06 DUP6 PUSH2 0x3282 JUMP JUMPDEST SWAP5 SWAP1 SWAP5 PUSH2 0x1DDF JUMPI DUP4 MLOAD DUP6 SLOAD PUSH1 0x1 PUSH1 0x1 PUSH1 0xA0 SHL SUB NOT AND PUSH1 0x1 PUSH1 0x1 PUSH1 0xA0 SHL SUB SWAP2 SWAP1 SWAP2 AND OR DUP6 SSTORE MLOAD DUP1 MLOAD SWAP1 SWAP9 DUP2 GT PUSH2 0x1DC9 JUMPI PUSH2 0x1C42 PUSH1 0x1 DUP7 ADD SLOAD PUSH2 0x3183 JUMP JUMPDEST PUSH1 0x1F DUP2 GT PUSH2 0x1D89 JUMPI JUMPDEST POP PUSH1 0x20 PUSH1 0x1F DUP3 GT PUSH1 0x1 EQ PUSH2 0x1D0B JUMPI SWAP3 PUSH1 0x80 SWAP3 DUP3 PUSH2 0x1CAF SWAP8 SWAP7 SWAP4 PUSH1 0x4 SWAP7 PUSH2 0x1CC3 SWAP13 SWAP14 PUSH1 0x0 SWAP3 PUSH2 0x1D00 JUMPI JUMPDEST POP POP DUP2 PUSH1 0x1 SHL SWAP2 PUSH1 0x0 NOT SWAP1 PUSH1 0x3 SHL SHR NOT AND OR PUSH1 0x1 DUP8 ADD SSTORE JUMPDEST MLOAD PUSH1 0x2 DUP7 ADD SSTORE MLOAD PUSH1 0x3 DUP6 ADD SSTORE ADD MLOAD ISZERO ISZERO SWAP2 ADD SWAP1 PUSH1 0xFF DUP1 NOT DUP4 SLOAD AND SWAP2 ISZERO ISZERO AND OR SWAP1 SSTORE JUMP JUMPDEST CALLER PUSH1 0x0 MSTORE PUSH1 0x7 PUSH1 0x20 MSTORE PUSH1 0x40 PUSH1 0x0 KECCAK256 SSTORE PUSH2 0x3A8B JUMP JUMPDEST PUSH32 0x81EF79D1CDA814A60C0FC60792E648A06D9C6BAE67176346D1CC8B63030BFCCD PUSH1 0x40 MLOAD PUSH1 0x20 DUP2 MSTORE DUP1 PUSH2 0x1CFB CALLER SWAP5 PUSH1 0x20 DUP4 ADD SWAP1 PUSH2 0x2E59 JUMP JUMPDEST SUB SWAP1 LOG2 STOP JUMPDEST ADD MLOAD SWAP1 POP DUP14 DUP1 PUSH2 0x1C74 JUMP JUMPDEST PUSH1 0x1 DUP7 ADD PUSH1 0x0 MSTORE PUSH1 0x20 PUSH1 0x0 KECCAK256 SWAP10 PUSH1 0x0 JUMPDEST PUSH1 0x1F NOT DUP5 AND DUP2 LT PUSH2 0x1D71 JUMPI POP SWAP3 PUSH1 0x1 DUP4 PUSH2 0x1CC3 SWAP12 SWAP13 PUSH1 0x4 SWAP8 SWAP5 PUSH1 0x80 SWAP8 PUSH2 0x1CAF SWAP12 SWAP11 SWAP8 PUSH1 0x1F NOT DUP2 AND LT PUSH2 0x1D58 JUMPI JUMPDEST POP POP POP DUP2 SHL ADD PUSH1 0x1 DUP8 ADD SSTORE PUSH2 0x1C8C JUMP JUMPDEST ADD MLOAD PUSH1 0x0 NOT PUSH1 0xF8 DUP5 PUSH1 0x3 SHL AND SHR NOT AND SWAP1 SSTORE DUP14 DUP1 DUP1 PUSH2 0x1D48 JUMP JUMPDEST DUP3 DUP3 ADD MLOAD DUP13 SSTORE PUSH1 0x1 SWAP1 SWAP12 ADD SWAP11 PUSH1 0x20 SWAP3 DUP4 ADD SWAP3 ADD PUSH2 0x1D1B JUMP JUMPDEST PUSH2 0x1DB9 SWAP1 PUSH1 0x1 DUP8 ADD PUSH1 0x0 MSTORE PUSH1 0x20 PUSH1 0x0 KECCAK256 PUSH1 0x1F DUP5 ADD PUSH1 0x5 SHR DUP2 ADD SWAP2 PUSH1 0x20 DUP6 LT PUSH2 0x1DBF JUMPI JUMPDEST PUSH1 0x1F ADD PUSH1 0x5 SHR ADD SWAP1 PUSH2 0x3A28 JUMP JUMPDEST DUP10 PUSH2 0x1C4B JUMP JUMPDEST SWAP1 SWAP2 POP DUP2 SWAP1 PUSH2 0x1DAC JUMP JUMPDEST PUSH4 0x4E487B71 PUSH1 0xE0 SHL PUSH1 0x0 MSTORE PUSH1 0x41 PUSH1 0x4 MSTORE PUSH1 0x24 PUSH1 0x0 REVERT JUMPDEST PUSH4 0x4E487B71 PUSH1 0xE0 SHL PUSH1 0x0 MSTORE PUSH1 0x0 PUSH1 0x4 MSTORE PUSH1 0x24 PUSH1 0x0 REVERT JUMPDEST PUSH1 0x40 MLOAD PUSH3 0x461BCD PUSH1 0xE5 SHL DUP2 MSTORE PUSH1 0x20 PUSH1 0x4 DUP3 ADD MSTORE PUSH1 0x19 PUSH1 0x24 DUP3 ADD MSTORE PUSH25 0x141B185E595C88185B1C9958591E481C9959DA5CDD195C9959 PUSH1 0x3A SHL PUSH1 0x44 DUP3 ADD MSTORE PUSH1 0x64 SWAP1 REVERT JUMPDEST CALLVALUE PUSH2 0x2AA JUMPI PUSH1 0x0 CALLDATASIZE PUSH1 0x3 NOT ADD SLT PUSH2 0x2AA JUMPI PUSH2 0x1E4F PUSH2 0x32A1 JUMP JUMPDEST PUSH1 0x3 DUP1 SLOAD PUSH1 0x1 PUSH1 0x1 PUSH1 0xA0 SHL SUB NOT DUP2 AND SWAP1 SWAP2 SSTORE PUSH1 0x0 SWAP1 PUSH1 0x1 PUSH1 0x1 PUSH1 0xA0 SHL SUB AND PUSH32 0x8BE0079C531659141344CD1FD0A4F28419497F9722A3DAAFE3B4186F6B6457E0 DUP3 DUP1 LOG3 STOP JUMPDEST CALLVALUE PUSH2 0x2AA JUMPI PUSH1 0x0 CALLDATASIZE PUSH1 0x3 NOT ADD SLT PUSH2 0x2AA JUMPI PUSH1 0x20 PUSH1 0x40 MLOAD PUSH1 0x2 DUP2 MSTORE RETURN JUMPDEST CALLVALUE PUSH2 0x2AA JUMPI PUSH1 0x0 CALLDATASIZE PUSH1 0x3 NOT ADD SLT PUSH2 0x2AA JUMPI PUSH1 0x40 MLOAD PUSH1 0x0 SWAP1 PUSH1 0x5 SLOAD PUSH2 0x1ED2 DUP2 PUSH2 0x3183 JUMP JUMPDEST DUP1 DUP4 MSTORE PUSH1 0x1 SWAP2 DUP1 DUP4 AND SWAP1 DUP2 ISZERO PUSH2 0x1F69 JUMPI POP PUSH1 0x1 EQ PUSH2 0x1F0F JUMPI JUMPDEST PUSH2 0x96F DUP4 PUSH2 0x1EFB DUP2 DUP8 SUB DUP3 PUSH2 0x2F1E JUMP JUMPDEST PUSH1 0x40 MLOAD SWAP2 DUP3 SWAP2 PUSH1 0x20 DUP4 MSTORE PUSH1 0x20 DUP4 ADD SWAP1 PUSH2 0x2E59 JUMP JUMPDEST PUSH1 0x5 PUSH1 0x0 SWAP1 DUP2 MSTORE PUSH1 0x20 SWAP5 POP SWAP2 PUSH32 0x36B6384B5ECA791C62761152D0C79BB0604C104A5FB6F4EB0703F3154BB3DB0 JUMPDEST DUP3 DUP5 LT PUSH2 0x1F56 JUMPI POP POP POP DUP2 ADD SWAP1 SWAP2 ADD SWAP1 PUSH2 0x1EFB DUP2 PUSH2 0x1EEB JUMP JUMPDEST DUP1 SLOAD DUP6 DUP6 ADD DUP8 ADD MSTORE SWAP3 DUP6 ADD SWAP3 DUP2 ADD PUSH2 0x1F3D JUMP JUMPDEST PUSH2 0x96F SWAP6 POP PUSH2 0x1EFB SWAP4 POP PUSH1 0x20 SWAP2 POP SWAP2 DUP5 SWAP3 PUSH1 0xFF NOT AND DUP3 DUP5 ADD MSTORE ISZERO ISZERO PUSH1 0x5 SHL DUP3 ADD ADD SWAP4 POP PUSH2 0x1EEB JUMP JUMPDEST CALLVALUE PUSH2 0x2AA JUMPI PUSH1 0x20 CALLDATASIZE PUSH1 0x3 NOT ADD SLT PUSH2 0x2AA JUMPI PUSH1 0x4 CALLDATALOAD PUSH1 0xC SLOAD DUP2 LT ISZERO PUSH2 0x2AA JUMPI PUSH2 0x1FF8 SWAP1 PUSH1 0xC PUSH1 0x0 MSTORE PUSH1 0x7 PUSH1 0x20 PUSH1 0x0 KECCAK256 SWAP2 MUL ADD PUSH1 0xFF DUP2 SLOAD AND SWAP1 PUSH2 0x200E PUSH1 0x1 DUP3 ADD SLOAD SWAP2 PUSH2 0x1FDD PUSH1 0x2 DUP3 ADD PUSH2 0x31BD JUMP JUMPDEST SWAP1 PUSH1 0x6 PUSH1 0x1 DUP1 PUSH1 0xA0 SHL SUB SWAP2 ADD SLOAD AND SWAP3 PUSH1 0x40 MLOAD SWAP6 DUP7 DUP1 SWAP7 PUSH2 0x2FA1 JUMP JUMPDEST PUSH1 0x20 DUP6 ADD MSTORE PUSH1 0x80 PUSH1 0x40 DUP6 ADD MSTORE PUSH1 0x80 DUP5 ADD SWAP1 PUSH2 0x2E59 JUMP JUMPDEST SWAP1 PUSH1 0x60 DUP4 ADD MSTORE SUB SWAP1 RETURN JUMPDEST CALLVALUE PUSH2 0x2AA JUMPI PUSH1 0x0 CALLDATASIZE PUSH1 0x3 NOT ADD SLT PUSH2 0x2AA JUMPI PUSH1 0xC SLOAD PUSH2 0x2035 DUP2 PUSH2 0x305D JUMP JUMPDEST SWAP1 PUSH2 0x2043 PUSH1 0x40 MLOAD SWAP3 DUP4 PUSH2 0x2F1E JUMP JUMPDEST DUP1 DUP3 MSTORE PUSH1 0xC PUSH1 0x0 SWAP1 DUP2 MSTORE PUSH1 0x20 SWAP2 DUP3 DUP5 ADD SWAP2 PUSH32 0xDF6966C971051C3D54EC59162606531493A51404A002842F56009D7E5CF4A8C7 DUP4 JUMPDEST DUP4 DUP4 LT PUSH2 0x20DE JUMPI POP POP POP POP PUSH1 0x40 MLOAD SWAP2 DUP1 DUP4 ADD SWAP4 DUP2 DUP5 MSTORE MLOAD DUP1 SWAP5 MSTORE PUSH1 0x40 DUP4 ADD SWAP4 PUSH1 0x40 DUP2 PUSH1 0x5 SHL DUP6 ADD ADD SWAP3 SWAP2 PUSH1 0x0 SWAP6 JUMPDEST DUP3 DUP8 LT PUSH2 0x20B2 JUMPI DUP6 DUP6 SUB DUP7 RETURN JUMPDEST SWAP1 SWAP2 SWAP3 SWAP4 DUP3 DUP1 PUSH2 0x20CE PUSH1 0x1 SWAP4 PUSH1 0x3F NOT DUP11 DUP3 SUB ADD DUP7 MSTORE DUP9 MLOAD PUSH2 0x2FAE JUMP JUMPDEST SWAP7 ADD SWAP3 ADD SWAP7 ADD SWAP6 SWAP3 SWAP2 SWAP1 SWAP3 PUSH2 0x20A5 JUMP JUMPDEST PUSH1 0x7 DUP7 PUSH1 0x1 SWAP3 PUSH2 0x20F0 DUP6 SWAP11 SWAP10 SWAP11 PUSH2 0x38EF JUMP JUMPDEST DUP2 MSTORE ADD SWAP3 ADD SWAP3 ADD SWAP2 SWAP1 SWAP6 SWAP5 SWAP6 PUSH2 0x2077 JUMP JUMPDEST CALLVALUE PUSH2 0x2AA JUMPI PUSH1 0x20 CALLDATASIZE PUSH1 0x3 NOT ADD SLT PUSH2 0x2AA JUMPI PUSH2 0x96F PUSH2 0x2125 PUSH2 0x2120 PUSH2 0x2E0A JUMP JUMPDEST PUSH2 0x36CC JUMP JUMPDEST PUSH1 0x40 MLOAD SWAP2 DUP3 SWAP2 PUSH1 0x20 DUP4 MSTORE PUSH1 0x20 DUP4 ADD SWAP1 PUSH2 0x3106 JUMP JUMPDEST CALLVALUE PUSH2 0x2AA JUMPI PUSH1 0x20 CALLDATASIZE PUSH1 0x3 NOT ADD SLT PUSH2 0x2AA JUMPI PUSH1 0x4 CALLDATALOAD PUSH1 0x0 MSTORE PUSH1 0x4 PUSH1 0x20 MSTORE PUSH1 0x20 PUSH1 0x40 PUSH1 0x0 KECCAK256 SLOAD ISZERO ISZERO PUSH1 0x40 MLOAD SWAP1 DUP2 MSTORE RETURN JUMPDEST CALLVALUE PUSH2 0x2AA JUMPI PUSH1 0x40 CALLDATASIZE PUSH1 0x3 NOT ADD SLT PUSH2 0x2AA JUMPI PUSH1 0x4 CALLDATALOAD PUSH1 0x1 PUSH1 0x1 PUSH1 0x40 SHL SUB DUP1 DUP3 GT PUSH2 0x2AA JUMPI CALLDATASIZE PUSH1 0x23 DUP4 ADD SLT ISZERO PUSH2 0x2AA JUMPI DUP2 PUSH1 0x4 ADD CALLDATALOAD SWAP1 PUSH2 0x21A4 DUP3 PUSH2 0x305D JUMP JUMPDEST SWAP3 PUSH2 0x21B2 PUSH1 0x40 MLOAD SWAP5 DUP6 PUSH2 0x2F1E JUMP JUMPDEST DUP3 DUP5 MSTORE PUSH1 0x20 SWAP3 PUSH1 0x24 DUP5 DUP7 ADD SWAP2 PUSH1 0x5 SHL DUP4 ADD ADD SWAP2 CALLDATASIZE DUP4 GT PUSH2 0x2AA JUMPI PUSH1 0x24 ADD SWAP1 JUMPDEST DUP3 DUP3 LT PUSH2 0x22E6 JUMPI POP POP POP PUSH1 0x24 CALLDATALOAD SWAP1 DUP2 GT PUSH2 0x2AA JUMPI PUSH2 0x21F3 SWAP1 CALLDATASIZE SWAP1 PUSH1 0x4 ADD PUSH2 0x3074 JUMP JUMPDEST DUP3 MLOAD DUP2 MLOAD SUB PUSH2 0x228F JUMPI DUP3 MLOAD SWAP3 PUSH2 0x2208 DUP5 PUSH2 0x305D JUMP JUMPDEST SWAP4 PUSH2 0x2216 PUSH1 0x40 MLOAD SWAP6 DUP7 PUSH2 0x2F1E JUMP JUMPDEST DUP1 DUP6 MSTORE PUSH2 0x2225 PUSH1 0x1F NOT SWAP2 PUSH2 0x305D JUMP JUMPDEST ADD CALLDATASIZE DUP5 DUP7 ADD CALLDATACOPY PUSH1 0x0 JUMPDEST DUP2 MLOAD DUP2 LT ISZERO PUSH2 0x2278 JUMPI PUSH2 0x2273 SWAP1 PUSH2 0x2263 PUSH1 0x1 PUSH1 0x1 PUSH1 0xA0 SHL SUB PUSH2 0x2250 DUP4 DUP7 PUSH2 0x33B0 JUMP JUMPDEST MLOAD AND PUSH2 0x225C DUP4 DUP8 PUSH2 0x33B0 JUMP JUMPDEST MLOAD SWAP1 PUSH2 0x32F9 JUMP JUMPDEST PUSH2 0x226D DUP3 DUP9 PUSH2 0x33B0 JUMP JUMPDEST MSTORE PUSH2 0x337E JUMP JUMPDEST PUSH2 0x222E JUMP JUMPDEST POP POP POP PUSH2 0x96F PUSH1 0x40 MLOAD SWAP3 DUP3 DUP5 SWAP4 DUP5 MSTORE DUP4 ADD SWAP1 PUSH2 0x30D2 JUMP JUMPDEST PUSH1 0x40 MLOAD PUSH3 0x461BCD PUSH1 0xE5 SHL DUP2 MSTORE PUSH1 0x4 DUP2 ADD DUP4 SWAP1 MSTORE PUSH1 0x29 PUSH1 0x24 DUP3 ADD MSTORE PUSH32 0x455243313135353A206163636F756E747320616E6420696473206C656E677468 PUSH1 0x44 DUP3 ADD MSTORE PUSH9 0x40DAD2E6DAC2E8C6D PUSH1 0xBB SHL PUSH1 0x64 DUP3 ADD MSTORE PUSH1 0x84 SWAP1 REVERT JUMPDEST DUP2 CALLDATALOAD PUSH1 0x1 PUSH1 0x1 PUSH1 0xA0 SHL SUB DUP2 AND DUP2 SUB PUSH2 0x2AA JUMPI DUP2 MSTORE SWAP1 DUP5 ADD SWAP1 DUP5 ADD PUSH2 0x21D1 JUMP JUMPDEST CALLVALUE PUSH2 0x2AA JUMPI PUSH1 0x20 CALLDATASIZE PUSH1 0x3 NOT ADD SLT PUSH2 0x2AA JUMPI PUSH1 0x1 PUSH1 0x1 PUSH1 0xA0 SHL SUB PUSH2 0x2326 PUSH2 0x2E0A JUMP JUMPDEST AND PUSH1 0x0 MSTORE PUSH1 0x7 PUSH1 0x20 MSTORE PUSH1 0x20 PUSH1 0x40 PUSH1 0x0 KECCAK256 SLOAD PUSH1 0x40 MLOAD SWAP1 DUP2 MSTORE RETURN JUMPDEST CALLVALUE PUSH2 0x2AA JUMPI PUSH1 0x20 CALLDATASIZE PUSH1 0x3 NOT ADD SLT PUSH2 0x2AA JUMPI PUSH1 0x4 CALLDATALOAD PUSH1 0x1 PUSH1 0x1 PUSH1 0x40 SHL SUB DUP2 GT PUSH2 0x2AA JUMPI PUSH2 0x2388 PUSH1 0x20 PUSH2 0x2375 DUP2 SWAP4 CALLDATASIZE SWAP1 PUSH1 0x4 ADD PUSH2 0x2F5A JUMP JUMPDEST DUP2 PUSH1 0x40 MLOAD SWAP4 DUP3 DUP6 DUP1 SWAP5 MLOAD SWAP4 DUP5 SWAP3 ADD PUSH2 0x2E36 JUMP JUMPDEST DUP2 ADD PUSH1 0x9 DUP2 MSTORE SUB ADD SWAP1 KECCAK256 SLOAD PUSH1 0x40 MLOAD SWAP1 DUP2 MSTORE RETURN JUMPDEST CALLVALUE PUSH2 0x2AA JUMPI PUSH1 0x3 NOT PUSH1 0xA0 CALLDATASIZE DUP3 ADD SLT PUSH2 0x2AA JUMPI PUSH2 0x23B5 PUSH2 0x2E0A JUMP JUMPDEST SWAP1 PUSH2 0x23BE PUSH2 0x2E20 JUMP JUMPDEST SWAP1 PUSH1 0x1 PUSH1 0x1 PUSH1 0x40 SHL SUB PUSH1 0x44 DUP1 CALLDATALOAD DUP3 DUP2 GT PUSH2 0x2AA JUMPI PUSH2 0x23E0 SWAP1 CALLDATASIZE SWAP1 PUSH1 0x4 ADD PUSH2 0x3074 JUMP JUMPDEST SWAP1 PUSH1 0x64 SWAP1 DUP2 CALLDATALOAD DUP5 DUP2 GT PUSH2 0x2AA JUMPI PUSH2 0x23FB SWAP1 CALLDATASIZE SWAP1 PUSH1 0x4 ADD PUSH2 0x3074 JUMP JUMPDEST SWAP5 PUSH1 0x84 SWAP5 DUP6 CALLDATALOAD SWAP1 DUP2 GT PUSH2 0x2AA JUMPI PUSH2 0x2416 SWAP1 CALLDATASIZE SWAP1 PUSH1 0x4 ADD PUSH2 0x2F5A JUMP JUMPDEST PUSH1 0x1 PUSH1 0x1 PUSH1 0xA0 SHL SUB SWAP9 DUP10 AND SWAP9 SWAP1 SWAP2 SWAP1 CALLER DUP11 EQ DUP1 ISZERO PUSH2 0x27B3 JUMPI JUMPDEST PUSH2 0x2438 SWAP1 PUSH2 0x33C4 JUMP JUMPDEST DUP6 MLOAD DUP9 MLOAD SUB PUSH2 0x2760 JUMPI DUP9 AND SWAP6 DUP7 ISZERO PUSH2 0x2450 DUP2 ISZERO PUSH2 0x3427 JUMP JUMPDEST DUP11 ISZERO PUSH2 0x271D JUMPI JUMPDEST PUSH2 0x2658 JUMPI JUMPDEST PUSH1 0x0 JUMPDEST DUP7 MLOAD DUP2 LT ISZERO PUSH2 0x24EF JUMPI DUP1 PUSH2 0x2476 PUSH2 0x24EA SWAP3 DUP10 PUSH2 0x33B0 JUMP JUMPDEST MLOAD DUP13 PUSH2 0x2482 DUP4 DUP14 PUSH2 0x33B0 JUMP JUMPDEST MLOAD SWAP2 DUP1 PUSH1 0x0 MSTORE DUP3 PUSH1 0x20 SWAP3 PUSH1 0x0 DUP5 MSTORE PUSH1 0x40 PUSH1 0x0 KECCAK256 DUP2 PUSH1 0x0 MSTORE DUP5 MSTORE PUSH1 0x40 PUSH1 0x0 KECCAK256 SLOAD SWAP1 PUSH2 0x24AE DUP4 DUP4 LT ISZERO PUSH2 0x3481 JUMP JUMPDEST DUP4 PUSH1 0x0 MSTORE PUSH1 0x0 DUP6 MSTORE PUSH1 0x40 PUSH1 0x0 KECCAK256 SWAP1 PUSH1 0x0 MSTORE DUP5 MSTORE SUB PUSH1 0x40 PUSH1 0x0 KECCAK256 SSTORE PUSH1 0x0 MSTORE PUSH1 0x0 DUP2 MSTORE PUSH1 0x40 PUSH1 0x0 KECCAK256 SWAP1 DUP12 PUSH1 0x0 MSTORE MSTORE PUSH2 0x6F6 PUSH1 0x40 PUSH1 0x0 KECCAK256 SWAP2 DUP3 SLOAD PUSH2 0x34E0 JUMP JUMPDEST PUSH2 0x245F JUMP JUMPDEST POP SWAP1 SWAP2 SWAP3 SWAP4 SWAP7 DUP10 SWAP9 DUP8 DUP11 PUSH1 0x40 MLOAD PUSH1 0x40 DUP2 MSTORE PUSH32 0x4A39DC06D4C0DBC64B70AF90FD698A233A518AA5D07E595D983B8C0526C8F7FB PUSH2 0x252E PUSH1 0x40 DUP4 ADD DUP13 PUSH2 0x30D2 JUMP JUMPDEST SWAP2 DUP1 DUP4 SUB PUSH1 0x20 DUP3 ADD MSTORE DUP1 PUSH2 0x2543 CALLER SWAP5 DUP10 PUSH2 0x30D2 JUMP JUMPDEST SUB SWAP1 LOG4 EXTCODESIZE PUSH2 0x254D JUMPI STOP JUMPDEST PUSH1 0x40 MLOAD SWAP8 DUP9 SWAP7 DUP8 SWAP7 PUSH4 0xBC197C81 PUSH1 0xE0 SHL SWAP12 DUP13 DUP10 MSTORE CALLER PUSH1 0x4 DUP11 ADD MSTORE PUSH1 0x24 DUP10 ADD MSTORE DUP8 ADD PUSH1 0xA0 SWAP1 MSTORE PUSH1 0xA4 DUP8 ADD PUSH2 0x257F SWAP2 PUSH2 0x30D2 JUMP JUMPDEST SWAP1 DUP5 DUP8 DUP4 SUB ADD SWAP1 DUP8 ADD MSTORE PUSH2 0x2592 SWAP2 PUSH2 0x30D2 JUMP JUMPDEST SWAP2 DUP5 DUP4 SUB ADD SWAP1 DUP5 ADD MSTORE PUSH2 0x25A4 SWAP2 PUSH2 0x2E59 JUMP JUMPDEST SUB DUP2 GAS PUSH1 0x20 SWAP5 PUSH1 0x0 SWAP2 CALL PUSH1 0x0 SWAP2 DUP2 PUSH2 0x2638 JUMPI JUMPDEST POP PUSH2 0x2610 JUMPI POP POP PUSH1 0x1 PUSH2 0x25C8 PUSH2 0x3556 JUMP JUMPDEST PUSH4 0x8C379A0 EQ PUSH2 0x25D9 JUMPI JUMPDEST PUSH2 0x545 JUMPI STOP JUMPDEST PUSH2 0x25E1 PUSH2 0x3574 JUMP JUMPDEST DUP1 PUSH2 0x25EC JUMPI POP PUSH2 0x25D3 JUMP JUMPDEST PUSH1 0x40 MLOAD PUSH3 0x461BCD PUSH1 0xE5 SHL DUP2 MSTORE PUSH1 0x20 PUSH1 0x4 DUP3 ADD MSTORE SWAP1 DUP2 SWAP1 PUSH2 0x55E SWAP1 PUSH1 0x24 DUP4 ADD SWAP1 PUSH2 0x2E59 JUMP JUMPDEST PUSH1 0x1 PUSH1 0x1 PUSH1 0xE0 SHL SUB NOT AND EQ PUSH2 0x543 JUMPI PUSH1 0x40 MLOAD PUSH3 0x461BCD PUSH1 0xE5 SHL DUP2 MSTORE DUP1 PUSH2 0x55E PUSH1 0x4 DUP3 ADD PUSH2 0x350D JUMP JUMPDEST PUSH2 0x2651 SWAP2 SWAP3 POP PUSH1 0x20 RETURNDATASIZE DUP2 GT PUSH2 0x5E9 JUMPI PUSH2 0x5DA DUP2 DUP4 PUSH2 0x2F1E JUMP JUMPDEST SWAP1 DUP4 PUSH2 0x25B7 JUMP JUMPDEST SWAP7 SWAP5 SWAP4 SWAP9 SWAP3 SWAP6 SWAP1 SWAP8 SWAP2 PUSH1 0x0 JUMPDEST DUP6 MLOAD DUP2 LT ISZERO PUSH2 0x270E JUMPI PUSH2 0x2677 DUP2 DUP8 PUSH2 0x33B0 JUMP JUMPDEST MLOAD PUSH2 0x2682 DUP3 DUP10 PUSH2 0x33B0 JUMP JUMPDEST MLOAD SWAP1 DUP1 PUSH1 0x0 MSTORE PUSH1 0x20 PUSH1 0x4 DUP2 MSTORE PUSH1 0x40 PUSH1 0x0 KECCAK256 SLOAD SWAP2 DUP4 DUP4 LT PUSH2 0x26BB JUMPI PUSH2 0x26B6 SWAP5 SWAP4 SWAP3 SWAP2 PUSH1 0x4 SWAP2 PUSH1 0x0 MSTORE MSTORE SUB PUSH1 0x40 PUSH1 0x0 KECCAK256 SSTORE PUSH2 0x337E JUMP JUMPDEST PUSH2 0x2664 JUMP JUMPDEST POP DUP12 SWAP1 PUSH8 0x616C537570706C79 PUSH1 0xC0 SHL DUP16 PUSH32 0x455243313135353A206275726E20616D6F756E74206578636565647320746F74 DUP15 PUSH1 0x40 MLOAD SWAP5 PUSH3 0x461BCD PUSH1 0xE5 SHL DUP7 MSTORE PUSH1 0x4 DUP7 ADD MSTORE PUSH1 0x28 PUSH1 0x24 DUP7 ADD MSTORE DUP5 ADD MSTORE DUP3 ADD MSTORE REVERT JUMPDEST POP SWAP2 SWAP8 SWAP1 SWAP6 SWAP3 SWAP9 SWAP4 SWAP5 SWAP7 PUSH2 0x245C JUMP JUMPDEST SWAP9 SWAP6 SWAP10 SWAP7 SWAP5 SWAP4 SWAP3 SWAP2 SWAP1 PUSH1 0x0 JUMPDEST DUP12 MLOAD DUP2 LT ISZERO PUSH2 0x2751 JUMPI DUP1 DUP13 PUSH2 0x6DD DUP3 PUSH2 0x2745 PUSH2 0x274C SWAP6 DUP16 PUSH2 0x33B0 JUMP JUMPDEST MLOAD SWAP3 PUSH2 0x33B0 JUMP JUMPDEST PUSH2 0x2729 JUMP JUMPDEST POP SWAP1 SWAP2 SWAP3 SWAP4 SWAP5 SWAP7 SWAP10 SWAP6 SWAP9 PUSH2 0x2457 JUMP JUMPDEST PUSH1 0x40 MLOAD PUSH3 0x461BCD PUSH1 0xE5 SHL DUP2 MSTORE PUSH1 0x20 PUSH1 0x4 DUP3 ADD MSTORE PUSH1 0x28 PUSH1 0x24 DUP3 ADD MSTORE PUSH32 0x455243313135353A2069647320616E6420616D6F756E7473206C656E67746820 DUP2 DUP7 ADD MSTORE PUSH8 0xDAD2E6DAC2E8C6D PUSH1 0xC3 SHL DUP2 DUP8 ADD MSTORE DUP8 SWAP1 REVERT JUMPDEST POP DUP10 PUSH1 0x0 MSTORE PUSH1 0x1 PUSH1 0x20 MSTORE PUSH1 0x40 PUSH1 0x0 KECCAK256 CALLER PUSH1 0x0 MSTORE PUSH1 0x20 MSTORE PUSH2 0x2438 PUSH1 0xFF PUSH1 0x40 PUSH1 0x0 KECCAK256 SLOAD AND SWAP1 POP PUSH2 0x242F JUMP JUMPDEST CALLVALUE PUSH2 0x2AA JUMPI PUSH1 0x20 DUP1 PUSH1 0x3 NOT CALLDATASIZE ADD SLT PUSH2 0x2AA JUMPI PUSH1 0x4 CALLDATALOAD PUSH1 0x1 PUSH1 0x1 PUSH1 0x40 SHL SUB DUP2 GT PUSH2 0x2AA JUMPI PUSH2 0x280D SWAP1 CALLDATASIZE SWAP1 PUSH1 0x4 ADD PUSH2 0x2F5A JUMP JUMPDEST SWAP1 PUSH2 0x2816 PUSH2 0x38A0 JUMP JUMPDEST POP PUSH2 0x2828 PUSH2 0x2823 CALLER PUSH2 0x365F JUMP JUMPDEST PUSH2 0x3A3F JUMP JUMPDEST PUSH2 0x2831 DUP3 PUSH2 0x386F JUMP JUMPDEST PUSH2 0x291C JUMPI DUP1 PUSH1 0x40 MLOAD DUP2 DUP2 ADD SWAP1 DUP3 DUP3 MSTORE PUSH2 0x285F DUP2 PUSH2 0x2851 PUSH1 0x40 DUP3 ADD DUP9 PUSH2 0x2E59 JUMP JUMPDEST SUB PUSH1 0x1F NOT DUP2 ADD DUP4 MSTORE DUP3 PUSH2 0x2F1E JUMP JUMPDEST MLOAD SWAP1 KECCAK256 SWAP3 PUSH1 0x40 MLOAD PUSH2 0x286F DUP2 PUSH2 0x2EB2 JUMP JUMPDEST CALLER DUP2 MSTORE PUSH1 0x0 DUP4 DUP3 ADD MSTORE PUSH1 0x40 MLOAD SWAP1 PUSH2 0x2885 DUP3 PUSH2 0x2EB2 JUMP JUMPDEST PUSH1 0x0 DUP3 MSTORE PUSH1 0x0 DUP5 DUP4 ADD MSTORE PUSH1 0x40 MLOAD SWAP6 PUSH2 0x289C DUP8 PUSH2 0x2ECD JUMP JUMPDEST PUSH1 0x0 DUP8 MSTORE DUP5 DUP8 ADD MSTORE DUP3 PUSH1 0x40 DUP8 ADD MSTORE PUSH1 0x60 DUP7 ADD MSTORE PUSH1 0x80 DUP6 ADD MSTORE PUSH1 0x0 PUSH1 0xA0 DUP6 ADD MSTORE PUSH2 0x28D7 PUSH1 0xC SLOAD SWAP3 DUP4 SWAP3 DUP2 PUSH1 0x40 MLOAD SWAP4 DUP3 DUP6 DUP1 SWAP5 MLOAD SWAP4 DUP5 SWAP3 ADD PUSH2 0x2E36 JUMP JUMPDEST DUP2 ADD PUSH1 0x9 DUP2 MSTORE SUB ADD SWAP1 KECCAK256 SSTORE PUSH1 0x1 PUSH1 0x40 SHL DUP2 LT ISZERO PUSH2 0x1DC9 JUMPI DUP3 PUSH2 0x2902 DUP3 PUSH1 0x1 PUSH2 0x2908 SWAP5 ADD PUSH1 0xC SSTORE PUSH2 0x314E JUMP JUMPDEST SWAP1 PUSH2 0x3FB3 JUMP JUMPDEST PUSH2 0x96F PUSH1 0x40 MLOAD SWAP3 DUP3 DUP5 SWAP4 DUP5 MSTORE DUP4 ADD SWAP1 PUSH2 0x2FAE JUMP JUMPDEST PUSH1 0x64 SWAP1 PUSH1 0x40 MLOAD SWAP1 PUSH3 0x461BCD PUSH1 0xE5 SHL DUP3 MSTORE PUSH1 0x4 DUP3 ADD MSTORE PUSH1 0x16 PUSH1 0x24 DUP3 ADD MSTORE PUSH22 0x426174746C6520616C72656164792065786973747321 PUSH1 0x50 SHL PUSH1 0x44 DUP3 ADD MSTORE REVERT JUMPDEST CALLVALUE PUSH2 0x2AA JUMPI PUSH1 0x20 CALLDATASIZE PUSH1 0x3 NOT ADD SLT PUSH2 0x2AA JUMPI PUSH1 0x1 PUSH1 0x1 PUSH1 0xA0 SHL SUB PUSH2 0x297A PUSH2 0x2E0A JUMP JUMPDEST AND PUSH1 0x0 MSTORE PUSH1 0x8 PUSH1 0x20 MSTORE PUSH1 0x20 PUSH1 0x40 PUSH1 0x0 KECCAK256 SLOAD PUSH1 0x40 MLOAD SWAP1 DUP2 MSTORE RETURN JUMPDEST CALLVALUE PUSH2 0x2AA JUMPI PUSH1 0x20 CALLDATASIZE PUSH1 0x3 NOT ADD SLT PUSH2 0x2AA JUMPI PUSH1 0x4 CALLDATALOAD PUSH1 0x1 PUSH1 0x1 PUSH1 0x40 SHL SUB DUP2 GT PUSH2 0x2AA JUMPI PUSH2 0x29C9 PUSH2 0x1A47 PUSH2 0x96F SWAP3 CALLDATASIZE SWAP1 PUSH1 0x4 ADD PUSH2 0x2F5A JUMP JUMPDEST PUSH1 0x40 MLOAD SWAP2 DUP3 SWAP2 PUSH1 0x20 DUP4 MSTORE PUSH1 0x20 DUP4 ADD SWAP1 PUSH2 0x2FAE JUMP JUMPDEST CALLVALUE PUSH2 0x2AA JUMPI PUSH1 0x20 CALLDATASIZE PUSH1 0x3 NOT ADD SLT PUSH2 0x2AA JUMPI PUSH1 0x4 CALLDATALOAD PUSH1 0x1 PUSH1 0x1 PUSH1 0x40 SHL SUB DUP2 GT PUSH2 0x2AA JUMPI PUSH2 0xA1B PUSH2 0x2A12 PUSH1 0x20 SWAP3 CALLDATASIZE SWAP1 PUSH1 0x4 ADD PUSH2 0x2F5A JUMP JUMPDEST PUSH2 0x386F JUMP JUMPDEST CALLVALUE PUSH2 0x2AA JUMPI PUSH1 0x20 CALLDATASIZE PUSH1 0x3 NOT ADD SLT PUSH2 0x2AA JUMPI PUSH2 0x96F PUSH2 0x2A3B PUSH2 0x2A36 PUSH2 0x2E0A JUMP JUMPDEST PUSH2 0x37F0 JUMP JUMPDEST PUSH1 0x40 MLOAD SWAP2 DUP3 SWAP2 PUSH1 0x20 DUP4 MSTORE PUSH1 0x20 DUP4 ADD SWAP1 PUSH2 0x2E7E JUMP JUMPDEST CALLVALUE PUSH2 0x2AA JUMPI PUSH1 0x20 DUP1 PUSH1 0x3 NOT CALLDATASIZE ADD SLT PUSH2 0x2AA JUMPI PUSH1 0x40 MLOAD SWAP1 PUSH1 0x0 DUP3 PUSH1 0x2 SLOAD SWAP2 PUSH2 0x2A75 DUP4 PUSH2 0x3183 JUMP JUMPDEST SWAP3 DUP4 DUP4 MSTORE PUSH1 0x1 SWAP1 DUP6 DUP3 DUP3 AND SWAP2 DUP3 PUSH1 0x0 EQ PUSH2 0x2AE0 JUMPI POP POP PUSH1 0x1 EQ PUSH2 0x2AA0 JUMPI JUMPDEST POP PUSH2 0x95B SWAP3 POP SUB DUP4 PUSH2 0x2F1E JUMP JUMPDEST DUP5 SWAP2 POP PUSH1 0x2 PUSH1 0x0 MSTORE DUP2 PUSH1 0x0 KECCAK256 SWAP1 PUSH1 0x0 SWAP2 JUMPDEST DUP6 DUP4 LT PUSH2 0x2AC8 JUMPI POP POP PUSH2 0x95B SWAP4 POP DUP3 ADD ADD DUP6 PUSH2 0x2A93 JUMP JUMPDEST DUP1 SLOAD DUP4 DUP10 ADD DUP6 ADD MSTORE DUP8 SWAP5 POP DUP7 SWAP4 SWAP1 SWAP3 ADD SWAP2 DUP2 ADD PUSH2 0x2AB1 JUMP JUMPDEST PUSH1 0xFF NOT AND DUP6 DUP3 ADD MSTORE PUSH2 0x95B SWAP6 ISZERO ISZERO PUSH1 0x5 SHL DUP6 ADD ADD SWAP3 POP DUP8 SWAP2 POP PUSH2 0x2A93 SWAP1 POP JUMP JUMPDEST CALLVALUE PUSH2 0x2AA JUMPI PUSH1 0x0 CALLDATASIZE PUSH1 0x3 NOT ADD SLT PUSH2 0x2AA JUMPI PUSH1 0x20 PUSH1 0x40 MLOAD PUSH1 0xA DUP2 MSTORE RETURN JUMPDEST CALLVALUE PUSH2 0x2AA JUMPI PUSH1 0x20 CALLDATASIZE PUSH1 0x3 NOT ADD SLT PUSH2 0x2AA JUMPI PUSH1 0x20 PUSH2 0xA1B PUSH2 0x2B3A PUSH2 0x2E0A JUMP JUMPDEST PUSH2 0x365F JUMP JUMPDEST CALLVALUE PUSH2 0x2AA JUMPI PUSH1 0x0 CALLDATASIZE PUSH1 0x3 NOT ADD SLT PUSH2 0x2AA JUMPI PUSH1 0x20 PUSH1 0x40 MLOAD PUSH1 0x3 DUP2 MSTORE RETURN JUMPDEST CALLVALUE PUSH2 0x2AA JUMPI PUSH1 0x20 DUP1 PUSH1 0x3 NOT CALLDATASIZE ADD SLT PUSH2 0x2AA JUMPI PUSH1 0x1 PUSH1 0x1 PUSH1 0x40 SHL SUB PUSH1 0x4 CALLDATALOAD DUP2 DUP2 GT PUSH2 0x2AA JUMPI PUSH2 0x2B8D SWAP1 CALLDATASIZE SWAP1 PUSH1 0x4 ADD PUSH2 0x2F5A JUMP JUMPDEST SWAP2 PUSH2 0x2B96 PUSH2 0x32A1 JUMP JUMPDEST DUP3 MLOAD SWAP2 DUP3 GT PUSH2 0x1DC9 JUMPI PUSH2 0x2BAA PUSH1 0x2 SLOAD PUSH2 0x3183 JUMP JUMPDEST PUSH1 0x1F DUP2 GT PUSH2 0x2C53 JUMPI JUMPDEST POP DUP1 PUSH1 0x1F DUP4 GT PUSH1 0x1 EQ PUSH2 0x2BEF JUMPI POP DUP2 SWAP3 PUSH1 0x0 SWAP3 PUSH2 0x2BE4 JUMPI JUMPDEST POP POP PUSH1 0x0 NOT PUSH1 0x3 DUP4 SWAP1 SHL SHR NOT AND PUSH1 0x1 SWAP2 SWAP1 SWAP2 SHL OR PUSH1 0x2 SSTORE STOP JUMPDEST ADD MLOAD SWAP1 POP DUP3 DUP1 PUSH2 0x2BCB JUMP JUMPDEST SWAP1 PUSH1 0x1F NOT DUP4 AND SWAP4 PUSH1 0x2 PUSH1 0x0 MSTORE DUP3 PUSH1 0x0 KECCAK256 SWAP3 PUSH1 0x0 SWAP1 JUMPDEST DUP7 DUP3 LT PUSH2 0x2C3B JUMPI POP POP DUP4 PUSH1 0x1 SWAP6 LT PUSH2 0x2C22 JUMPI JUMPDEST POP POP POP DUP2 SHL ADD PUSH1 0x2 SSTORE STOP JUMPDEST ADD MLOAD PUSH1 0x0 NOT PUSH1 0xF8 DUP5 PUSH1 0x3 SHL AND SHR NOT AND SWAP1 SSTORE DUP3 DUP1 DUP1 PUSH2 0x2C17 JUMP JUMPDEST DUP1 PUSH1 0x1 DUP6 SWAP7 DUP3 SWAP5 SWAP7 DUP7 ADD MLOAD DUP2 SSTORE ADD SWAP6 ADD SWAP4 ADD SWAP1 PUSH2 0x2C04 JUMP JUMPDEST PUSH2 0x2C7E SWAP1 PUSH1 0x2 PUSH1 0x0 MSTORE DUP3 PUSH1 0x0 KECCAK256 PUSH1 0x1F DUP6 ADD PUSH1 0x5 SHR DUP2 ADD SWAP2 DUP5 DUP7 LT PUSH2 0x1DBF JUMPI PUSH1 0x1F ADD PUSH1 0x5 SHR ADD SWAP1 PUSH2 0x3A28 JUMP JUMPDEST DUP4 PUSH2 0x2BB3 JUMP JUMPDEST CALLVALUE PUSH2 0x2AA JUMPI PUSH1 0x20 CALLDATASIZE PUSH1 0x3 NOT ADD SLT PUSH2 0x2AA JUMPI PUSH1 0x4 CALLDATALOAD PUSH4 0xFFFFFFFF PUSH1 0xE0 SHL DUP2 AND DUP1 SWAP2 SUB PUSH2 0x2AA JUMPI PUSH1 0x20 SWAP1 PUSH4 0x6CDB3D13 PUSH1 0xE1 SHL DUP2 EQ SWAP1 DUP2 ISZERO PUSH2 0x2CE1 JUMPI JUMPDEST DUP2 ISZERO PUSH2 0x2CD0 JUMPI JUMPDEST POP PUSH1 0x40 MLOAD SWAP1 ISZERO ISZERO DUP2 MSTORE RETURN JUMPDEST PUSH4 0x1FFC9A7 PUSH1 0xE0 SHL EQ SWAP1 POP DUP3 PUSH2 0x2CC5 JUMP JUMPDEST PUSH4 0x3A24D07 PUSH1 0xE2 SHL DUP2 EQ SWAP2 POP PUSH2 0x2CBE JUMP JUMPDEST CALLVALUE PUSH2 0x2AA JUMPI PUSH1 0x0 CALLDATASIZE PUSH1 0x3 NOT ADD SLT PUSH2 0x2AA JUMPI PUSH1 0xB SLOAD PUSH2 0x2D0F DUP2 PUSH2 0x305D JUMP JUMPDEST SWAP1 PUSH2 0x2D1D PUSH1 0x40 MLOAD SWAP3 DUP4 PUSH2 0x2F1E JUMP JUMPDEST DUP1 DUP3 MSTORE PUSH1 0xB PUSH1 0x0 SWAP1 DUP2 MSTORE PUSH1 0x20 SWAP2 DUP3 DUP5 ADD SWAP2 PUSH32 0x175B7A638427703F0DBE7BB9BBF987A2551717B34E79F33B5B1008D1FA01DB9 DUP4 JUMPDEST DUP4 DUP4 LT PUSH2 0x2DB8 JUMPI POP POP POP POP PUSH1 0x40 MLOAD SWAP2 DUP1 DUP4 ADD SWAP4 DUP2 DUP5 MSTORE MLOAD DUP1 SWAP5 MSTORE PUSH1 0x40 DUP4 ADD SWAP4 PUSH1 0x40 DUP2 PUSH1 0x5 SHL DUP6 ADD ADD SWAP3 SWAP2 PUSH1 0x0 SWAP6 JUMPDEST DUP3 DUP8 LT PUSH2 0x2D8C JUMPI DUP6 DUP6 SUB DUP7 RETURN JUMPDEST SWAP1 SWAP2 SWAP3 SWAP4 DUP3 DUP1 PUSH2 0x2DA8 PUSH1 0x1 SWAP4 PUSH1 0x3F NOT DUP11 DUP3 SUB ADD DUP7 MSTORE DUP9 MLOAD PUSH2 0x2E7E JUMP JUMPDEST SWAP7 ADD SWAP3 ADD SWAP7 ADD SWAP6 SWAP3 SWAP2 SWAP1 SWAP3 PUSH2 0x2D7F JUMP JUMPDEST PUSH1 0x4 DUP7 PUSH1 0x1 SWAP3 PUSH2 0x2DCA DUP6 SWAP11 SWAP10 SWAP11 PUSH2 0x37B7 JUMP JUMPDEST DUP2 MSTORE ADD SWAP3 ADD SWAP3 ADD SWAP2 SWAP1 SWAP6 SWAP5 SWAP6 PUSH2 0x2D51 JUMP JUMPDEST CALLVALUE PUSH2 0x2AA JUMPI PUSH1 0x40 CALLDATASIZE PUSH1 0x3 NOT ADD SLT PUSH2 0x2AA JUMPI PUSH1 0x20 PUSH2 0x2E02 PUSH2 0x2DF9 PUSH2 0x2E0A JUMP JUMPDEST PUSH1 0x24 CALLDATALOAD SWAP1 PUSH2 0x32F9 JUMP JUMPDEST PUSH1 0x40 MLOAD SWAP1 DUP2 MSTORE RETURN JUMPDEST PUSH1 0x4 CALLDATALOAD SWAP1 PUSH1 0x1 PUSH1 0x1 PUSH1 0xA0 SHL SUB DUP3 AND DUP3 SUB PUSH2 0x2AA JUMPI JUMP JUMPDEST PUSH1 0x24 CALLDATALOAD SWAP1 PUSH1 0x1 PUSH1 0x1 PUSH1 0xA0 SHL SUB DUP3 AND DUP3 SUB PUSH2 0x2AA JUMPI JUMP JUMPDEST PUSH1 0x0 JUMPDEST DUP4 DUP2 LT PUSH2 0x2E49 JUMPI POP POP PUSH1 0x0 SWAP2 ADD MSTORE JUMP JUMPDEST DUP2 DUP2 ADD MLOAD DUP4 DUP3 ADD MSTORE PUSH1 0x20 ADD PUSH2 0x2E39 JUMP JUMPDEST SWAP1 PUSH1 0x20 SWAP2 PUSH2 0x2E72 DUP2 MLOAD DUP1 SWAP3 DUP2 DUP6 MSTORE DUP6 DUP1 DUP7 ADD SWAP2 ADD PUSH2 0x2E36 JUMP JUMPDEST PUSH1 0x1F ADD PUSH1 0x1F NOT AND ADD ADD SWAP1 JUMP JUMPDEST SWAP1 PUSH1 0x60 DUP1 PUSH2 0x2E95 DUP5 MLOAD PUSH1 0x80 DUP6 MSTORE PUSH1 0x80 DUP6 ADD SWAP1 PUSH2 0x2E59 JUMP JUMPDEST SWAP4 PUSH1 0x20 DUP2 ADD MLOAD PUSH1 0x20 DUP6 ADD MSTORE PUSH1 0x40 DUP2 ADD MLOAD PUSH1 0x40 DUP6 ADD MSTORE ADD MLOAD SWAP2 ADD MSTORE SWAP1 JUMP JUMPDEST PUSH1 0x40 DUP2 ADD SWAP1 DUP2 LT PUSH1 0x1 PUSH1 0x1 PUSH1 0x40 SHL SUB DUP3 GT OR PUSH2 0x1DC9 JUMPI PUSH1 0x40 MSTORE JUMP JUMPDEST PUSH1 0xC0 DUP2 ADD SWAP1 DUP2 LT PUSH1 0x1 PUSH1 0x1 PUSH1 0x40 SHL SUB DUP3 GT OR PUSH2 0x1DC9 JUMPI PUSH1 0x40 MSTORE JUMP JUMPDEST PUSH1 0xA0 DUP2 ADD SWAP1 DUP2 LT PUSH1 0x1 PUSH1 0x1 PUSH1 0x40 SHL SUB DUP3 GT OR PUSH2 0x1DC9 JUMPI PUSH1 0x40 MSTORE JUMP JUMPDEST PUSH1 0x80 DUP2 ADD SWAP1 DUP2 LT PUSH1 0x1 PUSH1 0x1 PUSH1 0x40 SHL SUB DUP3 GT OR PUSH2 0x1DC9 JUMPI PUSH1 0x40 MSTORE JUMP JUMPDEST SWAP1 PUSH1 0x1F DUP1 NOT SWAP2 ADD AND DUP2 ADD SWAP1 DUP2 LT PUSH1 0x1 PUSH1 0x1 PUSH1 0x40 SHL SUB DUP3 GT OR PUSH2 0x1DC9 JUMPI PUSH1 0x40 MSTORE JUMP JUMPDEST PUSH1 0x1 PUSH1 0x1 PUSH1 0x40 SHL SUB DUP2 GT PUSH2 0x1DC9 JUMPI PUSH1 0x1F ADD PUSH1 0x1F NOT AND PUSH1 0x20 ADD SWAP1 JUMP JUMPDEST DUP2 PUSH1 0x1F DUP3 ADD SLT ISZERO PUSH2 0x2AA JUMPI DUP1 CALLDATALOAD SWAP1 PUSH2 0x2F71 DUP3 PUSH2 0x2F3F JUMP JUMPDEST SWAP3 PUSH2 0x2F7F PUSH1 0x40 MLOAD SWAP5 DUP6 PUSH2 0x2F1E JUMP JUMPDEST DUP3 DUP5 MSTORE PUSH1 0x20 DUP4 DUP4 ADD ADD GT PUSH2 0x2AA JUMPI DUP2 PUSH1 0x0 SWAP3 PUSH1 0x20 DUP1 SWAP4 ADD DUP4 DUP7 ADD CALLDATACOPY DUP4 ADD ADD MSTORE SWAP1 JUMP JUMPDEST SWAP1 PUSH1 0x3 DUP3 LT ISZERO PUSH2 0x19A6 JUMPI MSTORE JUMP JUMPDEST SWAP1 PUSH2 0x2FBA DUP2 DUP4 MLOAD PUSH2 0x2FA1 JUMP JUMPDEST PUSH1 0x20 SWAP2 DUP3 DUP2 ADD MLOAD DUP4 DUP4 ADD MSTORE PUSH2 0x2FDE PUSH1 0x40 DUP3 ADD MLOAD PUSH2 0x100 DUP1 PUSH1 0x40 DUP7 ADD MSTORE DUP5 ADD SWAP1 PUSH2 0x2E59 JUMP JUMPDEST SWAP3 PUSH1 0x60 DUP3 ADD MLOAD PUSH1 0x60 DUP5 ADD PUSH1 0x0 SWAP1 JUMPDEST DUP4 PUSH1 0x2 DUP4 LT PUSH2 0x303F JUMPI POP POP POP POP PUSH1 0x80 DUP3 ADD MLOAD SWAP1 PUSH1 0x0 PUSH1 0xA0 DUP6 ADD JUMPDEST PUSH1 0x2 DUP3 LT PUSH2 0x3027 JUMPI POP POP POP POP PUSH1 0xE0 SWAP1 PUSH1 0xA0 PUSH1 0x1 DUP1 DUP3 SHL SUB SWAP2 ADD MLOAD AND SWAP2 ADD MSTORE SWAP1 JUMP JUMPDEST DUP3 DUP1 PUSH1 0x1 SWAP3 PUSH1 0xFF DUP8 MLOAD AND DUP2 MSTORE ADD SWAP5 ADD SWAP2 ADD SWAP1 SWAP3 PUSH2 0x3006 JUMP JUMPDEST DUP4 MLOAD PUSH1 0x1 PUSH1 0x1 PUSH1 0xA0 SHL SUB AND DUP3 MSTORE SWAP3 DUP4 ADD SWAP3 PUSH1 0x1 SWAP3 SWAP1 SWAP3 ADD SWAP2 ADD PUSH2 0x2FEC JUMP JUMPDEST PUSH1 0x1 PUSH1 0x1 PUSH1 0x40 SHL SUB DUP2 GT PUSH2 0x1DC9 JUMPI PUSH1 0x5 SHL PUSH1 0x20 ADD SWAP1 JUMP JUMPDEST DUP2 PUSH1 0x1F DUP3 ADD SLT ISZERO PUSH2 0x2AA JUMPI DUP1 CALLDATALOAD SWAP2 PUSH2 0x308B DUP4 PUSH2 0x305D JUMP JUMPDEST SWAP3 PUSH2 0x3099 PUSH1 0x40 MLOAD SWAP5 DUP6 PUSH2 0x2F1E JUMP JUMPDEST DUP1 DUP5 MSTORE PUSH1 0x20 SWAP3 DUP4 DUP1 DUP7 ADD SWAP3 PUSH1 0x5 SHL DUP3 ADD ADD SWAP3 DUP4 GT PUSH2 0x2AA JUMPI DUP4 ADD SWAP1 JUMPDEST DUP3 DUP3 LT PUSH2 0x30C3 JUMPI POP POP POP POP SWAP1 JUMP JUMPDEST DUP2 CALLDATALOAD DUP2 MSTORE SWAP1 DUP4 ADD SWAP1 DUP4 ADD PUSH2 0x30B5 JUMP JUMPDEST SWAP1 DUP2 MLOAD DUP1 DUP3 MSTORE PUSH1 0x20 DUP1 DUP1 SWAP4 ADD SWAP4 ADD SWAP2 PUSH1 0x0 JUMPDEST DUP3 DUP2 LT PUSH2 0x30F2 JUMPI POP POP POP POP SWAP1 JUMP JUMPDEST DUP4 MLOAD DUP6 MSTORE SWAP4 DUP2 ADD SWAP4 SWAP3 DUP2 ADD SWAP3 PUSH1 0x1 ADD PUSH2 0x30E4 JUMP JUMPDEST SWAP1 PUSH1 0x1 DUP1 PUSH1 0xA0 SHL SUB DUP3 MLOAD AND DUP2 MSTORE PUSH1 0x80 DUP1 PUSH2 0x312F PUSH1 0x20 DUP6 ADD MLOAD PUSH1 0xA0 PUSH1 0x20 DUP7 ADD MSTORE PUSH1 0xA0 DUP6 ADD SWAP1 PUSH2 0x2E59 JUMP JUMPDEST SWAP4 PUSH1 0x40 DUP2 ADD MLOAD PUSH1 0x40 DUP6 ADD MSTORE PUSH1 0x60 DUP2 ADD MLOAD PUSH1 0x60 DUP6 ADD MSTORE ADD MLOAD ISZERO ISZERO SWAP2 ADD MSTORE SWAP1 JUMP JUMPDEST PUSH1 0xC SLOAD DUP2 LT ISZERO PUSH2 0x316D JUMPI PUSH1 0xC PUSH1 0x0 MSTORE PUSH1 0x7 PUSH1 0x20 PUSH1 0x0 KECCAK256 SWAP2 MUL ADD SWAP1 PUSH1 0x0 SWAP1 JUMP JUMPDEST PUSH4 0x4E487B71 PUSH1 0xE0 SHL PUSH1 0x0 MSTORE PUSH1 0x32 PUSH1 0x4 MSTORE PUSH1 0x24 PUSH1 0x0 REVERT JUMPDEST SWAP1 PUSH1 0x1 DUP3 DUP2 SHR SWAP3 AND DUP1 ISZERO PUSH2 0x31B3 JUMPI JUMPDEST PUSH1 0x20 DUP4 LT EQ PUSH2 0x319D JUMPI JUMP JUMPDEST PUSH4 0x4E487B71 PUSH1 0xE0 SHL PUSH1 0x0 MSTORE PUSH1 0x22 PUSH1 0x4 MSTORE PUSH1 0x24 PUSH1 0x0 REVERT JUMPDEST SWAP2 PUSH1 0x7F AND SWAP2 PUSH2 0x3192 JUMP JUMPDEST SWAP1 PUSH1 0x40 MLOAD SWAP2 DUP3 PUSH1 0x0 DUP3 SLOAD SWAP3 PUSH2 0x31D1 DUP5 PUSH2 0x3183 JUMP JUMPDEST SWAP1 DUP2 DUP5 MSTORE PUSH1 0x1 SWAP5 DUP6 DUP2 AND SWAP1 DUP2 PUSH1 0x0 EQ PUSH2 0x3240 JUMPI POP PUSH1 0x1 EQ PUSH2 0x31FD JUMPI JUMPDEST POP POP PUSH2 0x31FB SWAP3 POP SUB DUP4 PUSH2 0x2F1E JUMP JUMPDEST JUMP JUMPDEST SWAP1 SWAP4 SWAP2 POP PUSH1 0x0 MSTORE PUSH1 0x20 SWAP1 DUP2 PUSH1 0x0 KECCAK256 SWAP4 PUSH1 0x0 SWAP2 JUMPDEST DUP2 DUP4 LT PUSH2 0x3228 JUMPI POP POP PUSH2 0x31FB SWAP4 POP DUP3 ADD ADD CODESIZE DUP1 PUSH2 0x31ED JUMP JUMPDEST DUP6 SLOAD DUP9 DUP5 ADD DUP6 ADD MSTORE SWAP5 DUP6 ADD SWAP5 DUP8 SWAP5 POP SWAP2 DUP4 ADD SWAP2 PUSH2 0x3210 JUMP JUMPDEST SWAP2 POP POP PUSH2 0x31FB SWAP5 POP PUSH1 0x20 SWAP3 POP PUSH1 0xFF NOT AND DUP3 DUP5 ADD MSTORE ISZERO ISZERO PUSH1 0x5 SHL DUP3 ADD ADD CODESIZE DUP1 PUSH2 0x31ED JUMP JUMPDEST PUSH1 0xB SLOAD DUP2 LT ISZERO PUSH2 0x316D JUMPI PUSH1 0xB PUSH1 0x0 MSTORE PUSH1 0x20 PUSH1 0x0 KECCAK256 SWAP1 PUSH1 0x2 SHL ADD SWAP1 PUSH1 0x0 SWAP1 JUMP JUMPDEST PUSH1 0xA SLOAD DUP2 LT ISZERO PUSH2 0x316D JUMPI PUSH1 0xA PUSH1 0x0 MSTORE PUSH1 0x5 PUSH1 0x20 PUSH1 0x0 KECCAK256 SWAP2 MUL ADD SWAP1 PUSH1 0x0 SWAP1 JUMP JUMPDEST PUSH1 0x3 SLOAD PUSH1 0x1 PUSH1 0x1 PUSH1 0xA0 SHL SUB AND CALLER SUB PUSH2 0x32B5 JUMPI JUMP JUMPDEST PUSH1 0x64 PUSH1 0x40 MLOAD PUSH3 0x461BCD PUSH1 0xE5 SHL DUP2 MSTORE PUSH1 0x20 PUSH1 0x4 DUP3 ADD MSTORE PUSH1 0x20 PUSH1 0x24 DUP3 ADD MSTORE PUSH32 0x4F776E61626C653A2063616C6C6572206973206E6F7420746865206F776E6572 PUSH1 0x44 DUP3 ADD MSTORE REVERT JUMPDEST PUSH1 0x1 PUSH1 0x1 PUSH1 0xA0 SHL SUB AND SWAP1 DUP2 ISZERO PUSH2 0x3326 JUMPI PUSH1 0x0 MSTORE PUSH1 0x0 PUSH1 0x20 MSTORE PUSH1 0x40 PUSH1 0x0 KECCAK256 SWAP1 PUSH1 0x0 MSTORE PUSH1 0x20 MSTORE PUSH1 0x40 PUSH1 0x0 KECCAK256 SLOAD SWAP1 JUMP JUMPDEST PUSH1 0x40 MLOAD PUSH3 0x461BCD PUSH1 0xE5 SHL DUP2 MSTORE PUSH1 0x20 PUSH1 0x4 DUP3 ADD MSTORE PUSH1 0x2A PUSH1 0x24 DUP3 ADD MSTORE PUSH32 0x455243313135353A2061646472657373207A65726F206973206E6F7420612076 PUSH1 0x44 DUP3 ADD MSTORE PUSH10 0x30B634B21037BBB732B9 PUSH1 0xB1 SHL PUSH1 0x64 DUP3 ADD MSTORE PUSH1 0x84 SWAP1 REVERT JUMPDEST PUSH1 0x0 NOT DUP2 EQ PUSH2 0x338D JUMPI PUSH1 0x1 ADD SWAP1 JUMP JUMPDEST PUSH4 0x4E487B71 PUSH1 0xE0 SHL PUSH1 0x0 MSTORE PUSH1 0x11 PUSH1 0x4 MSTORE PUSH1 0x24 PUSH1 0x0 REVERT JUMPDEST DUP1 MLOAD ISZERO PUSH2 0x316D JUMPI PUSH1 0x20 ADD SWAP1 JUMP JUMPDEST DUP1 MLOAD DUP3 LT ISZERO PUSH2 0x316D JUMPI PUSH1 0x20 SWAP2 PUSH1 0x5 SHL ADD ADD SWAP1 JUMP JUMPDEST ISZERO PUSH2 0x33CB JUMPI JUMP JUMPDEST PUSH1 0x40 MLOAD PUSH3 0x461BCD PUSH1 0xE5 SHL DUP2 MSTORE PUSH1 0x20 PUSH1 0x4 DUP3 ADD MSTORE PUSH1 0x2E PUSH1 0x24 DUP3 ADD MSTORE PUSH32 0x455243313135353A2063616C6C6572206973206E6F7420746F6B656E206F776E PUSH1 0x44 DUP3 ADD MSTORE PUSH14 0x195C881BDC88185C1C1C9BDD9959 PUSH1 0x92 SHL PUSH1 0x64 DUP3 ADD MSTORE PUSH1 0x84 SWAP1 REVERT JUMPDEST ISZERO PUSH2 0x342E JUMPI JUMP JUMPDEST PUSH1 0x40 MLOAD PUSH3 0x461BCD PUSH1 0xE5 SHL DUP2 MSTORE PUSH1 0x20 PUSH1 0x4 DUP3 ADD MSTORE PUSH1 0x25 PUSH1 0x24 DUP3 ADD MSTORE PUSH32 0x455243313135353A207472616E7366657220746F20746865207A65726F206164 PUSH1 0x44 DUP3 ADD MSTORE PUSH5 0x6472657373 PUSH1 0xD8 SHL PUSH1 0x64 DUP3 ADD MSTORE PUSH1 0x84 SWAP1 REVERT JUMPDEST ISZERO PUSH2 0x3488 JUMPI JUMP JUMPDEST PUSH1 0x40 MLOAD PUSH3 0x461BCD PUSH1 0xE5 SHL DUP2 MSTORE PUSH1 0x20 PUSH1 0x4 DUP3 ADD MSTORE PUSH1 0x2A PUSH1 0x24 DUP3 ADD MSTORE PUSH32 0x455243313135353A20696E73756666696369656E742062616C616E636520666F PUSH1 0x44 DUP3 ADD MSTORE PUSH10 0x39103A3930B739B332B9 PUSH1 0xB1 SHL PUSH1 0x64 DUP3 ADD MSTORE PUSH1 0x84 SWAP1 REVERT JUMPDEST SWAP2 SWAP1 DUP3 ADD DUP1 SWAP3 GT PUSH2 0x338D JUMPI JUMP JUMPDEST SWAP1 DUP2 PUSH1 0x20 SWAP2 SUB SLT PUSH2 0x2AA JUMPI MLOAD PUSH1 0x1 PUSH1 0x1 PUSH1 0xE0 SHL SUB NOT DUP2 AND DUP2 SUB PUSH2 0x2AA JUMPI SWAP1 JUMP JUMPDEST PUSH1 0x80 SWAP1 PUSH1 0x20 DUP2 MSTORE PUSH1 0x28 PUSH1 0x20 DUP3 ADD MSTORE PUSH32 0x455243313135353A204552433131353552656365697665722072656A65637465 PUSH1 0x40 DUP3 ADD MSTORE PUSH8 0x6420746F6B656E73 PUSH1 0xC0 SHL PUSH1 0x60 DUP3 ADD MSTORE ADD SWAP1 JUMP JUMPDEST PUSH1 0x0 SWAP1 PUSH1 0x3 RETURNDATASIZE GT PUSH2 0x3563 JUMPI JUMP JUMPDEST SWAP1 POP PUSH1 0x4 PUSH1 0x0 DUP1 RETURNDATACOPY PUSH1 0x0 MLOAD PUSH1 0xE0 SHR SWAP1 JUMP JUMPDEST PUSH1 0x0 PUSH1 0x44 RETURNDATASIZE LT PUSH2 0x35D1 JUMPI PUSH1 0x40 MLOAD PUSH1 0x3 NOT SWAP2 RETURNDATASIZE DUP4 ADD PUSH1 0x4 DUP4 RETURNDATACOPY DUP2 MLOAD PUSH1 0x1 PUSH1 0x1 PUSH1 0x40 SHL SUB SWAP2 DUP3 DUP3 GT RETURNDATASIZE PUSH1 0x24 DUP5 ADD GT OR PUSH2 0x35D4 JUMPI DUP2 DUP5 ADD SWAP5 DUP6 MLOAD SWAP4 DUP5 GT PUSH2 0x35DC JUMPI RETURNDATASIZE DUP6 ADD ADD PUSH1 0x20 DUP5 DUP8 ADD ADD GT PUSH2 0x35D4 JUMPI POP PUSH2 0x35D1 SWAP3 SWAP2 ADD PUSH1 0x20 ADD SWAP1 PUSH2 0x2F1E JUMP JUMPDEST SWAP1 JUMP JUMPDEST SWAP5 SWAP4 POP POP POP POP JUMP JUMPDEST POP SWAP5 SWAP4 POP POP POP POP JUMP JUMPDEST PUSH1 0x80 SWAP1 PUSH1 0x20 DUP2 MSTORE PUSH1 0x34 PUSH1 0x20 DUP3 ADD MSTORE PUSH32 0x455243313135353A207472616E7366657220746F206E6F6E2D45524331313535 PUSH1 0x40 DUP3 ADD MSTORE PUSH20 0x2932B1B2B4BB32B91034B6B83632B6B2B73A32B9 PUSH1 0x61 SHL PUSH1 0x60 DUP3 ADD MSTORE ADD SWAP1 JUMP JUMPDEST PUSH1 0x40 MLOAD SWAP1 PUSH2 0x3647 DUP3 PUSH2 0x2EB2 JUMP JUMPDEST PUSH1 0x1 DUP3 MSTORE PUSH1 0x20 CALLDATASIZE DUP2 DUP5 ADD CALLDATACOPY PUSH2 0x365B DUP3 PUSH2 0x33A3 JUMP JUMPDEST MSTORE SWAP1 JUMP JUMPDEST PUSH1 0x1 PUSH1 0x1 PUSH1 0xA0 SHL SUB AND PUSH1 0x0 SWAP1 DUP2 MSTORE PUSH1 0x7 PUSH1 0x20 MSTORE PUSH1 0x40 SWAP1 KECCAK256 SLOAD ISZERO ISZERO SWAP1 JUMP JUMPDEST SWAP1 PUSH1 0x40 MLOAD PUSH2 0x3689 DUP2 PUSH2 0x2EE8 JUMP JUMPDEST PUSH1 0x80 PUSH1 0xFF PUSH1 0x4 DUP4 SWAP6 PUSH1 0x1 DUP1 PUSH1 0xA0 SHL SUB DUP2 SLOAD AND DUP6 MSTORE PUSH2 0x36A9 PUSH1 0x1 DUP3 ADD PUSH2 0x31BD JUMP JUMPDEST PUSH1 0x20 DUP7 ADD MSTORE PUSH1 0x2 DUP2 ADD SLOAD PUSH1 0x40 DUP7 ADD MSTORE PUSH1 0x3 DUP2 ADD SLOAD PUSH1 0x60 DUP7 ADD MSTORE ADD SLOAD AND ISZERO ISZERO SWAP2 ADD MSTORE JUMP JUMPDEST PUSH1 0x80 PUSH1 0x40 MLOAD PUSH2 0x36DA DUP2 PUSH2 0x2EE8 JUMP JUMPDEST PUSH1 0x0 SWAP2 DUP2 DUP4 DUP1 SWAP4 MSTORE PUSH1 0x60 PUSH1 0x20 DUP3 ADD MSTORE DUP3 PUSH1 0x40 DUP3 ADD MSTORE DUP3 PUSH1 0x60 DUP3 ADD MSTORE ADD MSTORE PUSH2 0x3700 DUP3 PUSH2 0x365F JUMP JUMPDEST ISZERO PUSH2 0x372F JUMPI PUSH1 0x1 PUSH1 0x1 PUSH1 0xA0 SHL SUB SWAP1 SWAP2 AND DUP2 MSTORE PUSH1 0x7 PUSH1 0x20 MSTORE PUSH1 0x40 SWAP1 KECCAK256 SLOAD PUSH2 0x35D1 SWAP1 PUSH2 0x3729 SWAP1 PUSH2 0x3282 JUMP JUMPDEST POP PUSH2 0x367C JUMP JUMPDEST PUSH1 0x40 MLOAD PUSH3 0x461BCD PUSH1 0xE5 SHL DUP2 MSTORE PUSH1 0x20 PUSH1 0x4 DUP3 ADD MSTORE PUSH1 0x15 PUSH1 0x24 DUP3 ADD MSTORE PUSH21 0x506C6179657220646F65736E277420657869737421 PUSH1 0x58 SHL PUSH1 0x44 DUP3 ADD MSTORE PUSH1 0x64 SWAP1 REVERT JUMPDEST PUSH1 0x1 PUSH1 0x1 PUSH1 0xA0 SHL SUB AND PUSH1 0x0 SWAP1 DUP2 MSTORE PUSH1 0x8 PUSH1 0x20 MSTORE PUSH1 0x40 SWAP1 KECCAK256 SLOAD PUSH2 0x378D JUMPI PUSH1 0x0 SWAP1 JUMP JUMPDEST PUSH1 0x1 SWAP1 JUMP JUMPDEST PUSH1 0x40 MLOAD SWAP1 PUSH2 0x379F DUP3 PUSH2 0x2F03 JUMP JUMPDEST PUSH1 0x0 PUSH1 0x60 DUP4 DUP2 DUP2 MSTORE DUP3 PUSH1 0x20 DUP3 ADD MSTORE DUP3 PUSH1 0x40 DUP3 ADD MSTORE ADD MSTORE JUMP JUMPDEST SWAP1 PUSH1 0x40 MLOAD PUSH2 0x37C4 DUP2 PUSH2 0x2F03 JUMP JUMPDEST PUSH1 0x60 PUSH1 0x3 DUP3 SWAP5 PUSH2 0x37D3 DUP2 PUSH2 0x31BD JUMP JUMPDEST DUP5 MSTORE PUSH1 0x1 DUP2 ADD SLOAD PUSH1 0x20 DUP6 ADD MSTORE PUSH1 0x2 DUP2 ADD SLOAD PUSH1 0x40 DUP6 ADD MSTORE ADD SLOAD SWAP2 ADD MSTORE JUMP JUMPDEST PUSH2 0x37F8 PUSH2 0x3792 JUMP JUMPDEST POP PUSH2 0x3802 DUP2 PUSH2 0x376C JUMP JUMPDEST ISZERO PUSH2 0x382E JUMPI PUSH1 0x1 DUP1 PUSH1 0xA0 SHL SUB AND PUSH1 0x0 MSTORE PUSH1 0x8 PUSH1 0x20 MSTORE PUSH2 0x35D1 PUSH2 0x3828 PUSH1 0x40 PUSH1 0x0 KECCAK256 SLOAD PUSH2 0x3263 JUMP JUMPDEST POP PUSH2 0x37B7 JUMP JUMPDEST PUSH1 0x40 MLOAD PUSH3 0x461BCD PUSH1 0xE5 SHL DUP2 MSTORE PUSH1 0x20 PUSH1 0x4 DUP3 ADD MSTORE PUSH1 0x19 PUSH1 0x24 DUP3 ADD MSTORE PUSH25 0x47616D6520746F6B656E20646F65736E277420657869737421 PUSH1 0x38 SHL PUSH1 0x44 DUP3 ADD MSTORE PUSH1 0x64 SWAP1 REVERT JUMPDEST PUSH1 0x20 PUSH2 0x3888 SWAP2 DUP2 PUSH1 0x40 MLOAD SWAP4 DUP3 DUP6 DUP1 SWAP5 MLOAD SWAP4 DUP5 SWAP3 ADD PUSH2 0x2E36 JUMP JUMPDEST DUP2 ADD PUSH1 0x9 DUP2 MSTORE SUB ADD SWAP1 KECCAK256 SLOAD ISZERO PUSH1 0x0 EQ PUSH2 0x378D JUMPI PUSH1 0x0 SWAP1 JUMP JUMPDEST PUSH1 0x40 SWAP1 PUSH1 0x0 PUSH1 0xA0 DUP4 MLOAD PUSH2 0x38B2 DUP2 PUSH2 0x2ECD JUMP JUMPDEST DUP1 SWAP5 DUP4 DUP3 MSTORE DUP4 PUSH1 0x20 DUP4 ADD MSTORE PUSH1 0x60 DUP2 DUP4 ADD MSTORE DUP1 MLOAD PUSH2 0x38CE DUP2 PUSH2 0x2EB2 JUMP JUMPDEST DUP2 CALLDATASIZE DUP3 CALLDATACOPY PUSH1 0x60 DUP4 ADD MSTORE DUP1 MLOAD SWAP1 PUSH2 0x38E3 DUP3 PUSH2 0x2EB2 JUMP JUMPDEST CALLDATASIZE DUP3 CALLDATACOPY PUSH1 0x80 DUP3 ADD MSTORE ADD MSTORE JUMP JUMPDEST SWAP1 PUSH1 0x40 MLOAD PUSH2 0x38FC DUP2 PUSH2 0x2ECD JUMP JUMPDEST DUP1 SWAP3 PUSH1 0xFF DUP2 SLOAD AND PUSH1 0x3 DUP2 LT ISZERO PUSH2 0x19A6 JUMPI DUP3 MSTORE PUSH1 0x1 DUP1 DUP3 ADD SLOAD SWAP1 PUSH1 0x20 SWAP2 DUP3 DUP6 ADD MSTORE PUSH1 0x2 SWAP1 PUSH2 0x392A DUP3 DUP6 ADD PUSH2 0x31BD JUMP JUMPDEST PUSH1 0x40 DUP7 ADD MSTORE PUSH1 0x40 MLOAD SWAP2 DUP3 PUSH1 0x3 DUP7 ADD PUSH1 0x0 SWAP2 JUMPDEST DUP4 DUP4 LT PUSH2 0x3993 JUMPI POP POP POP POP POP SWAP1 DUP2 PUSH2 0x3956 PUSH1 0xA0 SWAP5 SWAP4 PUSH2 0x2EB2 JUMP JUMPDEST PUSH1 0x60 DUP6 ADD MSTORE PUSH1 0x40 MLOAD SWAP1 PUSH1 0xFF PUSH1 0x5 DUP5 ADD SLOAD DUP2 DUP2 AND DUP5 MSTORE PUSH1 0x8 SHR AND SWAP1 DUP3 ADD MSTORE PUSH2 0x397C DUP2 PUSH2 0x2EB2 JUMP JUMPDEST PUSH1 0x80 DUP5 ADD MSTORE PUSH1 0x6 ADD SLOAD PUSH1 0x0 NOT PUSH1 0x1 DUP4 SHL ADD AND SWAP2 ADD MSTORE JUMP JUMPDEST DUP2 SLOAD PUSH1 0x1 PUSH1 0x1 PUSH1 0xA0 SHL SUB AND DUP2 MSTORE SWAP2 DUP5 ADD SWAP2 SWAP1 DUP5 ADD SWAP1 DUP7 ADD PUSH2 0x393C JUMP JUMPDEST PUSH2 0x39B7 PUSH2 0x38A0 JUMP JUMPDEST POP PUSH2 0x39C1 DUP2 PUSH2 0x386F JUMP JUMPDEST ISZERO PUSH2 0x39EB JUMPI PUSH2 0x39E5 PUSH2 0xC03 PUSH1 0x20 PUSH2 0x35D1 SWAP4 DUP2 PUSH1 0x40 MLOAD SWAP4 DUP3 DUP6 DUP1 SWAP5 MLOAD SWAP4 DUP5 SWAP3 ADD PUSH2 0x2E36 JUMP JUMPDEST POP PUSH2 0x38EF JUMP JUMPDEST PUSH1 0x40 MLOAD PUSH3 0x461BCD PUSH1 0xE5 SHL DUP2 MSTORE PUSH1 0x20 PUSH1 0x4 DUP3 ADD MSTORE PUSH1 0x15 PUSH1 0x24 DUP3 ADD MSTORE PUSH21 0x426174746C6520646F65736E277420657869737421 PUSH1 0x58 SHL PUSH1 0x44 DUP3 ADD MSTORE PUSH1 0x64 SWAP1 REVERT JUMPDEST DUP2 DUP2 LT PUSH2 0x3A33 JUMPI POP POP JUMP JUMPDEST PUSH1 0x0 DUP2 SSTORE PUSH1 0x1 ADD PUSH2 0x3A28 JUMP JUMPDEST ISZERO PUSH2 0x3A46 JUMPI JUMP JUMPDEST PUSH1 0x40 MLOAD PUSH3 0x461BCD PUSH1 0xE5 SHL DUP2 MSTORE PUSH1 0x20 PUSH1 0x4 DUP3 ADD MSTORE PUSH1 0x1C PUSH1 0x24 DUP3 ADD MSTORE PUSH32 0x506C6561736520526567697374657220506C6179657220466972737400000000 PUSH1 0x44 DUP3 ADD MSTORE PUSH1 0x64 SWAP1 REVERT JUMPDEST PUSH1 0x80 PUSH2 0x3A96 CALLER PUSH2 0x36CC JUMP JUMPDEST ADD MLOAD PUSH2 0x3F1D JUMPI PUSH2 0x3AA8 PUSH2 0x2823 CALLER PUSH2 0x365F JUMP JUMPDEST PUSH2 0x3AB0 PUSH2 0x3792 JUMP JUMPDEST POP PUSH2 0x3ABA CALLER PUSH2 0x3F67 JUMP JUMPDEST DUP1 PUSH1 0xA SUB SWAP1 PUSH1 0xA DUP3 GT PUSH2 0x338D JUMPI PUSH1 0x40 SWAP1 DUP2 MLOAD PUSH1 0x20 SWAP1 DUP2 DUP2 ADD SWAP1 TIMESTAMP DUP3 MSTORE CALLER PUSH1 0x60 SHL DUP6 DUP3 ADD MSTORE PUSH1 0x34 DUP2 MSTORE PUSH1 0x60 DUP2 ADD SWAP7 PUSH1 0x1 PUSH1 0x1 PUSH1 0x40 SHL SUB SWAP3 DUP3 DUP10 LT DUP5 DUP11 GT OR PUSH2 0x1DC9 JUMPI PUSH1 0xFF PUSH1 0x64 PUSH1 0x6 SWAP3 DUP12 DUP11 MSTORE DUP6 MLOAD SWAP1 KECCAK256 MOD AND MOD PUSH1 0xFF DUP2 AND SWAP2 DUP3 ISZERO PUSH2 0x3F07 JUMPI JUMPDEST PUSH1 0xFF SWAP3 POP PUSH2 0x3B25 DUP11 PUSH2 0x2F03 JUMP JUMPDEST DUP10 MSTORE AND SWAP7 PUSH1 0x80 DUP3 ADD SWAP2 DUP9 DUP4 MSTORE PUSH1 0xC0 PUSH1 0xA0 DUP3 ADD SWAP2 DUP8 DUP4 MSTORE ADD SWAP1 DUP9 DUP3 MSTORE PUSH1 0xB SLOAD SWAP4 PUSH1 0x1 PUSH1 0x40 SHL DUP6 LT ISZERO PUSH2 0x1DC9 JUMPI PUSH1 0x1 SWAP6 DUP7 DUP7 ADD PUSH1 0xB SSTORE PUSH2 0x3B62 DUP7 PUSH2 0x3263 JUMP JUMPDEST SWAP6 SWAP1 SWAP6 PUSH2 0x1DDF JUMPI MLOAD DUP1 MLOAD SWAP2 DUP3 GT PUSH2 0x1DC9 JUMPI PUSH2 0x3B7D DUP7 SLOAD PUSH2 0x3183 JUMP JUMPDEST PUSH1 0x1F DUP2 GT PUSH2 0x3ED7 JUMPI JUMPDEST POP DUP9 SWAP1 PUSH1 0x1F DUP4 GT PUSH1 0x1 EQ PUSH2 0x3E6F JUMPI PUSH1 0x3 SWAP6 SWAP5 SWAP4 SWAP3 SWAP2 PUSH1 0x0 SWAP2 DUP4 PUSH2 0x3E64 JUMPI JUMPDEST POP POP PUSH1 0x0 NOT DUP3 DUP8 SHL SHR NOT AND SWAP1 DUP9 SHL OR DUP6 SSTORE JUMPDEST MLOAD DUP7 DUP6 ADD SSTORE MLOAD PUSH1 0x2 DUP5 ADD SSTORE MLOAD SWAP2 ADD SSTORE CALLER PUSH1 0x0 MSTORE PUSH1 0x8 DUP4 MSTORE DUP5 PUSH1 0x0 KECCAK256 SSTORE DUP4 MLOAD PUSH2 0x3BDD DUP2 PUSH2 0x2EB2 JUMP JUMPDEST PUSH1 0x3 DUP2 MSTORE PUSH3 0x30783 PUSH1 0xEC SHL DUP4 DUP3 ADD MSTORE CALLER ISZERO PUSH2 0x3E16 JUMPI PUSH2 0x3BFB DUP8 PUSH2 0x363A JUMP JUMPDEST DUP3 DUP7 MLOAD SWAP2 PUSH2 0x3C08 DUP4 PUSH2 0x2EB2 JUMP JUMPDEST DUP2 DUP4 MSTORE DUP6 CALLDATASIZE DUP2 DUP6 ADD CALLDATACOPY DUP2 PUSH2 0x3C1B DUP5 PUSH2 0x33A3 JUMP JUMPDEST MSTORE PUSH1 0x0 DUP3 JUMPDEST PUSH2 0x3DD2 JUMPI JUMPDEST POP POP POP POP DUP7 PUSH1 0x0 MSTORE PUSH1 0x0 DUP4 MSTORE DUP5 PUSH1 0x0 KECCAK256 CALLER PUSH1 0x0 MSTORE DUP4 MSTORE DUP5 PUSH1 0x0 KECCAK256 DUP1 SLOAD SWAP1 DUP4 DUP3 ADD DUP1 SWAP3 GT PUSH2 0x338D JUMPI SSTORE DUP5 MLOAD DUP8 DUP2 MSTORE DUP3 DUP5 DUP3 ADD MSTORE PUSH1 0x0 CALLER SWAP2 PUSH32 0xC3D58168C5AE7397731D063D5BBF3D657854427343F4C083240F7AACAA2D0F62 DUP9 CALLER SWAP3 LOG4 CALLER EXTCODESIZE PUSH2 0x3CCA JUMPI JUMPDEST POP POP PUSH2 0x3C94 PUSH1 0x6 SLOAD PUSH2 0x337E JUMP JUMPDEST PUSH1 0x6 SSTORE DUP3 MLOAD SWAP5 DUP6 MSTORE DUP5 ADD MSTORE DUP3 ADD MSTORE PUSH32 0xCA8AB07E9ED17D119729FC652DD24DF9D8430CA862DDA4631925B5B4B99DA362 PUSH1 0x60 CALLER SWAP3 LOG2 JUMP JUMPDEST DUP5 MLOAD DUP4 DUP2 DUP1 PUSH2 0x3D08 PUSH4 0xF23A6E61 PUSH1 0xE0 SHL SWAP6 DUP7 DUP4 MSTORE CALLER PUSH1 0x4 DUP5 ADD MSTORE PUSH1 0x0 PUSH1 0x24 DUP5 ADD MSTORE DUP13 PUSH1 0x44 DUP5 ADD MSTORE DUP8 PUSH1 0x64 DUP5 ADD MSTORE PUSH1 0xA0 PUSH1 0x84 DUP5 ADD MSTORE PUSH1 0xA4 DUP4 ADD SWAP1 PUSH2 0x2E59 JUMP JUMPDEST SUB DUP2 PUSH1 0x0 CALLER GAS CALL PUSH1 0x0 SWAP2 DUP2 PUSH2 0x3DB3 JUMPI JUMPDEST POP PUSH2 0x3D8A JUMPI POP POP PUSH2 0x3D27 PUSH2 0x3556 JUMP JUMPDEST PUSH4 0x8C379A0 EQ PUSH2 0x3D56 JUMPI JUMPDEST PUSH2 0x3D3E JUMPI JUMPDEST CODESIZE DUP1 PUSH2 0x3C87 JUMP JUMPDEST DUP3 MLOAD PUSH3 0x461BCD PUSH1 0xE5 SHL DUP2 MSTORE DUP1 PUSH2 0x55E PUSH1 0x4 DUP3 ADD PUSH2 0x35E5 JUMP JUMPDEST PUSH2 0x3D5E PUSH2 0x3574 JUMP JUMPDEST DUP1 PUSH2 0x3D69 JUMPI POP PUSH2 0x3D32 JUMP JUMPDEST DUP3 PUSH2 0x55E DUP7 MLOAD SWAP3 DUP4 SWAP3 PUSH3 0x461BCD PUSH1 0xE5 SHL DUP5 MSTORE PUSH1 0x4 DUP5 ADD MSTORE PUSH1 0x24 DUP4 ADD SWAP1 PUSH2 0x2E59 JUMP JUMPDEST PUSH1 0x1 PUSH1 0x1 PUSH1 0xE0 SHL SUB NOT AND EQ SWAP1 POP PUSH2 0x3D37 JUMPI DUP3 MLOAD PUSH3 0x461BCD PUSH1 0xE5 SHL DUP2 MSTORE DUP1 PUSH2 0x55E PUSH1 0x4 DUP3 ADD PUSH2 0x350D JUMP JUMPDEST PUSH2 0x3DCB SWAP2 SWAP3 POP DUP6 RETURNDATASIZE DUP8 GT PUSH2 0x5E9 JUMPI PUSH2 0x5DA DUP2 DUP4 PUSH2 0x2F1E JUMP JUMPDEST SWAP1 CODESIZE PUSH2 0x3D18 JUMP JUMPDEST DUP2 MLOAD DUP2 LT ISZERO PUSH2 0x3E11 JUMPI DUP1 PUSH2 0x3DE9 PUSH2 0x3E0B SWAP3 DUP7 PUSH2 0x33B0 JUMP JUMPDEST MLOAD PUSH2 0x3DF4 DUP3 DUP6 PUSH2 0x33B0 JUMP JUMPDEST MLOAD PUSH1 0x0 MSTORE PUSH1 0x4 DUP10 MSTORE PUSH2 0x6F6 DUP12 PUSH1 0x0 KECCAK256 SWAP2 DUP3 SLOAD PUSH2 0x34E0 JUMP JUMPDEST DUP3 PUSH2 0x3C20 JUMP JUMPDEST PUSH2 0x3C25 JUMP JUMPDEST DUP5 MLOAD PUSH3 0x461BCD PUSH1 0xE5 SHL DUP2 MSTORE PUSH1 0x4 DUP2 ADD DUP5 SWAP1 MSTORE PUSH1 0x21 PUSH1 0x24 DUP3 ADD MSTORE PUSH32 0x455243313135353A206D696E7420746F20746865207A65726F20616464726573 PUSH1 0x44 DUP3 ADD MSTORE PUSH1 0x73 PUSH1 0xF8 SHL PUSH1 0x64 DUP3 ADD MSTORE PUSH1 0x84 SWAP1 REVERT JUMPDEST ADD MLOAD SWAP1 POP CODESIZE DUP1 PUSH2 0x3BA4 JUMP JUMPDEST SWAP5 SWAP4 SWAP3 SWAP2 DUP9 SWAP2 PUSH1 0x1F NOT DUP3 AND SWAP1 DUP9 PUSH1 0x0 MSTORE DUP12 PUSH1 0x0 KECCAK256 SWAP2 PUSH1 0x0 JUMPDEST DUP14 DUP3 DUP3 LT PUSH2 0x3EC1 JUMPI POP POP SWAP8 DUP4 PUSH1 0x3 SWAP10 LT PUSH2 0x3EA9 JUMPI JUMPDEST POP POP POP DUP2 SHL ADD DUP6 SSTORE PUSH2 0x3BB6 JUMP JUMPDEST ADD MLOAD PUSH1 0x0 NOT DUP4 DUP10 SHL PUSH1 0xF8 AND SHR NOT AND SWAP1 SSTORE CODESIZE DUP1 DUP1 PUSH2 0x3E9C JUMP JUMPDEST DUP4 DUP12 ADD MLOAD DUP6 SSTORE DUP14 SWAP7 SWAP1 SWAP5 ADD SWAP4 SWAP3 DUP4 ADD SWAP3 ADD PUSH2 0x3E87 JUMP JUMPDEST PUSH2 0x3F01 SWAP1 DUP8 PUSH1 0x0 MSTORE DUP11 PUSH1 0x0 KECCAK256 PUSH1 0x1F DUP6 ADD PUSH1 0x5 SHR DUP2 ADD SWAP2 DUP13 DUP7 LT PUSH2 0x1DBF JUMPI PUSH1 0x1F ADD PUSH1 0x5 SHR ADD SWAP1 PUSH2 0x3A28 JUMP JUMPDEST CODESIZE PUSH2 0x3B86 JUMP JUMPDEST SWAP1 POP PUSH1 0xFF DUP3 EQ PUSH2 0x338D JUMPI PUSH1 0x1 PUSH1 0xFF SWAP3 ADD SWAP1 PUSH2 0x3B18 JUMP JUMPDEST PUSH1 0x40 MLOAD PUSH3 0x461BCD PUSH1 0xE5 SHL DUP2 MSTORE PUSH1 0x20 PUSH1 0x4 DUP3 ADD MSTORE PUSH1 0x15 PUSH1 0x24 DUP3 ADD MSTORE PUSH21 0x506C6179657220697320696E206120626174746C65 PUSH1 0x58 SHL PUSH1 0x44 DUP3 ADD MSTORE PUSH1 0x64 SWAP1 REVERT JUMPDEST SWAP2 SWAP1 DUP3 SUB SWAP2 DUP3 GT PUSH2 0x338D JUMPI JUMP JUMPDEST PUSH1 0xA SWAP1 PUSH1 0x40 MLOAD PUSH1 0x20 DUP2 ADD SWAP2 DIFFICULTY DUP4 MSTORE TIMESTAMP PUSH1 0x40 DUP4 ADD MSTORE PUSH12 0xFFFFFFFFFFFFFFFFFFFFFFFF NOT SWAP1 PUSH1 0x60 SHL AND PUSH1 0x60 DUP3 ADD MSTORE PUSH1 0x54 DUP2 MSTORE PUSH2 0x3FA0 DUP2 PUSH2 0x2F03 JUMP JUMPDEST MLOAD SWAP1 KECCAK256 MOD DUP1 ISZERO PUSH2 0x3FAD JUMPI SWAP1 JUMP JUMPDEST POP PUSH1 0x5 SWAP1 JUMP JUMPDEST SWAP3 SWAP2 SWAP1 PUSH2 0x1DDF JUMPI DUP1 MLOAD SWAP3 PUSH1 0x3 DUP1 DUP6 LT ISZERO PUSH2 0x19A6 JUMPI PUSH1 0xFF NOT DUP3 SLOAD AND PUSH1 0xFF DUP1 SWAP7 AND OR DUP3 SSTORE PUSH1 0x20 SWAP1 DUP2 DUP5 ADD MLOAD SWAP1 PUSH1 0x1 SWAP2 DUP3 DUP6 ADD SSTORE PUSH1 0x2 SWAP1 DUP2 DUP6 ADD PUSH1 0x40 DUP8 ADD MLOAD DUP1 MLOAD SWAP1 PUSH1 0x1 PUSH1 0x1 PUSH1 0x40 SHL SUB DUP3 GT PUSH2 0x1DC9 JUMPI DUP2 SWAP1 PUSH2 0x400C DUP5 SLOAD PUSH2 0x3183 JUMP JUMPDEST PUSH1 0x1F DUP2 GT PUSH2 0x4153 JUMPI JUMPDEST POP DUP8 SWAP1 PUSH1 0x1F DUP4 GT PUSH1 0x1 EQ PUSH2 0x40F1 JUMPI PUSH1 0x0 SWAP3 PUSH2 0x40E6 JUMPI JUMPDEST POP POP PUSH1 0x0 NOT DUP3 DUP6 SHL SHR NOT AND SWAP1 DUP6 SHL OR SWAP1 SSTORE JUMPDEST PUSH1 0x60 DUP7 ADD MLOAD PUSH1 0x0 JUMPDEST DUP4 DUP2 LT PUSH2 0x40CA JUMPI POP POP POP SWAP1 PUSH1 0x80 DUP6 ADD MLOAD SWAP2 PUSH1 0x0 SWAP4 DUP5 JUMPDEST DUP3 DUP2 LT PUSH2 0x409A JUMPI POP POP POP POP POP PUSH1 0x5 DUP3 ADD SSTORE PUSH1 0xA0 SWAP1 SWAP2 ADD MLOAD PUSH1 0x6 SWAP2 SWAP1 SWAP2 ADD DUP1 SLOAD PUSH1 0x1 PUSH1 0x1 PUSH1 0xA0 SHL SUB NOT AND PUSH1 0x1 PUSH1 0x1 PUSH1 0xA0 SHL SUB SWAP3 SWAP1 SWAP3 AND SWAP2 SWAP1 SWAP2 OR SWAP1 SSTORE SWAP1 POP JUMP JUMPDEST SWAP1 SWAP2 SWAP3 DUP3 PUSH2 0x40BE DUP7 SWAP8 DUP5 DUP14 DUP6 SWAP10 MLOAD AND SWAP2 SWAP1 PUSH1 0x3 SHL PUSH1 0xFF DUP2 SHL SWAP3 DUP4 SWAP2 SHL AND SWAP2 NOT AND OR SWAP1 JUMP JUMPDEST SWAP7 ADD SWAP5 SWAP4 SWAP3 SWAP2 ADD PUSH2 0x405B JUMP JUMPDEST DUP2 MLOAD PUSH1 0x1 PUSH1 0x1 PUSH1 0xA0 SHL SUB AND DUP8 DUP3 ADD DUP5 ADD SSTORE SWAP1 DUP6 ADD SWAP1 DUP5 ADD PUSH2 0x4045 JUMP JUMPDEST ADD MLOAD SWAP1 POP CODESIZE DUP1 PUSH2 0x402B JUMP JUMPDEST SWAP1 DUP8 SWAP4 POP PUSH1 0x1F NOT DUP4 AND SWAP2 DUP6 PUSH1 0x0 MSTORE DUP10 PUSH1 0x0 KECCAK256 SWAP3 PUSH1 0x0 JUMPDEST DUP12 DUP3 DUP3 LT PUSH2 0x413D JUMPI POP POP DUP5 GT PUSH2 0x4125 JUMPI JUMPDEST POP POP POP DUP2 SHL ADD SWAP1 SSTORE PUSH2 0x403D JUMP JUMPDEST ADD MLOAD PUSH1 0x0 NOT DUP4 DUP8 SHL PUSH1 0xF8 AND SHR NOT AND SWAP1 SSTORE CODESIZE DUP1 DUP1 PUSH2 0x4118 JUMP JUMPDEST DUP4 DUP6 ADD MLOAD DUP7 SSTORE DUP12 SWAP8 SWAP1 SWAP6 ADD SWAP5 SWAP4 DUP5 ADD SWAP4 ADD PUSH2 0x4107 JUMP JUMPDEST PUSH2 0x417D SWAP1 DUP6 PUSH1 0x0 MSTORE DUP10 PUSH1 0x0 KECCAK256 PUSH1 0x1F DUP6 ADD PUSH1 0x5 SHR DUP2 ADD SWAP2 DUP12 DUP7 LT PUSH2 0x1DBF JUMPI PUSH1 0x1F ADD PUSH1 0x5 SHR ADD SWAP1 PUSH2 0x3A28 JUMP JUMPDEST CODESIZE PUSH2 0x4015 JUMP JUMPDEST SWAP1 PUSH2 0x418D DUP3 PUSH2 0x386F JUMP JUMPDEST ISZERO PUSH2 0x41B1 JUMPI PUSH2 0x2902 PUSH2 0xC03 PUSH1 0x20 PUSH2 0x31FB SWAP5 DUP2 PUSH1 0x40 MLOAD SWAP4 DUP3 DUP6 DUP1 SWAP5 MLOAD SWAP4 DUP5 SWAP3 ADD PUSH2 0x2E36 JUMP JUMPDEST PUSH1 0x40 MLOAD PUSH3 0x461BCD PUSH1 0xE5 SHL DUP2 MSTORE PUSH1 0x20 PUSH1 0x4 DUP3 ADD MSTORE PUSH1 0x14 PUSH1 0x24 DUP3 ADD MSTORE PUSH20 0x10985D1D1B1948191BD95CDB89DD08195E1A5CDD PUSH1 0x62 SHL PUSH1 0x44 DUP3 ADD MSTORE PUSH1 0x64 SWAP1 REVERT JUMPDEST PUSH2 0x41F5 PUSH2 0x38A0 JUMP JUMPDEST POP DUP2 MLOAD PUSH1 0x3 DUP2 LT ISZERO PUSH2 0x19A6 JUMPI PUSH1 0x2 EQ PUSH2 0x4314 JUMPI PUSH1 0x2 DUP3 MSTORE PUSH1 0x1 DUP1 PUSH1 0xA0 SHL SUB DUP1 SWAP2 AND DUP1 PUSH1 0xA0 DUP5 ADD MSTORE PUSH32 0xAE6E5EAFB6CD1CB4B139E7A0B9140AA182EE7D50E99F50D660156F79212ACBC0 PUSH1 0x40 DUP5 ADD SWAP3 PUSH2 0x424D DUP6 DUP6 MLOAD PUSH2 0x4183 JUMP JUMPDEST DUP1 PUSH1 0x60 DUP7 ADD DUP2 DUP2 MLOAD MLOAD AND PUSH1 0x0 MSTORE PUSH1 0x7 PUSH1 0x20 MSTORE PUSH1 0xA PUSH1 0x2 PUSH2 0x42D3 PUSH1 0x40 PUSH1 0x0 KECCAK256 SLOAD DUP6 PUSH1 0x20 DUP7 MLOAD ADD MLOAD AND PUSH1 0x0 MSTORE PUSH1 0x40 PUSH1 0x0 KECCAK256 SLOAD SWAP1 DUP5 DUP5 PUSH2 0x42B0 PUSH1 0x4 PUSH2 0x428E DUP6 PUSH2 0x3282 JUMP JUMPDEST POP ADD SWAP4 PUSH1 0xFF NOT SWAP5 DUP6 DUP2 SLOAD AND SWAP1 SSTORE PUSH1 0x19 PUSH1 0x3 PUSH2 0x42A8 DUP4 PUSH2 0x3282 JUMP JUMPDEST POP ADD SSTORE PUSH2 0x3282 JUMP JUMPDEST POP ADD SSTORE PUSH1 0x4 PUSH2 0x42BE DUP4 PUSH2 0x3282 JUMP JUMPDEST POP ADD SWAP1 DUP2 SLOAD AND SWAP1 SSTORE PUSH1 0x19 PUSH1 0x3 PUSH2 0x42A8 DUP4 PUSH2 0x3282 JUMP JUMPDEST POP ADD SSTORE MLOAD DUP1 MLOAD DUP3 AND DUP6 DUP2 SUB PUSH2 0x430B JUMPI POP PUSH1 0x20 ADD MLOAD AND SWAP4 JUMPDEST MLOAD SWAP4 PUSH2 0x4305 PUSH1 0x40 MLOAD SWAP3 DUP4 SWAP3 PUSH1 0x20 DUP5 MSTORE AND SWAP6 PUSH1 0x20 DUP4 ADD SWAP1 PUSH2 0x2E59 JUMP JUMPDEST SUB SWAP1 LOG3 SWAP1 JUMP JUMPDEST SWAP2 POP POP SWAP4 PUSH2 0x42EA JUMP JUMPDEST PUSH1 0x40 MLOAD PUSH3 0x461BCD PUSH1 0xE5 SHL DUP2 MSTORE PUSH1 0x20 PUSH1 0x4 DUP3 ADD MSTORE PUSH1 0x14 PUSH1 0x24 DUP3 ADD MSTORE PUSH20 0x10985D1D1B1948185B1C9958591E48195B991959 PUSH1 0x62 SHL PUSH1 0x44 DUP3 ADD MSTORE PUSH1 0x64 SWAP1 REVERT JUMPDEST SWAP1 DUP2 ISZERO PUSH2 0x4419 JUMPI SWAP1 DUP1 DUP2 PUSH1 0x0 SWAP3 JUMPDEST PUSH2 0x43FF JUMPI POP PUSH2 0x436C DUP3 PUSH2 0x2F3F JUMP JUMPDEST SWAP2 PUSH2 0x437A PUSH1 0x40 MLOAD SWAP4 DUP5 PUSH2 0x2F1E JUMP JUMPDEST DUP1 DUP4 MSTORE PUSH1 0x1F NOT PUSH2 0x4389 DUP3 PUSH2 0x2F3F JUMP JUMPDEST ADD CALLDATASIZE PUSH1 0x20 DUP6 ADD CALLDATACOPY SWAP1 JUMPDEST DUP2 DUP2 ISZERO PUSH2 0x43F9 JUMPI PUSH1 0x0 NOT DUP4 ADD SWAP3 DUP4 GT PUSH2 0x338D JUMPI DUP3 PUSH1 0xA SWAP1 DUP2 DUP5 DIV SWAP4 DUP3 DUP6 MUL SWAP3 DUP6 DUP5 DIV EQ DUP6 ISZERO OR ISZERO PUSH2 0x338D JUMPI PUSH2 0x43CA PUSH1 0xFF SWAP4 DUP5 SWAP3 PUSH2 0x3F5A JUMP JUMPDEST AND PUSH1 0x30 ADD SWAP2 DUP3 GT PUSH2 0x338D JUMPI DUP6 MLOAD GT ISZERO PUSH2 0x316D JUMPI PUSH1 0xF8 SHL PUSH1 0x1 PUSH1 0x1 PUSH1 0xF8 SHL SUB NOT AND PUSH1 0x0 BYTE SWAP1 DUP5 ADD PUSH1 0x1F ADD MSTORE8 PUSH2 0x4392 JUMP JUMPDEST POP POP POP SWAP1 JUMP JUMPDEST SWAP2 PUSH2 0x440E PUSH1 0xA SWAP2 SWAP5 SWAP3 SWAP5 PUSH2 0x337E JUMP JUMPDEST SWAP3 DIV DUP1 SWAP4 SWAP2 SWAP4 PUSH2 0x435E JUMP JUMPDEST SWAP1 POP PUSH1 0x40 MLOAD PUSH2 0x4427 DUP2 PUSH2 0x2EB2 JUMP JUMPDEST PUSH1 0x1 DUP2 MSTORE PUSH1 0x3 PUSH1 0xFC SHL PUSH1 0x20 DUP3 ADD MSTORE SWAP1 JUMP INVALID LOG2 PUSH5 0x6970667358 0x22 SLT KECCAK256 MLOAD 0xB5 ADDRESS 0x21 PUSH13 0x24011EB1CD5E77923DD54EB021 SWAP15 INVALID LT GASLIMIT 0xFC PUSH2 0x9557 PUSH6 0xD824E0D14764 PUSH20 0x6F6C63430008110033405787FA12A823E0F2B763 SHR 0xC4 SHL EXTCODESIZE 0xA8 DUP3 DUP12 CALLER 0x21 0xCA DUP2 GT GT STATICCALL PUSH22 0xCD3AA3BB5ACE00000000000000000000000000000000 "},"methodIdentifiers":{"CELESTION()":"9e4ecd11","DEVIL()":"d2198cc5","FIREBIRD()":"703730a5","GRIFFIN()":"de96cefc","KAMO()":"0677aa4e","KUKULKAN()":"f1da7339","MAX_ATTACK_DEFEND_STRENGTH()":"0daea2cd","attackOrDefendChoice(uint8,string)":"ba274956","balanceOf(address,uint256)":"00fdd58e","balanceOfBatch(address[],uint256[])":"4e1273f4","baseURI()":"6c0360eb","battleInfo(string)":"3835e2b5","battles(uint256)":"606d2e96","createBattle(string)":"2ca04522","createRandomGameToken(string)":"9ec40aa3","exists(uint256)":"4f558e79","gameTokens(uint256)":"bf034b69","getAllBattles()":"5c93fc3d","getAllPlayerTokens()":"015a3792","getAllPlayers()":"efa1c482","getBattle(string)":"16801d17","getBattleMoves(string)":"9b09cc87","getPlayer(address)":"5c12cd4b","getPlayerToken(address)":"10898e4c","getTotalSupply()":"c4e41b22","isApprovedForAll(address,address)":"e985e9c5","isBattle(string)":"1107ae3d","isPlayer(address)":"09c95e10","isPlayerToken(address)":"bf103a4d","joinBattle(string)":"a1b4f57c","owner()":"8da5cb5b","playerInfo(address)":"4b114691","playerTokenInfo(address)":"2711162e","players(uint256)":"f71d96cb","quitBattle(string)":"996d7bea","registerPlayer(string,string)":"845f433b","renounceOwnership()":"715018a6","safeBatchTransferFrom(address,address,uint256[],uint256[],bytes)":"2eb2c2d6","safeTransferFrom(address,address,uint256,uint256,bytes)":"f242432a","setApprovalForAll(address,bool)":"a22cb465","setURI(string)":"02fe5305","supportsInterface(bytes4)":"01ffc9a7","tokenURI(uint256)":"c87b56dd","totalSupply()":"18160ddd","totalSupply(uint256)":"bd85b039","transferOwnership(address)":"f2fde38b","uri(uint256)":"0e89341c"}}}}}