{"contracts/AvaxGods.sol":{"CardBizz":{"abi":[{"inputs":[{"internalType":"string","name":"_metadataURI","type":"string"}],"stateMutability":"nonpayable","type":"constructor"},{"anonymous":false,"inputs":[{"indexed":true,"internalType":"address","name":"account","type":"address"},{"indexed":true,"internalType":"address","name":"operator","type":"address"},{"indexed":false,"internalType":"bool","name":"approved","type":"bool"}],"name":"ApprovalForAll","type":"event"},{"anonymous":false,"inputs":[{"indexed":false,"internalType":"string","name":"battleName","type":"string"},{"indexed":true,"internalType":"address","name":"winner","type":"address"},{"indexed":true,"internalType":"address","name":"loser","type":"address"}],"name":"BattleEnded","type":"event"},{"anonymous":false,"inputs":[{"indexed":true,"internalType":"string","name":"battleName","type":"string"},{"indexed":true,"internalType":"bool","name":"isFirstMove","type":"bool"}],"name":"BattleMove","type":"event"},{"anonymous":false,"inputs":[{"indexed":false,"internalType":"string","name":"battleName","type":"string"},{"indexed":true,"internalType":"address","name":"player1","type":"address"},{"indexed":true,"internalType":"address","name":"player2","type":"address"}],"name":"NewBattle","type":"event"},{"anonymous":false,"inputs":[{"indexed":true,"internalType":"address","name":"owner","type":"address"},{"indexed":false,"internalType":"uint256","name":"id","type":"uint256"},{"indexed":false,"internalType":"uint256","name":"attackStrength","type":"uint256"},{"indexed":false,"internalType":"uint256","name":"defenseStrength","type":"uint256"}],"name":"NewGameToken","type":"event"},{"anonymous":false,"inputs":[{"indexed":true,"internalType":"address","name":"owner","type":"address"},{"indexed":false,"internalType":"string","name":"name","type":"string"}],"name":"NewPlayer","type":"event"},{"anonymous":false,"inputs":[{"indexed":true,"internalType":"address","name":"previousOwner","type":"address"},{"indexed":true,"internalType":"address","name":"newOwner","type":"address"}],"name":"OwnershipTransferred","type":"event"},{"anonymous":false,"inputs":[{"indexed":false,"internalType":"address[2]","name":"damagedPlayers","type":"address[2]"}],"name":"RoundEnded","type":"event"},{"anonymous":false,"inputs":[{"indexed":true,"internalType":"address","name":"operator","type":"address"},{"indexed":true,"internalType":"address","name":"from","type":"address"},{"indexed":true,"internalType":"address","name":"to","type":"address"},{"indexed":false,"internalType":"uint256[]","name":"ids","type":"uint256[]"},{"indexed":false,"internalType":"uint256[]","name":"values","type":"uint256[]"}],"name":"TransferBatch","type":"event"},{"anonymous":false,"inputs":[{"indexed":true,"internalType":"address","name":"operator","type":"address"},{"indexed":true,"internalType":"address","name":"from","type":"address"},{"indexed":true,"internalType":"address","name":"to","type":"address"},{"indexed":false,"internalType":"uint256","name":"id","type":"uint256"},{"indexed":false,"internalType":"uint256","name":"value","type":"uint256"}],"name":"TransferSingle","type":"event"},{"anonymous":false,"inputs":[{"indexed":false,"internalType":"string","name":"value","type":"string"},{"indexed":true,"internalType":"uint256","name":"id","type":"uint256"}],"name":"URI","type":"event"},{"inputs":[],"name":"CELESTION","outputs":[{"internalType":"uint256","name":"","type":"uint256"}],"stateMutability":"view","type":"function"},{"inputs":[],"name":"DEVIL","outputs":[{"internalType":"uint256","name":"","type":"uint256"}],"stateMutability":"view","type":"function"},{"inputs":[],"name":"FIREBIRD","outputs":[{"internalType":"uint256","name":"","type":"uint256"}],"stateMutability":"view","type":"function"},{"inputs":[],"name":"GRIFFIN","outputs":[{"internalType":"uint256","name":"","type":"uint256"}],"stateMutability":"view","type":"function"},{"inputs":[],"name":"KAMO","outputs":[{"internalType":"uint256","name":"","type":"uint256"}],"stateMutability":"view","type":"function"},{"inputs":[],"name":"KUKULKAN","outputs":[{"internalType":"uint256","name":"","type":"uint256"}],"stateMutability":"view","type":"function"},{"inputs":[],"name":"MAX_ATTACK_DEFEND_STRENGTH","outputs":[{"internalType":"uint256","name":"","type":"uint256"}],"stateMutability":"view","type":"function"},{"inputs":[{"internalType":"uint8","name":"_choice","type":"uint8"},{"internalType":"string","name":"_battleName","type":"string"}],"name":"attackOrDefendChoice","outputs":[],"stateMutability":"nonpayable","type":"function"},{"inputs":[{"internalType":"address","name":"account","type":"address"},{"internalType":"uint256","name":"id","type":"uint256"}],"name":"balanceOf","outputs":[{"internalType":"uint256","name":"","type":"uint256"}],"stateMutability":"view","type":"function"},{"inputs":[{"internalType":"address[]","name":"accounts","type":"address[]"},{"internalType":"uint256[]","name":"ids","type":"uint256[]"}],"name":"balanceOfBatch","outputs":[{"internalType":"uint256[]","name":"","type":"uint256[]"}],"stateMutability":"view","type":"function"},{"inputs":[],"name":"baseURI","outputs":[{"internalType":"string","name":"","type":"string"}],"stateMutability":"view","type":"function"},{"inputs":[{"internalType":"string","name":"","type":"string"}],"name":"battleInfo","outputs":[{"internalType":"uint256","name":"","type":"uint256"}],"stateMutability":"view","type":"function"},{"inputs":[{"internalType":"uint256","name":"","type":"uint256"}],"name":"battles","outputs":[{"internalType":"enum CardBizz.BattleStatus","name":"battleStatus","type":"uint8"},{"internalType":"bytes32","name":"battleHash","type":"bytes32"},{"internalType":"string","name":"name","type":"string"},{"internalType":"address","name":"winner","type":"address"}],"stateMutability":"view","type":"function"},{"inputs":[{"internalType":"string","name":"_name","type":"string"}],"name":"createBattle","outputs":[{"components":[{"internalType":"enum CardBizz.BattleStatus","name":"battleStatus","type":"uint8"},{"internalType":"bytes32","name":"battleHash","type":"bytes32"},{"internalType":"string","name":"name","type":"string"},{"internalType":"address[2]","name":"players","type":"address[2]"},{"internalType":"uint8[2]","name":"moves","type":"uint8[2]"},{"internalType":"address","name":"winner","type":"address"}],"internalType":"struct CardBizz.Battle","name":"","type":"tuple"}],"stateMutability":"nonpayable","type":"function"},{"inputs":[{"internalType":"string","name":"_name","type":"string"}],"name":"createRandomGameToken","outputs":[],"stateMutability":"nonpayable","type":"function"},{"inputs":[{"internalType":"uint256","name":"id","type":"uint256"}],"name":"exists","outputs":[{"internalType":"bool","name":"","type":"bool"}],"stateMutability":"view","type":"function"},{"inputs":[{"internalType":"uint256","name":"","type":"uint256"}],"name":"gameTokens","outputs":[{"internalType":"string","name":"name","type":"string"},{"internalType":"uint256","name":"id","type":"uint256"},{"internalType":"uint256","name":"attackStrength","type":"uint256"},{"internalType":"uint256","name":"defenseStrength","type":"uint256"}],"stateMutability":"view","type":"function"},{"inputs":[],"name":"getAllBattles","outputs":[{"components":[{"internalType":"enum CardBizz.BattleStatus","name":"battleStatus","type":"uint8"},{"internalType":"bytes32","name":"battleHash","type":"bytes32"},{"internalType":"string","name":"name","type":"string"},{"internalType":"address[2]","name":"players","type":"address[2]"},{"internalType":"uint8[2]","name":"moves","type":"uint8[2]"},{"internalType":"address","name":"winner","type":"address"}],"internalType":"struct CardBizz.Battle[]","name":"","type":"tuple[]"}],"stateMutability":"view","type":"function"},{"inputs":[],"name":"getAllPlayerTokens","outputs":[{"components":[{"internalType":"string","name":"name","type":"string"},{"internalType":"uint256","name":"id","type":"uint256"},{"internalType":"uint256","name":"attackStrength","type":"uint256"},{"internalType":"uint256","name":"defenseStrength","type":"uint256"}],"internalType":"struct CardBizz.GameToken[]","name":"","type":"tuple[]"}],"stateMutability":"view","type":"function"},{"inputs":[],"name":"getAllPlayers","outputs":[{"components":[{"internalType":"address","name":"playerAddress","type":"address"},{"internalType":"string","name":"playerName","type":"string"},{"internalType":"uint256","name":"playerMana","type":"uint256"},{"internalType":"uint256","name":"playerHealth","type":"uint256"},{"internalType":"bool","name":"inBattle","type":"bool"}],"internalType":"struct CardBizz.Player[]","name":"","type":"tuple[]"}],"stateMutability":"view","type":"function"},{"inputs":[{"internalType":"string","name":"_name","type":"string"}],"name":"getBattle","outputs":[{"components":[{"internalType":"enum CardBizz.BattleStatus","name":"battleStatus","type":"uint8"},{"internalType":"bytes32","name":"battleHash","type":"bytes32"},{"internalType":"string","name":"name","type":"string"},{"internalType":"address[2]","name":"players","type":"address[2]"},{"internalType":"uint8[2]","name":"moves","type":"uint8[2]"},{"internalType":"address","name":"winner","type":"address"}],"internalType":"struct CardBizz.Battle","name":"","type":"tuple"}],"stateMutability":"view","type":"function"},{"inputs":[{"internalType":"string","name":"_battleName","type":"string"}],"name":"getBattleMoves","outputs":[{"internalType":"uint256","name":"P1Move","type":"uint256"},{"internalType":"uint256","name":"P2Move","type":"uint256"}],"stateMutability":"view","type":"function"},{"inputs":[{"internalType":"address","name":"addr","type":"address"}],"name":"getPlayer","outputs":[{"components":[{"internalType":"address","name":"playerAddress","type":"address"},{"internalType":"string","name":"playerName","type":"string"},{"internalType":"uint256","name":"playerMana","type":"uint256"},{"internalType":"uint256","name":"playerHealth","type":"uint256"},{"internalType":"bool","name":"inBattle","type":"bool"}],"internalType":"struct CardBizz.Player","name":"","type":"tuple"}],"stateMutability":"view","type":"function"},{"inputs":[{"internalType":"address","name":"addr","type":"address"}],"name":"getPlayerName","outputs":[{"internalType":"string","name":"","type":"string"}],"stateMutability":"view","type":"function"},{"inputs":[{"internalType":"address","name":"addr","type":"address"}],"name":"getPlayerToken","outputs":[{"components":[{"internalType":"string","name":"name","type":"string"},{"internalType":"uint256","name":"id","type":"uint256"},{"internalType":"uint256","name":"attackStrength","type":"uint256"},{"internalType":"uint256","name":"defenseStrength","type":"uint256"}],"internalType":"struct CardBizz.GameToken","name":"","type":"tuple"}],"stateMutability":"view","type":"function"},{"inputs":[],"name":"getTotalSupply","outputs":[{"internalType":"uint256","name":"","type":"uint256"}],"stateMutability":"view","type":"function"},{"inputs":[{"internalType":"address","name":"account","type":"address"},{"internalType":"address","name":"operator","type":"address"}],"name":"isApprovedForAll","outputs":[{"internalType":"bool","name":"","type":"bool"}],"stateMutability":"view","type":"function"},{"inputs":[{"internalType":"string","name":"_name","type":"string"}],"name":"isBattle","outputs":[{"internalType":"bool","name":"","type":"bool"}],"stateMutability":"view","type":"function"},{"inputs":[{"internalType":"address","name":"addr","type":"address"}],"name":"isPlayer","outputs":[{"internalType":"bool","name":"","type":"bool"}],"stateMutability":"view","type":"function"},{"inputs":[{"internalType":"address","name":"addr","type":"address"}],"name":"isPlayerToken","outputs":[{"internalType":"bool","name":"","type":"bool"}],"stateMutability":"view","type":"function"},{"inputs":[{"internalType":"string","name":"_name","type":"string"}],"name":"joinBattle","outputs":[{"components":[{"internalType":"enum CardBizz.BattleStatus","name":"battleStatus","type":"uint8"},{"internalType":"bytes32","name":"battleHash","type":"bytes32"},{"internalType":"string","name":"name","type":"string"},{"internalType":"address[2]","name":"players","type":"address[2]"},{"internalType":"uint8[2]","name":"moves","type":"uint8[2]"},{"internalType":"address","name":"winner","type":"address"}],"internalType":"struct CardBizz.Battle","name":"","type":"tuple"}],"stateMutability":"nonpayable","type":"function"},{"inputs":[],"name":"owner","outputs":[{"internalType":"address","name":"","type":"address"}],"stateMutability":"view","type":"function"},{"inputs":[{"internalType":"address","name":"","type":"address"}],"name":"playerInfo","outputs":[{"internalType":"uint256","name":"","type":"uint256"}],"stateMutability":"view","type":"function"},{"inputs":[{"internalType":"address","name":"","type":"address"}],"name":"playerTokenInfo","outputs":[{"internalType":"uint256","name":"","type":"uint256"}],"stateMutability":"view","type":"function"},{"inputs":[{"internalType":"uint256","name":"","type":"uint256"}],"name":"players","outputs":[{"internalType":"address","name":"playerAddress","type":"address"},{"internalType":"string","name":"playerName","type":"string"},{"internalType":"uint256","name":"playerMana","type":"uint256"},{"internalType":"uint256","name":"playerHealth","type":"uint256"},{"internalType":"bool","name":"inBattle","type":"bool"}],"stateMutability":"view","type":"function"},{"inputs":[{"internalType":"string","name":"_battleName","type":"string"}],"name":"quitBattle","outputs":[],"stateMutability":"nonpayable","type":"function"},{"inputs":[{"internalType":"string","name":"_name","type":"string"},{"internalType":"string","name":"_gameTokenName","type":"string"}],"name":"registerPlayer","outputs":[],"stateMutability":"nonpayable","type":"function"},{"inputs":[],"name":"renounceOwnership","outputs":[],"stateMutability":"nonpayable","type":"function"},{"inputs":[{"internalType":"address","name":"from","type":"address"},{"internalType":"address","name":"to","type":"address"},{"internalType":"uint256[]","name":"ids","type":"uint256[]"},{"internalType":"uint256[]","name":"amounts","type":"uint256[]"},{"internalType":"bytes","name":"data","type":"bytes"}],"name":"safeBatchTransferFrom","outputs":[],"stateMutability":"nonpayable","type":"function"},{"inputs":[{"internalType":"address","name":"from","type":"address"},{"internalType":"address","name":"to","type":"address"},{"internalType":"uint256","name":"id","type":"uint256"},{"internalType":"uint256","name":"amount","type":"uint256"},{"internalType":"bytes","name":"data","type":"bytes"}],"name":"safeTransferFrom","outputs":[],"stateMutability":"nonpayable","type":"function"},{"inputs":[{"internalType":"address","name":"operator","type":"address"},{"internalType":"bool","name":"approved","type":"bool"}],"name":"setApprovalForAll","outputs":[],"stateMutability":"nonpayable","type":"function"},{"inputs":[{"internalType":"string","name":"newuri","type":"string"}],"name":"setURI","outputs":[],"stateMutability":"nonpayable","type":"function"},{"inputs":[{"internalType":"bytes4","name":"interfaceId","type":"bytes4"}],"name":"supportsInterface","outputs":[{"internalType":"bool","name":"","type":"bool"}],"stateMutability":"view","type":"function"},{"inputs":[{"internalType":"uint256","name":"tokenId","type":"uint256"}],"name":"tokenURI","outputs":[{"internalType":"string","name":"","type":"string"}],"stateMutability":"view","type":"function"},{"inputs":[],"name":"totalSupply","outputs":[{"internalType":"uint256","name":"","type":"uint256"}],"stateMutability":"view","type":"function"},{"inputs":[{"internalType":"uint256","name":"id","type":"uint256"}],"name":"totalSupply","outputs":[{"internalType":"uint256","name":"","type":"uint256"}],"stateMutability":"view","type":"function"},{"inputs":[{"internalType":"address","name":"newOwner","type":"address"}],"name":"transferOwnership","outputs":[],"stateMutability":"nonpayable","type":"function"},{"inputs":[{"internalType":"uint256","name":"","type":"uint256"}],"name":"uri","outputs":[{"internalType":"string","name":"","type":"string"}],"stateMutability":"view","type":"function"}],"evm":{"bytecode":{"linkReferences":{},"object":"60806040523462000aad576200500a803803806200001d8162000af2565b92833981019060208183031262000aad578051906001600160401b03821162000aad570181601f8201121562000aad578051906001600160401b038211620007355762000074601f8301601f191660200162000af2565b928284526020838301011162000aad5760005b82811062000a9757600083850160200152835184906001600160401b0381116200073557600254600181811c9116801562000a8c575b60208210146200071457601f811162000a4a575b50806020601f8211600114620009d257600091620009c6575b508160011b916000199060031b1c1916176002555b60038054336001600160a01b0319821681179092556001600160a01b03167f8be0079c531659141344cd1fd0a4f28419497f9722a3daafe3b4186f6b6457e0600080a380516001600160401b0381116200073557600554600181811c91168015620009bb575b60208210146200071457601f811162000984575b50602091601f82116001146200091a579181926000926200090e575b50508160011b916000199060031b1c1916176005555b604051608081016001600160401b038111828210176200073557604052620001d262000ad2565b6000815281526020810190600082526040810160008152606082019060008252600b546801000000000000000081101562000735576001810180600b558110156200076157600b600052925180519460029490941b7f0175b7a638427703f0dbe7bb9bbf987a2551717b34e79f33b5b1008d1fa01db90193906001600160401b03861162000735578454600181811c9116801562000903575b60208210146200071457601f8111620008cd575b50602090601f87116001146200085e579580916003969760009262000852575b50508160011b9160001990871b1c19161785555b5160018501555160028401555191015560405160a081016001600160401b03811182821017620007355760405260008152620002ee62000ad2565b600081526020820152600060408201526000606082015260006080820152600a54906801000000000000000082101562000735576001820180600a558210156200076157600a6000528051600583027fc65a7bb8d6351c1cf70c95a316cc6a92839c986682d98bc35f958f4883f9d2a890810180546001600160a01b0319166001600160a01b039390931692909217909155602082015180519093906001600160401b038111620007355760016005830284010154600181811c9116801562000847575b60208210146200071457601f811162000809575b506020601f821160011462000783579181600592600495946080979860009262000777575b50508160011b916000199060031b1c1916176001838302850101555b60408601516002838302850101556060860151600383830285010155020101910151151560ff801983541691161790556200044162000ab2565b60008152600060208201526200045662000ab2565b60008082526020820152604051916001600160401b0360c0840190811190841117620007355760c0830160405260008352600060208401526200049862000ad2565b60008152604084015260608301526080820152600060a0820152600c54906801000000000000000082101562000735576001820180600c558210156200076157600c60005280517fdf6966c971051c3d54ec59162606531493a51404a002842f56009d7e5cf4a8c79060038110156200074b57600784028201805460ff191660ff929092169190911781556020830151600182015560408301518051600290920191906001600160401b0382116200073557825490600182811c921680156200072a575b6020831014620007145781601f849311620006d2575b50602090601f831160011462000667576000926200065b575b50508160011b916000199060031b1c19161790555b606082015160005b6002811062000635575050608082015192600093845b600281106200060d576007830284016005810187905560a086015160069190910180546001600160a01b0319166001600160a01b03929092169190911790556040516144b8908162000b328239f35b9094602060019160ff885116908460031b60ff811b9283911b169119161796019101620005be565b81516001600160a01b0316600360078702850183010155602090910190600101620005a8565b0151905086806200058b565b6000858152602081209350601f198516905b818110620006b957509084600195949392106200069f575b505050811b019055620005a0565b015160001960f88460031b161c1916905586808062000691565b9293602060018192878601518155019501930162000679565b6200070290856000526020600020601f850160051c8101916020861062000709575b601f0160051c019062000b18565b8762000572565b9091508190620006f4565b634e487b7160e01b600052602260045260246000fd5b91607f16916200055c565b634e487b7160e01b600052604160045260246000fd5b634e487b7160e01b600052602160045260246000fd5b634e487b7160e01b600052603260045260246000fd5b015190508880620003eb565b60016005840285010160005260206000209560005b601f1984168110620007f0575082608096976004969593600193600596601f19811610620007d6575b505050811b0160018383028501015562000407565b015160001960f88460031b161c19169055888080620007c1565b8282015188556001909701966020928301920162000798565b62000840906001600585028601016000526020600020601f840160051c810191602085106200070957601f0160051c019062000b18565b85620003c6565b90607f1690620003b2565b0151905087806200029f565b90601f198716918660005260206000209260005b818110620008b457509160019391896003999a94106200089b575b505050811b018555620002b3565b015160001983891b60f8161c191690558780806200088d565b9293602060018192878601518155019501930162000872565b620008fc90866000526020600020601f890160051c81019160208a106200070957601f0160051c019062000b18565b866200027f565b90607f16906200026b565b01519050828062000195565b601f19821692600560005260206000209160005b8581106200096b5750836001951062000951575b505050811b01600555620001ab565b015160001960f88460031b161c1916905582808062000942565b919260206001819286850151815501940192016200092e565b620009b49060056000526020600020601f840160051c810191602085106200070957601f0160051c019062000b18565b8262000179565b90607f169062000165565b905082015183620000ea565b6002600090815260008051602062004fea8339815191529250601f198416905b81811062000a315750908360019493921062000a17575b5050811b01600255620000ff565b84015160001960f88460031b161c19169055838062000a09565b91926020600181928689015181550194019201620009f2565b600260005262000a859060008051602062004fea833981519152601f840160051c810191602085106200070957601f0160051c019062000b18565b82620000d1565b90607f1690620000bd565b8060208092840101518282870101520162000087565b600080fd5b60408051919082016001600160401b038111838210176200073557604052565b60405190602082016001600160401b038111838210176200073557604052565b6040519190601f01601f191682016001600160401b038111838210176200073557604052565b81811062000b24575050565b6000815560010162000b1856fe6080604052600436101561001257600080fd5b60003560e01c8062fdd58e14612e2e578063015a379214612d4557806301ffc9a714612cd757806302fe530514612bae5780630677aa4e14612b9257806309c95e1014612b6f5780630daea2cd14612b535780630e89341c14612aa257806310898e4c14612a6a5780631107ae3d14612a3057806316801d17146129e657806318160ddd14610a325780632711162e146129ac5780632ca045221461282f5780632eb2c2d6146123ee5780633835e2b5146123925780634b114691146123585780634e1273f4146121ba5780634f558e791461218c5780635c12cd4b146121595780635c93fc3d14612070578063606d2e9614611fe95780636c0360eb14611f07578063703730a514611eeb578063715018a614611e8e578063845f433b14611bba5780638da5cb5b14611b91578063996d7bea14611abe5780639b09cc8714611a685780639e4ecd1114611a4c5780639ec40aa314611a14578063a1b4f57c146117fa578063a22cb4651461170d578063ba27495614610b38578063bd85b03914610b0c578063bf034b6914610a7d578063bf103a4d14610a50578063c4e41b2214610a32578063c87b56dd1461092a578063d2198cc51461090e578063de96cefc146108f2578063e18d38ce146108a1578063e985e9c51461084b578063efa1c48214610762578063f1da733914610746578063f242432a1461037d578063f2fde38b146102ba5763f71d96cb1461022b57600080fd5b346102b55760203660031901126102b557600435600a548110156102b557600a6000526005602060002091020160018060a01b0381541661026e60018301613210565b9160028101549060ff60046003830154920154169061029f604051958695865260a0602087015260a0860190612eac565b9260408501526060840152151560808301520390f35b600080fd5b346102b55760203660031901126102b5576102d3612e5d565b6102db6132f4565b6001600160a01b0390811690811561032957600380546001600160a01b031981168417909155167f8be0079c531659141344cd1fd0a4f28419497f9722a3daafe3b4186f6b6457e0600080a3005b60405162461bcd60e51b815260206004820152602660248201527f4f776e61626c653a206e6577206f776e657220697320746865207a65726f206160448201526564647265737360d01b6064820152608490fd5b346102b55760a03660031901126102b557610396612e5d565b61039e612e73565b90608480356001600160401b0381116102b5576103bf903690600401612fad565b6001600160a01b0391908383163314801561071b575b6103de90613417565b828516156103ec811561347a565b6103f760443561368d565b61040260643561368d565b91858716156106bb575b6105fb575b505060443560005260209460008652604060002084861660005286526040600020546104416064358210156134d4565b604435600052600087526040600020858716600052875260643590036040600020556044356000526000865260406000208482166000528652604060002061048c6064358254613533565b905560405160443581526064358782015284821690858716907fc3d58168c5ae7397731d063d5bbf3d657854427343f4c083240f7aacaa2d0f6260403392a4803b6104d357005b60a0600061051d958895604051978896879586938563f23a6e6160e01b9d8e87523360048801521660248601526044356044860152606435606486015284015260a4830190612eac565b0393165af1600091816105cc575b506105a257505060019061053d6135a9565b6308c379a01461056d575b50610550575b005b60405162461bcd60e51b81528061056960048201613638565b0390fd5b6105756135c7565b90816105815750610548565b61056960405192839262461bcd60e51b845260048401526024830190612eac565b6001600160e01b03191614905061054e5760405162461bcd60e51b81528061056960048201613560565b6105ed919250843d86116105f4575b6105e58183612f71565b810190613540565b908461052b565b503d6105db565b92959194909360005b84518110156106ac576106178186613403565b51906106238188613403565b5182600052600460205260406000205481811061065757610652936000526004602052036040600020556133d1565b610604565b60405162461bcd60e51b815260206004820152602860248201527f455243313135353a206275726e20616d6f756e74206578636565647320746f74604482015267616c537570706c7960c01b60648201528b90fd5b50935093909491508580610411565b959260009794919592975b865181101561070d57806106dd610708928b613403565b516106e8828a613403565b5160005260046020526107016040600020918254613533565b90556133d1565b6106c6565b50929596919490939661040c565b5082841660005260016020526040600020336000526020526103de60ff6040600020541690506103d5565b346102b55760003660031901126102b557602060405160048152f35b346102b55760003660031901126102b557600a5461077f816130b0565b9061078d6040519283612f71565b808252600a6000908152602091828401917fc65a7bb8d6351c1cf70c95a316cc6a92839c986682d98bc35f958f4883f9d2a8835b8383106108285750505050604051918083019381845251809452604083019360408160051b85010192916000955b8287106107fc5785850386f35b909192938280610818600193603f198a82030186528851613159565b96019201960195929190926107ef565b60058660019261083a859a999a613713565b8152019201920191909594956107c1565b346102b55760403660031901126102b557610864612e5d565b61086c612e73565b9060018060a01b03809116600052600160205260406000209116600052602052602060ff604060002054166040519015158152f35b346102b55760203660031901126102b5576108ee60206108d86108c2612e5d565b6108d36108ce826136b2565b6136cf565b613763565b0151604051918291602083526020830190612eac565b0390f35b346102b55760003660031901126102b557602060405160018152f35b346102b55760003660031901126102b557602060405160008152f35b346102b5576020806003193601126102b5576109476004356143a2565b9060405191826000916005549261095d846131d6565b600194868682169182600014610a0d5750506001146109cb575b509264173539b7b760d91b6006939285602f60f81b6109b797526109a3825180938a8785019101612e89565b019182015203601919810185520183612f71565b6108ee604051928284938452830190612eac565b8591506005600052816000206000905b8282106109f557505083010164173539b7b760d91b610977565b805489830185015288955087939091019086016109db565b60ff1916818701528215159092028501909101915064173539b7b760d91b9050610977565b346102b55760003660031901126102b5576020600654604051908152f35b346102b55760203660031901126102b5576020610a73610a6e612e5d565b6137be565b6040519015158152f35b346102b55760203660031901126102b557600435600b548110156102b557600b600052610af89060021b7f0175b7a638427703f0dbe7bb9bbf987a2551717b34e79f33b5b1008d1fa01db901610ad281613210565b906001810154906003600282015491015490604051948594608086526080860190612eac565b926020850152604084015260608301520390f35b346102b55760203660031901126102b55760043560005260046020526020604060002054604051908152f35b346102b55760403660031901126102b55760043560ff81168091036102b55760249081356001600160401b0381116102b557610b78903690600401612fad565b90610b8282613a01565b8051600381101561168457600103611699578051600381101561168457600214611645576060810190815160018060a01b03815116331490811561162e575b50156115ea57608001518151516001600160a01b031633036115e2576000905b600260ff831610156114de57611fe060ff9260051b1601511661159e5751516001600160a01b031633036115975760005b6001821480801561158d575b1561154957156115425760036040610c3533613763565b015110155b156114f35760405191610c6b84519360208181880196610c5b81838a612e89565b81016009815203019020546131a1565b5090600260ff841610156114de57601f6005610ca193600786831c160101931683549060031b60ff811b9283911b169119161790565b90556080610cae83613a01565b0180515160ff166114d55760ff60005b166002039060ff821161125857516020015160ff166114cb5760ff8060005b1691160360ff81116111785760ff1690600182036114c057610d0d6001915b604051809281928751928391612e89565b8101039020901515907f54b82b77e7ae55a8e6c9e89deba70c7191dea2a3b08ae647b380e9f981d6a0f8600080a315610d4257005b610d4b90613a01565b606081015180516001600160a01b031633149081156114a9575b501561145157608081015160ff81511615159081611440575b50156113f25760018060a01b0360608201515116600052600760205260406000205460ff608083015151166060610dc060018060a01b03828601515116613763565b0151606084015151604090610ddd906001600160a01b0316613842565b015160608581015151919291610dfb906001600160a01b0316613842565b01519260405194610e0b86612f3b565b8552602085015260408401526060830152608082015260018060a01b0360206060840151015116600052600760205260406000205460ff602060808501510151166060610e6660018060a01b03602083880151015116613763565b0151606085015160200151604090610e86906001600160a01b0316613842565b015160608681015160200151919291610ea7906001600160a01b0316613842565b01519260405194610eb786612f3b565b8552602085015260408401526060830152608082015260405191610eda83612f05565b6000835260006020840152826020820151600181148080916113e4575b156111a25750505060608101516040830151116110c7575050606082015151610f2a9083906001600160a01b031661423f565b505b604051906000825b600282106110a75750505060407fc6bf860cbc15f7020f73993a671f01bbb1831a8a7a12c126ca735eb632e7577591a160006080820151526000602060808301510152610f858160408101516141d5565b606081015151610f9d906001600160a01b0316613fb9565b60018060a01b03606083015151166000526008602052806002610fc46040600020546132b6565b500155600a03600a81116110925760018060a01b036060830151511660005260086020526003610ff86040600020546132b6565b500155606081015160200151611016906001600160a01b0316613fb9565b60018060a01b036020606084015101511660005260086020528060026110406040600020546132b6565b500155600a0391600a831161107e57506020606060018060a01b03920151015116600052600860205260036110796040600020546132b6565b500155005b634e487b7160e01b60009081526011600452fd5b82634e487b7160e01b60005260116004526000fd5b82516001600160a01b031681526020928301926001929092019101610f34565b6060820151604082015181106110fd575050506060820151602001516110f79083906001600160a01b031661423f565b50610f2c565b60029293509061113e91611120600361111684516132d5565b5001918254613fac565b90556060810151611136600361111687516132d5565b9055516132d5565b50018054600219928382019291831161118d5760029261115f9255516132d5565b5001805491820191821161117857556060810151610f2c565b83634e487b7160e01b60005260116004526000fd5b85634e487b7160e01b60005260116004526000fd5b806113d6575b1561129057506111c16040840151608085015190613533565b6060830151909290918383106111f0575050506060840151516110f792508491506001600160a01b031661423f565b600293611223938060808801511160001461126d5750505060408401515b600361121a86516132d5565b500155516132d5565b5001805460021981019290831161118d576002926112429255516132d5565b5001805490600382018092116112585755610f2c565b84634e487b7160e01b60005260116004526000fd5b61127691613fac565b6060880151602001516001600160a01b031690915261120e565b60021480806113c8575b1561136457506112b36040830151608084015190613533565b6060840151909290918383106112e5575050506060840151602001516110f792508491506001600160a01b031661423f565b60029361130f93806080850151116000146113445750505060408101515b600361121a83516132d5565b50018054916003830180931161118d5760029261132d9255516132d5565b500180546002198101919082116112585755610f2c565b61134d91613fac565b6060880151516001600160a01b0316909152611303565b9050806113ba575b611378575b5050610f2c565b611384600291516132d5565b50018054916003830180931161118d576002926113a29255516132d5565b50018054906003820180921161125857558380611371565b50600260208301511461136c565b50600160208501511461129a565b5060026020850151146111a8565b506001602086015114610ef7565b60405162461bcd60e51b8152602060048201526021818401527f506c6179657273207374696c6c206e65656420746f206d616b652061206d6f766044820152606560f81b6064820152608490fd5b60ff91506020015116151583610d7e565b60405162461bcd60e51b815260206004820152602b818401527f4f6e6c7920706c617965727320696e207468697320626174746c652063616e2060448201526a6d616b652061206d6f766560a81b6064820152608490fd5b602001516001600160a01b03163314905083610d65565b610d0d600091610cfc565b60ff806001610cdd565b60ff6001610cbe565b85634e487b7160e01b60005260326004526000fd5b60405162461bcd60e51b8152602060048201526022818601527f4d616e61206e6f742073756666696369656e7420666f722061747461636b696e604482015261672160f01b6064820152608490fd5b6001610c3a565b60405162461bcd60e51b815260206004820152601f818701527f43686f6963652073686f756c64206265206569746865722031206f72203221006044820152606490fd5b5060028314610c1e565b6001610c12565b60405162461bcd60e51b815260206004820152601d818601527f596f75206861766520616c7265616479206d6164652061206d6f7665210000006044820152606490fd5b600190610be1565b60405162461bcd60e51b815260206004820152601a818701527f596f7520617265206e6f7420696e207468697320626174746c650000000000006044820152606490fd5b602001516001600160a01b03163314905086610bc1565b60405162461bcd60e51b8152602060048201526018818601527710985d1d1b19481a185cc8185b1c9958591e48195b99195960421b6044820152606490fd5b84634e487b7160e01b60005260216004526000fd5b60405162461bcd60e51b8152602060048201526041818601527f426174746c65206e6f7420737461727465642e20506c656173652074656c6c2060448201527f616e6f7468657220706c6179657220746f206a6f696e2074686520626174746c6064820152606560f81b608482015260a490fd5b346102b55760403660031901126102b557611726612e5d565b60243590811515908183036102b5576001600160a01b0316913383146117a3576117759033600052600160205260406000208460005260205260406000209060ff801983541691151516179055565b6040519081527f17307eab39ab6107e8899845ad3d59bd9653f200f220920489ca2b5937696c3160203392a3005b60405162461bcd60e51b815260206004820152602960248201527f455243313135353a2073657474696e6720617070726f76616c20737461747573604482015268103337b91039b2b63360b91b6064820152608490fd5b346102b5576020806003193601126102b5576004356001600160401b0381116102b55761182b903690600401612fad565b906118346138f2565b5061183e82613a01565b91825160038110156119fe576119bf576060830180515190916001600160a01b03918216331461197057608061187333613763565b0151611937578461188d91600182523386865101526141d5565b80825151166000526007835260046118a96040600020546132d5565b500160ff19906001828254161790558184845101511660005260078452600160046118d86040600020546132d5565b5001918254161790556040840151915151167f024187b16c217a79f8d8e6252b542ec6e278fa91304acd9cfd866f2bbf00bd0860405184815280611920339587830190612eac565b0390a36108ee604051928284938452830190613001565b60405162461bcd60e51b8152600481018590526011602482015270416c726561647920696e20626174746c6560781b6044820152606490fd5b60405162461bcd60e51b815260048101859052602160248201527f4f6e6c7920706c617965722074776f2063616e206a6f696e206120626174746c6044820152606560f81b6064820152608490fd5b60405162461bcd60e51b8152600481018390526017602482015276426174746c6520616c726561647920737461727465642160481b6044820152606490fd5b634e487b7160e01b600052602160045260246000fd5b346102b55760203660031901126102b5576004356001600160401b0381116102b557611a4761054e913690600401612fad565b613add565b346102b55760003660031901126102b557602060405160058152f35b346102b55760203660031901126102b5576004356001600160401b0381116102b5576080611aa4611a9f6040933690600401612fad565b613a01565b015160ff6020818351169201511682519182526020820152f35b346102b55760203660031901126102b5576004356001600160401b0381116102b557611a9f611af1913690600401612fad565b6060810190815160018060a01b0390818151163314908115611b81575b5015611b3c578251518116338103611b305750602061054e935101511661423f565b905061054e925061423f565b60405162461bcd60e51b815260206004820152601b60248201527f596f7520617265206e6f7420696e207468697320626174746c652100000000006044820152606490fd5b6020015182163314905084611b0e565b346102b55760003660031901126102b5576003546040516001600160a01b039091168152602090f35b346102b55760403660031901126102b5576001600160401b036004358181116102b557611beb903690600401612fad565b6024358281116102b557611c03903690600401612fad565b611c0c336136b2565b611e4d57600a54604051611c1f81612f3b565b338152602081019084825260408101600a815260608201906019825260006080840152600160401b851015611e215760018501600a55611c5e856132d5565b949094611e3757835185546001600160a01b0319166001600160a01b039190911617855551805190988111611e2157611c9a60018601546131d6565b601f8111611de1575b506020601f8211600114611d63579260809282611d07979693600496611d1b9c9d600092611d58575b50508160011b916000199060031b1c19161760018701555b5160028601555160038501550151151591019060ff801983541691151516179055565b336000526007602052604060002055613add565b7f81ef79d1cda814a60c0fc60792e648a06d9c6bae67176346d1cc8b63030bfccd6040516020815280611d5333946020830190612eac565b0390a2005b015190508d80611ccc565b6001860160005260206000209960005b601f1984168110611dc9575092600183611d1b9b9c60049794608097611d079b9a97601f19811610611db0575b505050811b016001870155611ce4565b015160001960f88460031b161c191690558d8080611da0565b828201518c556001909b019a60209283019201611d73565b611e1190600187016000526020600020601f840160051c81019160208510611e17575b601f0160051c0190613a7a565b89611ca3565b9091508190611e04565b634e487b7160e01b600052604160045260246000fd5b634e487b7160e01b600052600060045260246000fd5b60405162461bcd60e51b8152602060048201526019602482015278141b185e595c88185b1c9958591e481c9959da5cdd195c9959603a1b6044820152606490fd5b346102b55760003660031901126102b557611ea76132f4565b600380546001600160a01b031981169091556000906001600160a01b03167f8be0079c531659141344cd1fd0a4f28419497f9722a3daafe3b4186f6b6457e08280a3005b346102b55760003660031901126102b557602060405160028152f35b346102b55760003660031901126102b557604051600090600554611f2a816131d6565b808352600191808316908115611fc15750600114611f67575b6108ee83611f5381870382612f71565b604051918291602083526020830190612eac565b6005600090815260209450917f036b6384b5eca791c62761152d0c79bb0604c104a5fb6f4eb0703f3154bb3db05b828410611fae57505050810190910190611f5381611f43565b8054858501870152928501928101611f95565b6108ee9550611f5393506020915091849260ff191682840152151560051b8201019350611f43565b346102b55760203660031901126102b557600435600c548110156102b55761205090600c6000526007602060002091020160ff8154169061206660018201549161203560028201613210565b90600660018060a01b03910154169260405195868096612ff4565b6020850152608060408501526080840190612eac565b9060608301520390f35b346102b55760003660031901126102b557600c5461208d816130b0565b9061209b6040519283612f71565b808252600c6000908152602091828401917fdf6966c971051c3d54ec59162606531493a51404a002842f56009d7e5cf4a8c7835b8383106121365750505050604051918083019381845251809452604083019360408160051b85010192916000955b82871061210a5785850386f35b909192938280612126600193603f198a82030186528851613001565b96019201960195929190926120fd565b600786600192612148859a999a613941565b8152019201920191909594956120cf565b346102b55760203660031901126102b5576108ee6121786108d3612e5d565b604051918291602083526020830190613159565b346102b55760203660031901126102b557600435600052600460205260206040600020541515604051908152f35b346102b55760403660031901126102b5576004356001600160401b038082116102b557366023830112156102b5578160040135906121f7826130b0565b926122056040519485612f71565b82845260209260248486019160051b830101913683116102b557602401905b828210612339575050506024359081116102b5576122469036906004016130c7565b82518151036122e25782519261225b846130b0565b936122696040519586612f71565b808552612278601f19916130b0565b01368486013760005b81518110156122cb576122c6906122b66001600160a01b036122a38386613403565b51166122af8387613403565b519061334c565b6122c08288613403565b526133d1565b612281565b5050506108ee604051928284938452830190613125565b60405162461bcd60e51b815260048101839052602960248201527f455243313135353a206163636f756e747320616e6420696473206c656e677468604482015268040dad2e6dac2e8c6d60bb1b6064820152608490fd5b81356001600160a01b03811681036102b5578152908401908401612224565b346102b55760203660031901126102b5576001600160a01b03612379612e5d565b1660005260076020526020604060002054604051908152f35b346102b55760203660031901126102b5576004356001600160401b0381116102b5576123db60206123c881933690600401612fad565b8160405193828580945193849201612e89565b8101600981520301902054604051908152f35b346102b55760031960a0368201126102b557612408612e5d565b90612411612e73565b906001600160401b03604480358281116102b5576124339036906004016130c7565b9060649081358481116102b55761244e9036906004016130c7565b9460849485359081116102b557612469903690600401612fad565b6001600160a01b0398891698909190338a148015612806575b61248b90613417565b85518851036127b35788169586156124a3811561347a565b8a15612770575b6126ab575b60005b865181101561254257806124c961253d9289613403565b518c6124d5838d613403565b5191806000528260209260008452604060002081600052845260406000205490612501838310156134d4565b8360005260008552604060002090600052845203604060002055600052600081526040600020908b600052526107016040600020918254613533565b6124b2565b5090919293968998878a604051604081527f4a39dc06d4c0dbc64b70af90fd698a233a518aa5d07e595d983b8c0526c8f7fb612581604083018c613125565b91808303602082015280612596339489613125565b0390a43b6125a057005b604051978896879663bc197c8160e01b9b8c89523360048a01526024890152870160a0905260a487016125d291613125565b908487830301908701526125e591613125565b9184830301908401526125f791612eac565b03815a602094600091f16000918161268b575b50612663575050600161261b6135a9565b6308c379a01461262c575b61055057005b6126346135c7565b8061263f5750612626565b60405162461bcd60e51b815260206004820152908190610569906024830190612eac565b6001600160e01b0319161461054e5760405162461bcd60e51b81528061056960048201613560565b6126a491925060203d81116105f4576105e58183612f71565b908361260a565b96949398929590979160005b8551811015612761576126ca8187613403565b516126d58289613403565b5190806000526020600481526040600020549183831061270e576127099493929160049160005252036040600020556133d1565b6126b7565b508b9067616c537570706c7960c01b8f7f455243313135353a206275726e20616d6f756e74206578636565647320746f748e6040519462461bcd60e51b8652600486015260286024860152840152820152fd5b509197909592989394966124af565b98959996949392919060005b8b518110156127a457808c6106e88261279861279f958f613403565b5192613403565b61277c565b509091929394969995986124aa565b60405162461bcd60e51b815260206004820152602860248201527f455243313135353a2069647320616e6420616d6f756e7473206c656e6774682081860152670dad2e6dac2e8c6d60c31b818701528790fd5b5089600052600160205260406000203360005260205261248b60ff604060002054169050612482565b346102b5576020806003193601126102b5576004356001600160401b0381116102b557612860903690600401612fad565b906128696138f2565b5061287b612876336136b2565b613a91565b612884826138c1565b61296f5780604051818101908282526128b2816128a46040820188612eac565b03601f198101835282612f71565b519020926040516128c281612f05565b338152600083820152604051906128d882612f05565b60008252600084830152604051956128ef87612f20565b600087528487015282604087015260608601526080850152600060a085015261292a600c549283928160405193828580945193849201612e89565b8101600981520301902055600160401b811015611e21578261295582600161295b9401600c556131a1565b90614005565b6108ee604051928284938452830190613001565b6064906040519062461bcd60e51b825260048201526016602482015275426174746c6520616c7265616479206578697374732160501b6044820152fd5b346102b55760203660031901126102b5576001600160a01b036129cd612e5d565b1660005260086020526020604060002054604051908152f35b346102b55760203660031901126102b5576004356001600160401b0381116102b557612a1c611a9f6108ee923690600401612fad565b604051918291602083526020830190613001565b346102b55760203660031901126102b5576004356001600160401b0381116102b557610a73612a656020923690600401612fad565b6138c1565b346102b55760203660031901126102b5576108ee612a8e612a89612e5d565b613842565b604051918291602083526020830190612ed1565b346102b5576020806003193601126102b5576040519060008260025491612ac8836131d6565b92838352600190858282169182600014612b33575050600114612af3575b506109b792500383612f71565b849150600260005281600020906000915b858310612b1b5750506109b7935082010185612ae6565b80548389018501528794508693909201918101612b04565b60ff1916858201526109b795151560051b8501019250879150612ae69050565b346102b55760003660031901126102b5576020604051600a8152f35b346102b55760203660031901126102b5576020610a73612b8d612e5d565b6136b2565b346102b55760003660031901126102b557602060405160038152f35b346102b5576020806003193601126102b5576001600160401b036004358181116102b557612be0903690600401612fad565b91612be96132f4565b8251918211611e2157612bfd6002546131d6565b601f8111612ca6575b5080601f8311600114612c4257508192600092612c37575b5050600019600383901b1c191660019190911b17600255005b015190508280612c1e565b90601f19831693600260005282600020926000905b868210612c8e5750508360019510612c75575b505050811b01600255005b015160001960f88460031b161c19169055828080612c6a565b80600185968294968601518155019501930190612c57565b612cd190600260005282600020601f850160051c810191848610611e1757601f0160051c0190613a7a565b83612c06565b346102b55760203660031901126102b55760043563ffffffff60e01b81168091036102b557602090636cdb3d1360e11b8114908115612d34575b8115612d23575b506040519015158152f35b6301ffc9a760e01b14905082612d18565b6303a24d0760e21b81149150612d11565b346102b55760003660031901126102b557600b54612d62816130b0565b90612d706040519283612f71565b808252600b6000908152602091828401917f0175b7a638427703f0dbe7bb9bbf987a2551717b34e79f33b5b1008d1fa01db9835b838310612e0b5750505050604051918083019381845251809452604083019360408160051b85010192916000955b828710612ddf5785850386f35b909192938280612dfb600193603f198a82030186528851612ed1565b9601920196019592919092612dd2565b600486600192612e1d859a999a613809565b815201920192019190959495612da4565b346102b55760403660031901126102b5576020612e55612e4c612e5d565b6024359061334c565b604051908152f35b600435906001600160a01b03821682036102b557565b602435906001600160a01b03821682036102b557565b60005b838110612e9c5750506000910152565b8181015183820152602001612e8c565b90602091612ec581518092818552858086019101612e89565b601f01601f1916010190565b90606080612ee88451608085526080850190612eac565b936020810151602085015260408101516040850152015191015290565b604081019081106001600160401b03821117611e2157604052565b60c081019081106001600160401b03821117611e2157604052565b60a081019081106001600160401b03821117611e2157604052565b608081019081106001600160401b03821117611e2157604052565b90601f801991011681019081106001600160401b03821117611e2157604052565b6001600160401b038111611e2157601f01601f191660200190565b81601f820112156102b557803590612fc482612f92565b92612fd26040519485612f71565b828452602083830101116102b557816000926020809301838601378301015290565b9060038210156119fe5752565b9061300d818351612ff4565b60209182810151838301526130316040820151610100806040860152840190612eac565b926060820151606084016000905b83600283106130925750505050608082015190600060a085015b6002821061307a575050505060e09060a0600180821b039101511691015290565b828060019260ff875116815201940191019092613059565b83516001600160a01b0316825292830192600192909201910161303f565b6001600160401b038111611e215760051b60200190565b81601f820112156102b5578035916130de836130b0565b926130ec6040519485612f71565b808452602092838086019260051b8201019283116102b5578301905b828210613116575050505090565b81358152908301908301613108565b90815180825260208080930193019160005b828110613145575050505090565b835185529381019392810192600101613137565b9060018060a01b038251168152608080613182602085015160a0602086015260a0850190612eac565b9360408101516040850152606081015160608501520151151591015290565b600c548110156131c057600c6000526007602060002091020190600090565b634e487b7160e01b600052603260045260246000fd5b90600182811c92168015613206575b60208310146131f057565b634e487b7160e01b600052602260045260246000fd5b91607f16916131e5565b9060405191826000825492613224846131d6565b9081845260019485811690816000146132935750600114613250575b505061324e92500383612f71565b565b9093915060005260209081600020936000915b81831061327b57505061324e93508201013880613240565b85548884018501529485019487945091830191613263565b91505061324e94506020925060ff191682840152151560051b8201013880613240565b600b548110156131c057600b60005260206000209060021b0190600090565b600a548110156131c057600a6000526005602060002091020190600090565b6003546001600160a01b0316330361330857565b606460405162461bcd60e51b815260206004820152602060248201527f4f776e61626c653a2063616c6c6572206973206e6f7420746865206f776e65726044820152fd5b6001600160a01b031690811561337957600052600060205260406000209060005260205260406000205490565b60405162461bcd60e51b815260206004820152602a60248201527f455243313135353a2061646472657373207a65726f206973206e6f742061207660448201526930b634b21037bbb732b960b11b6064820152608490fd5b60001981146133e05760010190565b634e487b7160e01b600052601160045260246000fd5b8051156131c05760200190565b80518210156131c05760209160051b010190565b1561341e57565b60405162461bcd60e51b815260206004820152602e60248201527f455243313135353a2063616c6c6572206973206e6f7420746f6b656e206f776e60448201526d195c881bdc88185c1c1c9bdd995960921b6064820152608490fd5b1561348157565b60405162461bcd60e51b815260206004820152602560248201527f455243313135353a207472616e7366657220746f20746865207a65726f206164604482015264647265737360d81b6064820152608490fd5b156134db57565b60405162461bcd60e51b815260206004820152602a60248201527f455243313135353a20696e73756666696369656e742062616c616e636520666f60448201526939103a3930b739b332b960b11b6064820152608490fd5b919082018092116133e057565b908160209103126102b557516001600160e01b0319811681036102b55790565b60809060208152602860208201527f455243313135353a204552433131353552656365697665722072656a656374656040820152676420746f6b656e7360c01b60608201520190565b60009060033d116135b657565b905060046000803e60005160e01c90565b600060443d1061362457604051600319913d83016004833e81516001600160401b03918282113d6024840111176136275781840194855193841161362f573d85010160208487010111613627575061362492910160200190612f71565b90565b949350505050565b50949350505050565b60809060208152603460208201527f455243313135353a207472616e7366657220746f206e6f6e2d455243313135356040820152732932b1b2b4bb32b91034b6b83632b6b2b73a32b960611b60608201520190565b6040519061369a82612f05565b60018252602036818401376136ae826133f6565b5290565b6001600160a01b0316600090815260076020526040902054151590565b156136d657565b60405162461bcd60e51b8152602060048201526015602482015274506c6179657220646f65736e27742065786973742160581b6044820152606490fd5b9060405161372081612f3b565b608060ff6004839560018060a01b03815416855261374060018201613210565b602086015260028101546040860152600381015460608601520154161515910152565b6137b86040608061362493825161377981612f3b565b600092818480935260606020820152828682015282606082015201526137a16108ce826136b2565b6001600160a01b03168152600760205220546132d5565b50613713565b6001600160a01b03166000908152600860205260409020546137df57600090565b600190565b604051906137f182612f56565b60006060838181528260208201528260408201520152565b9060405161381681612f56565b60606003829461382581613210565b845260018101546020850152600281015460408501520154910152565b61384a6137e4565b50613854816137be565b156138805760018060a01b0316600052600860205261362461387a6040600020546132b6565b50613809565b60405162461bcd60e51b815260206004820152601960248201527847616d6520746f6b656e20646f65736e27742065786973742160381b6044820152606490fd5b60206138da918160405193828580945193849201612e89565b8101600981520301902054156000146137df57600090565b604090600060a0835161390481612f20565b8094838252836020830152606081830152805161392081612f05565b81368237606083015280519061393582612f05565b36823760808201520152565b9060405161394e81612f20565b809260ff81541660038110156119fe578252600180820154906020918285015260029061397c828501613210565b60408601526040519182600386016000915b8383106139e557505050505090816139a860a09493612f05565b60608501526040519060ff6005840154818116845260081c16908201526139ce81612f05565b6080840152600601546000196001831b0116910152565b81546001600160a01b031681529184019190840190860161398e565b613a096138f2565b50613a13816138c1565b15613a3d57613a37610c5b6020613624938160405193828580945193849201612e89565b50613941565b60405162461bcd60e51b8152602060048201526015602482015274426174746c6520646f65736e27742065786973742160581b6044820152606490fd5b818110613a85575050565b60008155600101613a7a565b15613a9857565b60405162461bcd60e51b815260206004820152601c60248201527f506c6561736520526567697374657220506c61796572204669727374000000006044820152606490fd5b6080613ae833613763565b0151613f6f57613afa612876336136b2565b613b026137e4565b50613b0c33613fb9565b80600a0390600a82116133e0576040908151602090818101904282523360601b858201526034815260608101966001600160401b0392828910848a1117611e215760ff60646006928b8a528551902006160660ff8116918215613f59575b60ff9250613b778a612f56565b89521696608082019188835260c060a08201918783520190888252600b5493600160401b851015611e2157600195868601600b55613bb4866132b6565b959095611e3757518051918211611e2157613bcf86546131d6565b601f8111613f29575b508890601f8311600114613ec1576003959493929160009183613eb6575b505060001982871b1c191690881b1785555b518685015551600284015551910155336000526008835284600020558351613c2f81612f05565b600381526203078360ec1b838201523315613e6857613c4d8761368d565b82865191613c5a83612f05565b81835285368185013781613c6d846133f6565b526000825b613e24575b50505050866000526000835284600020336000528352846000208054908382018092116133e0575584518781528284820152600033917fc3d58168c5ae7397731d063d5bbf3d657854427343f4c083240f7aacaa2d0f62883392a4333b613d1c575b5050613ce66006546133d1565b60065582519485528401528201527fca8ab07e9ed17d119729fc652dd24df9d8430ca862dda4631925b5b4b99da36260603392a2565b8451838180613d5a63f23a6e6160e01b95868352336004840152600060248401528c604484015287606484015260a0608484015260a4830190612eac565b03816000335af160009181613e05575b50613ddc575050613d796135a9565b6308c379a014613da8575b613d90575b3880613cd9565b825162461bcd60e51b81528061056960048201613638565b613db06135c7565b80613dbb5750613d84565b82610569865192839262461bcd60e51b845260048401526024830190612eac565b6001600160e01b031916149050613d8957825162461bcd60e51b81528061056960048201613560565b613e1d919250853d87116105f4576105e58183612f71565b9038613d6a565b8151811015613e635780613e3b613e5d9286613403565b51613e468285613403565b51600052600489526107018b600020918254613533565b82613c72565b613c77565b845162461bcd60e51b815260048101849052602160248201527f455243313135353a206d696e7420746f20746865207a65726f206164647265736044820152607360f81b6064820152608490fd5b015190503880613bf6565b949392918891601f19821690886000528b6000209160005b8d828210613f13575050978360039910613efb575b505050811b018555613c08565b015160001983891b60f8161c19169055388080613eee565b838b015185558d96909401939283019201613ed9565b613f5390876000528a600020601f850160051c8101918c8610611e1757601f0160051c0190613a7a565b38613bd8565b905060ff82146133e057600160ff920190613b6a565b60405162461bcd60e51b8152602060048201526015602482015274506c6179657220697320696e206120626174746c6560581b6044820152606490fd5b919082039182116133e057565b600a9060405160208101914483524260408301526bffffffffffffffffffffffff199060601b16606082015260548152613ff281612f56565b519020068015613fff5790565b50600590565b929190611e37578051926003808510156119fe5760ff1982541660ff80961617825560209081840151906001918285015560029081850160408701518051906001600160401b038211611e2157819061405e84546131d6565b601f81116141a5575b508790601f831160011461414357600092614138575b505060001982851b1c191690851b1790555b606086015160005b83811061411c5750505090608085015191600093845b8281106140ec575050505050600582015560a09091015160069190910180546001600160a01b0319166001600160a01b03929092169190911790559050565b909192826141108697848d85995116919060031b60ff811b9283911b169119161790565b960194939291016140ad565b81516001600160a01b0316878201840155908501908401614097565b01519050388061407d565b90879350601f1983169185600052896000209260005b8b82821061418f5750508411614177575b505050811b01905561408f565b015160001983871b60f8161c1916905538808061416a565b8385015186558b97909501949384019301614159565b6141cf908560005289600020601f850160051c8101918b8610611e1757601f0160051c0190613a7a565b38614067565b906141df826138c1565b1561420357612955610c5b602061324e948160405193828580945193849201612e89565b60405162461bcd60e51b815260206004820152601460248201527310985d1d1b1948191bd95cdb89dd08195e1a5cdd60621b6044820152606490fd5b6142476138f2565b50815160038110156119fe57600214614366576002825260018060a01b038091168060a08401527fae6e5eafb6cd1cb4b139e7a0b9140aa182ee7d50e99f50d660156f79212acbc0604084019261429f8585516141d5565b806060860181815151166000526007602052600a6002614325604060002054856020865101511660005260406000205490848461430260046142e0856132d5565b50019360ff1994858154169055601960036142fa836132d5565b5001556132d5565b5001556004614310836132d5565b5001908154169055601960036142fa836132d5565b500155518051821685810361435d57506020015116935b51936143576040519283926020845216956020830190612eac565b0390a390565b9150509361433c565b60405162461bcd60e51b815260206004820152601460248201527310985d1d1b1948185b1c9958591e48195b99195960621b6044820152606490fd5b80156144645780816000925b61445057506143bc82612f92565b916143ca6040519384612f71565b80835281601f196143da83612f92565b01916020923684870137925b6143f05750505090565b60001983019283116133e05782600a808304928184029184830414841517156133e05761442060ff928392613fac565b166030019081116133e05785518210156131c05760f81b6001600160f81b03191660001a908501830153806143e6565b9161445c600a916133d1565b9204806143ae565b5060405161447181612f05565b60018152600360fc1b60208201529056fea2646970667358221220a0bf8840dcd2b212aff0d8e75c229e2d00eed8aaa6f1e5a63d7976b82b6082d464736f6c63430008110033405787fa12a823e0f2b7631cc41b3ba8828b3321ca811111fa75cd3aa3bb5ace","opcodes":"PUSH1 0x80 PUSH1 0x40 MSTORE CALLVALUE PUSH3 0xAAD JUMPI PUSH3 0x500A DUP1 CODESIZE SUB DUP1 PUSH3 0x1D DUP2 PUSH3 0xAF2 JUMP JUMPDEST SWAP3 DUP4 CODECOPY DUP2 ADD SWAP1 PUSH1 0x20 DUP2 DUP4 SUB SLT PUSH3 0xAAD JUMPI DUP1 MLOAD SWAP1 PUSH1 0x1 PUSH1 0x1 PUSH1 0x40 SHL SUB DUP3 GT PUSH3 0xAAD JUMPI ADD DUP2 PUSH1 0x1F DUP3 ADD SLT ISZERO PUSH3 0xAAD JUMPI DUP1 MLOAD SWAP1 PUSH1 0x1 PUSH1 0x1 PUSH1 0x40 SHL SUB DUP3 GT PUSH3 0x735 JUMPI PUSH3 0x74 PUSH1 0x1F DUP4 ADD PUSH1 0x1F NOT AND PUSH1 0x20 ADD PUSH3 0xAF2 JUMP JUMPDEST SWAP3 DUP3 DUP5 MSTORE PUSH1 0x20 DUP4 DUP4 ADD ADD GT PUSH3 0xAAD JUMPI PUSH1 0x0 JUMPDEST DUP3 DUP2 LT PUSH3 0xA97 JUMPI PUSH1 0x0 DUP4 DUP6 ADD PUSH1 0x20 ADD MSTORE DUP4 MLOAD DUP5 SWAP1 PUSH1 0x1 PUSH1 0x1 PUSH1 0x40 SHL SUB DUP2 GT PUSH3 0x735 JUMPI PUSH1 0x2 SLOAD PUSH1 0x1 DUP2 DUP2 SHR SWAP2 AND DUP1 ISZERO PUSH3 0xA8C JUMPI JUMPDEST PUSH1 0x20 DUP3 LT EQ PUSH3 0x714 JUMPI PUSH1 0x1F DUP2 GT PUSH3 0xA4A JUMPI JUMPDEST POP DUP1 PUSH1 0x20 PUSH1 0x1F DUP3 GT PUSH1 0x1 EQ PUSH3 0x9D2 JUMPI PUSH1 0x0 SWAP2 PUSH3 0x9C6 JUMPI JUMPDEST POP DUP2 PUSH1 0x1 SHL SWAP2 PUSH1 0x0 NOT SWAP1 PUSH1 0x3 SHL SHR NOT AND OR PUSH1 0x2 SSTORE JUMPDEST PUSH1 0x3 DUP1 SLOAD CALLER PUSH1 0x1 PUSH1 0x1 PUSH1 0xA0 SHL SUB NOT DUP3 AND DUP2 OR SWAP1 SWAP3 SSTORE PUSH1 0x1 PUSH1 0x1 PUSH1 0xA0 SHL SUB AND PUSH32 0x8BE0079C531659141344CD1FD0A4F28419497F9722A3DAAFE3B4186F6B6457E0 PUSH1 0x0 DUP1 LOG3 DUP1 MLOAD PUSH1 0x1 PUSH1 0x1 PUSH1 0x40 SHL SUB DUP2 GT PUSH3 0x735 JUMPI PUSH1 0x5 SLOAD PUSH1 0x1 DUP2 DUP2 SHR SWAP2 AND DUP1 ISZERO PUSH3 0x9BB JUMPI JUMPDEST PUSH1 0x20 DUP3 LT EQ PUSH3 0x714 JUMPI PUSH1 0x1F DUP2 GT PUSH3 0x984 JUMPI JUMPDEST POP PUSH1 0x20 SWAP2 PUSH1 0x1F DUP3 GT PUSH1 0x1 EQ PUSH3 0x91A JUMPI SWAP2 DUP2 SWAP3 PUSH1 0x0 SWAP3 PUSH3 0x90E JUMPI JUMPDEST POP POP DUP2 PUSH1 0x1 SHL SWAP2 PUSH1 0x0 NOT SWAP1 PUSH1 0x3 SHL SHR NOT AND OR PUSH1 0x5 SSTORE JUMPDEST PUSH1 0x40 MLOAD PUSH1 0x80 DUP2 ADD PUSH1 0x1 PUSH1 0x1 PUSH1 0x40 SHL SUB DUP2 GT DUP3 DUP3 LT OR PUSH3 0x735 JUMPI PUSH1 0x40 MSTORE PUSH3 0x1D2 PUSH3 0xAD2 JUMP JUMPDEST PUSH1 0x0 DUP2 MSTORE DUP2 MSTORE PUSH1 0x20 DUP2 ADD SWAP1 PUSH1 0x0 DUP3 MSTORE PUSH1 0x40 DUP2 ADD PUSH1 0x0 DUP2 MSTORE PUSH1 0x60 DUP3 ADD SWAP1 PUSH1 0x0 DUP3 MSTORE PUSH1 0xB SLOAD PUSH9 0x10000000000000000 DUP2 LT ISZERO PUSH3 0x735 JUMPI PUSH1 0x1 DUP2 ADD DUP1 PUSH1 0xB SSTORE DUP2 LT ISZERO PUSH3 0x761 JUMPI PUSH1 0xB PUSH1 0x0 MSTORE SWAP3 MLOAD DUP1 MLOAD SWAP5 PUSH1 0x2 SWAP5 SWAP1 SWAP5 SHL PUSH32 0x175B7A638427703F0DBE7BB9BBF987A2551717B34E79F33B5B1008D1FA01DB9 ADD SWAP4 SWAP1 PUSH1 0x1 PUSH1 0x1 PUSH1 0x40 SHL SUB DUP7 GT PUSH3 0x735 JUMPI DUP5 SLOAD PUSH1 0x1 DUP2 DUP2 SHR SWAP2 AND DUP1 ISZERO PUSH3 0x903 JUMPI JUMPDEST PUSH1 0x20 DUP3 LT EQ PUSH3 0x714 JUMPI PUSH1 0x1F DUP2 GT PUSH3 0x8CD JUMPI JUMPDEST POP PUSH1 0x20 SWAP1 PUSH1 0x1F DUP8 GT PUSH1 0x1 EQ PUSH3 0x85E JUMPI SWAP6 DUP1 SWAP2 PUSH1 0x3 SWAP7 SWAP8 PUSH1 0x0 SWAP3 PUSH3 0x852 JUMPI JUMPDEST POP POP DUP2 PUSH1 0x1 SHL SWAP2 PUSH1 0x0 NOT SWAP1 DUP8 SHL SHR NOT AND OR DUP6 SSTORE JUMPDEST MLOAD PUSH1 0x1 DUP6 ADD SSTORE MLOAD PUSH1 0x2 DUP5 ADD SSTORE MLOAD SWAP2 ADD SSTORE PUSH1 0x40 MLOAD PUSH1 0xA0 DUP2 ADD PUSH1 0x1 PUSH1 0x1 PUSH1 0x40 SHL SUB DUP2 GT DUP3 DUP3 LT OR PUSH3 0x735 JUMPI PUSH1 0x40 MSTORE PUSH1 0x0 DUP2 MSTORE PUSH3 0x2EE PUSH3 0xAD2 JUMP JUMPDEST PUSH1 0x0 DUP2 MSTORE PUSH1 0x20 DUP3 ADD MSTORE PUSH1 0x0 PUSH1 0x40 DUP3 ADD MSTORE PUSH1 0x0 PUSH1 0x60 DUP3 ADD MSTORE PUSH1 0x0 PUSH1 0x80 DUP3 ADD MSTORE PUSH1 0xA SLOAD SWAP1 PUSH9 0x10000000000000000 DUP3 LT ISZERO PUSH3 0x735 JUMPI PUSH1 0x1 DUP3 ADD DUP1 PUSH1 0xA SSTORE DUP3 LT ISZERO PUSH3 0x761 JUMPI PUSH1 0xA PUSH1 0x0 MSTORE DUP1 MLOAD PUSH1 0x5 DUP4 MUL PUSH32 0xC65A7BB8D6351C1CF70C95A316CC6A92839C986682D98BC35F958F4883F9D2A8 SWAP1 DUP2 ADD DUP1 SLOAD PUSH1 0x1 PUSH1 0x1 PUSH1 0xA0 SHL SUB NOT AND PUSH1 0x1 PUSH1 0x1 PUSH1 0xA0 SHL SUB SWAP4 SWAP1 SWAP4 AND SWAP3 SWAP1 SWAP3 OR SWAP1 SWAP2 SSTORE PUSH1 0x20 DUP3 ADD MLOAD DUP1 MLOAD SWAP1 SWAP4 SWAP1 PUSH1 0x1 PUSH1 0x1 PUSH1 0x40 SHL SUB DUP2 GT PUSH3 0x735 JUMPI PUSH1 0x1 PUSH1 0x5 DUP4 MUL DUP5 ADD ADD SLOAD PUSH1 0x1 DUP2 DUP2 SHR SWAP2 AND DUP1 ISZERO PUSH3 0x847 JUMPI JUMPDEST PUSH1 0x20 DUP3 LT EQ PUSH3 0x714 JUMPI PUSH1 0x1F DUP2 GT PUSH3 0x809 JUMPI JUMPDEST POP PUSH1 0x20 PUSH1 0x1F DUP3 GT PUSH1 0x1 EQ PUSH3 0x783 JUMPI SWAP2 DUP2 PUSH1 0x5 SWAP3 PUSH1 0x4 SWAP6 SWAP5 PUSH1 0x80 SWAP8 SWAP9 PUSH1 0x0 SWAP3 PUSH3 0x777 JUMPI JUMPDEST POP POP DUP2 PUSH1 0x1 SHL SWAP2 PUSH1 0x0 NOT SWAP1 PUSH1 0x3 SHL SHR NOT AND OR PUSH1 0x1 DUP4 DUP4 MUL DUP6 ADD ADD SSTORE JUMPDEST PUSH1 0x40 DUP7 ADD MLOAD PUSH1 0x2 DUP4 DUP4 MUL DUP6 ADD ADD SSTORE PUSH1 0x60 DUP7 ADD MLOAD PUSH1 0x3 DUP4 DUP4 MUL DUP6 ADD ADD SSTORE MUL ADD ADD SWAP2 ADD MLOAD ISZERO ISZERO PUSH1 0xFF DUP1 NOT DUP4 SLOAD AND SWAP2 AND OR SWAP1 SSTORE PUSH3 0x441 PUSH3 0xAB2 JUMP JUMPDEST PUSH1 0x0 DUP2 MSTORE PUSH1 0x0 PUSH1 0x20 DUP3 ADD MSTORE PUSH3 0x456 PUSH3 0xAB2 JUMP JUMPDEST PUSH1 0x0 DUP1 DUP3 MSTORE PUSH1 0x20 DUP3 ADD MSTORE PUSH1 0x40 MLOAD SWAP2 PUSH1 0x1 PUSH1 0x1 PUSH1 0x40 SHL SUB PUSH1 0xC0 DUP5 ADD SWAP1 DUP2 GT SWAP1 DUP5 GT OR PUSH3 0x735 JUMPI PUSH1 0xC0 DUP4 ADD PUSH1 0x40 MSTORE PUSH1 0x0 DUP4 MSTORE PUSH1 0x0 PUSH1 0x20 DUP5 ADD MSTORE PUSH3 0x498 PUSH3 0xAD2 JUMP JUMPDEST PUSH1 0x0 DUP2 MSTORE PUSH1 0x40 DUP5 ADD MSTORE PUSH1 0x60 DUP4 ADD MSTORE PUSH1 0x80 DUP3 ADD MSTORE PUSH1 0x0 PUSH1 0xA0 DUP3 ADD MSTORE PUSH1 0xC SLOAD SWAP1 PUSH9 0x10000000000000000 DUP3 LT ISZERO PUSH3 0x735 JUMPI PUSH1 0x1 DUP3 ADD DUP1 PUSH1 0xC SSTORE DUP3 LT ISZERO PUSH3 0x761 JUMPI PUSH1 0xC PUSH1 0x0 MSTORE DUP1 MLOAD PUSH32 0xDF6966C971051C3D54EC59162606531493A51404A002842F56009D7E5CF4A8C7 SWAP1 PUSH1 0x3 DUP2 LT ISZERO PUSH3 0x74B JUMPI PUSH1 0x7 DUP5 MUL DUP3 ADD DUP1 SLOAD PUSH1 0xFF NOT AND PUSH1 0xFF SWAP3 SWAP1 SWAP3 AND SWAP2 SWAP1 SWAP2 OR DUP2 SSTORE PUSH1 0x20 DUP4 ADD MLOAD PUSH1 0x1 DUP3 ADD SSTORE PUSH1 0x40 DUP4 ADD MLOAD DUP1 MLOAD PUSH1 0x2 SWAP1 SWAP3 ADD SWAP2 SWAP1 PUSH1 0x1 PUSH1 0x1 PUSH1 0x40 SHL SUB DUP3 GT PUSH3 0x735 JUMPI DUP3 SLOAD SWAP1 PUSH1 0x1 DUP3 DUP2 SHR SWAP3 AND DUP1 ISZERO PUSH3 0x72A JUMPI JUMPDEST PUSH1 0x20 DUP4 LT EQ PUSH3 0x714 JUMPI DUP2 PUSH1 0x1F DUP5 SWAP4 GT PUSH3 0x6D2 JUMPI JUMPDEST POP PUSH1 0x20 SWAP1 PUSH1 0x1F DUP4 GT PUSH1 0x1 EQ PUSH3 0x667 JUMPI PUSH1 0x0 SWAP3 PUSH3 0x65B JUMPI JUMPDEST POP POP DUP2 PUSH1 0x1 SHL SWAP2 PUSH1 0x0 NOT SWAP1 PUSH1 0x3 SHL SHR NOT AND OR SWAP1 SSTORE JUMPDEST PUSH1 0x60 DUP3 ADD MLOAD PUSH1 0x0 JUMPDEST PUSH1 0x2 DUP2 LT PUSH3 0x635 JUMPI POP POP PUSH1 0x80 DUP3 ADD MLOAD SWAP3 PUSH1 0x0 SWAP4 DUP5 JUMPDEST PUSH1 0x2 DUP2 LT PUSH3 0x60D JUMPI PUSH1 0x7 DUP4 MUL DUP5 ADD PUSH1 0x5 DUP2 ADD DUP8 SWAP1 SSTORE PUSH1 0xA0 DUP7 ADD MLOAD PUSH1 0x6 SWAP2 SWAP1 SWAP2 ADD DUP1 SLOAD PUSH1 0x1 PUSH1 0x1 PUSH1 0xA0 SHL SUB NOT AND PUSH1 0x1 PUSH1 0x1 PUSH1 0xA0 SHL SUB SWAP3 SWAP1 SWAP3 AND SWAP2 SWAP1 SWAP2 OR SWAP1 SSTORE PUSH1 0x40 MLOAD PUSH2 0x44B8 SWAP1 DUP2 PUSH3 0xB32 DUP3 CODECOPY RETURN JUMPDEST SWAP1 SWAP5 PUSH1 0x20 PUSH1 0x1 SWAP2 PUSH1 0xFF DUP9 MLOAD AND SWAP1 DUP5 PUSH1 0x3 SHL PUSH1 0xFF DUP2 SHL SWAP3 DUP4 SWAP2 SHL AND SWAP2 NOT AND OR SWAP7 ADD SWAP2 ADD PUSH3 0x5BE JUMP JUMPDEST DUP2 MLOAD PUSH1 0x1 PUSH1 0x1 PUSH1 0xA0 SHL SUB AND PUSH1 0x3 PUSH1 0x7 DUP8 MUL DUP6 ADD DUP4 ADD ADD SSTORE PUSH1 0x20 SWAP1 SWAP2 ADD SWAP1 PUSH1 0x1 ADD PUSH3 0x5A8 JUMP JUMPDEST ADD MLOAD SWAP1 POP DUP7 DUP1 PUSH3 0x58B JUMP JUMPDEST PUSH1 0x0 DUP6 DUP2 MSTORE PUSH1 0x20 DUP2 KECCAK256 SWAP4 POP PUSH1 0x1F NOT DUP6 AND SWAP1 JUMPDEST DUP2 DUP2 LT PUSH3 0x6B9 JUMPI POP SWAP1 DUP5 PUSH1 0x1 SWAP6 SWAP5 SWAP4 SWAP3 LT PUSH3 0x69F JUMPI JUMPDEST POP POP POP DUP2 SHL ADD SWAP1 SSTORE PUSH3 0x5A0 JUMP JUMPDEST ADD MLOAD PUSH1 0x0 NOT PUSH1 0xF8 DUP5 PUSH1 0x3 SHL AND SHR NOT AND SWAP1 SSTORE DUP7 DUP1 DUP1 PUSH3 0x691 JUMP JUMPDEST SWAP3 SWAP4 PUSH1 0x20 PUSH1 0x1 DUP2 SWAP3 DUP8 DUP7 ADD MLOAD DUP2 SSTORE ADD SWAP6 ADD SWAP4 ADD PUSH3 0x679 JUMP JUMPDEST PUSH3 0x702 SWAP1 DUP6 PUSH1 0x0 MSTORE PUSH1 0x20 PUSH1 0x0 KECCAK256 PUSH1 0x1F DUP6 ADD PUSH1 0x5 SHR DUP2 ADD SWAP2 PUSH1 0x20 DUP7 LT PUSH3 0x709 JUMPI JUMPDEST PUSH1 0x1F ADD PUSH1 0x5 SHR ADD SWAP1 PUSH3 0xB18 JUMP JUMPDEST DUP8 PUSH3 0x572 JUMP JUMPDEST SWAP1 SWAP2 POP DUP2 SWAP1 PUSH3 0x6F4 JUMP JUMPDEST PUSH4 0x4E487B71 PUSH1 0xE0 SHL PUSH1 0x0 MSTORE PUSH1 0x22 PUSH1 0x4 MSTORE PUSH1 0x24 PUSH1 0x0 REVERT JUMPDEST SWAP2 PUSH1 0x7F AND SWAP2 PUSH3 0x55C JUMP JUMPDEST PUSH4 0x4E487B71 PUSH1 0xE0 SHL PUSH1 0x0 MSTORE PUSH1 0x41 PUSH1 0x4 MSTORE PUSH1 0x24 PUSH1 0x0 REVERT JUMPDEST PUSH4 0x4E487B71 PUSH1 0xE0 SHL PUSH1 0x0 MSTORE PUSH1 0x21 PUSH1 0x4 MSTORE PUSH1 0x24 PUSH1 0x0 REVERT JUMPDEST PUSH4 0x4E487B71 PUSH1 0xE0 SHL PUSH1 0x0 MSTORE PUSH1 0x32 PUSH1 0x4 MSTORE PUSH1 0x24 PUSH1 0x0 REVERT JUMPDEST ADD MLOAD SWAP1 POP DUP9 DUP1 PUSH3 0x3EB JUMP JUMPDEST PUSH1 0x1 PUSH1 0x5 DUP5 MUL DUP6 ADD ADD PUSH1 0x0 MSTORE PUSH1 0x20 PUSH1 0x0 KECCAK256 SWAP6 PUSH1 0x0 JUMPDEST PUSH1 0x1F NOT DUP5 AND DUP2 LT PUSH3 0x7F0 JUMPI POP DUP3 PUSH1 0x80 SWAP7 SWAP8 PUSH1 0x4 SWAP7 SWAP6 SWAP4 PUSH1 0x1 SWAP4 PUSH1 0x5 SWAP7 PUSH1 0x1F NOT DUP2 AND LT PUSH3 0x7D6 JUMPI JUMPDEST POP POP POP DUP2 SHL ADD PUSH1 0x1 DUP4 DUP4 MUL DUP6 ADD ADD SSTORE PUSH3 0x407 JUMP JUMPDEST ADD MLOAD PUSH1 0x0 NOT PUSH1 0xF8 DUP5 PUSH1 0x3 SHL AND SHR NOT AND SWAP1 SSTORE DUP9 DUP1 DUP1 PUSH3 0x7C1 JUMP JUMPDEST DUP3 DUP3 ADD MLOAD DUP9 SSTORE PUSH1 0x1 SWAP1 SWAP8 ADD SWAP7 PUSH1 0x20 SWAP3 DUP4 ADD SWAP3 ADD PUSH3 0x798 JUMP JUMPDEST PUSH3 0x840 SWAP1 PUSH1 0x1 PUSH1 0x5 DUP6 MUL DUP7 ADD ADD PUSH1 0x0 MSTORE PUSH1 0x20 PUSH1 0x0 KECCAK256 PUSH1 0x1F DUP5 ADD PUSH1 0x5 SHR DUP2 ADD SWAP2 PUSH1 0x20 DUP6 LT PUSH3 0x709 JUMPI PUSH1 0x1F ADD PUSH1 0x5 SHR ADD SWAP1 PUSH3 0xB18 JUMP JUMPDEST DUP6 PUSH3 0x3C6 JUMP JUMPDEST SWAP1 PUSH1 0x7F AND SWAP1 PUSH3 0x3B2 JUMP JUMPDEST ADD MLOAD SWAP1 POP DUP8 DUP1 PUSH3 0x29F JUMP JUMPDEST SWAP1 PUSH1 0x1F NOT DUP8 AND SWAP2 DUP7 PUSH1 0x0 MSTORE PUSH1 0x20 PUSH1 0x0 KECCAK256 SWAP3 PUSH1 0x0 JUMPDEST DUP2 DUP2 LT PUSH3 0x8B4 JUMPI POP SWAP2 PUSH1 0x1 SWAP4 SWAP2 DUP10 PUSH1 0x3 SWAP10 SWAP11 SWAP5 LT PUSH3 0x89B JUMPI JUMPDEST POP POP POP DUP2 SHL ADD DUP6 SSTORE PUSH3 0x2B3 JUMP JUMPDEST ADD MLOAD PUSH1 0x0 NOT DUP4 DUP10 SHL PUSH1 0xF8 AND SHR NOT AND SWAP1 SSTORE DUP8 DUP1 DUP1 PUSH3 0x88D JUMP JUMPDEST SWAP3 SWAP4 PUSH1 0x20 PUSH1 0x1 DUP2 SWAP3 DUP8 DUP7 ADD MLOAD DUP2 SSTORE ADD SWAP6 ADD SWAP4 ADD PUSH3 0x872 JUMP JUMPDEST PUSH3 0x8FC SWAP1 DUP7 PUSH1 0x0 MSTORE PUSH1 0x20 PUSH1 0x0 KECCAK256 PUSH1 0x1F DUP10 ADD PUSH1 0x5 SHR DUP2 ADD SWAP2 PUSH1 0x20 DUP11 LT PUSH3 0x709 JUMPI PUSH1 0x1F ADD PUSH1 0x5 SHR ADD SWAP1 PUSH3 0xB18 JUMP JUMPDEST DUP7 PUSH3 0x27F JUMP JUMPDEST SWAP1 PUSH1 0x7F AND SWAP1 PUSH3 0x26B JUMP JUMPDEST ADD MLOAD SWAP1 POP DUP3 DUP1 PUSH3 0x195 JUMP JUMPDEST PUSH1 0x1F NOT DUP3 AND SWAP3 PUSH1 0x5 PUSH1 0x0 MSTORE PUSH1 0x20 PUSH1 0x0 KECCAK256 SWAP2 PUSH1 0x0 JUMPDEST DUP6 DUP2 LT PUSH3 0x96B JUMPI POP DUP4 PUSH1 0x1 SWAP6 LT PUSH3 0x951 JUMPI JUMPDEST POP POP POP DUP2 SHL ADD PUSH1 0x5 SSTORE PUSH3 0x1AB JUMP JUMPDEST ADD MLOAD PUSH1 0x0 NOT PUSH1 0xF8 DUP5 PUSH1 0x3 SHL AND SHR NOT AND SWAP1 SSTORE DUP3 DUP1 DUP1 PUSH3 0x942 JUMP JUMPDEST SWAP2 SWAP3 PUSH1 0x20 PUSH1 0x1 DUP2 SWAP3 DUP7 DUP6 ADD MLOAD DUP2 SSTORE ADD SWAP5 ADD SWAP3 ADD PUSH3 0x92E JUMP JUMPDEST PUSH3 0x9B4 SWAP1 PUSH1 0x5 PUSH1 0x0 MSTORE PUSH1 0x20 PUSH1 0x0 KECCAK256 PUSH1 0x1F DUP5 ADD PUSH1 0x5 SHR DUP2 ADD SWAP2 PUSH1 0x20 DUP6 LT PUSH3 0x709 JUMPI PUSH1 0x1F ADD PUSH1 0x5 SHR ADD SWAP1 PUSH3 0xB18 JUMP JUMPDEST DUP3 PUSH3 0x179 JUMP JUMPDEST SWAP1 PUSH1 0x7F AND SWAP1 PUSH3 0x165 JUMP JUMPDEST SWAP1 POP DUP3 ADD MLOAD DUP4 PUSH3 0xEA JUMP JUMPDEST PUSH1 0x2 PUSH1 0x0 SWAP1 DUP2 MSTORE PUSH1 0x0 DUP1 MLOAD PUSH1 0x20 PUSH3 0x4FEA DUP4 CODECOPY DUP2 MLOAD SWAP2 MSTORE SWAP3 POP PUSH1 0x1F NOT DUP5 AND SWAP1 JUMPDEST DUP2 DUP2 LT PUSH3 0xA31 JUMPI POP SWAP1 DUP4 PUSH1 0x1 SWAP5 SWAP4 SWAP3 LT PUSH3 0xA17 JUMPI JUMPDEST POP POP DUP2 SHL ADD PUSH1 0x2 SSTORE PUSH3 0xFF JUMP JUMPDEST DUP5 ADD MLOAD PUSH1 0x0 NOT PUSH1 0xF8 DUP5 PUSH1 0x3 SHL AND SHR NOT AND SWAP1 SSTORE DUP4 DUP1 PUSH3 0xA09 JUMP JUMPDEST SWAP2 SWAP3 PUSH1 0x20 PUSH1 0x1 DUP2 SWAP3 DUP7 DUP10 ADD MLOAD DUP2 SSTORE ADD SWAP5 ADD SWAP3 ADD PUSH3 0x9F2 JUMP JUMPDEST PUSH1 0x2 PUSH1 0x0 MSTORE PUSH3 0xA85 SWAP1 PUSH1 0x0 DUP1 MLOAD PUSH1 0x20 PUSH3 0x4FEA DUP4 CODECOPY DUP2 MLOAD SWAP2 MSTORE PUSH1 0x1F DUP5 ADD PUSH1 0x5 SHR DUP2 ADD SWAP2 PUSH1 0x20 DUP6 LT PUSH3 0x709 JUMPI PUSH1 0x1F ADD PUSH1 0x5 SHR ADD SWAP1 PUSH3 0xB18 JUMP JUMPDEST DUP3 PUSH3 0xD1 JUMP JUMPDEST SWAP1 PUSH1 0x7F AND SWAP1 PUSH3 0xBD JUMP JUMPDEST DUP1 PUSH1 0x20 DUP1 SWAP3 DUP5 ADD ADD MLOAD DUP3 DUP3 DUP8 ADD ADD MSTORE ADD PUSH3 0x87 JUMP JUMPDEST PUSH1 0x0 DUP1 REVERT JUMPDEST PUSH1 0x40 DUP1 MLOAD SWAP2 SWAP1 DUP3 ADD PUSH1 0x1 PUSH1 0x1 PUSH1 0x40 SHL SUB DUP2 GT DUP4 DUP3 LT OR PUSH3 0x735 JUMPI PUSH1 0x40 MSTORE JUMP JUMPDEST PUSH1 0x40 MLOAD SWAP1 PUSH1 0x20 DUP3 ADD PUSH1 0x1 PUSH1 0x1 PUSH1 0x40 SHL SUB DUP2 GT DUP4 DUP3 LT OR PUSH3 0x735 JUMPI PUSH1 0x40 MSTORE JUMP JUMPDEST PUSH1 0x40 MLOAD SWAP2 SWAP1 PUSH1 0x1F ADD PUSH1 0x1F NOT AND DUP3 ADD PUSH1 0x1 PUSH1 0x1 PUSH1 0x40 SHL SUB DUP2 GT DUP4 DUP3 LT OR PUSH3 0x735 JUMPI PUSH1 0x40 MSTORE JUMP JUMPDEST DUP2 DUP2 LT PUSH3 0xB24 JUMPI POP POP JUMP JUMPDEST PUSH1 0x0 DUP2 SSTORE PUSH1 0x1 ADD PUSH3 0xB18 JUMP INVALID PUSH1 0x80 PUSH1 0x40 MSTORE PUSH1 0x4 CALLDATASIZE LT ISZERO PUSH2 0x12 JUMPI PUSH1 0x0 DUP1 REVERT JUMPDEST PUSH1 0x0 CALLDATALOAD PUSH1 0xE0 SHR DUP1 PUSH3 0xFDD58E EQ PUSH2 0x2E2E JUMPI DUP1 PUSH4 0x15A3792 EQ PUSH2 0x2D45 JUMPI DUP1 PUSH4 0x1FFC9A7 EQ PUSH2 0x2CD7 JUMPI DUP1 PUSH4 0x2FE5305 EQ PUSH2 0x2BAE JUMPI DUP1 PUSH4 0x677AA4E EQ PUSH2 0x2B92 JUMPI DUP1 PUSH4 0x9C95E10 EQ PUSH2 0x2B6F JUMPI DUP1 PUSH4 0xDAEA2CD EQ PUSH2 0x2B53 JUMPI DUP1 PUSH4 0xE89341C EQ PUSH2 0x2AA2 JUMPI DUP1 PUSH4 0x10898E4C EQ PUSH2 0x2A6A JUMPI DUP1 PUSH4 0x1107AE3D EQ PUSH2 0x2A30 JUMPI DUP1 PUSH4 0x16801D17 EQ PUSH2 0x29E6 JUMPI DUP1 PUSH4 0x18160DDD EQ PUSH2 0xA32 JUMPI DUP1 PUSH4 0x2711162E EQ PUSH2 0x29AC JUMPI DUP1 PUSH4 0x2CA04522 EQ PUSH2 0x282F JUMPI DUP1 PUSH4 0x2EB2C2D6 EQ PUSH2 0x23EE JUMPI DUP1 PUSH4 0x3835E2B5 EQ PUSH2 0x2392 JUMPI DUP1 PUSH4 0x4B114691 EQ PUSH2 0x2358 JUMPI DUP1 PUSH4 0x4E1273F4 EQ PUSH2 0x21BA JUMPI DUP1 PUSH4 0x4F558E79 EQ PUSH2 0x218C JUMPI DUP1 PUSH4 0x5C12CD4B EQ PUSH2 0x2159 JUMPI DUP1 PUSH4 0x5C93FC3D EQ PUSH2 0x2070 JUMPI DUP1 PUSH4 0x606D2E96 EQ PUSH2 0x1FE9 JUMPI DUP1 PUSH4 0x6C0360EB EQ PUSH2 0x1F07 JUMPI DUP1 PUSH4 0x703730A5 EQ PUSH2 0x1EEB JUMPI DUP1 PUSH4 0x715018A6 EQ PUSH2 0x1E8E JUMPI DUP1 PUSH4 0x845F433B EQ PUSH2 0x1BBA JUMPI DUP1 PUSH4 0x8DA5CB5B EQ PUSH2 0x1B91 JUMPI DUP1 PUSH4 0x996D7BEA EQ PUSH2 0x1ABE JUMPI DUP1 PUSH4 0x9B09CC87 EQ PUSH2 0x1A68 JUMPI DUP1 PUSH4 0x9E4ECD11 EQ PUSH2 0x1A4C JUMPI DUP1 PUSH4 0x9EC40AA3 EQ PUSH2 0x1A14 JUMPI DUP1 PUSH4 0xA1B4F57C EQ PUSH2 0x17FA JUMPI DUP1 PUSH4 0xA22CB465 EQ PUSH2 0x170D JUMPI DUP1 PUSH4 0xBA274956 EQ PUSH2 0xB38 JUMPI DUP1 PUSH4 0xBD85B039 EQ PUSH2 0xB0C JUMPI DUP1 PUSH4 0xBF034B69 EQ PUSH2 0xA7D JUMPI DUP1 PUSH4 0xBF103A4D EQ PUSH2 0xA50 JUMPI DUP1 PUSH4 0xC4E41B22 EQ PUSH2 0xA32 JUMPI DUP1 PUSH4 0xC87B56DD EQ PUSH2 0x92A JUMPI DUP1 PUSH4 0xD2198CC5 EQ PUSH2 0x90E JUMPI DUP1 PUSH4 0xDE96CEFC EQ PUSH2 0x8F2 JUMPI DUP1 PUSH4 0xE18D38CE EQ PUSH2 0x8A1 JUMPI DUP1 PUSH4 0xE985E9C5 EQ PUSH2 0x84B JUMPI DUP1 PUSH4 0xEFA1C482 EQ PUSH2 0x762 JUMPI DUP1 PUSH4 0xF1DA7339 EQ PUSH2 0x746 JUMPI DUP1 PUSH4 0xF242432A EQ PUSH2 0x37D JUMPI DUP1 PUSH4 0xF2FDE38B EQ PUSH2 0x2BA JUMPI PUSH4 0xF71D96CB EQ PUSH2 0x22B JUMPI PUSH1 0x0 DUP1 REVERT JUMPDEST CALLVALUE PUSH2 0x2B5 JUMPI PUSH1 0x20 CALLDATASIZE PUSH1 0x3 NOT ADD SLT PUSH2 0x2B5 JUMPI PUSH1 0x4 CALLDATALOAD PUSH1 0xA SLOAD DUP2 LT ISZERO PUSH2 0x2B5 JUMPI PUSH1 0xA PUSH1 0x0 MSTORE PUSH1 0x5 PUSH1 0x20 PUSH1 0x0 KECCAK256 SWAP2 MUL ADD PUSH1 0x1 DUP1 PUSH1 0xA0 SHL SUB DUP2 SLOAD AND PUSH2 0x26E PUSH1 0x1 DUP4 ADD PUSH2 0x3210 JUMP JUMPDEST SWAP2 PUSH1 0x2 DUP2 ADD SLOAD SWAP1 PUSH1 0xFF PUSH1 0x4 PUSH1 0x3 DUP4 ADD SLOAD SWAP3 ADD SLOAD AND SWAP1 PUSH2 0x29F PUSH1 0x40 MLOAD SWAP6 DUP7 SWAP6 DUP7 MSTORE PUSH1 0xA0 PUSH1 0x20 DUP8 ADD MSTORE PUSH1 0xA0 DUP7 ADD SWAP1 PUSH2 0x2EAC JUMP JUMPDEST SWAP3 PUSH1 0x40 DUP6 ADD MSTORE PUSH1 0x60 DUP5 ADD MSTORE ISZERO ISZERO PUSH1 0x80 DUP4 ADD MSTORE SUB SWAP1 RETURN JUMPDEST PUSH1 0x0 DUP1 REVERT JUMPDEST CALLVALUE PUSH2 0x2B5 JUMPI PUSH1 0x20 CALLDATASIZE PUSH1 0x3 NOT ADD SLT PUSH2 0x2B5 JUMPI PUSH2 0x2D3 PUSH2 0x2E5D JUMP JUMPDEST PUSH2 0x2DB PUSH2 0x32F4 JUMP JUMPDEST PUSH1 0x1 PUSH1 0x1 PUSH1 0xA0 SHL SUB SWAP1 DUP2 AND SWAP1 DUP2 ISZERO PUSH2 0x329 JUMPI PUSH1 0x3 DUP1 SLOAD PUSH1 0x1 PUSH1 0x1 PUSH1 0xA0 SHL SUB NOT DUP2 AND DUP5 OR SWAP1 SWAP2 SSTORE AND PUSH32 0x8BE0079C531659141344CD1FD0A4F28419497F9722A3DAAFE3B4186F6B6457E0 PUSH1 0x0 DUP1 LOG3 STOP JUMPDEST PUSH1 0x40 MLOAD PUSH3 0x461BCD PUSH1 0xE5 SHL DUP2 MSTORE PUSH1 0x20 PUSH1 0x4 DUP3 ADD MSTORE PUSH1 0x26 PUSH1 0x24 DUP3 ADD MSTORE PUSH32 0x4F776E61626C653A206E6577206F776E657220697320746865207A65726F2061 PUSH1 0x44 DUP3 ADD MSTORE PUSH6 0x646472657373 PUSH1 0xD0 SHL PUSH1 0x64 DUP3 ADD MSTORE PUSH1 0x84 SWAP1 REVERT JUMPDEST CALLVALUE PUSH2 0x2B5 JUMPI PUSH1 0xA0 CALLDATASIZE PUSH1 0x3 NOT ADD SLT PUSH2 0x2B5 JUMPI PUSH2 0x396 PUSH2 0x2E5D JUMP JUMPDEST PUSH2 0x39E PUSH2 0x2E73 JUMP JUMPDEST SWAP1 PUSH1 0x84 DUP1 CALLDATALOAD PUSH1 0x1 PUSH1 0x1 PUSH1 0x40 SHL SUB DUP2 GT PUSH2 0x2B5 JUMPI PUSH2 0x3BF SWAP1 CALLDATASIZE SWAP1 PUSH1 0x4 ADD PUSH2 0x2FAD JUMP JUMPDEST PUSH1 0x1 PUSH1 0x1 PUSH1 0xA0 SHL SUB SWAP2 SWAP1 DUP4 DUP4 AND CALLER EQ DUP1 ISZERO PUSH2 0x71B JUMPI JUMPDEST PUSH2 0x3DE SWAP1 PUSH2 0x3417 JUMP JUMPDEST DUP3 DUP6 AND ISZERO PUSH2 0x3EC DUP2 ISZERO PUSH2 0x347A JUMP JUMPDEST PUSH2 0x3F7 PUSH1 0x44 CALLDATALOAD PUSH2 0x368D JUMP JUMPDEST PUSH2 0x402 PUSH1 0x64 CALLDATALOAD PUSH2 0x368D JUMP JUMPDEST SWAP2 DUP6 DUP8 AND ISZERO PUSH2 0x6BB JUMPI JUMPDEST PUSH2 0x5FB JUMPI JUMPDEST POP POP PUSH1 0x44 CALLDATALOAD PUSH1 0x0 MSTORE PUSH1 0x20 SWAP5 PUSH1 0x0 DUP7 MSTORE PUSH1 0x40 PUSH1 0x0 KECCAK256 DUP5 DUP7 AND PUSH1 0x0 MSTORE DUP7 MSTORE PUSH1 0x40 PUSH1 0x0 KECCAK256 SLOAD PUSH2 0x441 PUSH1 0x64 CALLDATALOAD DUP3 LT ISZERO PUSH2 0x34D4 JUMP JUMPDEST PUSH1 0x44 CALLDATALOAD PUSH1 0x0 MSTORE PUSH1 0x0 DUP8 MSTORE PUSH1 0x40 PUSH1 0x0 KECCAK256 DUP6 DUP8 AND PUSH1 0x0 MSTORE DUP8 MSTORE PUSH1 0x64 CALLDATALOAD SWAP1 SUB PUSH1 0x40 PUSH1 0x0 KECCAK256 SSTORE PUSH1 0x44 CALLDATALOAD PUSH1 0x0 MSTORE PUSH1 0x0 DUP7 MSTORE PUSH1 0x40 PUSH1 0x0 KECCAK256 DUP5 DUP3 AND PUSH1 0x0 MSTORE DUP7 MSTORE PUSH1 0x40 PUSH1 0x0 KECCAK256 PUSH2 0x48C PUSH1 0x64 CALLDATALOAD DUP3 SLOAD PUSH2 0x3533 JUMP JUMPDEST SWAP1 SSTORE PUSH1 0x40 MLOAD PUSH1 0x44 CALLDATALOAD DUP2 MSTORE PUSH1 0x64 CALLDATALOAD DUP8 DUP3 ADD MSTORE DUP5 DUP3 AND SWAP1 DUP6 DUP8 AND SWAP1 PUSH32 0xC3D58168C5AE7397731D063D5BBF3D657854427343F4C083240F7AACAA2D0F62 PUSH1 0x40 CALLER SWAP3 LOG4 DUP1 EXTCODESIZE PUSH2 0x4D3 JUMPI STOP JUMPDEST PUSH1 0xA0 PUSH1 0x0 PUSH2 0x51D SWAP6 DUP9 SWAP6 PUSH1 0x40 MLOAD SWAP8 DUP9 SWAP7 DUP8 SWAP6 DUP7 SWAP4 DUP6 PUSH4 0xF23A6E61 PUSH1 0xE0 SHL SWAP14 DUP15 DUP8 MSTORE CALLER PUSH1 0x4 DUP9 ADD MSTORE AND PUSH1 0x24 DUP7 ADD MSTORE PUSH1 0x44 CALLDATALOAD PUSH1 0x44 DUP7 ADD MSTORE PUSH1 0x64 CALLDATALOAD PUSH1 0x64 DUP7 ADD MSTORE DUP5 ADD MSTORE PUSH1 0xA4 DUP4 ADD SWAP1 PUSH2 0x2EAC JUMP JUMPDEST SUB SWAP4 AND GAS CALL PUSH1 0x0 SWAP2 DUP2 PUSH2 0x5CC JUMPI JUMPDEST POP PUSH2 0x5A2 JUMPI POP POP PUSH1 0x1 SWAP1 PUSH2 0x53D PUSH2 0x35A9 JUMP JUMPDEST PUSH4 0x8C379A0 EQ PUSH2 0x56D JUMPI JUMPDEST POP PUSH2 0x550 JUMPI JUMPDEST STOP JUMPDEST PUSH1 0x40 MLOAD PUSH3 0x461BCD PUSH1 0xE5 SHL DUP2 MSTORE DUP1 PUSH2 0x569 PUSH1 0x4 DUP3 ADD PUSH2 0x3638 JUMP JUMPDEST SUB SWAP1 REVERT JUMPDEST PUSH2 0x575 PUSH2 0x35C7 JUMP JUMPDEST SWAP1 DUP2 PUSH2 0x581 JUMPI POP PUSH2 0x548 JUMP JUMPDEST PUSH2 0x569 PUSH1 0x40 MLOAD SWAP3 DUP4 SWAP3 PUSH3 0x461BCD PUSH1 0xE5 SHL DUP5 MSTORE PUSH1 0x4 DUP5 ADD MSTORE PUSH1 0x24 DUP4 ADD SWAP1 PUSH2 0x2EAC JUMP JUMPDEST PUSH1 0x1 PUSH1 0x1 PUSH1 0xE0 SHL SUB NOT AND EQ SWAP1 POP PUSH2 0x54E JUMPI PUSH1 0x40 MLOAD PUSH3 0x461BCD PUSH1 0xE5 SHL DUP2 MSTORE DUP1 PUSH2 0x569 PUSH1 0x4 DUP3 ADD PUSH2 0x3560 JUMP JUMPDEST PUSH2 0x5ED SWAP2 SWAP3 POP DUP5 RETURNDATASIZE DUP7 GT PUSH2 0x5F4 JUMPI JUMPDEST PUSH2 0x5E5 DUP2 DUP4 PUSH2 0x2F71 JUMP JUMPDEST DUP2 ADD SWAP1 PUSH2 0x3540 JUMP JUMPDEST SWAP1 DUP5 PUSH2 0x52B JUMP JUMPDEST POP RETURNDATASIZE PUSH2 0x5DB JUMP JUMPDEST SWAP3 SWAP6 SWAP2 SWAP5 SWAP1 SWAP4 PUSH1 0x0 JUMPDEST DUP5 MLOAD DUP2 LT ISZERO PUSH2 0x6AC JUMPI PUSH2 0x617 DUP2 DUP7 PUSH2 0x3403 JUMP JUMPDEST MLOAD SWAP1 PUSH2 0x623 DUP2 DUP9 PUSH2 0x3403 JUMP JUMPDEST MLOAD DUP3 PUSH1 0x0 MSTORE PUSH1 0x4 PUSH1 0x20 MSTORE PUSH1 0x40 PUSH1 0x0 KECCAK256 SLOAD DUP2 DUP2 LT PUSH2 0x657 JUMPI PUSH2 0x652 SWAP4 PUSH1 0x0 MSTORE PUSH1 0x4 PUSH1 0x20 MSTORE SUB PUSH1 0x40 PUSH1 0x0 KECCAK256 SSTORE PUSH2 0x33D1 JUMP JUMPDEST PUSH2 0x604 JUMP JUMPDEST PUSH1 0x40 MLOAD PUSH3 0x461BCD PUSH1 0xE5 SHL DUP2 MSTORE PUSH1 0x20 PUSH1 0x4 DUP3 ADD MSTORE PUSH1 0x28 PUSH1 0x24 DUP3 ADD MSTORE PUSH32 0x455243313135353A206275726E20616D6F756E74206578636565647320746F74 PUSH1 0x44 DUP3 ADD MSTORE PUSH8 0x616C537570706C79 PUSH1 0xC0 SHL PUSH1 0x64 DUP3 ADD MSTORE DUP12 SWAP1 REVERT JUMPDEST POP SWAP4 POP SWAP4 SWAP1 SWAP5 SWAP2 POP DUP6 DUP1 PUSH2 0x411 JUMP JUMPDEST SWAP6 SWAP3 PUSH1 0x0 SWAP8 SWAP5 SWAP2 SWAP6 SWAP3 SWAP8 JUMPDEST DUP7 MLOAD DUP2 LT ISZERO PUSH2 0x70D JUMPI DUP1 PUSH2 0x6DD PUSH2 0x708 SWAP3 DUP12 PUSH2 0x3403 JUMP JUMPDEST MLOAD PUSH2 0x6E8 DUP3 DUP11 PUSH2 0x3403 JUMP JUMPDEST MLOAD PUSH1 0x0 MSTORE PUSH1 0x4 PUSH1 0x20 MSTORE PUSH2 0x701 PUSH1 0x40 PUSH1 0x0 KECCAK256 SWAP2 DUP3 SLOAD PUSH2 0x3533 JUMP JUMPDEST SWAP1 SSTORE PUSH2 0x33D1 JUMP JUMPDEST PUSH2 0x6C6 JUMP JUMPDEST POP SWAP3 SWAP6 SWAP7 SWAP2 SWAP5 SWAP1 SWAP4 SWAP7 PUSH2 0x40C JUMP JUMPDEST POP DUP3 DUP5 AND PUSH1 0x0 MSTORE PUSH1 0x1 PUSH1 0x20 MSTORE PUSH1 0x40 PUSH1 0x0 KECCAK256 CALLER PUSH1 0x0 MSTORE PUSH1 0x20 MSTORE PUSH2 0x3DE PUSH1 0xFF PUSH1 0x40 PUSH1 0x0 KECCAK256 SLOAD AND SWAP1 POP PUSH2 0x3D5 JUMP JUMPDEST CALLVALUE PUSH2 0x2B5 JUMPI PUSH1 0x0 CALLDATASIZE PUSH1 0x3 NOT ADD SLT PUSH2 0x2B5 JUMPI PUSH1 0x20 PUSH1 0x40 MLOAD PUSH1 0x4 DUP2 MSTORE RETURN JUMPDEST CALLVALUE PUSH2 0x2B5 JUMPI PUSH1 0x0 CALLDATASIZE PUSH1 0x3 NOT ADD SLT PUSH2 0x2B5 JUMPI PUSH1 0xA SLOAD PUSH2 0x77F DUP2 PUSH2 0x30B0 JUMP JUMPDEST SWAP1 PUSH2 0x78D PUSH1 0x40 MLOAD SWAP3 DUP4 PUSH2 0x2F71 JUMP JUMPDEST DUP1 DUP3 MSTORE PUSH1 0xA PUSH1 0x0 SWAP1 DUP2 MSTORE PUSH1 0x20 SWAP2 DUP3 DUP5 ADD SWAP2 PUSH32 0xC65A7BB8D6351C1CF70C95A316CC6A92839C986682D98BC35F958F4883F9D2A8 DUP4 JUMPDEST DUP4 DUP4 LT PUSH2 0x828 JUMPI POP POP POP POP PUSH1 0x40 MLOAD SWAP2 DUP1 DUP4 ADD SWAP4 DUP2 DUP5 MSTORE MLOAD DUP1 SWAP5 MSTORE PUSH1 0x40 DUP4 ADD SWAP4 PUSH1 0x40 DUP2 PUSH1 0x5 SHL DUP6 ADD ADD SWAP3 SWAP2 PUSH1 0x0 SWAP6 JUMPDEST DUP3 DUP8 LT PUSH2 0x7FC JUMPI DUP6 DUP6 SUB DUP7 RETURN JUMPDEST SWAP1 SWAP2 SWAP3 SWAP4 DUP3 DUP1 PUSH2 0x818 PUSH1 0x1 SWAP4 PUSH1 0x3F NOT DUP11 DUP3 SUB ADD DUP7 MSTORE DUP9 MLOAD PUSH2 0x3159 JUMP JUMPDEST SWAP7 ADD SWAP3 ADD SWAP7 ADD SWAP6 SWAP3 SWAP2 SWAP1 SWAP3 PUSH2 0x7EF JUMP JUMPDEST PUSH1 0x5 DUP7 PUSH1 0x1 SWAP3 PUSH2 0x83A DUP6 SWAP11 SWAP10 SWAP11 PUSH2 0x3713 JUMP JUMPDEST DUP2 MSTORE ADD SWAP3 ADD SWAP3 ADD SWAP2 SWAP1 SWAP6 SWAP5 SWAP6 PUSH2 0x7C1 JUMP JUMPDEST CALLVALUE PUSH2 0x2B5 JUMPI PUSH1 0x40 CALLDATASIZE PUSH1 0x3 NOT ADD SLT PUSH2 0x2B5 JUMPI PUSH2 0x864 PUSH2 0x2E5D JUMP JUMPDEST PUSH2 0x86C PUSH2 0x2E73 JUMP JUMPDEST SWAP1 PUSH1 0x1 DUP1 PUSH1 0xA0 SHL SUB DUP1 SWAP2 AND PUSH1 0x0 MSTORE PUSH1 0x1 PUSH1 0x20 MSTORE PUSH1 0x40 PUSH1 0x0 KECCAK256 SWAP2 AND PUSH1 0x0 MSTORE PUSH1 0x20 MSTORE PUSH1 0x20 PUSH1 0xFF PUSH1 0x40 PUSH1 0x0 KECCAK256 SLOAD AND PUSH1 0x40 MLOAD SWAP1 ISZERO ISZERO DUP2 MSTORE RETURN JUMPDEST CALLVALUE PUSH2 0x2B5 JUMPI PUSH1 0x20 CALLDATASIZE PUSH1 0x3 NOT ADD SLT PUSH2 0x2B5 JUMPI PUSH2 0x8EE PUSH1 0x20 PUSH2 0x8D8 PUSH2 0x8C2 PUSH2 0x2E5D JUMP JUMPDEST PUSH2 0x8D3 PUSH2 0x8CE DUP3 PUSH2 0x36B2 JUMP JUMPDEST PUSH2 0x36CF JUMP JUMPDEST PUSH2 0x3763 JUMP JUMPDEST ADD MLOAD PUSH1 0x40 MLOAD SWAP2 DUP3 SWAP2 PUSH1 0x20 DUP4 MSTORE PUSH1 0x20 DUP4 ADD SWAP1 PUSH2 0x2EAC JUMP JUMPDEST SUB SWAP1 RETURN JUMPDEST CALLVALUE PUSH2 0x2B5 JUMPI PUSH1 0x0 CALLDATASIZE PUSH1 0x3 NOT ADD SLT PUSH2 0x2B5 JUMPI PUSH1 0x20 PUSH1 0x40 MLOAD PUSH1 0x1 DUP2 MSTORE RETURN JUMPDEST CALLVALUE PUSH2 0x2B5 JUMPI PUSH1 0x0 CALLDATASIZE PUSH1 0x3 NOT ADD SLT PUSH2 0x2B5 JUMPI PUSH1 0x20 PUSH1 0x40 MLOAD PUSH1 0x0 DUP2 MSTORE RETURN JUMPDEST CALLVALUE PUSH2 0x2B5 JUMPI PUSH1 0x20 DUP1 PUSH1 0x3 NOT CALLDATASIZE ADD SLT PUSH2 0x2B5 JUMPI PUSH2 0x947 PUSH1 0x4 CALLDATALOAD PUSH2 0x43A2 JUMP JUMPDEST SWAP1 PUSH1 0x40 MLOAD SWAP2 DUP3 PUSH1 0x0 SWAP2 PUSH1 0x5 SLOAD SWAP3 PUSH2 0x95D DUP5 PUSH2 0x31D6 JUMP JUMPDEST PUSH1 0x1 SWAP5 DUP7 DUP7 DUP3 AND SWAP2 DUP3 PUSH1 0x0 EQ PUSH2 0xA0D JUMPI POP POP PUSH1 0x1 EQ PUSH2 0x9CB JUMPI JUMPDEST POP SWAP3 PUSH5 0x173539B7B7 PUSH1 0xD9 SHL PUSH1 0x6 SWAP4 SWAP3 DUP6 PUSH1 0x2F PUSH1 0xF8 SHL PUSH2 0x9B7 SWAP8 MSTORE PUSH2 0x9A3 DUP3 MLOAD DUP1 SWAP4 DUP11 DUP8 DUP6 ADD SWAP2 ADD PUSH2 0x2E89 JUMP JUMPDEST ADD SWAP2 DUP3 ADD MSTORE SUB PUSH1 0x19 NOT DUP2 ADD DUP6 MSTORE ADD DUP4 PUSH2 0x2F71 JUMP JUMPDEST PUSH2 0x8EE PUSH1 0x40 MLOAD SWAP3 DUP3 DUP5 SWAP4 DUP5 MSTORE DUP4 ADD SWAP1 PUSH2 0x2EAC JUMP JUMPDEST DUP6 SWAP2 POP PUSH1 0x5 PUSH1 0x0 MSTORE DUP2 PUSH1 0x0 KECCAK256 PUSH1 0x0 SWAP1 JUMPDEST DUP3 DUP3 LT PUSH2 0x9F5 JUMPI POP POP DUP4 ADD ADD PUSH5 0x173539B7B7 PUSH1 0xD9 SHL PUSH2 0x977 JUMP JUMPDEST DUP1 SLOAD DUP10 DUP4 ADD DUP6 ADD MSTORE DUP9 SWAP6 POP DUP8 SWAP4 SWAP1 SWAP2 ADD SWAP1 DUP7 ADD PUSH2 0x9DB JUMP JUMPDEST PUSH1 0xFF NOT AND DUP2 DUP8 ADD MSTORE DUP3 ISZERO ISZERO SWAP1 SWAP3 MUL DUP6 ADD SWAP1 SWAP2 ADD SWAP2 POP PUSH5 0x173539B7B7 PUSH1 0xD9 SHL SWAP1 POP PUSH2 0x977 JUMP JUMPDEST CALLVALUE PUSH2 0x2B5 JUMPI PUSH1 0x0 CALLDATASIZE PUSH1 0x3 NOT ADD SLT PUSH2 0x2B5 JUMPI PUSH1 0x20 PUSH1 0x6 SLOAD PUSH1 0x40 MLOAD SWAP1 DUP2 MSTORE RETURN JUMPDEST CALLVALUE PUSH2 0x2B5 JUMPI PUSH1 0x20 CALLDATASIZE PUSH1 0x3 NOT ADD SLT PUSH2 0x2B5 JUMPI PUSH1 0x20 PUSH2 0xA73 PUSH2 0xA6E PUSH2 0x2E5D JUMP JUMPDEST PUSH2 0x37BE JUMP JUMPDEST PUSH1 0x40 MLOAD SWAP1 ISZERO ISZERO DUP2 MSTORE RETURN JUMPDEST CALLVALUE PUSH2 0x2B5 JUMPI PUSH1 0x20 CALLDATASIZE PUSH1 0x3 NOT ADD SLT PUSH2 0x2B5 JUMPI PUSH1 0x4 CALLDATALOAD PUSH1 0xB SLOAD DUP2 LT ISZERO PUSH2 0x2B5 JUMPI PUSH1 0xB PUSH1 0x0 MSTORE PUSH2 0xAF8 SWAP1 PUSH1 0x2 SHL PUSH32 0x175B7A638427703F0DBE7BB9BBF987A2551717B34E79F33B5B1008D1FA01DB9 ADD PUSH2 0xAD2 DUP2 PUSH2 0x3210 JUMP JUMPDEST SWAP1 PUSH1 0x1 DUP2 ADD SLOAD SWAP1 PUSH1 0x3 PUSH1 0x2 DUP3 ADD SLOAD SWAP2 ADD SLOAD SWAP1 PUSH1 0x40 MLOAD SWAP5 DUP6 SWAP5 PUSH1 0x80 DUP7 MSTORE PUSH1 0x80 DUP7 ADD SWAP1 PUSH2 0x2EAC JUMP JUMPDEST SWAP3 PUSH1 0x20 DUP6 ADD MSTORE PUSH1 0x40 DUP5 ADD MSTORE PUSH1 0x60 DUP4 ADD MSTORE SUB SWAP1 RETURN JUMPDEST CALLVALUE PUSH2 0x2B5 JUMPI PUSH1 0x20 CALLDATASIZE PUSH1 0x3 NOT ADD SLT PUSH2 0x2B5 JUMPI PUSH1 0x4 CALLDATALOAD PUSH1 0x0 MSTORE PUSH1 0x4 PUSH1 0x20 MSTORE PUSH1 0x20 PUSH1 0x40 PUSH1 0x0 KECCAK256 SLOAD PUSH1 0x40 MLOAD SWAP1 DUP2 MSTORE RETURN JUMPDEST CALLVALUE PUSH2 0x2B5 JUMPI PUSH1 0x40 CALLDATASIZE PUSH1 0x3 NOT ADD SLT PUSH2 0x2B5 JUMPI PUSH1 0x4 CALLDATALOAD PUSH1 0xFF DUP2 AND DUP1 SWAP2 SUB PUSH2 0x2B5 JUMPI PUSH1 0x24 SWAP1 DUP2 CALLDATALOAD PUSH1 0x1 PUSH1 0x1 PUSH1 0x40 SHL SUB DUP2 GT PUSH2 0x2B5 JUMPI PUSH2 0xB78 SWAP1 CALLDATASIZE SWAP1 PUSH1 0x4 ADD PUSH2 0x2FAD JUMP JUMPDEST SWAP1 PUSH2 0xB82 DUP3 PUSH2 0x3A01 JUMP JUMPDEST DUP1 MLOAD PUSH1 0x3 DUP2 LT ISZERO PUSH2 0x1684 JUMPI PUSH1 0x1 SUB PUSH2 0x1699 JUMPI DUP1 MLOAD PUSH1 0x3 DUP2 LT ISZERO PUSH2 0x1684 JUMPI PUSH1 0x2 EQ PUSH2 0x1645 JUMPI PUSH1 0x60 DUP2 ADD SWAP1 DUP2 MLOAD PUSH1 0x1 DUP1 PUSH1 0xA0 SHL SUB DUP2 MLOAD AND CALLER EQ SWAP1 DUP2 ISZERO PUSH2 0x162E JUMPI JUMPDEST POP ISZERO PUSH2 0x15EA JUMPI PUSH1 0x80 ADD MLOAD DUP2 MLOAD MLOAD PUSH1 0x1 PUSH1 0x1 PUSH1 0xA0 SHL SUB AND CALLER SUB PUSH2 0x15E2 JUMPI PUSH1 0x0 SWAP1 JUMPDEST PUSH1 0x2 PUSH1 0xFF DUP4 AND LT ISZERO PUSH2 0x14DE JUMPI PUSH2 0x1FE0 PUSH1 0xFF SWAP3 PUSH1 0x5 SHL AND ADD MLOAD AND PUSH2 0x159E JUMPI MLOAD MLOAD PUSH1 0x1 PUSH1 0x1 PUSH1 0xA0 SHL SUB AND CALLER SUB PUSH2 0x1597 JUMPI PUSH1 0x0 JUMPDEST PUSH1 0x1 DUP3 EQ DUP1 DUP1 ISZERO PUSH2 0x158D JUMPI JUMPDEST ISZERO PUSH2 0x1549 JUMPI ISZERO PUSH2 0x1542 JUMPI PUSH1 0x3 PUSH1 0x40 PUSH2 0xC35 CALLER PUSH2 0x3763 JUMP JUMPDEST ADD MLOAD LT ISZERO JUMPDEST ISZERO PUSH2 0x14F3 JUMPI PUSH1 0x40 MLOAD SWAP2 PUSH2 0xC6B DUP5 MLOAD SWAP4 PUSH1 0x20 DUP2 DUP2 DUP9 ADD SWAP7 PUSH2 0xC5B DUP2 DUP4 DUP11 PUSH2 0x2E89 JUMP JUMPDEST DUP2 ADD PUSH1 0x9 DUP2 MSTORE SUB ADD SWAP1 KECCAK256 SLOAD PUSH2 0x31A1 JUMP JUMPDEST POP SWAP1 PUSH1 0x2 PUSH1 0xFF DUP5 AND LT ISZERO PUSH2 0x14DE JUMPI PUSH1 0x1F PUSH1 0x5 PUSH2 0xCA1 SWAP4 PUSH1 0x7 DUP7 DUP4 SHR AND ADD ADD SWAP4 AND DUP4 SLOAD SWAP1 PUSH1 0x3 SHL PUSH1 0xFF DUP2 SHL SWAP3 DUP4 SWAP2 SHL AND SWAP2 NOT AND OR SWAP1 JUMP JUMPDEST SWAP1 SSTORE PUSH1 0x80 PUSH2 0xCAE DUP4 PUSH2 0x3A01 JUMP JUMPDEST ADD DUP1 MLOAD MLOAD PUSH1 0xFF AND PUSH2 0x14D5 JUMPI PUSH1 0xFF PUSH1 0x0 JUMPDEST AND PUSH1 0x2 SUB SWAP1 PUSH1 0xFF DUP3 GT PUSH2 0x1258 JUMPI MLOAD PUSH1 0x20 ADD MLOAD PUSH1 0xFF AND PUSH2 0x14CB JUMPI PUSH1 0xFF DUP1 PUSH1 0x0 JUMPDEST AND SWAP2 AND SUB PUSH1 0xFF DUP2 GT PUSH2 0x1178 JUMPI PUSH1 0xFF AND SWAP1 PUSH1 0x1 DUP3 SUB PUSH2 0x14C0 JUMPI PUSH2 0xD0D PUSH1 0x1 SWAP2 JUMPDEST PUSH1 0x40 MLOAD DUP1 SWAP3 DUP2 SWAP3 DUP8 MLOAD SWAP3 DUP4 SWAP2 PUSH2 0x2E89 JUMP JUMPDEST DUP2 ADD SUB SWAP1 KECCAK256 SWAP1 ISZERO ISZERO SWAP1 PUSH32 0x54B82B77E7AE55A8E6C9E89DEBA70C7191DEA2A3B08AE647B380E9F981D6A0F8 PUSH1 0x0 DUP1 LOG3 ISZERO PUSH2 0xD42 JUMPI STOP JUMPDEST PUSH2 0xD4B SWAP1 PUSH2 0x3A01 JUMP JUMPDEST PUSH1 0x60 DUP2 ADD MLOAD DUP1 MLOAD PUSH1 0x1 PUSH1 0x1 PUSH1 0xA0 SHL SUB AND CALLER EQ SWAP1 DUP2 ISZERO PUSH2 0x14A9 JUMPI JUMPDEST POP ISZERO PUSH2 0x1451 JUMPI PUSH1 0x80 DUP2 ADD MLOAD PUSH1 0xFF DUP2 MLOAD AND ISZERO ISZERO SWAP1 DUP2 PUSH2 0x1440 JUMPI JUMPDEST POP ISZERO PUSH2 0x13F2 JUMPI PUSH1 0x1 DUP1 PUSH1 0xA0 SHL SUB PUSH1 0x60 DUP3 ADD MLOAD MLOAD AND PUSH1 0x0 MSTORE PUSH1 0x7 PUSH1 0x20 MSTORE PUSH1 0x40 PUSH1 0x0 KECCAK256 SLOAD PUSH1 0xFF PUSH1 0x80 DUP4 ADD MLOAD MLOAD AND PUSH1 0x60 PUSH2 0xDC0 PUSH1 0x1 DUP1 PUSH1 0xA0 SHL SUB DUP3 DUP7 ADD MLOAD MLOAD AND PUSH2 0x3763 JUMP JUMPDEST ADD MLOAD PUSH1 0x60 DUP5 ADD MLOAD MLOAD PUSH1 0x40 SWAP1 PUSH2 0xDDD SWAP1 PUSH1 0x1 PUSH1 0x1 PUSH1 0xA0 SHL SUB AND PUSH2 0x3842 JUMP JUMPDEST ADD MLOAD PUSH1 0x60 DUP6 DUP2 ADD MLOAD MLOAD SWAP2 SWAP3 SWAP2 PUSH2 0xDFB SWAP1 PUSH1 0x1 PUSH1 0x1 PUSH1 0xA0 SHL SUB AND PUSH2 0x3842 JUMP JUMPDEST ADD MLOAD SWAP3 PUSH1 0x40 MLOAD SWAP5 PUSH2 0xE0B DUP7 PUSH2 0x2F3B JUMP JUMPDEST DUP6 MSTORE PUSH1 0x20 DUP6 ADD MSTORE PUSH1 0x40 DUP5 ADD MSTORE PUSH1 0x60 DUP4 ADD MSTORE PUSH1 0x80 DUP3 ADD MSTORE PUSH1 0x1 DUP1 PUSH1 0xA0 SHL SUB PUSH1 0x20 PUSH1 0x60 DUP5 ADD MLOAD ADD MLOAD AND PUSH1 0x0 MSTORE PUSH1 0x7 PUSH1 0x20 MSTORE PUSH1 0x40 PUSH1 0x0 KECCAK256 SLOAD PUSH1 0xFF PUSH1 0x20 PUSH1 0x80 DUP6 ADD MLOAD ADD MLOAD AND PUSH1 0x60 PUSH2 0xE66 PUSH1 0x1 DUP1 PUSH1 0xA0 SHL SUB PUSH1 0x20 DUP4 DUP9 ADD MLOAD ADD MLOAD AND PUSH2 0x3763 JUMP JUMPDEST ADD MLOAD PUSH1 0x60 DUP6 ADD MLOAD PUSH1 0x20 ADD MLOAD PUSH1 0x40 SWAP1 PUSH2 0xE86 SWAP1 PUSH1 0x1 PUSH1 0x1 PUSH1 0xA0 SHL SUB AND PUSH2 0x3842 JUMP JUMPDEST ADD MLOAD PUSH1 0x60 DUP7 DUP2 ADD MLOAD PUSH1 0x20 ADD MLOAD SWAP2 SWAP3 SWAP2 PUSH2 0xEA7 SWAP1 PUSH1 0x1 PUSH1 0x1 PUSH1 0xA0 SHL SUB AND PUSH2 0x3842 JUMP JUMPDEST ADD MLOAD SWAP3 PUSH1 0x40 MLOAD SWAP5 PUSH2 0xEB7 DUP7 PUSH2 0x2F3B JUMP JUMPDEST DUP6 MSTORE PUSH1 0x20 DUP6 ADD MSTORE PUSH1 0x40 DUP5 ADD MSTORE PUSH1 0x60 DUP4 ADD MSTORE PUSH1 0x80 DUP3 ADD MSTORE PUSH1 0x40 MLOAD SWAP2 PUSH2 0xEDA DUP4 PUSH2 0x2F05 JUMP JUMPDEST PUSH1 0x0 DUP4 MSTORE PUSH1 0x0 PUSH1 0x20 DUP5 ADD MSTORE DUP3 PUSH1 0x20 DUP3 ADD MLOAD PUSH1 0x1 DUP2 EQ DUP1 DUP1 SWAP2 PUSH2 0x13E4 JUMPI JUMPDEST ISZERO PUSH2 0x11A2 JUMPI POP POP POP PUSH1 0x60 DUP2 ADD MLOAD PUSH1 0x40 DUP4 ADD MLOAD GT PUSH2 0x10C7 JUMPI POP POP PUSH1 0x60 DUP3 ADD MLOAD MLOAD PUSH2 0xF2A SWAP1 DUP4 SWAP1 PUSH1 0x1 PUSH1 0x1 PUSH1 0xA0 SHL SUB AND PUSH2 0x423F JUMP JUMPDEST POP JUMPDEST PUSH1 0x40 MLOAD SWAP1 PUSH1 0x0 DUP3 JUMPDEST PUSH1 0x2 DUP3 LT PUSH2 0x10A7 JUMPI POP POP POP PUSH1 0x40 PUSH32 0xC6BF860CBC15F7020F73993A671F01BBB1831A8A7A12C126CA735EB632E75775 SWAP2 LOG1 PUSH1 0x0 PUSH1 0x80 DUP3 ADD MLOAD MSTORE PUSH1 0x0 PUSH1 0x20 PUSH1 0x80 DUP4 ADD MLOAD ADD MSTORE PUSH2 0xF85 DUP2 PUSH1 0x40 DUP2 ADD MLOAD PUSH2 0x41D5 JUMP JUMPDEST PUSH1 0x60 DUP2 ADD MLOAD MLOAD PUSH2 0xF9D SWAP1 PUSH1 0x1 PUSH1 0x1 PUSH1 0xA0 SHL SUB AND PUSH2 0x3FB9 JUMP JUMPDEST PUSH1 0x1 DUP1 PUSH1 0xA0 SHL SUB PUSH1 0x60 DUP4 ADD MLOAD MLOAD AND PUSH1 0x0 MSTORE PUSH1 0x8 PUSH1 0x20 MSTORE DUP1 PUSH1 0x2 PUSH2 0xFC4 PUSH1 0x40 PUSH1 0x0 KECCAK256 SLOAD PUSH2 0x32B6 JUMP JUMPDEST POP ADD SSTORE PUSH1 0xA SUB PUSH1 0xA DUP2 GT PUSH2 0x1092 JUMPI PUSH1 0x1 DUP1 PUSH1 0xA0 SHL SUB PUSH1 0x60 DUP4 ADD MLOAD MLOAD AND PUSH1 0x0 MSTORE PUSH1 0x8 PUSH1 0x20 MSTORE PUSH1 0x3 PUSH2 0xFF8 PUSH1 0x40 PUSH1 0x0 KECCAK256 SLOAD PUSH2 0x32B6 JUMP JUMPDEST POP ADD SSTORE PUSH1 0x60 DUP2 ADD MLOAD PUSH1 0x20 ADD MLOAD PUSH2 0x1016 SWAP1 PUSH1 0x1 PUSH1 0x1 PUSH1 0xA0 SHL SUB AND PUSH2 0x3FB9 JUMP JUMPDEST PUSH1 0x1 DUP1 PUSH1 0xA0 SHL SUB PUSH1 0x20 PUSH1 0x60 DUP5 ADD MLOAD ADD MLOAD AND PUSH1 0x0 MSTORE PUSH1 0x8 PUSH1 0x20 MSTORE DUP1 PUSH1 0x2 PUSH2 0x1040 PUSH1 0x40 PUSH1 0x0 KECCAK256 SLOAD PUSH2 0x32B6 JUMP JUMPDEST POP ADD SSTORE PUSH1 0xA SUB SWAP2 PUSH1 0xA DUP4 GT PUSH2 0x107E JUMPI POP PUSH1 0x20 PUSH1 0x60 PUSH1 0x1 DUP1 PUSH1 0xA0 SHL SUB SWAP3 ADD MLOAD ADD MLOAD AND PUSH1 0x0 MSTORE PUSH1 0x8 PUSH1 0x20 MSTORE PUSH1 0x3 PUSH2 0x1079 PUSH1 0x40 PUSH1 0x0 KECCAK256 SLOAD PUSH2 0x32B6 JUMP JUMPDEST POP ADD SSTORE STOP JUMPDEST PUSH4 0x4E487B71 PUSH1 0xE0 SHL PUSH1 0x0 SWAP1 DUP2 MSTORE PUSH1 0x11 PUSH1 0x4 MSTORE REVERT JUMPDEST DUP3 PUSH4 0x4E487B71 PUSH1 0xE0 SHL PUSH1 0x0 MSTORE PUSH1 0x11 PUSH1 0x4 MSTORE PUSH1 0x0 REVERT JUMPDEST DUP3 MLOAD PUSH1 0x1 PUSH1 0x1 PUSH1 0xA0 SHL SUB AND DUP2 MSTORE PUSH1 0x20 SWAP3 DUP4 ADD SWAP3 PUSH1 0x1 SWAP3 SWAP1 SWAP3 ADD SWAP2 ADD PUSH2 0xF34 JUMP JUMPDEST PUSH1 0x60 DUP3 ADD MLOAD PUSH1 0x40 DUP3 ADD MLOAD DUP2 LT PUSH2 0x10FD JUMPI POP POP POP PUSH1 0x60 DUP3 ADD MLOAD PUSH1 0x20 ADD MLOAD PUSH2 0x10F7 SWAP1 DUP4 SWAP1 PUSH1 0x1 PUSH1 0x1 PUSH1 0xA0 SHL SUB AND PUSH2 0x423F JUMP JUMPDEST POP PUSH2 0xF2C JUMP JUMPDEST PUSH1 0x2 SWAP3 SWAP4 POP SWAP1 PUSH2 0x113E SWAP2 PUSH2 0x1120 PUSH1 0x3 PUSH2 0x1116 DUP5 MLOAD PUSH2 0x32D5 JUMP JUMPDEST POP ADD SWAP2 DUP3 SLOAD PUSH2 0x3FAC JUMP JUMPDEST SWAP1 SSTORE PUSH1 0x60 DUP2 ADD MLOAD PUSH2 0x1136 PUSH1 0x3 PUSH2 0x1116 DUP8 MLOAD PUSH2 0x32D5 JUMP JUMPDEST SWAP1 SSTORE MLOAD PUSH2 0x32D5 JUMP JUMPDEST POP ADD DUP1 SLOAD PUSH1 0x2 NOT SWAP3 DUP4 DUP3 ADD SWAP3 SWAP2 DUP4 GT PUSH2 0x118D JUMPI PUSH1 0x2 SWAP3 PUSH2 0x115F SWAP3 SSTORE MLOAD PUSH2 0x32D5 JUMP JUMPDEST POP ADD DUP1 SLOAD SWAP2 DUP3 ADD SWAP2 DUP3 GT PUSH2 0x1178 JUMPI SSTORE PUSH1 0x60 DUP2 ADD MLOAD PUSH2 0xF2C JUMP JUMPDEST DUP4 PUSH4 0x4E487B71 PUSH1 0xE0 SHL PUSH1 0x0 MSTORE PUSH1 0x11 PUSH1 0x4 MSTORE PUSH1 0x0 REVERT JUMPDEST DUP6 PUSH4 0x4E487B71 PUSH1 0xE0 SHL PUSH1 0x0 MSTORE PUSH1 0x11 PUSH1 0x4 MSTORE PUSH1 0x0 REVERT JUMPDEST DUP1 PUSH2 0x13D6 JUMPI JUMPDEST ISZERO PUSH2 0x1290 JUMPI POP PUSH2 0x11C1 PUSH1 0x40 DUP5 ADD MLOAD PUSH1 0x80 DUP6 ADD MLOAD SWAP1 PUSH2 0x3533 JUMP JUMPDEST PUSH1 0x60 DUP4 ADD MLOAD SWAP1 SWAP3 SWAP1 SWAP2 DUP4 DUP4 LT PUSH2 0x11F0 JUMPI POP POP POP PUSH1 0x60 DUP5 ADD MLOAD MLOAD PUSH2 0x10F7 SWAP3 POP DUP5 SWAP2 POP PUSH1 0x1 PUSH1 0x1 PUSH1 0xA0 SHL SUB AND PUSH2 0x423F JUMP JUMPDEST PUSH1 0x2 SWAP4 PUSH2 0x1223 SWAP4 DUP1 PUSH1 0x80 DUP9 ADD MLOAD GT PUSH1 0x0 EQ PUSH2 0x126D JUMPI POP POP POP PUSH1 0x40 DUP5 ADD MLOAD JUMPDEST PUSH1 0x3 PUSH2 0x121A DUP7 MLOAD PUSH2 0x32D5 JUMP JUMPDEST POP ADD SSTORE MLOAD PUSH2 0x32D5 JUMP JUMPDEST POP ADD DUP1 SLOAD PUSH1 0x2 NOT DUP2 ADD SWAP3 SWAP1 DUP4 GT PUSH2 0x118D JUMPI PUSH1 0x2 SWAP3 PUSH2 0x1242 SWAP3 SSTORE MLOAD PUSH2 0x32D5 JUMP JUMPDEST POP ADD DUP1 SLOAD SWAP1 PUSH1 0x3 DUP3 ADD DUP1 SWAP3 GT PUSH2 0x1258 JUMPI SSTORE PUSH2 0xF2C JUMP JUMPDEST DUP5 PUSH4 0x4E487B71 PUSH1 0xE0 SHL PUSH1 0x0 MSTORE PUSH1 0x11 PUSH1 0x4 MSTORE PUSH1 0x0 REVERT JUMPDEST PUSH2 0x1276 SWAP2 PUSH2 0x3FAC JUMP JUMPDEST PUSH1 0x60 DUP9 ADD MLOAD PUSH1 0x20 ADD MLOAD PUSH1 0x1 PUSH1 0x1 PUSH1 0xA0 SHL SUB AND SWAP1 SWAP2 MSTORE PUSH2 0x120E JUMP JUMPDEST PUSH1 0x2 EQ DUP1 DUP1 PUSH2 0x13C8 JUMPI JUMPDEST ISZERO PUSH2 0x1364 JUMPI POP PUSH2 0x12B3 PUSH1 0x40 DUP4 ADD MLOAD PUSH1 0x80 DUP5 ADD MLOAD SWAP1 PUSH2 0x3533 JUMP JUMPDEST PUSH1 0x60 DUP5 ADD MLOAD SWAP1 SWAP3 SWAP1 SWAP2 DUP4 DUP4 LT PUSH2 0x12E5 JUMPI POP POP POP PUSH1 0x60 DUP5 ADD MLOAD PUSH1 0x20 ADD MLOAD PUSH2 0x10F7 SWAP3 POP DUP5 SWAP2 POP PUSH1 0x1 PUSH1 0x1 PUSH1 0xA0 SHL SUB AND PUSH2 0x423F JUMP JUMPDEST PUSH1 0x2 SWAP4 PUSH2 0x130F SWAP4 DUP1 PUSH1 0x80 DUP6 ADD MLOAD GT PUSH1 0x0 EQ PUSH2 0x1344 JUMPI POP POP POP PUSH1 0x40 DUP2 ADD MLOAD JUMPDEST PUSH1 0x3 PUSH2 0x121A DUP4 MLOAD PUSH2 0x32D5 JUMP JUMPDEST POP ADD DUP1 SLOAD SWAP2 PUSH1 0x3 DUP4 ADD DUP1 SWAP4 GT PUSH2 0x118D JUMPI PUSH1 0x2 SWAP3 PUSH2 0x132D SWAP3 SSTORE MLOAD PUSH2 0x32D5 JUMP JUMPDEST POP ADD DUP1 SLOAD PUSH1 0x2 NOT DUP2 ADD SWAP2 SWAP1 DUP3 GT PUSH2 0x1258 JUMPI SSTORE PUSH2 0xF2C JUMP JUMPDEST PUSH2 0x134D SWAP2 PUSH2 0x3FAC JUMP JUMPDEST PUSH1 0x60 DUP9 ADD MLOAD MLOAD PUSH1 0x1 PUSH1 0x1 PUSH1 0xA0 SHL SUB AND SWAP1 SWAP2 MSTORE PUSH2 0x1303 JUMP JUMPDEST SWAP1 POP DUP1 PUSH2 0x13BA JUMPI JUMPDEST PUSH2 0x1378 JUMPI JUMPDEST POP POP PUSH2 0xF2C JUMP JUMPDEST PUSH2 0x1384 PUSH1 0x2 SWAP2 MLOAD PUSH2 0x32D5 JUMP JUMPDEST POP ADD DUP1 SLOAD SWAP2 PUSH1 0x3 DUP4 ADD DUP1 SWAP4 GT PUSH2 0x118D JUMPI PUSH1 0x2 SWAP3 PUSH2 0x13A2 SWAP3 SSTORE MLOAD PUSH2 0x32D5 JUMP JUMPDEST POP ADD DUP1 SLOAD SWAP1 PUSH1 0x3 DUP3 ADD DUP1 SWAP3 GT PUSH2 0x1258 JUMPI SSTORE DUP4 DUP1 PUSH2 0x1371 JUMP JUMPDEST POP PUSH1 0x2 PUSH1 0x20 DUP4 ADD MLOAD EQ PUSH2 0x136C JUMP JUMPDEST POP PUSH1 0x1 PUSH1 0x20 DUP6 ADD MLOAD EQ PUSH2 0x129A JUMP JUMPDEST POP PUSH1 0x2 PUSH1 0x20 DUP6 ADD MLOAD EQ PUSH2 0x11A8 JUMP JUMPDEST POP PUSH1 0x1 PUSH1 0x20 DUP7 ADD MLOAD EQ PUSH2 0xEF7 JUMP JUMPDEST PUSH1 0x40 MLOAD PUSH3 0x461BCD PUSH1 0xE5 SHL DUP2 MSTORE PUSH1 0x20 PUSH1 0x4 DUP3 ADD MSTORE PUSH1 0x21 DUP2 DUP5 ADD MSTORE PUSH32 0x506C6179657273207374696C6C206E65656420746F206D616B652061206D6F76 PUSH1 0x44 DUP3 ADD MSTORE PUSH1 0x65 PUSH1 0xF8 SHL PUSH1 0x64 DUP3 ADD MSTORE PUSH1 0x84 SWAP1 REVERT JUMPDEST PUSH1 0xFF SWAP2 POP PUSH1 0x20 ADD MLOAD AND ISZERO ISZERO DUP4 PUSH2 0xD7E JUMP JUMPDEST PUSH1 0x40 MLOAD PUSH3 0x461BCD PUSH1 0xE5 SHL DUP2 MSTORE PUSH1 0x20 PUSH1 0x4 DUP3 ADD MSTORE PUSH1 0x2B DUP2 DUP5 ADD MSTORE PUSH32 0x4F6E6C7920706C617965727320696E207468697320626174746C652063616E20 PUSH1 0x44 DUP3 ADD MSTORE PUSH11 0x6D616B652061206D6F7665 PUSH1 0xA8 SHL PUSH1 0x64 DUP3 ADD MSTORE PUSH1 0x84 SWAP1 REVERT JUMPDEST PUSH1 0x20 ADD MLOAD PUSH1 0x1 PUSH1 0x1 PUSH1 0xA0 SHL SUB AND CALLER EQ SWAP1 POP DUP4 PUSH2 0xD65 JUMP JUMPDEST PUSH2 0xD0D PUSH1 0x0 SWAP2 PUSH2 0xCFC JUMP JUMPDEST PUSH1 0xFF DUP1 PUSH1 0x1 PUSH2 0xCDD JUMP JUMPDEST PUSH1 0xFF PUSH1 0x1 PUSH2 0xCBE JUMP JUMPDEST DUP6 PUSH4 0x4E487B71 PUSH1 0xE0 SHL PUSH1 0x0 MSTORE PUSH1 0x32 PUSH1 0x4 MSTORE PUSH1 0x0 REVERT JUMPDEST PUSH1 0x40 MLOAD PUSH3 0x461BCD PUSH1 0xE5 SHL DUP2 MSTORE PUSH1 0x20 PUSH1 0x4 DUP3 ADD MSTORE PUSH1 0x22 DUP2 DUP7 ADD MSTORE PUSH32 0x4D616E61206E6F742073756666696369656E7420666F722061747461636B696E PUSH1 0x44 DUP3 ADD MSTORE PUSH2 0x6721 PUSH1 0xF0 SHL PUSH1 0x64 DUP3 ADD MSTORE PUSH1 0x84 SWAP1 REVERT JUMPDEST PUSH1 0x1 PUSH2 0xC3A JUMP JUMPDEST PUSH1 0x40 MLOAD PUSH3 0x461BCD PUSH1 0xE5 SHL DUP2 MSTORE PUSH1 0x20 PUSH1 0x4 DUP3 ADD MSTORE PUSH1 0x1F DUP2 DUP8 ADD MSTORE PUSH32 0x43686F6963652073686F756C64206265206569746865722031206F7220322100 PUSH1 0x44 DUP3 ADD MSTORE PUSH1 0x64 SWAP1 REVERT JUMPDEST POP PUSH1 0x2 DUP4 EQ PUSH2 0xC1E JUMP JUMPDEST PUSH1 0x1 PUSH2 0xC12 JUMP JUMPDEST PUSH1 0x40 MLOAD PUSH3 0x461BCD PUSH1 0xE5 SHL DUP2 MSTORE PUSH1 0x20 PUSH1 0x4 DUP3 ADD MSTORE PUSH1 0x1D DUP2 DUP7 ADD MSTORE PUSH32 0x596F75206861766520616C7265616479206D6164652061206D6F766521000000 PUSH1 0x44 DUP3 ADD MSTORE PUSH1 0x64 SWAP1 REVERT JUMPDEST PUSH1 0x1 SWAP1 PUSH2 0xBE1 JUMP JUMPDEST PUSH1 0x40 MLOAD PUSH3 0x461BCD PUSH1 0xE5 SHL DUP2 MSTORE PUSH1 0x20 PUSH1 0x4 DUP3 ADD MSTORE PUSH1 0x1A DUP2 DUP8 ADD MSTORE PUSH32 0x596F7520617265206E6F7420696E207468697320626174746C65000000000000 PUSH1 0x44 DUP3 ADD MSTORE PUSH1 0x64 SWAP1 REVERT JUMPDEST PUSH1 0x20 ADD MLOAD PUSH1 0x1 PUSH1 0x1 PUSH1 0xA0 SHL SUB AND CALLER EQ SWAP1 POP DUP7 PUSH2 0xBC1 JUMP JUMPDEST PUSH1 0x40 MLOAD PUSH3 0x461BCD PUSH1 0xE5 SHL DUP2 MSTORE PUSH1 0x20 PUSH1 0x4 DUP3 ADD MSTORE PUSH1 0x18 DUP2 DUP7 ADD MSTORE PUSH24 0x10985D1D1B19481A185CC8185B1C9958591E48195B991959 PUSH1 0x42 SHL PUSH1 0x44 DUP3 ADD MSTORE PUSH1 0x64 SWAP1 REVERT JUMPDEST DUP5 PUSH4 0x4E487B71 PUSH1 0xE0 SHL PUSH1 0x0 MSTORE PUSH1 0x21 PUSH1 0x4 MSTORE PUSH1 0x0 REVERT JUMPDEST PUSH1 0x40 MLOAD PUSH3 0x461BCD PUSH1 0xE5 SHL DUP2 MSTORE PUSH1 0x20 PUSH1 0x4 DUP3 ADD MSTORE PUSH1 0x41 DUP2 DUP7 ADD MSTORE PUSH32 0x426174746C65206E6F7420737461727465642E20506C656173652074656C6C20 PUSH1 0x44 DUP3 ADD MSTORE PUSH32 0x616E6F7468657220706C6179657220746F206A6F696E2074686520626174746C PUSH1 0x64 DUP3 ADD MSTORE PUSH1 0x65 PUSH1 0xF8 SHL PUSH1 0x84 DUP3 ADD MSTORE PUSH1 0xA4 SWAP1 REVERT JUMPDEST CALLVALUE PUSH2 0x2B5 JUMPI PUSH1 0x40 CALLDATASIZE PUSH1 0x3 NOT ADD SLT PUSH2 0x2B5 JUMPI PUSH2 0x1726 PUSH2 0x2E5D JUMP JUMPDEST PUSH1 0x24 CALLDATALOAD SWAP1 DUP2 ISZERO ISZERO SWAP1 DUP2 DUP4 SUB PUSH2 0x2B5 JUMPI PUSH1 0x1 PUSH1 0x1 PUSH1 0xA0 SHL SUB AND SWAP2 CALLER DUP4 EQ PUSH2 0x17A3 JUMPI PUSH2 0x1775 SWAP1 CALLER PUSH1 0x0 MSTORE PUSH1 0x1 PUSH1 0x20 MSTORE PUSH1 0x40 PUSH1 0x0 KECCAK256 DUP5 PUSH1 0x0 MSTORE PUSH1 0x20 MSTORE PUSH1 0x40 PUSH1 0x0 KECCAK256 SWAP1 PUSH1 0xFF DUP1 NOT DUP4 SLOAD AND SWAP2 ISZERO ISZERO AND OR SWAP1 SSTORE JUMP JUMPDEST PUSH1 0x40 MLOAD SWAP1 DUP2 MSTORE PUSH32 0x17307EAB39AB6107E8899845AD3D59BD9653F200F220920489CA2B5937696C31 PUSH1 0x20 CALLER SWAP3 LOG3 STOP JUMPDEST PUSH1 0x40 MLOAD PUSH3 0x461BCD PUSH1 0xE5 SHL DUP2 MSTORE PUSH1 0x20 PUSH1 0x4 DUP3 ADD MSTORE PUSH1 0x29 PUSH1 0x24 DUP3 ADD MSTORE PUSH32 0x455243313135353A2073657474696E6720617070726F76616C20737461747573 PUSH1 0x44 DUP3 ADD MSTORE PUSH9 0x103337B91039B2B633 PUSH1 0xB9 SHL PUSH1 0x64 DUP3 ADD MSTORE PUSH1 0x84 SWAP1 REVERT JUMPDEST CALLVALUE PUSH2 0x2B5 JUMPI PUSH1 0x20 DUP1 PUSH1 0x3 NOT CALLDATASIZE ADD SLT PUSH2 0x2B5 JUMPI PUSH1 0x4 CALLDATALOAD PUSH1 0x1 PUSH1 0x1 PUSH1 0x40 SHL SUB DUP2 GT PUSH2 0x2B5 JUMPI PUSH2 0x182B SWAP1 CALLDATASIZE SWAP1 PUSH1 0x4 ADD PUSH2 0x2FAD JUMP JUMPDEST SWAP1 PUSH2 0x1834 PUSH2 0x38F2 JUMP JUMPDEST POP PUSH2 0x183E DUP3 PUSH2 0x3A01 JUMP JUMPDEST SWAP2 DUP3 MLOAD PUSH1 0x3 DUP2 LT ISZERO PUSH2 0x19FE JUMPI PUSH2 0x19BF JUMPI PUSH1 0x60 DUP4 ADD DUP1 MLOAD MLOAD SWAP1 SWAP2 PUSH1 0x1 PUSH1 0x1 PUSH1 0xA0 SHL SUB SWAP2 DUP3 AND CALLER EQ PUSH2 0x1970 JUMPI PUSH1 0x80 PUSH2 0x1873 CALLER PUSH2 0x3763 JUMP JUMPDEST ADD MLOAD PUSH2 0x1937 JUMPI DUP5 PUSH2 0x188D SWAP2 PUSH1 0x1 DUP3 MSTORE CALLER DUP7 DUP7 MLOAD ADD MSTORE PUSH2 0x41D5 JUMP JUMPDEST DUP1 DUP3 MLOAD MLOAD AND PUSH1 0x0 MSTORE PUSH1 0x7 DUP4 MSTORE PUSH1 0x4 PUSH2 0x18A9 PUSH1 0x40 PUSH1 0x0 KECCAK256 SLOAD PUSH2 0x32D5 JUMP JUMPDEST POP ADD PUSH1 0xFF NOT SWAP1 PUSH1 0x1 DUP3 DUP3 SLOAD AND OR SWAP1 SSTORE DUP2 DUP5 DUP5 MLOAD ADD MLOAD AND PUSH1 0x0 MSTORE PUSH1 0x7 DUP5 MSTORE PUSH1 0x1 PUSH1 0x4 PUSH2 0x18D8 PUSH1 0x40 PUSH1 0x0 KECCAK256 SLOAD PUSH2 0x32D5 JUMP JUMPDEST POP ADD SWAP2 DUP3 SLOAD AND OR SWAP1 SSTORE PUSH1 0x40 DUP5 ADD MLOAD SWAP2 MLOAD MLOAD AND PUSH32 0x24187B16C217A79F8D8E6252B542EC6E278FA91304ACD9CFD866F2BBF00BD08 PUSH1 0x40 MLOAD DUP5 DUP2 MSTORE DUP1 PUSH2 0x1920 CALLER SWAP6 DUP8 DUP4 ADD SWAP1 PUSH2 0x2EAC JUMP JUMPDEST SUB SWAP1 LOG3 PUSH2 0x8EE PUSH1 0x40 MLOAD SWAP3 DUP3 DUP5 SWAP4 DUP5 MSTORE DUP4 ADD SWAP1 PUSH2 0x3001 JUMP JUMPDEST PUSH1 0x40 MLOAD PUSH3 0x461BCD PUSH1 0xE5 SHL DUP2 MSTORE PUSH1 0x4 DUP2 ADD DUP6 SWAP1 MSTORE PUSH1 0x11 PUSH1 0x24 DUP3 ADD MSTORE PUSH17 0x416C726561647920696E20626174746C65 PUSH1 0x78 SHL PUSH1 0x44 DUP3 ADD MSTORE PUSH1 0x64 SWAP1 REVERT JUMPDEST PUSH1 0x40 MLOAD PUSH3 0x461BCD PUSH1 0xE5 SHL DUP2 MSTORE PUSH1 0x4 DUP2 ADD DUP6 SWAP1 MSTORE PUSH1 0x21 PUSH1 0x24 DUP3 ADD MSTORE PUSH32 0x4F6E6C7920706C617965722074776F2063616E206A6F696E206120626174746C PUSH1 0x44 DUP3 ADD MSTORE PUSH1 0x65 PUSH1 0xF8 SHL PUSH1 0x64 DUP3 ADD MSTORE PUSH1 0x84 SWAP1 REVERT JUMPDEST PUSH1 0x40 MLOAD PUSH3 0x461BCD PUSH1 0xE5 SHL DUP2 MSTORE PUSH1 0x4 DUP2 ADD DUP4 SWAP1 MSTORE PUSH1 0x17 PUSH1 0x24 DUP3 ADD MSTORE PUSH23 0x426174746C6520616C7265616479207374617274656421 PUSH1 0x48 SHL PUSH1 0x44 DUP3 ADD MSTORE PUSH1 0x64 SWAP1 REVERT JUMPDEST PUSH4 0x4E487B71 PUSH1 0xE0 SHL PUSH1 0x0 MSTORE PUSH1 0x21 PUSH1 0x4 MSTORE PUSH1 0x24 PUSH1 0x0 REVERT JUMPDEST CALLVALUE PUSH2 0x2B5 JUMPI PUSH1 0x20 CALLDATASIZE PUSH1 0x3 NOT ADD SLT PUSH2 0x2B5 JUMPI PUSH1 0x4 CALLDATALOAD PUSH1 0x1 PUSH1 0x1 PUSH1 0x40 SHL SUB DUP2 GT PUSH2 0x2B5 JUMPI PUSH2 0x1A47 PUSH2 0x54E SWAP2 CALLDATASIZE SWAP1 PUSH1 0x4 ADD PUSH2 0x2FAD JUMP JUMPDEST PUSH2 0x3ADD JUMP JUMPDEST CALLVALUE PUSH2 0x2B5 JUMPI PUSH1 0x0 CALLDATASIZE PUSH1 0x3 NOT ADD SLT PUSH2 0x2B5 JUMPI PUSH1 0x20 PUSH1 0x40 MLOAD PUSH1 0x5 DUP2 MSTORE RETURN JUMPDEST CALLVALUE PUSH2 0x2B5 JUMPI PUSH1 0x20 CALLDATASIZE PUSH1 0x3 NOT ADD SLT PUSH2 0x2B5 JUMPI PUSH1 0x4 CALLDATALOAD PUSH1 0x1 PUSH1 0x1 PUSH1 0x40 SHL SUB DUP2 GT PUSH2 0x2B5 JUMPI PUSH1 0x80 PUSH2 0x1AA4 PUSH2 0x1A9F PUSH1 0x40 SWAP4 CALLDATASIZE SWAP1 PUSH1 0x4 ADD PUSH2 0x2FAD JUMP JUMPDEST PUSH2 0x3A01 JUMP JUMPDEST ADD MLOAD PUSH1 0xFF PUSH1 0x20 DUP2 DUP4 MLOAD AND SWAP3 ADD MLOAD AND DUP3 MLOAD SWAP2 DUP3 MSTORE PUSH1 0x20 DUP3 ADD MSTORE RETURN JUMPDEST CALLVALUE PUSH2 0x2B5 JUMPI PUSH1 0x20 CALLDATASIZE PUSH1 0x3 NOT ADD SLT PUSH2 0x2B5 JUMPI PUSH1 0x4 CALLDATALOAD PUSH1 0x1 PUSH1 0x1 PUSH1 0x40 SHL SUB DUP2 GT PUSH2 0x2B5 JUMPI PUSH2 0x1A9F PUSH2 0x1AF1 SWAP2 CALLDATASIZE SWAP1 PUSH1 0x4 ADD PUSH2 0x2FAD JUMP JUMPDEST PUSH1 0x60 DUP2 ADD SWAP1 DUP2 MLOAD PUSH1 0x1 DUP1 PUSH1 0xA0 SHL SUB SWAP1 DUP2 DUP2 MLOAD AND CALLER EQ SWAP1 DUP2 ISZERO PUSH2 0x1B81 JUMPI JUMPDEST POP ISZERO PUSH2 0x1B3C JUMPI DUP3 MLOAD MLOAD DUP2 AND CALLER DUP2 SUB PUSH2 0x1B30 JUMPI POP PUSH1 0x20 PUSH2 0x54E SWAP4 MLOAD ADD MLOAD AND PUSH2 0x423F JUMP JUMPDEST SWAP1 POP PUSH2 0x54E SWAP3 POP PUSH2 0x423F JUMP JUMPDEST PUSH1 0x40 MLOAD PUSH3 0x461BCD PUSH1 0xE5 SHL DUP2 MSTORE PUSH1 0x20 PUSH1 0x4 DUP3 ADD MSTORE PUSH1 0x1B PUSH1 0x24 DUP3 ADD MSTORE PUSH32 0x596F7520617265206E6F7420696E207468697320626174746C65210000000000 PUSH1 0x44 DUP3 ADD MSTORE PUSH1 0x64 SWAP1 REVERT JUMPDEST PUSH1 0x20 ADD MLOAD DUP3 AND CALLER EQ SWAP1 POP DUP5 PUSH2 0x1B0E JUMP JUMPDEST CALLVALUE PUSH2 0x2B5 JUMPI PUSH1 0x0 CALLDATASIZE PUSH1 0x3 NOT ADD SLT PUSH2 0x2B5 JUMPI PUSH1 0x3 SLOAD PUSH1 0x40 MLOAD PUSH1 0x1 PUSH1 0x1 PUSH1 0xA0 SHL SUB SWAP1 SWAP2 AND DUP2 MSTORE PUSH1 0x20 SWAP1 RETURN JUMPDEST CALLVALUE PUSH2 0x2B5 JUMPI PUSH1 0x40 CALLDATASIZE PUSH1 0x3 NOT ADD SLT PUSH2 0x2B5 JUMPI PUSH1 0x1 PUSH1 0x1 PUSH1 0x40 SHL SUB PUSH1 0x4 CALLDATALOAD DUP2 DUP2 GT PUSH2 0x2B5 JUMPI PUSH2 0x1BEB SWAP1 CALLDATASIZE SWAP1 PUSH1 0x4 ADD PUSH2 0x2FAD JUMP JUMPDEST PUSH1 0x24 CALLDATALOAD DUP3 DUP2 GT PUSH2 0x2B5 JUMPI PUSH2 0x1C03 SWAP1 CALLDATASIZE SWAP1 PUSH1 0x4 ADD PUSH2 0x2FAD JUMP JUMPDEST PUSH2 0x1C0C CALLER PUSH2 0x36B2 JUMP JUMPDEST PUSH2 0x1E4D JUMPI PUSH1 0xA SLOAD PUSH1 0x40 MLOAD PUSH2 0x1C1F DUP2 PUSH2 0x2F3B JUMP JUMPDEST CALLER DUP2 MSTORE PUSH1 0x20 DUP2 ADD SWAP1 DUP5 DUP3 MSTORE PUSH1 0x40 DUP2 ADD PUSH1 0xA DUP2 MSTORE PUSH1 0x60 DUP3 ADD SWAP1 PUSH1 0x19 DUP3 MSTORE PUSH1 0x0 PUSH1 0x80 DUP5 ADD MSTORE PUSH1 0x1 PUSH1 0x40 SHL DUP6 LT ISZERO PUSH2 0x1E21 JUMPI PUSH1 0x1 DUP6 ADD PUSH1 0xA SSTORE PUSH2 0x1C5E DUP6 PUSH2 0x32D5 JUMP JUMPDEST SWAP5 SWAP1 SWAP5 PUSH2 0x1E37 JUMPI DUP4 MLOAD DUP6 SLOAD PUSH1 0x1 PUSH1 0x1 PUSH1 0xA0 SHL SUB NOT AND PUSH1 0x1 PUSH1 0x1 PUSH1 0xA0 SHL SUB SWAP2 SWAP1 SWAP2 AND OR DUP6 SSTORE MLOAD DUP1 MLOAD SWAP1 SWAP9 DUP2 GT PUSH2 0x1E21 JUMPI PUSH2 0x1C9A PUSH1 0x1 DUP7 ADD SLOAD PUSH2 0x31D6 JUMP JUMPDEST PUSH1 0x1F DUP2 GT PUSH2 0x1DE1 JUMPI JUMPDEST POP PUSH1 0x20 PUSH1 0x1F DUP3 GT PUSH1 0x1 EQ PUSH2 0x1D63 JUMPI SWAP3 PUSH1 0x80 SWAP3 DUP3 PUSH2 0x1D07 SWAP8 SWAP7 SWAP4 PUSH1 0x4 SWAP7 PUSH2 0x1D1B SWAP13 SWAP14 PUSH1 0x0 SWAP3 PUSH2 0x1D58 JUMPI JUMPDEST POP POP DUP2 PUSH1 0x1 SHL SWAP2 PUSH1 0x0 NOT SWAP1 PUSH1 0x3 SHL SHR NOT AND OR PUSH1 0x1 DUP8 ADD SSTORE JUMPDEST MLOAD PUSH1 0x2 DUP7 ADD SSTORE MLOAD PUSH1 0x3 DUP6 ADD SSTORE ADD MLOAD ISZERO ISZERO SWAP2 ADD SWAP1 PUSH1 0xFF DUP1 NOT DUP4 SLOAD AND SWAP2 ISZERO ISZERO AND OR SWAP1 SSTORE JUMP JUMPDEST CALLER PUSH1 0x0 MSTORE PUSH1 0x7 PUSH1 0x20 MSTORE PUSH1 0x40 PUSH1 0x0 KECCAK256 SSTORE PUSH2 0x3ADD JUMP JUMPDEST PUSH32 0x81EF79D1CDA814A60C0FC60792E648A06D9C6BAE67176346D1CC8B63030BFCCD PUSH1 0x40 MLOAD PUSH1 0x20 DUP2 MSTORE DUP1 PUSH2 0x1D53 CALLER SWAP5 PUSH1 0x20 DUP4 ADD SWAP1 PUSH2 0x2EAC JUMP JUMPDEST SUB SWAP1 LOG2 STOP JUMPDEST ADD MLOAD SWAP1 POP DUP14 DUP1 PUSH2 0x1CCC JUMP JUMPDEST PUSH1 0x1 DUP7 ADD PUSH1 0x0 MSTORE PUSH1 0x20 PUSH1 0x0 KECCAK256 SWAP10 PUSH1 0x0 JUMPDEST PUSH1 0x1F NOT DUP5 AND DUP2 LT PUSH2 0x1DC9 JUMPI POP SWAP3 PUSH1 0x1 DUP4 PUSH2 0x1D1B SWAP12 SWAP13 PUSH1 0x4 SWAP8 SWAP5 PUSH1 0x80 SWAP8 PUSH2 0x1D07 SWAP12 SWAP11 SWAP8 PUSH1 0x1F NOT DUP2 AND LT PUSH2 0x1DB0 JUMPI JUMPDEST POP POP POP DUP2 SHL ADD PUSH1 0x1 DUP8 ADD SSTORE PUSH2 0x1CE4 JUMP JUMPDEST ADD MLOAD PUSH1 0x0 NOT PUSH1 0xF8 DUP5 PUSH1 0x3 SHL AND SHR NOT AND SWAP1 SSTORE DUP14 DUP1 DUP1 PUSH2 0x1DA0 JUMP JUMPDEST DUP3 DUP3 ADD MLOAD DUP13 SSTORE PUSH1 0x1 SWAP1 SWAP12 ADD SWAP11 PUSH1 0x20 SWAP3 DUP4 ADD SWAP3 ADD PUSH2 0x1D73 JUMP JUMPDEST PUSH2 0x1E11 SWAP1 PUSH1 0x1 DUP8 ADD PUSH1 0x0 MSTORE PUSH1 0x20 PUSH1 0x0 KECCAK256 PUSH1 0x1F DUP5 ADD PUSH1 0x5 SHR DUP2 ADD SWAP2 PUSH1 0x20 DUP6 LT PUSH2 0x1E17 JUMPI JUMPDEST PUSH1 0x1F ADD PUSH1 0x5 SHR ADD SWAP1 PUSH2 0x3A7A JUMP JUMPDEST DUP10 PUSH2 0x1CA3 JUMP JUMPDEST SWAP1 SWAP2 POP DUP2 SWAP1 PUSH2 0x1E04 JUMP JUMPDEST PUSH4 0x4E487B71 PUSH1 0xE0 SHL PUSH1 0x0 MSTORE PUSH1 0x41 PUSH1 0x4 MSTORE PUSH1 0x24 PUSH1 0x0 REVERT JUMPDEST PUSH4 0x4E487B71 PUSH1 0xE0 SHL PUSH1 0x0 MSTORE PUSH1 0x0 PUSH1 0x4 MSTORE PUSH1 0x24 PUSH1 0x0 REVERT JUMPDEST PUSH1 0x40 MLOAD PUSH3 0x461BCD PUSH1 0xE5 SHL DUP2 MSTORE PUSH1 0x20 PUSH1 0x4 DUP3 ADD MSTORE PUSH1 0x19 PUSH1 0x24 DUP3 ADD MSTORE PUSH25 0x141B185E595C88185B1C9958591E481C9959DA5CDD195C9959 PUSH1 0x3A SHL PUSH1 0x44 DUP3 ADD MSTORE PUSH1 0x64 SWAP1 REVERT JUMPDEST CALLVALUE PUSH2 0x2B5 JUMPI PUSH1 0x0 CALLDATASIZE PUSH1 0x3 NOT ADD SLT PUSH2 0x2B5 JUMPI PUSH2 0x1EA7 PUSH2 0x32F4 JUMP JUMPDEST PUSH1 0x3 DUP1 SLOAD PUSH1 0x1 PUSH1 0x1 PUSH1 0xA0 SHL SUB NOT DUP2 AND SWAP1 SWAP2 SSTORE PUSH1 0x0 SWAP1 PUSH1 0x1 PUSH1 0x1 PUSH1 0xA0 SHL SUB AND PUSH32 0x8BE0079C531659141344CD1FD0A4F28419497F9722A3DAAFE3B4186F6B6457E0 DUP3 DUP1 LOG3 STOP JUMPDEST CALLVALUE PUSH2 0x2B5 JUMPI PUSH1 0x0 CALLDATASIZE PUSH1 0x3 NOT ADD SLT PUSH2 0x2B5 JUMPI PUSH1 0x20 PUSH1 0x40 MLOAD PUSH1 0x2 DUP2 MSTORE RETURN JUMPDEST CALLVALUE PUSH2 0x2B5 JUMPI PUSH1 0x0 CALLDATASIZE PUSH1 0x3 NOT ADD SLT PUSH2 0x2B5 JUMPI PUSH1 0x40 MLOAD PUSH1 0x0 SWAP1 PUSH1 0x5 SLOAD PUSH2 0x1F2A DUP2 PUSH2 0x31D6 JUMP JUMPDEST DUP1 DUP4 MSTORE PUSH1 0x1 SWAP2 DUP1 DUP4 AND SWAP1 DUP2 ISZERO PUSH2 0x1FC1 JUMPI POP PUSH1 0x1 EQ PUSH2 0x1F67 JUMPI JUMPDEST PUSH2 0x8EE DUP4 PUSH2 0x1F53 DUP2 DUP8 SUB DUP3 PUSH2 0x2F71 JUMP JUMPDEST PUSH1 0x40 MLOAD SWAP2 DUP3 SWAP2 PUSH1 0x20 DUP4 MSTORE PUSH1 0x20 DUP4 ADD SWAP1 PUSH2 0x2EAC JUMP JUMPDEST PUSH1 0x5 PUSH1 0x0 SWAP1 DUP2 MSTORE PUSH1 0x20 SWAP5 POP SWAP2 PUSH32 0x36B6384B5ECA791C62761152D0C79BB0604C104A5FB6F4EB0703F3154BB3DB0 JUMPDEST DUP3 DUP5 LT PUSH2 0x1FAE JUMPI POP POP POP DUP2 ADD SWAP1 SWAP2 ADD SWAP1 PUSH2 0x1F53 DUP2 PUSH2 0x1F43 JUMP JUMPDEST DUP1 SLOAD DUP6 DUP6 ADD DUP8 ADD MSTORE SWAP3 DUP6 ADD SWAP3 DUP2 ADD PUSH2 0x1F95 JUMP JUMPDEST PUSH2 0x8EE SWAP6 POP PUSH2 0x1F53 SWAP4 POP PUSH1 0x20 SWAP2 POP SWAP2 DUP5 SWAP3 PUSH1 0xFF NOT AND DUP3 DUP5 ADD MSTORE ISZERO ISZERO PUSH1 0x5 SHL DUP3 ADD ADD SWAP4 POP PUSH2 0x1F43 JUMP JUMPDEST CALLVALUE PUSH2 0x2B5 JUMPI PUSH1 0x20 CALLDATASIZE PUSH1 0x3 NOT ADD SLT PUSH2 0x2B5 JUMPI PUSH1 0x4 CALLDATALOAD PUSH1 0xC SLOAD DUP2 LT ISZERO PUSH2 0x2B5 JUMPI PUSH2 0x2050 SWAP1 PUSH1 0xC PUSH1 0x0 MSTORE PUSH1 0x7 PUSH1 0x20 PUSH1 0x0 KECCAK256 SWAP2 MUL ADD PUSH1 0xFF DUP2 SLOAD AND SWAP1 PUSH2 0x2066 PUSH1 0x1 DUP3 ADD SLOAD SWAP2 PUSH2 0x2035 PUSH1 0x2 DUP3 ADD PUSH2 0x3210 JUMP JUMPDEST SWAP1 PUSH1 0x6 PUSH1 0x1 DUP1 PUSH1 0xA0 SHL SUB SWAP2 ADD SLOAD AND SWAP3 PUSH1 0x40 MLOAD SWAP6 DUP7 DUP1 SWAP7 PUSH2 0x2FF4 JUMP JUMPDEST PUSH1 0x20 DUP6 ADD MSTORE PUSH1 0x80 PUSH1 0x40 DUP6 ADD MSTORE PUSH1 0x80 DUP5 ADD SWAP1 PUSH2 0x2EAC JUMP JUMPDEST SWAP1 PUSH1 0x60 DUP4 ADD MSTORE SUB SWAP1 RETURN JUMPDEST CALLVALUE PUSH2 0x2B5 JUMPI PUSH1 0x0 CALLDATASIZE PUSH1 0x3 NOT ADD SLT PUSH2 0x2B5 JUMPI PUSH1 0xC SLOAD PUSH2 0x208D DUP2 PUSH2 0x30B0 JUMP JUMPDEST SWAP1 PUSH2 0x209B PUSH1 0x40 MLOAD SWAP3 DUP4 PUSH2 0x2F71 JUMP JUMPDEST DUP1 DUP3 MSTORE PUSH1 0xC PUSH1 0x0 SWAP1 DUP2 MSTORE PUSH1 0x20 SWAP2 DUP3 DUP5 ADD SWAP2 PUSH32 0xDF6966C971051C3D54EC59162606531493A51404A002842F56009D7E5CF4A8C7 DUP4 JUMPDEST DUP4 DUP4 LT PUSH2 0x2136 JUMPI POP POP POP POP PUSH1 0x40 MLOAD SWAP2 DUP1 DUP4 ADD SWAP4 DUP2 DUP5 MSTORE MLOAD DUP1 SWAP5 MSTORE PUSH1 0x40 DUP4 ADD SWAP4 PUSH1 0x40 DUP2 PUSH1 0x5 SHL DUP6 ADD ADD SWAP3 SWAP2 PUSH1 0x0 SWAP6 JUMPDEST DUP3 DUP8 LT PUSH2 0x210A JUMPI DUP6 DUP6 SUB DUP7 RETURN JUMPDEST SWAP1 SWAP2 SWAP3 SWAP4 DUP3 DUP1 PUSH2 0x2126 PUSH1 0x1 SWAP4 PUSH1 0x3F NOT DUP11 DUP3 SUB ADD DUP7 MSTORE DUP9 MLOAD PUSH2 0x3001 JUMP JUMPDEST SWAP7 ADD SWAP3 ADD SWAP7 ADD SWAP6 SWAP3 SWAP2 SWAP1 SWAP3 PUSH2 0x20FD JUMP JUMPDEST PUSH1 0x7 DUP7 PUSH1 0x1 SWAP3 PUSH2 0x2148 DUP6 SWAP11 SWAP10 SWAP11 PUSH2 0x3941 JUMP JUMPDEST DUP2 MSTORE ADD SWAP3 ADD SWAP3 ADD SWAP2 SWAP1 SWAP6 SWAP5 SWAP6 PUSH2 0x20CF JUMP JUMPDEST CALLVALUE PUSH2 0x2B5 JUMPI PUSH1 0x20 CALLDATASIZE PUSH1 0x3 NOT ADD SLT PUSH2 0x2B5 JUMPI PUSH2 0x8EE PUSH2 0x2178 PUSH2 0x8D3 PUSH2 0x2E5D JUMP JUMPDEST PUSH1 0x40 MLOAD SWAP2 DUP3 SWAP2 PUSH1 0x20 DUP4 MSTORE PUSH1 0x20 DUP4 ADD SWAP1 PUSH2 0x3159 JUMP JUMPDEST CALLVALUE PUSH2 0x2B5 JUMPI PUSH1 0x20 CALLDATASIZE PUSH1 0x3 NOT ADD SLT PUSH2 0x2B5 JUMPI PUSH1 0x4 CALLDATALOAD PUSH1 0x0 MSTORE PUSH1 0x4 PUSH1 0x20 MSTORE PUSH1 0x20 PUSH1 0x40 PUSH1 0x0 KECCAK256 SLOAD ISZERO ISZERO PUSH1 0x40 MLOAD SWAP1 DUP2 MSTORE RETURN JUMPDEST CALLVALUE PUSH2 0x2B5 JUMPI PUSH1 0x40 CALLDATASIZE PUSH1 0x3 NOT ADD SLT PUSH2 0x2B5 JUMPI PUSH1 0x4 CALLDATALOAD PUSH1 0x1 PUSH1 0x1 PUSH1 0x40 SHL SUB DUP1 DUP3 GT PUSH2 0x2B5 JUMPI CALLDATASIZE PUSH1 0x23 DUP4 ADD SLT ISZERO PUSH2 0x2B5 JUMPI DUP2 PUSH1 0x4 ADD CALLDATALOAD SWAP1 PUSH2 0x21F7 DUP3 PUSH2 0x30B0 JUMP JUMPDEST SWAP3 PUSH2 0x2205 PUSH1 0x40 MLOAD SWAP5 DUP6 PUSH2 0x2F71 JUMP JUMPDEST DUP3 DUP5 MSTORE PUSH1 0x20 SWAP3 PUSH1 0x24 DUP5 DUP7 ADD SWAP2 PUSH1 0x5 SHL DUP4 ADD ADD SWAP2 CALLDATASIZE DUP4 GT PUSH2 0x2B5 JUMPI PUSH1 0x24 ADD SWAP1 JUMPDEST DUP3 DUP3 LT PUSH2 0x2339 JUMPI POP POP POP PUSH1 0x24 CALLDATALOAD SWAP1 DUP2 GT PUSH2 0x2B5 JUMPI PUSH2 0x2246 SWAP1 CALLDATASIZE SWAP1 PUSH1 0x4 ADD PUSH2 0x30C7 JUMP JUMPDEST DUP3 MLOAD DUP2 MLOAD SUB PUSH2 0x22E2 JUMPI DUP3 MLOAD SWAP3 PUSH2 0x225B DUP5 PUSH2 0x30B0 JUMP JUMPDEST SWAP4 PUSH2 0x2269 PUSH1 0x40 MLOAD SWAP6 DUP7 PUSH2 0x2F71 JUMP JUMPDEST DUP1 DUP6 MSTORE PUSH2 0x2278 PUSH1 0x1F NOT SWAP2 PUSH2 0x30B0 JUMP JUMPDEST ADD CALLDATASIZE DUP5 DUP7 ADD CALLDATACOPY PUSH1 0x0 JUMPDEST DUP2 MLOAD DUP2 LT ISZERO PUSH2 0x22CB JUMPI PUSH2 0x22C6 SWAP1 PUSH2 0x22B6 PUSH1 0x1 PUSH1 0x1 PUSH1 0xA0 SHL SUB PUSH2 0x22A3 DUP4 DUP7 PUSH2 0x3403 JUMP JUMPDEST MLOAD AND PUSH2 0x22AF DUP4 DUP8 PUSH2 0x3403 JUMP JUMPDEST MLOAD SWAP1 PUSH2 0x334C JUMP JUMPDEST PUSH2 0x22C0 DUP3 DUP9 PUSH2 0x3403 JUMP JUMPDEST MSTORE PUSH2 0x33D1 JUMP JUMPDEST PUSH2 0x2281 JUMP JUMPDEST POP POP POP PUSH2 0x8EE PUSH1 0x40 MLOAD SWAP3 DUP3 DUP5 SWAP4 DUP5 MSTORE DUP4 ADD SWAP1 PUSH2 0x3125 JUMP JUMPDEST PUSH1 0x40 MLOAD PUSH3 0x461BCD PUSH1 0xE5 SHL DUP2 MSTORE PUSH1 0x4 DUP2 ADD DUP4 SWAP1 MSTORE PUSH1 0x29 PUSH1 0x24 DUP3 ADD MSTORE PUSH32 0x455243313135353A206163636F756E747320616E6420696473206C656E677468 PUSH1 0x44 DUP3 ADD MSTORE PUSH9 0x40DAD2E6DAC2E8C6D PUSH1 0xBB SHL PUSH1 0x64 DUP3 ADD MSTORE PUSH1 0x84 SWAP1 REVERT JUMPDEST DUP2 CALLDATALOAD PUSH1 0x1 PUSH1 0x1 PUSH1 0xA0 SHL SUB DUP2 AND DUP2 SUB PUSH2 0x2B5 JUMPI DUP2 MSTORE SWAP1 DUP5 ADD SWAP1 DUP5 ADD PUSH2 0x2224 JUMP JUMPDEST CALLVALUE PUSH2 0x2B5 JUMPI PUSH1 0x20 CALLDATASIZE PUSH1 0x3 NOT ADD SLT PUSH2 0x2B5 JUMPI PUSH1 0x1 PUSH1 0x1 PUSH1 0xA0 SHL SUB PUSH2 0x2379 PUSH2 0x2E5D JUMP JUMPDEST AND PUSH1 0x0 MSTORE PUSH1 0x7 PUSH1 0x20 MSTORE PUSH1 0x20 PUSH1 0x40 PUSH1 0x0 KECCAK256 SLOAD PUSH1 0x40 MLOAD SWAP1 DUP2 MSTORE RETURN JUMPDEST CALLVALUE PUSH2 0x2B5 JUMPI PUSH1 0x20 CALLDATASIZE PUSH1 0x3 NOT ADD SLT PUSH2 0x2B5 JUMPI PUSH1 0x4 CALLDATALOAD PUSH1 0x1 PUSH1 0x1 PUSH1 0x40 SHL SUB DUP2 GT PUSH2 0x2B5 JUMPI PUSH2 0x23DB PUSH1 0x20 PUSH2 0x23C8 DUP2 SWAP4 CALLDATASIZE SWAP1 PUSH1 0x4 ADD PUSH2 0x2FAD JUMP JUMPDEST DUP2 PUSH1 0x40 MLOAD SWAP4 DUP3 DUP6 DUP1 SWAP5 MLOAD SWAP4 DUP5 SWAP3 ADD PUSH2 0x2E89 JUMP JUMPDEST DUP2 ADD PUSH1 0x9 DUP2 MSTORE SUB ADD SWAP1 KECCAK256 SLOAD PUSH1 0x40 MLOAD SWAP1 DUP2 MSTORE RETURN JUMPDEST CALLVALUE PUSH2 0x2B5 JUMPI PUSH1 0x3 NOT PUSH1 0xA0 CALLDATASIZE DUP3 ADD SLT PUSH2 0x2B5 JUMPI PUSH2 0x2408 PUSH2 0x2E5D JUMP JUMPDEST SWAP1 PUSH2 0x2411 PUSH2 0x2E73 JUMP JUMPDEST SWAP1 PUSH1 0x1 PUSH1 0x1 PUSH1 0x40 SHL SUB PUSH1 0x44 DUP1 CALLDATALOAD DUP3 DUP2 GT PUSH2 0x2B5 JUMPI PUSH2 0x2433 SWAP1 CALLDATASIZE SWAP1 PUSH1 0x4 ADD PUSH2 0x30C7 JUMP JUMPDEST SWAP1 PUSH1 0x64 SWAP1 DUP2 CALLDATALOAD DUP5 DUP2 GT PUSH2 0x2B5 JUMPI PUSH2 0x244E SWAP1 CALLDATASIZE SWAP1 PUSH1 0x4 ADD PUSH2 0x30C7 JUMP JUMPDEST SWAP5 PUSH1 0x84 SWAP5 DUP6 CALLDATALOAD SWAP1 DUP2 GT PUSH2 0x2B5 JUMPI PUSH2 0x2469 SWAP1 CALLDATASIZE SWAP1 PUSH1 0x4 ADD PUSH2 0x2FAD JUMP JUMPDEST PUSH1 0x1 PUSH1 0x1 PUSH1 0xA0 SHL SUB SWAP9 DUP10 AND SWAP9 SWAP1 SWAP2 SWAP1 CALLER DUP11 EQ DUP1 ISZERO PUSH2 0x2806 JUMPI JUMPDEST PUSH2 0x248B SWAP1 PUSH2 0x3417 JUMP JUMPDEST DUP6 MLOAD DUP9 MLOAD SUB PUSH2 0x27B3 JUMPI DUP9 AND SWAP6 DUP7 ISZERO PUSH2 0x24A3 DUP2 ISZERO PUSH2 0x347A JUMP JUMPDEST DUP11 ISZERO PUSH2 0x2770 JUMPI JUMPDEST PUSH2 0x26AB JUMPI JUMPDEST PUSH1 0x0 JUMPDEST DUP7 MLOAD DUP2 LT ISZERO PUSH2 0x2542 JUMPI DUP1 PUSH2 0x24C9 PUSH2 0x253D SWAP3 DUP10 PUSH2 0x3403 JUMP JUMPDEST MLOAD DUP13 PUSH2 0x24D5 DUP4 DUP14 PUSH2 0x3403 JUMP JUMPDEST MLOAD SWAP2 DUP1 PUSH1 0x0 MSTORE DUP3 PUSH1 0x20 SWAP3 PUSH1 0x0 DUP5 MSTORE PUSH1 0x40 PUSH1 0x0 KECCAK256 DUP2 PUSH1 0x0 MSTORE DUP5 MSTORE PUSH1 0x40 PUSH1 0x0 KECCAK256 SLOAD SWAP1 PUSH2 0x2501 DUP4 DUP4 LT ISZERO PUSH2 0x34D4 JUMP JUMPDEST DUP4 PUSH1 0x0 MSTORE PUSH1 0x0 DUP6 MSTORE PUSH1 0x40 PUSH1 0x0 KECCAK256 SWAP1 PUSH1 0x0 MSTORE DUP5 MSTORE SUB PUSH1 0x40 PUSH1 0x0 KECCAK256 SSTORE PUSH1 0x0 MSTORE PUSH1 0x0 DUP2 MSTORE PUSH1 0x40 PUSH1 0x0 KECCAK256 SWAP1 DUP12 PUSH1 0x0 MSTORE MSTORE PUSH2 0x701 PUSH1 0x40 PUSH1 0x0 KECCAK256 SWAP2 DUP3 SLOAD PUSH2 0x3533 JUMP JUMPDEST PUSH2 0x24B2 JUMP JUMPDEST POP SWAP1 SWAP2 SWAP3 SWAP4 SWAP7 DUP10 SWAP9 DUP8 DUP11 PUSH1 0x40 MLOAD PUSH1 0x40 DUP2 MSTORE PUSH32 0x4A39DC06D4C0DBC64B70AF90FD698A233A518AA5D07E595D983B8C0526C8F7FB PUSH2 0x2581 PUSH1 0x40 DUP4 ADD DUP13 PUSH2 0x3125 JUMP JUMPDEST SWAP2 DUP1 DUP4 SUB PUSH1 0x20 DUP3 ADD MSTORE DUP1 PUSH2 0x2596 CALLER SWAP5 DUP10 PUSH2 0x3125 JUMP JUMPDEST SUB SWAP1 LOG4 EXTCODESIZE PUSH2 0x25A0 JUMPI STOP JUMPDEST PUSH1 0x40 MLOAD SWAP8 DUP9 SWAP7 DUP8 SWAP7 PUSH4 0xBC197C81 PUSH1 0xE0 SHL SWAP12 DUP13 DUP10 MSTORE CALLER PUSH1 0x4 DUP11 ADD MSTORE PUSH1 0x24 DUP10 ADD MSTORE DUP8 ADD PUSH1 0xA0 SWAP1 MSTORE PUSH1 0xA4 DUP8 ADD PUSH2 0x25D2 SWAP2 PUSH2 0x3125 JUMP JUMPDEST SWAP1 DUP5 DUP8 DUP4 SUB ADD SWAP1 DUP8 ADD MSTORE PUSH2 0x25E5 SWAP2 PUSH2 0x3125 JUMP JUMPDEST SWAP2 DUP5 DUP4 SUB ADD SWAP1 DUP5 ADD MSTORE PUSH2 0x25F7 SWAP2 PUSH2 0x2EAC JUMP JUMPDEST SUB DUP2 GAS PUSH1 0x20 SWAP5 PUSH1 0x0 SWAP2 CALL PUSH1 0x0 SWAP2 DUP2 PUSH2 0x268B JUMPI JUMPDEST POP PUSH2 0x2663 JUMPI POP POP PUSH1 0x1 PUSH2 0x261B PUSH2 0x35A9 JUMP JUMPDEST PUSH4 0x8C379A0 EQ PUSH2 0x262C JUMPI JUMPDEST PUSH2 0x550 JUMPI STOP JUMPDEST PUSH2 0x2634 PUSH2 0x35C7 JUMP JUMPDEST DUP1 PUSH2 0x263F JUMPI POP PUSH2 0x2626 JUMP JUMPDEST PUSH1 0x40 MLOAD PUSH3 0x461BCD PUSH1 0xE5 SHL DUP2 MSTORE PUSH1 0x20 PUSH1 0x4 DUP3 ADD MSTORE SWAP1 DUP2 SWAP1 PUSH2 0x569 SWAP1 PUSH1 0x24 DUP4 ADD SWAP1 PUSH2 0x2EAC JUMP JUMPDEST PUSH1 0x1 PUSH1 0x1 PUSH1 0xE0 SHL SUB NOT AND EQ PUSH2 0x54E JUMPI PUSH1 0x40 MLOAD PUSH3 0x461BCD PUSH1 0xE5 SHL DUP2 MSTORE DUP1 PUSH2 0x569 PUSH1 0x4 DUP3 ADD PUSH2 0x3560 JUMP JUMPDEST PUSH2 0x26A4 SWAP2 SWAP3 POP PUSH1 0x20 RETURNDATASIZE DUP2 GT PUSH2 0x5F4 JUMPI PUSH2 0x5E5 DUP2 DUP4 PUSH2 0x2F71 JUMP JUMPDEST SWAP1 DUP4 PUSH2 0x260A JUMP JUMPDEST SWAP7 SWAP5 SWAP4 SWAP9 SWAP3 SWAP6 SWAP1 SWAP8 SWAP2 PUSH1 0x0 JUMPDEST DUP6 MLOAD DUP2 LT ISZERO PUSH2 0x2761 JUMPI PUSH2 0x26CA DUP2 DUP8 PUSH2 0x3403 JUMP JUMPDEST MLOAD PUSH2 0x26D5 DUP3 DUP10 PUSH2 0x3403 JUMP JUMPDEST MLOAD SWAP1 DUP1 PUSH1 0x0 MSTORE PUSH1 0x20 PUSH1 0x4 DUP2 MSTORE PUSH1 0x40 PUSH1 0x0 KECCAK256 SLOAD SWAP2 DUP4 DUP4 LT PUSH2 0x270E JUMPI PUSH2 0x2709 SWAP5 SWAP4 SWAP3 SWAP2 PUSH1 0x4 SWAP2 PUSH1 0x0 MSTORE MSTORE SUB PUSH1 0x40 PUSH1 0x0 KECCAK256 SSTORE PUSH2 0x33D1 JUMP JUMPDEST PUSH2 0x26B7 JUMP JUMPDEST POP DUP12 SWAP1 PUSH8 0x616C537570706C79 PUSH1 0xC0 SHL DUP16 PUSH32 0x455243313135353A206275726E20616D6F756E74206578636565647320746F74 DUP15 PUSH1 0x40 MLOAD SWAP5 PUSH3 0x461BCD PUSH1 0xE5 SHL DUP7 MSTORE PUSH1 0x4 DUP7 ADD MSTORE PUSH1 0x28 PUSH1 0x24 DUP7 ADD MSTORE DUP5 ADD MSTORE DUP3 ADD MSTORE REVERT JUMPDEST POP SWAP2 SWAP8 SWAP1 SWAP6 SWAP3 SWAP9 SWAP4 SWAP5 SWAP7 PUSH2 0x24AF JUMP JUMPDEST SWAP9 SWAP6 SWAP10 SWAP7 SWAP5 SWAP4 SWAP3 SWAP2 SWAP1 PUSH1 0x0 JUMPDEST DUP12 MLOAD DUP2 LT ISZERO PUSH2 0x27A4 JUMPI DUP1 DUP13 PUSH2 0x6E8 DUP3 PUSH2 0x2798 PUSH2 0x279F SWAP6 DUP16 PUSH2 0x3403 JUMP JUMPDEST MLOAD SWAP3 PUSH2 0x3403 JUMP JUMPDEST PUSH2 0x277C JUMP JUMPDEST POP SWAP1 SWAP2 SWAP3 SWAP4 SWAP5 SWAP7 SWAP10 SWAP6 SWAP9 PUSH2 0x24AA JUMP JUMPDEST PUSH1 0x40 MLOAD PUSH3 0x461BCD PUSH1 0xE5 SHL DUP2 MSTORE PUSH1 0x20 PUSH1 0x4 DUP3 ADD MSTORE PUSH1 0x28 PUSH1 0x24 DUP3 ADD MSTORE PUSH32 0x455243313135353A2069647320616E6420616D6F756E7473206C656E67746820 DUP2 DUP7 ADD MSTORE PUSH8 0xDAD2E6DAC2E8C6D PUSH1 0xC3 SHL DUP2 DUP8 ADD MSTORE DUP8 SWAP1 REVERT JUMPDEST POP DUP10 PUSH1 0x0 MSTORE PUSH1 0x1 PUSH1 0x20 MSTORE PUSH1 0x40 PUSH1 0x0 KECCAK256 CALLER PUSH1 0x0 MSTORE PUSH1 0x20 MSTORE PUSH2 0x248B PUSH1 0xFF PUSH1 0x40 PUSH1 0x0 KECCAK256 SLOAD AND SWAP1 POP PUSH2 0x2482 JUMP JUMPDEST CALLVALUE PUSH2 0x2B5 JUMPI PUSH1 0x20 DUP1 PUSH1 0x3 NOT CALLDATASIZE ADD SLT PUSH2 0x2B5 JUMPI PUSH1 0x4 CALLDATALOAD PUSH1 0x1 PUSH1 0x1 PUSH1 0x40 SHL SUB DUP2 GT PUSH2 0x2B5 JUMPI PUSH2 0x2860 SWAP1 CALLDATASIZE SWAP1 PUSH1 0x4 ADD PUSH2 0x2FAD JUMP JUMPDEST SWAP1 PUSH2 0x2869 PUSH2 0x38F2 JUMP JUMPDEST POP PUSH2 0x287B PUSH2 0x2876 CALLER PUSH2 0x36B2 JUMP JUMPDEST PUSH2 0x3A91 JUMP JUMPDEST PUSH2 0x2884 DUP3 PUSH2 0x38C1 JUMP JUMPDEST PUSH2 0x296F JUMPI DUP1 PUSH1 0x40 MLOAD DUP2 DUP2 ADD SWAP1 DUP3 DUP3 MSTORE PUSH2 0x28B2 DUP2 PUSH2 0x28A4 PUSH1 0x40 DUP3 ADD DUP9 PUSH2 0x2EAC JUMP JUMPDEST SUB PUSH1 0x1F NOT DUP2 ADD DUP4 MSTORE DUP3 PUSH2 0x2F71 JUMP JUMPDEST MLOAD SWAP1 KECCAK256 SWAP3 PUSH1 0x40 MLOAD PUSH2 0x28C2 DUP2 PUSH2 0x2F05 JUMP JUMPDEST CALLER DUP2 MSTORE PUSH1 0x0 DUP4 DUP3 ADD MSTORE PUSH1 0x40 MLOAD SWAP1 PUSH2 0x28D8 DUP3 PUSH2 0x2F05 JUMP JUMPDEST PUSH1 0x0 DUP3 MSTORE PUSH1 0x0 DUP5 DUP4 ADD MSTORE PUSH1 0x40 MLOAD SWAP6 PUSH2 0x28EF DUP8 PUSH2 0x2F20 JUMP JUMPDEST PUSH1 0x0 DUP8 MSTORE DUP5 DUP8 ADD MSTORE DUP3 PUSH1 0x40 DUP8 ADD MSTORE PUSH1 0x60 DUP7 ADD MSTORE PUSH1 0x80 DUP6 ADD MSTORE PUSH1 0x0 PUSH1 0xA0 DUP6 ADD MSTORE PUSH2 0x292A PUSH1 0xC SLOAD SWAP3 DUP4 SWAP3 DUP2 PUSH1 0x40 MLOAD SWAP4 DUP3 DUP6 DUP1 SWAP5 MLOAD SWAP4 DUP5 SWAP3 ADD PUSH2 0x2E89 JUMP JUMPDEST DUP2 ADD PUSH1 0x9 DUP2 MSTORE SUB ADD SWAP1 KECCAK256 SSTORE PUSH1 0x1 PUSH1 0x40 SHL DUP2 LT ISZERO PUSH2 0x1E21 JUMPI DUP3 PUSH2 0x2955 DUP3 PUSH1 0x1 PUSH2 0x295B SWAP5 ADD PUSH1 0xC SSTORE PUSH2 0x31A1 JUMP JUMPDEST SWAP1 PUSH2 0x4005 JUMP JUMPDEST PUSH2 0x8EE PUSH1 0x40 MLOAD SWAP3 DUP3 DUP5 SWAP4 DUP5 MSTORE DUP4 ADD SWAP1 PUSH2 0x3001 JUMP JUMPDEST PUSH1 0x64 SWAP1 PUSH1 0x40 MLOAD SWAP1 PUSH3 0x461BCD PUSH1 0xE5 SHL DUP3 MSTORE PUSH1 0x4 DUP3 ADD MSTORE PUSH1 0x16 PUSH1 0x24 DUP3 ADD MSTORE PUSH22 0x426174746C6520616C72656164792065786973747321 PUSH1 0x50 SHL PUSH1 0x44 DUP3 ADD MSTORE REVERT JUMPDEST CALLVALUE PUSH2 0x2B5 JUMPI PUSH1 0x20 CALLDATASIZE PUSH1 0x3 NOT ADD SLT PUSH2 0x2B5 JUMPI PUSH1 0x1 PUSH1 0x1 PUSH1 0xA0 SHL SUB PUSH2 0x29CD PUSH2 0x2E5D JUMP JUMPDEST AND PUSH1 0x0 MSTORE PUSH1 0x8 PUSH1 0x20 MSTORE PUSH1 0x20 PUSH1 0x40 PUSH1 0x0 KECCAK256 SLOAD PUSH1 0x40 MLOAD SWAP1 DUP2 MSTORE RETURN JUMPDEST CALLVALUE PUSH2 0x2B5 JUMPI PUSH1 0x20 CALLDATASIZE PUSH1 0x3 NOT ADD SLT PUSH2 0x2B5 JUMPI PUSH1 0x4 CALLDATALOAD PUSH1 0x1 PUSH1 0x1 PUSH1 0x40 SHL SUB DUP2 GT PUSH2 0x2B5 JUMPI PUSH2 0x2A1C PUSH2 0x1A9F PUSH2 0x8EE SWAP3 CALLDATASIZE SWAP1 PUSH1 0x4 ADD PUSH2 0x2FAD JUMP JUMPDEST PUSH1 0x40 MLOAD SWAP2 DUP3 SWAP2 PUSH1 0x20 DUP4 MSTORE PUSH1 0x20 DUP4 ADD SWAP1 PUSH2 0x3001 JUMP JUMPDEST CALLVALUE PUSH2 0x2B5 JUMPI PUSH1 0x20 CALLDATASIZE PUSH1 0x3 NOT ADD SLT PUSH2 0x2B5 JUMPI PUSH1 0x4 CALLDATALOAD PUSH1 0x1 PUSH1 0x1 PUSH1 0x40 SHL SUB DUP2 GT PUSH2 0x2B5 JUMPI PUSH2 0xA73 PUSH2 0x2A65 PUSH1 0x20 SWAP3 CALLDATASIZE SWAP1 PUSH1 0x4 ADD PUSH2 0x2FAD JUMP JUMPDEST PUSH2 0x38C1 JUMP JUMPDEST CALLVALUE PUSH2 0x2B5 JUMPI PUSH1 0x20 CALLDATASIZE PUSH1 0x3 NOT ADD SLT PUSH2 0x2B5 JUMPI PUSH2 0x8EE PUSH2 0x2A8E PUSH2 0x2A89 PUSH2 0x2E5D JUMP JUMPDEST PUSH2 0x3842 JUMP JUMPDEST PUSH1 0x40 MLOAD SWAP2 DUP3 SWAP2 PUSH1 0x20 DUP4 MSTORE PUSH1 0x20 DUP4 ADD SWAP1 PUSH2 0x2ED1 JUMP JUMPDEST CALLVALUE PUSH2 0x2B5 JUMPI PUSH1 0x20 DUP1 PUSH1 0x3 NOT CALLDATASIZE ADD SLT PUSH2 0x2B5 JUMPI PUSH1 0x40 MLOAD SWAP1 PUSH1 0x0 DUP3 PUSH1 0x2 SLOAD SWAP2 PUSH2 0x2AC8 DUP4 PUSH2 0x31D6 JUMP JUMPDEST SWAP3 DUP4 DUP4 MSTORE PUSH1 0x1 SWAP1 DUP6 DUP3 DUP3 AND SWAP2 DUP3 PUSH1 0x0 EQ PUSH2 0x2B33 JUMPI POP POP PUSH1 0x1 EQ PUSH2 0x2AF3 JUMPI JUMPDEST POP PUSH2 0x9B7 SWAP3 POP SUB DUP4 PUSH2 0x2F71 JUMP JUMPDEST DUP5 SWAP2 POP PUSH1 0x2 PUSH1 0x0 MSTORE DUP2 PUSH1 0x0 KECCAK256 SWAP1 PUSH1 0x0 SWAP2 JUMPDEST DUP6 DUP4 LT PUSH2 0x2B1B JUMPI POP POP PUSH2 0x9B7 SWAP4 POP DUP3 ADD ADD DUP6 PUSH2 0x2AE6 JUMP JUMPDEST DUP1 SLOAD DUP4 DUP10 ADD DUP6 ADD MSTORE DUP8 SWAP5 POP DUP7 SWAP4 SWAP1 SWAP3 ADD SWAP2 DUP2 ADD PUSH2 0x2B04 JUMP JUMPDEST PUSH1 0xFF NOT AND DUP6 DUP3 ADD MSTORE PUSH2 0x9B7 SWAP6 ISZERO ISZERO PUSH1 0x5 SHL DUP6 ADD ADD SWAP3 POP DUP8 SWAP2 POP PUSH2 0x2AE6 SWAP1 POP JUMP JUMPDEST CALLVALUE PUSH2 0x2B5 JUMPI PUSH1 0x0 CALLDATASIZE PUSH1 0x3 NOT ADD SLT PUSH2 0x2B5 JUMPI PUSH1 0x20 PUSH1 0x40 MLOAD PUSH1 0xA DUP2 MSTORE RETURN JUMPDEST CALLVALUE PUSH2 0x2B5 JUMPI PUSH1 0x20 CALLDATASIZE PUSH1 0x3 NOT ADD SLT PUSH2 0x2B5 JUMPI PUSH1 0x20 PUSH2 0xA73 PUSH2 0x2B8D PUSH2 0x2E5D JUMP JUMPDEST PUSH2 0x36B2 JUMP JUMPDEST CALLVALUE PUSH2 0x2B5 JUMPI PUSH1 0x0 CALLDATASIZE PUSH1 0x3 NOT ADD SLT PUSH2 0x2B5 JUMPI PUSH1 0x20 PUSH1 0x40 MLOAD PUSH1 0x3 DUP2 MSTORE RETURN JUMPDEST CALLVALUE PUSH2 0x2B5 JUMPI PUSH1 0x20 DUP1 PUSH1 0x3 NOT CALLDATASIZE ADD SLT PUSH2 0x2B5 JUMPI PUSH1 0x1 PUSH1 0x1 PUSH1 0x40 SHL SUB PUSH1 0x4 CALLDATALOAD DUP2 DUP2 GT PUSH2 0x2B5 JUMPI PUSH2 0x2BE0 SWAP1 CALLDATASIZE SWAP1 PUSH1 0x4 ADD PUSH2 0x2FAD JUMP JUMPDEST SWAP2 PUSH2 0x2BE9 PUSH2 0x32F4 JUMP JUMPDEST DUP3 MLOAD SWAP2 DUP3 GT PUSH2 0x1E21 JUMPI PUSH2 0x2BFD PUSH1 0x2 SLOAD PUSH2 0x31D6 JUMP JUMPDEST PUSH1 0x1F DUP2 GT PUSH2 0x2CA6 JUMPI JUMPDEST POP DUP1 PUSH1 0x1F DUP4 GT PUSH1 0x1 EQ PUSH2 0x2C42 JUMPI POP DUP2 SWAP3 PUSH1 0x0 SWAP3 PUSH2 0x2C37 JUMPI JUMPDEST POP POP PUSH1 0x0 NOT PUSH1 0x3 DUP4 SWAP1 SHL SHR NOT AND PUSH1 0x1 SWAP2 SWAP1 SWAP2 SHL OR PUSH1 0x2 SSTORE STOP JUMPDEST ADD MLOAD SWAP1 POP DUP3 DUP1 PUSH2 0x2C1E JUMP JUMPDEST SWAP1 PUSH1 0x1F NOT DUP4 AND SWAP4 PUSH1 0x2 PUSH1 0x0 MSTORE DUP3 PUSH1 0x0 KECCAK256 SWAP3 PUSH1 0x0 SWAP1 JUMPDEST DUP7 DUP3 LT PUSH2 0x2C8E JUMPI POP POP DUP4 PUSH1 0x1 SWAP6 LT PUSH2 0x2C75 JUMPI JUMPDEST POP POP POP DUP2 SHL ADD PUSH1 0x2 SSTORE STOP JUMPDEST ADD MLOAD PUSH1 0x0 NOT PUSH1 0xF8 DUP5 PUSH1 0x3 SHL AND SHR NOT AND SWAP1 SSTORE DUP3 DUP1 DUP1 PUSH2 0x2C6A JUMP JUMPDEST DUP1 PUSH1 0x1 DUP6 SWAP7 DUP3 SWAP5 SWAP7 DUP7 ADD MLOAD DUP2 SSTORE ADD SWAP6 ADD SWAP4 ADD SWAP1 PUSH2 0x2C57 JUMP JUMPDEST PUSH2 0x2CD1 SWAP1 PUSH1 0x2 PUSH1 0x0 MSTORE DUP3 PUSH1 0x0 KECCAK256 PUSH1 0x1F DUP6 ADD PUSH1 0x5 SHR DUP2 ADD SWAP2 DUP5 DUP7 LT PUSH2 0x1E17 JUMPI PUSH1 0x1F ADD PUSH1 0x5 SHR ADD SWAP1 PUSH2 0x3A7A JUMP JUMPDEST DUP4 PUSH2 0x2C06 JUMP JUMPDEST CALLVALUE PUSH2 0x2B5 JUMPI PUSH1 0x20 CALLDATASIZE PUSH1 0x3 NOT ADD SLT PUSH2 0x2B5 JUMPI PUSH1 0x4 CALLDATALOAD PUSH4 0xFFFFFFFF PUSH1 0xE0 SHL DUP2 AND DUP1 SWAP2 SUB PUSH2 0x2B5 JUMPI PUSH1 0x20 SWAP1 PUSH4 0x6CDB3D13 PUSH1 0xE1 SHL DUP2 EQ SWAP1 DUP2 ISZERO PUSH2 0x2D34 JUMPI JUMPDEST DUP2 ISZERO PUSH2 0x2D23 JUMPI JUMPDEST POP PUSH1 0x40 MLOAD SWAP1 ISZERO ISZERO DUP2 MSTORE RETURN JUMPDEST PUSH4 0x1FFC9A7 PUSH1 0xE0 SHL EQ SWAP1 POP DUP3 PUSH2 0x2D18 JUMP JUMPDEST PUSH4 0x3A24D07 PUSH1 0xE2 SHL DUP2 EQ SWAP2 POP PUSH2 0x2D11 JUMP JUMPDEST CALLVALUE PUSH2 0x2B5 JUMPI PUSH1 0x0 CALLDATASIZE PUSH1 0x3 NOT ADD SLT PUSH2 0x2B5 JUMPI PUSH1 0xB SLOAD PUSH2 0x2D62 DUP2 PUSH2 0x30B0 JUMP JUMPDEST SWAP1 PUSH2 0x2D70 PUSH1 0x40 MLOAD SWAP3 DUP4 PUSH2 0x2F71 JUMP JUMPDEST DUP1 DUP3 MSTORE PUSH1 0xB PUSH1 0x0 SWAP1 DUP2 MSTORE PUSH1 0x20 SWAP2 DUP3 DUP5 ADD SWAP2 PUSH32 0x175B7A638427703F0DBE7BB9BBF987A2551717B34E79F33B5B1008D1FA01DB9 DUP4 JUMPDEST DUP4 DUP4 LT PUSH2 0x2E0B JUMPI POP POP POP POP PUSH1 0x40 MLOAD SWAP2 DUP1 DUP4 ADD SWAP4 DUP2 DUP5 MSTORE MLOAD DUP1 SWAP5 MSTORE PUSH1 0x40 DUP4 ADD SWAP4 PUSH1 0x40 DUP2 PUSH1 0x5 SHL DUP6 ADD ADD SWAP3 SWAP2 PUSH1 0x0 SWAP6 JUMPDEST DUP3 DUP8 LT PUSH2 0x2DDF JUMPI DUP6 DUP6 SUB DUP7 RETURN JUMPDEST SWAP1 SWAP2 SWAP3 SWAP4 DUP3 DUP1 PUSH2 0x2DFB PUSH1 0x1 SWAP4 PUSH1 0x3F NOT DUP11 DUP3 SUB ADD DUP7 MSTORE DUP9 MLOAD PUSH2 0x2ED1 JUMP JUMPDEST SWAP7 ADD SWAP3 ADD SWAP7 ADD SWAP6 SWAP3 SWAP2 SWAP1 SWAP3 PUSH2 0x2DD2 JUMP JUMPDEST PUSH1 0x4 DUP7 PUSH1 0x1 SWAP3 PUSH2 0x2E1D DUP6 SWAP11 SWAP10 SWAP11 PUSH2 0x3809 JUMP JUMPDEST DUP2 MSTORE ADD SWAP3 ADD SWAP3 ADD SWAP2 SWAP1 SWAP6 SWAP5 SWAP6 PUSH2 0x2DA4 JUMP JUMPDEST CALLVALUE PUSH2 0x2B5 JUMPI PUSH1 0x40 CALLDATASIZE PUSH1 0x3 NOT ADD SLT PUSH2 0x2B5 JUMPI PUSH1 0x20 PUSH2 0x2E55 PUSH2 0x2E4C PUSH2 0x2E5D JUMP JUMPDEST PUSH1 0x24 CALLDATALOAD SWAP1 PUSH2 0x334C JUMP JUMPDEST PUSH1 0x40 MLOAD SWAP1 DUP2 MSTORE RETURN JUMPDEST PUSH1 0x4 CALLDATALOAD SWAP1 PUSH1 0x1 PUSH1 0x1 PUSH1 0xA0 SHL SUB DUP3 AND DUP3 SUB PUSH2 0x2B5 JUMPI JUMP JUMPDEST PUSH1 0x24 CALLDATALOAD SWAP1 PUSH1 0x1 PUSH1 0x1 PUSH1 0xA0 SHL SUB DUP3 AND DUP3 SUB PUSH2 0x2B5 JUMPI JUMP JUMPDEST PUSH1 0x0 JUMPDEST DUP4 DUP2 LT PUSH2 0x2E9C JUMPI POP POP PUSH1 0x0 SWAP2 ADD MSTORE JUMP JUMPDEST DUP2 DUP2 ADD MLOAD DUP4 DUP3 ADD MSTORE PUSH1 0x20 ADD PUSH2 0x2E8C JUMP JUMPDEST SWAP1 PUSH1 0x20 SWAP2 PUSH2 0x2EC5 DUP2 MLOAD DUP1 SWAP3 DUP2 DUP6 MSTORE DUP6 DUP1 DUP7 ADD SWAP2 ADD PUSH2 0x2E89 JUMP JUMPDEST PUSH1 0x1F ADD PUSH1 0x1F NOT AND ADD ADD SWAP1 JUMP JUMPDEST SWAP1 PUSH1 0x60 DUP1 PUSH2 0x2EE8 DUP5 MLOAD PUSH1 0x80 DUP6 MSTORE PUSH1 0x80 DUP6 ADD SWAP1 PUSH2 0x2EAC JUMP JUMPDEST SWAP4 PUSH1 0x20 DUP2 ADD MLOAD PUSH1 0x20 DUP6 ADD MSTORE PUSH1 0x40 DUP2 ADD MLOAD PUSH1 0x40 DUP6 ADD MSTORE ADD MLOAD SWAP2 ADD MSTORE SWAP1 JUMP JUMPDEST PUSH1 0x40 DUP2 ADD SWAP1 DUP2 LT PUSH1 0x1 PUSH1 0x1 PUSH1 0x40 SHL SUB DUP3 GT OR PUSH2 0x1E21 JUMPI PUSH1 0x40 MSTORE JUMP JUMPDEST PUSH1 0xC0 DUP2 ADD SWAP1 DUP2 LT PUSH1 0x1 PUSH1 0x1 PUSH1 0x40 SHL SUB DUP3 GT OR PUSH2 0x1E21 JUMPI PUSH1 0x40 MSTORE JUMP JUMPDEST PUSH1 0xA0 DUP2 ADD SWAP1 DUP2 LT PUSH1 0x1 PUSH1 0x1 PUSH1 0x40 SHL SUB DUP3 GT OR PUSH2 0x1E21 JUMPI PUSH1 0x40 MSTORE JUMP JUMPDEST PUSH1 0x80 DUP2 ADD SWAP1 DUP2 LT PUSH1 0x1 PUSH1 0x1 PUSH1 0x40 SHL SUB DUP3 GT OR PUSH2 0x1E21 JUMPI PUSH1 0x40 MSTORE JUMP JUMPDEST SWAP1 PUSH1 0x1F DUP1 NOT SWAP2 ADD AND DUP2 ADD SWAP1 DUP2 LT PUSH1 0x1 PUSH1 0x1 PUSH1 0x40 SHL SUB DUP3 GT OR PUSH2 0x1E21 JUMPI PUSH1 0x40 MSTORE JUMP JUMPDEST PUSH1 0x1 PUSH1 0x1 PUSH1 0x40 SHL SUB DUP2 GT PUSH2 0x1E21 JUMPI PUSH1 0x1F ADD PUSH1 0x1F NOT AND PUSH1 0x20 ADD SWAP1 JUMP JUMPDEST DUP2 PUSH1 0x1F DUP3 ADD SLT ISZERO PUSH2 0x2B5 JUMPI DUP1 CALLDATALOAD SWAP1 PUSH2 0x2FC4 DUP3 PUSH2 0x2F92 JUMP JUMPDEST SWAP3 PUSH2 0x2FD2 PUSH1 0x40 MLOAD SWAP5 DUP6 PUSH2 0x2F71 JUMP JUMPDEST DUP3 DUP5 MSTORE PUSH1 0x20 DUP4 DUP4 ADD ADD GT PUSH2 0x2B5 JUMPI DUP2 PUSH1 0x0 SWAP3 PUSH1 0x20 DUP1 SWAP4 ADD DUP4 DUP7 ADD CALLDATACOPY DUP4 ADD ADD MSTORE SWAP1 JUMP JUMPDEST SWAP1 PUSH1 0x3 DUP3 LT ISZERO PUSH2 0x19FE JUMPI MSTORE JUMP JUMPDEST SWAP1 PUSH2 0x300D DUP2 DUP4 MLOAD PUSH2 0x2FF4 JUMP JUMPDEST PUSH1 0x20 SWAP2 DUP3 DUP2 ADD MLOAD DUP4 DUP4 ADD MSTORE PUSH2 0x3031 PUSH1 0x40 DUP3 ADD MLOAD PUSH2 0x100 DUP1 PUSH1 0x40 DUP7 ADD MSTORE DUP5 ADD SWAP1 PUSH2 0x2EAC JUMP JUMPDEST SWAP3 PUSH1 0x60 DUP3 ADD MLOAD PUSH1 0x60 DUP5 ADD PUSH1 0x0 SWAP1 JUMPDEST DUP4 PUSH1 0x2 DUP4 LT PUSH2 0x3092 JUMPI POP POP POP POP PUSH1 0x80 DUP3 ADD MLOAD SWAP1 PUSH1 0x0 PUSH1 0xA0 DUP6 ADD JUMPDEST PUSH1 0x2 DUP3 LT PUSH2 0x307A JUMPI POP POP POP POP PUSH1 0xE0 SWAP1 PUSH1 0xA0 PUSH1 0x1 DUP1 DUP3 SHL SUB SWAP2 ADD MLOAD AND SWAP2 ADD MSTORE SWAP1 JUMP JUMPDEST DUP3 DUP1 PUSH1 0x1 SWAP3 PUSH1 0xFF DUP8 MLOAD AND DUP2 MSTORE ADD SWAP5 ADD SWAP2 ADD SWAP1 SWAP3 PUSH2 0x3059 JUMP JUMPDEST DUP4 MLOAD PUSH1 0x1 PUSH1 0x1 PUSH1 0xA0 SHL SUB AND DUP3 MSTORE SWAP3 DUP4 ADD SWAP3 PUSH1 0x1 SWAP3 SWAP1 SWAP3 ADD SWAP2 ADD PUSH2 0x303F JUMP JUMPDEST PUSH1 0x1 PUSH1 0x1 PUSH1 0x40 SHL SUB DUP2 GT PUSH2 0x1E21 JUMPI PUSH1 0x5 SHL PUSH1 0x20 ADD SWAP1 JUMP JUMPDEST DUP2 PUSH1 0x1F DUP3 ADD SLT ISZERO PUSH2 0x2B5 JUMPI DUP1 CALLDATALOAD SWAP2 PUSH2 0x30DE DUP4 PUSH2 0x30B0 JUMP JUMPDEST SWAP3 PUSH2 0x30EC PUSH1 0x40 MLOAD SWAP5 DUP6 PUSH2 0x2F71 JUMP JUMPDEST DUP1 DUP5 MSTORE PUSH1 0x20 SWAP3 DUP4 DUP1 DUP7 ADD SWAP3 PUSH1 0x5 SHL DUP3 ADD ADD SWAP3 DUP4 GT PUSH2 0x2B5 JUMPI DUP4 ADD SWAP1 JUMPDEST DUP3 DUP3 LT PUSH2 0x3116 JUMPI POP POP POP POP SWAP1 JUMP JUMPDEST DUP2 CALLDATALOAD DUP2 MSTORE SWAP1 DUP4 ADD SWAP1 DUP4 ADD PUSH2 0x3108 JUMP JUMPDEST SWAP1 DUP2 MLOAD DUP1 DUP3 MSTORE PUSH1 0x20 DUP1 DUP1 SWAP4 ADD SWAP4 ADD SWAP2 PUSH1 0x0 JUMPDEST DUP3 DUP2 LT PUSH2 0x3145 JUMPI POP POP POP POP SWAP1 JUMP JUMPDEST DUP4 MLOAD DUP6 MSTORE SWAP4 DUP2 ADD SWAP4 SWAP3 DUP2 ADD SWAP3 PUSH1 0x1 ADD PUSH2 0x3137 JUMP JUMPDEST SWAP1 PUSH1 0x1 DUP1 PUSH1 0xA0 SHL SUB DUP3 MLOAD AND DUP2 MSTORE PUSH1 0x80 DUP1 PUSH2 0x3182 PUSH1 0x20 DUP6 ADD MLOAD PUSH1 0xA0 PUSH1 0x20 DUP7 ADD MSTORE PUSH1 0xA0 DUP6 ADD SWAP1 PUSH2 0x2EAC JUMP JUMPDEST SWAP4 PUSH1 0x40 DUP2 ADD MLOAD PUSH1 0x40 DUP6 ADD MSTORE PUSH1 0x60 DUP2 ADD MLOAD PUSH1 0x60 DUP6 ADD MSTORE ADD MLOAD ISZERO ISZERO SWAP2 ADD MSTORE SWAP1 JUMP JUMPDEST PUSH1 0xC SLOAD DUP2 LT ISZERO PUSH2 0x31C0 JUMPI PUSH1 0xC PUSH1 0x0 MSTORE PUSH1 0x7 PUSH1 0x20 PUSH1 0x0 KECCAK256 SWAP2 MUL ADD SWAP1 PUSH1 0x0 SWAP1 JUMP JUMPDEST PUSH4 0x4E487B71 PUSH1 0xE0 SHL PUSH1 0x0 MSTORE PUSH1 0x32 PUSH1 0x4 MSTORE PUSH1 0x24 PUSH1 0x0 REVERT JUMPDEST SWAP1 PUSH1 0x1 DUP3 DUP2 SHR SWAP3 AND DUP1 ISZERO PUSH2 0x3206 JUMPI JUMPDEST PUSH1 0x20 DUP4 LT EQ PUSH2 0x31F0 JUMPI JUMP JUMPDEST PUSH4 0x4E487B71 PUSH1 0xE0 SHL PUSH1 0x0 MSTORE PUSH1 0x22 PUSH1 0x4 MSTORE PUSH1 0x24 PUSH1 0x0 REVERT JUMPDEST SWAP2 PUSH1 0x7F AND SWAP2 PUSH2 0x31E5 JUMP JUMPDEST SWAP1 PUSH1 0x40 MLOAD SWAP2 DUP3 PUSH1 0x0 DUP3 SLOAD SWAP3 PUSH2 0x3224 DUP5 PUSH2 0x31D6 JUMP JUMPDEST SWAP1 DUP2 DUP5 MSTORE PUSH1 0x1 SWAP5 DUP6 DUP2 AND SWAP1 DUP2 PUSH1 0x0 EQ PUSH2 0x3293 JUMPI POP PUSH1 0x1 EQ PUSH2 0x3250 JUMPI JUMPDEST POP POP PUSH2 0x324E SWAP3 POP SUB DUP4 PUSH2 0x2F71 JUMP JUMPDEST JUMP JUMPDEST SWAP1 SWAP4 SWAP2 POP PUSH1 0x0 MSTORE PUSH1 0x20 SWAP1 DUP2 PUSH1 0x0 KECCAK256 SWAP4 PUSH1 0x0 SWAP2 JUMPDEST DUP2 DUP4 LT PUSH2 0x327B JUMPI POP POP PUSH2 0x324E SWAP4 POP DUP3 ADD ADD CODESIZE DUP1 PUSH2 0x3240 JUMP JUMPDEST DUP6 SLOAD DUP9 DUP5 ADD DUP6 ADD MSTORE SWAP5 DUP6 ADD SWAP5 DUP8 SWAP5 POP SWAP2 DUP4 ADD SWAP2 PUSH2 0x3263 JUMP JUMPDEST SWAP2 POP POP PUSH2 0x324E SWAP5 POP PUSH1 0x20 SWAP3 POP PUSH1 0xFF NOT AND DUP3 DUP5 ADD MSTORE ISZERO ISZERO PUSH1 0x5 SHL DUP3 ADD ADD CODESIZE DUP1 PUSH2 0x3240 JUMP JUMPDEST PUSH1 0xB SLOAD DUP2 LT ISZERO PUSH2 0x31C0 JUMPI PUSH1 0xB PUSH1 0x0 MSTORE PUSH1 0x20 PUSH1 0x0 KECCAK256 SWAP1 PUSH1 0x2 SHL ADD SWAP1 PUSH1 0x0 SWAP1 JUMP JUMPDEST PUSH1 0xA SLOAD DUP2 LT ISZERO PUSH2 0x31C0 JUMPI PUSH1 0xA PUSH1 0x0 MSTORE PUSH1 0x5 PUSH1 0x20 PUSH1 0x0 KECCAK256 SWAP2 MUL ADD SWAP1 PUSH1 0x0 SWAP1 JUMP JUMPDEST PUSH1 0x3 SLOAD PUSH1 0x1 PUSH1 0x1 PUSH1 0xA0 SHL SUB AND CALLER SUB PUSH2 0x3308 JUMPI JUMP JUMPDEST PUSH1 0x64 PUSH1 0x40 MLOAD PUSH3 0x461BCD PUSH1 0xE5 SHL DUP2 MSTORE PUSH1 0x20 PUSH1 0x4 DUP3 ADD MSTORE PUSH1 0x20 PUSH1 0x24 DUP3 ADD MSTORE PUSH32 0x4F776E61626C653A2063616C6C6572206973206E6F7420746865206F776E6572 PUSH1 0x44 DUP3 ADD MSTORE REVERT JUMPDEST PUSH1 0x1 PUSH1 0x1 PUSH1 0xA0 SHL SUB AND SWAP1 DUP2 ISZERO PUSH2 0x3379 JUMPI PUSH1 0x0 MSTORE PUSH1 0x0 PUSH1 0x20 MSTORE PUSH1 0x40 PUSH1 0x0 KECCAK256 SWAP1 PUSH1 0x0 MSTORE PUSH1 0x20 MSTORE PUSH1 0x40 PUSH1 0x0 KECCAK256 SLOAD SWAP1 JUMP JUMPDEST PUSH1 0x40 MLOAD PUSH3 0x461BCD PUSH1 0xE5 SHL DUP2 MSTORE PUSH1 0x20 PUSH1 0x4 DUP3 ADD MSTORE PUSH1 0x2A PUSH1 0x24 DUP3 ADD MSTORE PUSH32 0x455243313135353A2061646472657373207A65726F206973206E6F7420612076 PUSH1 0x44 DUP3 ADD MSTORE PUSH10 0x30B634B21037BBB732B9 PUSH1 0xB1 SHL PUSH1 0x64 DUP3 ADD MSTORE PUSH1 0x84 SWAP1 REVERT JUMPDEST PUSH1 0x0 NOT DUP2 EQ PUSH2 0x33E0 JUMPI PUSH1 0x1 ADD SWAP1 JUMP JUMPDEST PUSH4 0x4E487B71 PUSH1 0xE0 SHL PUSH1 0x0 MSTORE PUSH1 0x11 PUSH1 0x4 MSTORE PUSH1 0x24 PUSH1 0x0 REVERT JUMPDEST DUP1 MLOAD ISZERO PUSH2 0x31C0 JUMPI PUSH1 0x20 ADD SWAP1 JUMP JUMPDEST DUP1 MLOAD DUP3 LT ISZERO PUSH2 0x31C0 JUMPI PUSH1 0x20 SWAP2 PUSH1 0x5 SHL ADD ADD SWAP1 JUMP JUMPDEST ISZERO PUSH2 0x341E JUMPI JUMP JUMPDEST PUSH1 0x40 MLOAD PUSH3 0x461BCD PUSH1 0xE5 SHL DUP2 MSTORE PUSH1 0x20 PUSH1 0x4 DUP3 ADD MSTORE PUSH1 0x2E PUSH1 0x24 DUP3 ADD MSTORE PUSH32 0x455243313135353A2063616C6C6572206973206E6F7420746F6B656E206F776E PUSH1 0x44 DUP3 ADD MSTORE PUSH14 0x195C881BDC88185C1C1C9BDD9959 PUSH1 0x92 SHL PUSH1 0x64 DUP3 ADD MSTORE PUSH1 0x84 SWAP1 REVERT JUMPDEST ISZERO PUSH2 0x3481 JUMPI JUMP JUMPDEST PUSH1 0x40 MLOAD PUSH3 0x461BCD PUSH1 0xE5 SHL DUP2 MSTORE PUSH1 0x20 PUSH1 0x4 DUP3 ADD MSTORE PUSH1 0x25 PUSH1 0x24 DUP3 ADD MSTORE PUSH32 0x455243313135353A207472616E7366657220746F20746865207A65726F206164 PUSH1 0x44 DUP3 ADD MSTORE PUSH5 0x6472657373 PUSH1 0xD8 SHL PUSH1 0x64 DUP3 ADD MSTORE PUSH1 0x84 SWAP1 REVERT JUMPDEST ISZERO PUSH2 0x34DB JUMPI JUMP JUMPDEST PUSH1 0x40 MLOAD PUSH3 0x461BCD PUSH1 0xE5 SHL DUP2 MSTORE PUSH1 0x20 PUSH1 0x4 DUP3 ADD MSTORE PUSH1 0x2A PUSH1 0x24 DUP3 ADD MSTORE PUSH32 0x455243313135353A20696E73756666696369656E742062616C616E636520666F PUSH1 0x44 DUP3 ADD MSTORE PUSH10 0x39103A3930B739B332B9 PUSH1 0xB1 SHL PUSH1 0x64 DUP3 ADD MSTORE PUSH1 0x84 SWAP1 REVERT JUMPDEST SWAP2 SWAP1 DUP3 ADD DUP1 SWAP3 GT PUSH2 0x33E0 JUMPI JUMP JUMPDEST SWAP1 DUP2 PUSH1 0x20 SWAP2 SUB SLT PUSH2 0x2B5 JUMPI MLOAD PUSH1 0x1 PUSH1 0x1 PUSH1 0xE0 SHL SUB NOT DUP2 AND DUP2 SUB PUSH2 0x2B5 JUMPI SWAP1 JUMP JUMPDEST PUSH1 0x80 SWAP1 PUSH1 0x20 DUP2 MSTORE PUSH1 0x28 PUSH1 0x20 DUP3 ADD MSTORE PUSH32 0x455243313135353A204552433131353552656365697665722072656A65637465 PUSH1 0x40 DUP3 ADD MSTORE PUSH8 0x6420746F6B656E73 PUSH1 0xC0 SHL PUSH1 0x60 DUP3 ADD MSTORE ADD SWAP1 JUMP JUMPDEST PUSH1 0x0 SWAP1 PUSH1 0x3 RETURNDATASIZE GT PUSH2 0x35B6 JUMPI JUMP JUMPDEST SWAP1 POP PUSH1 0x4 PUSH1 0x0 DUP1 RETURNDATACOPY PUSH1 0x0 MLOAD PUSH1 0xE0 SHR SWAP1 JUMP JUMPDEST PUSH1 0x0 PUSH1 0x44 RETURNDATASIZE LT PUSH2 0x3624 JUMPI PUSH1 0x40 MLOAD PUSH1 0x3 NOT SWAP2 RETURNDATASIZE DUP4 ADD PUSH1 0x4 DUP4 RETURNDATACOPY DUP2 MLOAD PUSH1 0x1 PUSH1 0x1 PUSH1 0x40 SHL SUB SWAP2 DUP3 DUP3 GT RETURNDATASIZE PUSH1 0x24 DUP5 ADD GT OR PUSH2 0x3627 JUMPI DUP2 DUP5 ADD SWAP5 DUP6 MLOAD SWAP4 DUP5 GT PUSH2 0x362F JUMPI RETURNDATASIZE DUP6 ADD ADD PUSH1 0x20 DUP5 DUP8 ADD ADD GT PUSH2 0x3627 JUMPI POP PUSH2 0x3624 SWAP3 SWAP2 ADD PUSH1 0x20 ADD SWAP1 PUSH2 0x2F71 JUMP JUMPDEST SWAP1 JUMP JUMPDEST SWAP5 SWAP4 POP POP POP POP JUMP JUMPDEST POP SWAP5 SWAP4 POP POP POP POP JUMP JUMPDEST PUSH1 0x80 SWAP1 PUSH1 0x20 DUP2 MSTORE PUSH1 0x34 PUSH1 0x20 DUP3 ADD MSTORE PUSH32 0x455243313135353A207472616E7366657220746F206E6F6E2D45524331313535 PUSH1 0x40 DUP3 ADD MSTORE PUSH20 0x2932B1B2B4BB32B91034B6B83632B6B2B73A32B9 PUSH1 0x61 SHL PUSH1 0x60 DUP3 ADD MSTORE ADD SWAP1 JUMP JUMPDEST PUSH1 0x40 MLOAD SWAP1 PUSH2 0x369A DUP3 PUSH2 0x2F05 JUMP JUMPDEST PUSH1 0x1 DUP3 MSTORE PUSH1 0x20 CALLDATASIZE DUP2 DUP5 ADD CALLDATACOPY PUSH2 0x36AE DUP3 PUSH2 0x33F6 JUMP JUMPDEST MSTORE SWAP1 JUMP JUMPDEST PUSH1 0x1 PUSH1 0x1 PUSH1 0xA0 SHL SUB AND PUSH1 0x0 SWAP1 DUP2 MSTORE PUSH1 0x7 PUSH1 0x20 MSTORE PUSH1 0x40 SWAP1 KECCAK256 SLOAD ISZERO ISZERO SWAP1 JUMP JUMPDEST ISZERO PUSH2 0x36D6 JUMPI JUMP JUMPDEST PUSH1 0x40 MLOAD PUSH3 0x461BCD PUSH1 0xE5 SHL DUP2 MSTORE PUSH1 0x20 PUSH1 0x4 DUP3 ADD MSTORE PUSH1 0x15 PUSH1 0x24 DUP3 ADD MSTORE PUSH21 0x506C6179657220646F65736E277420657869737421 PUSH1 0x58 SHL PUSH1 0x44 DUP3 ADD MSTORE PUSH1 0x64 SWAP1 REVERT JUMPDEST SWAP1 PUSH1 0x40 MLOAD PUSH2 0x3720 DUP2 PUSH2 0x2F3B JUMP JUMPDEST PUSH1 0x80 PUSH1 0xFF PUSH1 0x4 DUP4 SWAP6 PUSH1 0x1 DUP1 PUSH1 0xA0 SHL SUB DUP2 SLOAD AND DUP6 MSTORE PUSH2 0x3740 PUSH1 0x1 DUP3 ADD PUSH2 0x3210 JUMP JUMPDEST PUSH1 0x20 DUP7 ADD MSTORE PUSH1 0x2 DUP2 ADD SLOAD PUSH1 0x40 DUP7 ADD MSTORE PUSH1 0x3 DUP2 ADD SLOAD PUSH1 0x60 DUP7 ADD MSTORE ADD SLOAD AND ISZERO ISZERO SWAP2 ADD MSTORE JUMP JUMPDEST PUSH2 0x37B8 PUSH1 0x40 PUSH1 0x80 PUSH2 0x3624 SWAP4 DUP3 MLOAD PUSH2 0x3779 DUP2 PUSH2 0x2F3B JUMP JUMPDEST PUSH1 0x0 SWAP3 DUP2 DUP5 DUP1 SWAP4 MSTORE PUSH1 0x60 PUSH1 0x20 DUP3 ADD MSTORE DUP3 DUP7 DUP3 ADD MSTORE DUP3 PUSH1 0x60 DUP3 ADD MSTORE ADD MSTORE PUSH2 0x37A1 PUSH2 0x8CE DUP3 PUSH2 0x36B2 JUMP JUMPDEST PUSH1 0x1 PUSH1 0x1 PUSH1 0xA0 SHL SUB AND DUP2 MSTORE PUSH1 0x7 PUSH1 0x20 MSTORE KECCAK256 SLOAD PUSH2 0x32D5 JUMP JUMPDEST POP PUSH2 0x3713 JUMP JUMPDEST PUSH1 0x1 PUSH1 0x1 PUSH1 0xA0 SHL SUB AND PUSH1 0x0 SWAP1 DUP2 MSTORE PUSH1 0x8 PUSH1 0x20 MSTORE PUSH1 0x40 SWAP1 KECCAK256 SLOAD PUSH2 0x37DF JUMPI PUSH1 0x0 SWAP1 JUMP JUMPDEST PUSH1 0x1 SWAP1 JUMP JUMPDEST PUSH1 0x40 MLOAD SWAP1 PUSH2 0x37F1 DUP3 PUSH2 0x2F56 JUMP JUMPDEST PUSH1 0x0 PUSH1 0x60 DUP4 DUP2 DUP2 MSTORE DUP3 PUSH1 0x20 DUP3 ADD MSTORE DUP3 PUSH1 0x40 DUP3 ADD MSTORE ADD MSTORE JUMP JUMPDEST SWAP1 PUSH1 0x40 MLOAD PUSH2 0x3816 DUP2 PUSH2 0x2F56 JUMP JUMPDEST PUSH1 0x60 PUSH1 0x3 DUP3 SWAP5 PUSH2 0x3825 DUP2 PUSH2 0x3210 JUMP JUMPDEST DUP5 MSTORE PUSH1 0x1 DUP2 ADD SLOAD PUSH1 0x20 DUP6 ADD MSTORE PUSH1 0x2 DUP2 ADD SLOAD PUSH1 0x40 DUP6 ADD MSTORE ADD SLOAD SWAP2 ADD MSTORE JUMP JUMPDEST PUSH2 0x384A PUSH2 0x37E4 JUMP JUMPDEST POP PUSH2 0x3854 DUP2 PUSH2 0x37BE JUMP JUMPDEST ISZERO PUSH2 0x3880 JUMPI PUSH1 0x1 DUP1 PUSH1 0xA0 SHL SUB AND PUSH1 0x0 MSTORE PUSH1 0x8 PUSH1 0x20 MSTORE PUSH2 0x3624 PUSH2 0x387A PUSH1 0x40 PUSH1 0x0 KECCAK256 SLOAD PUSH2 0x32B6 JUMP JUMPDEST POP PUSH2 0x3809 JUMP JUMPDEST PUSH1 0x40 MLOAD PUSH3 0x461BCD PUSH1 0xE5 SHL DUP2 MSTORE PUSH1 0x20 PUSH1 0x4 DUP3 ADD MSTORE PUSH1 0x19 PUSH1 0x24 DUP3 ADD MSTORE PUSH25 0x47616D6520746F6B656E20646F65736E277420657869737421 PUSH1 0x38 SHL PUSH1 0x44 DUP3 ADD MSTORE PUSH1 0x64 SWAP1 REVERT JUMPDEST PUSH1 0x20 PUSH2 0x38DA SWAP2 DUP2 PUSH1 0x40 MLOAD SWAP4 DUP3 DUP6 DUP1 SWAP5 MLOAD SWAP4 DUP5 SWAP3 ADD PUSH2 0x2E89 JUMP JUMPDEST DUP2 ADD PUSH1 0x9 DUP2 MSTORE SUB ADD SWAP1 KECCAK256 SLOAD ISZERO PUSH1 0x0 EQ PUSH2 0x37DF JUMPI PUSH1 0x0 SWAP1 JUMP JUMPDEST PUSH1 0x40 SWAP1 PUSH1 0x0 PUSH1 0xA0 DUP4 MLOAD PUSH2 0x3904 DUP2 PUSH2 0x2F20 JUMP JUMPDEST DUP1 SWAP5 DUP4 DUP3 MSTORE DUP4 PUSH1 0x20 DUP4 ADD MSTORE PUSH1 0x60 DUP2 DUP4 ADD MSTORE DUP1 MLOAD PUSH2 0x3920 DUP2 PUSH2 0x2F05 JUMP JUMPDEST DUP2 CALLDATASIZE DUP3 CALLDATACOPY PUSH1 0x60 DUP4 ADD MSTORE DUP1 MLOAD SWAP1 PUSH2 0x3935 DUP3 PUSH2 0x2F05 JUMP JUMPDEST CALLDATASIZE DUP3 CALLDATACOPY PUSH1 0x80 DUP3 ADD MSTORE ADD MSTORE JUMP JUMPDEST SWAP1 PUSH1 0x40 MLOAD PUSH2 0x394E DUP2 PUSH2 0x2F20 JUMP JUMPDEST DUP1 SWAP3 PUSH1 0xFF DUP2 SLOAD AND PUSH1 0x3 DUP2 LT ISZERO PUSH2 0x19FE JUMPI DUP3 MSTORE PUSH1 0x1 DUP1 DUP3 ADD SLOAD SWAP1 PUSH1 0x20 SWAP2 DUP3 DUP6 ADD MSTORE PUSH1 0x2 SWAP1 PUSH2 0x397C DUP3 DUP6 ADD PUSH2 0x3210 JUMP JUMPDEST PUSH1 0x40 DUP7 ADD MSTORE PUSH1 0x40 MLOAD SWAP2 DUP3 PUSH1 0x3 DUP7 ADD PUSH1 0x0 SWAP2 JUMPDEST DUP4 DUP4 LT PUSH2 0x39E5 JUMPI POP POP POP POP POP SWAP1 DUP2 PUSH2 0x39A8 PUSH1 0xA0 SWAP5 SWAP4 PUSH2 0x2F05 JUMP JUMPDEST PUSH1 0x60 DUP6 ADD MSTORE PUSH1 0x40 MLOAD SWAP1 PUSH1 0xFF PUSH1 0x5 DUP5 ADD SLOAD DUP2 DUP2 AND DUP5 MSTORE PUSH1 0x8 SHR AND SWAP1 DUP3 ADD MSTORE PUSH2 0x39CE DUP2 PUSH2 0x2F05 JUMP JUMPDEST PUSH1 0x80 DUP5 ADD MSTORE PUSH1 0x6 ADD SLOAD PUSH1 0x0 NOT PUSH1 0x1 DUP4 SHL ADD AND SWAP2 ADD MSTORE JUMP JUMPDEST DUP2 SLOAD PUSH1 0x1 PUSH1 0x1 PUSH1 0xA0 SHL SUB AND DUP2 MSTORE SWAP2 DUP5 ADD SWAP2 SWAP1 DUP5 ADD SWAP1 DUP7 ADD PUSH2 0x398E JUMP JUMPDEST PUSH2 0x3A09 PUSH2 0x38F2 JUMP JUMPDEST POP PUSH2 0x3A13 DUP2 PUSH2 0x38C1 JUMP JUMPDEST ISZERO PUSH2 0x3A3D JUMPI PUSH2 0x3A37 PUSH2 0xC5B PUSH1 0x20 PUSH2 0x3624 SWAP4 DUP2 PUSH1 0x40 MLOAD SWAP4 DUP3 DUP6 DUP1 SWAP5 MLOAD SWAP4 DUP5 SWAP3 ADD PUSH2 0x2E89 JUMP JUMPDEST POP PUSH2 0x3941 JUMP JUMPDEST PUSH1 0x40 MLOAD PUSH3 0x461BCD PUSH1 0xE5 SHL DUP2 MSTORE PUSH1 0x20 PUSH1 0x4 DUP3 ADD MSTORE PUSH1 0x15 PUSH1 0x24 DUP3 ADD MSTORE PUSH21 0x426174746C6520646F65736E277420657869737421 PUSH1 0x58 SHL PUSH1 0x44 DUP3 ADD MSTORE PUSH1 0x64 SWAP1 REVERT JUMPDEST DUP2 DUP2 LT PUSH2 0x3A85 JUMPI POP POP JUMP JUMPDEST PUSH1 0x0 DUP2 SSTORE PUSH1 0x1 ADD PUSH2 0x3A7A JUMP JUMPDEST ISZERO PUSH2 0x3A98 JUMPI JUMP JUMPDEST PUSH1 0x40 MLOAD PUSH3 0x461BCD PUSH1 0xE5 SHL DUP2 MSTORE PUSH1 0x20 PUSH1 0x4 DUP3 ADD MSTORE PUSH1 0x1C PUSH1 0x24 DUP3 ADD MSTORE PUSH32 0x506C6561736520526567697374657220506C6179657220466972737400000000 PUSH1 0x44 DUP3 ADD MSTORE PUSH1 0x64 SWAP1 REVERT JUMPDEST PUSH1 0x80 PUSH2 0x3AE8 CALLER PUSH2 0x3763 JUMP JUMPDEST ADD MLOAD PUSH2 0x3F6F JUMPI PUSH2 0x3AFA PUSH2 0x2876 CALLER PUSH2 0x36B2 JUMP JUMPDEST PUSH2 0x3B02 PUSH2 0x37E4 JUMP JUMPDEST POP PUSH2 0x3B0C CALLER PUSH2 0x3FB9 JUMP JUMPDEST DUP1 PUSH1 0xA SUB SWAP1 PUSH1 0xA DUP3 GT PUSH2 0x33E0 JUMPI PUSH1 0x40 SWAP1 DUP2 MLOAD PUSH1 0x20 SWAP1 DUP2 DUP2 ADD SWAP1 TIMESTAMP DUP3 MSTORE CALLER PUSH1 0x60 SHL DUP6 DUP3 ADD MSTORE PUSH1 0x34 DUP2 MSTORE PUSH1 0x60 DUP2 ADD SWAP7 PUSH1 0x1 PUSH1 0x1 PUSH1 0x40 SHL SUB SWAP3 DUP3 DUP10 LT DUP5 DUP11 GT OR PUSH2 0x1E21 JUMPI PUSH1 0xFF PUSH1 0x64 PUSH1 0x6 SWAP3 DUP12 DUP11 MSTORE DUP6 MLOAD SWAP1 KECCAK256 MOD AND MOD PUSH1 0xFF DUP2 AND SWAP2 DUP3 ISZERO PUSH2 0x3F59 JUMPI JUMPDEST PUSH1 0xFF SWAP3 POP PUSH2 0x3B77 DUP11 PUSH2 0x2F56 JUMP JUMPDEST DUP10 MSTORE AND SWAP7 PUSH1 0x80 DUP3 ADD SWAP2 DUP9 DUP4 MSTORE PUSH1 0xC0 PUSH1 0xA0 DUP3 ADD SWAP2 DUP8 DUP4 MSTORE ADD SWAP1 DUP9 DUP3 MSTORE PUSH1 0xB SLOAD SWAP4 PUSH1 0x1 PUSH1 0x40 SHL DUP6 LT ISZERO PUSH2 0x1E21 JUMPI PUSH1 0x1 SWAP6 DUP7 DUP7 ADD PUSH1 0xB SSTORE PUSH2 0x3BB4 DUP7 PUSH2 0x32B6 JUMP JUMPDEST SWAP6 SWAP1 SWAP6 PUSH2 0x1E37 JUMPI MLOAD DUP1 MLOAD SWAP2 DUP3 GT PUSH2 0x1E21 JUMPI PUSH2 0x3BCF DUP7 SLOAD PUSH2 0x31D6 JUMP JUMPDEST PUSH1 0x1F DUP2 GT PUSH2 0x3F29 JUMPI JUMPDEST POP DUP9 SWAP1 PUSH1 0x1F DUP4 GT PUSH1 0x1 EQ PUSH2 0x3EC1 JUMPI PUSH1 0x3 SWAP6 SWAP5 SWAP4 SWAP3 SWAP2 PUSH1 0x0 SWAP2 DUP4 PUSH2 0x3EB6 JUMPI JUMPDEST POP POP PUSH1 0x0 NOT DUP3 DUP8 SHL SHR NOT AND SWAP1 DUP9 SHL OR DUP6 SSTORE JUMPDEST MLOAD DUP7 DUP6 ADD SSTORE MLOAD PUSH1 0x2 DUP5 ADD SSTORE MLOAD SWAP2 ADD SSTORE CALLER PUSH1 0x0 MSTORE PUSH1 0x8 DUP4 MSTORE DUP5 PUSH1 0x0 KECCAK256 SSTORE DUP4 MLOAD PUSH2 0x3C2F DUP2 PUSH2 0x2F05 JUMP JUMPDEST PUSH1 0x3 DUP2 MSTORE PUSH3 0x30783 PUSH1 0xEC SHL DUP4 DUP3 ADD MSTORE CALLER ISZERO PUSH2 0x3E68 JUMPI PUSH2 0x3C4D DUP8 PUSH2 0x368D JUMP JUMPDEST DUP3 DUP7 MLOAD SWAP2 PUSH2 0x3C5A DUP4 PUSH2 0x2F05 JUMP JUMPDEST DUP2 DUP4 MSTORE DUP6 CALLDATASIZE DUP2 DUP6 ADD CALLDATACOPY DUP2 PUSH2 0x3C6D DUP5 PUSH2 0x33F6 JUMP JUMPDEST MSTORE PUSH1 0x0 DUP3 JUMPDEST PUSH2 0x3E24 JUMPI JUMPDEST POP POP POP POP DUP7 PUSH1 0x0 MSTORE PUSH1 0x0 DUP4 MSTORE DUP5 PUSH1 0x0 KECCAK256 CALLER PUSH1 0x0 MSTORE DUP4 MSTORE DUP5 PUSH1 0x0 KECCAK256 DUP1 SLOAD SWAP1 DUP4 DUP3 ADD DUP1 SWAP3 GT PUSH2 0x33E0 JUMPI SSTORE DUP5 MLOAD DUP8 DUP2 MSTORE DUP3 DUP5 DUP3 ADD MSTORE PUSH1 0x0 CALLER SWAP2 PUSH32 0xC3D58168C5AE7397731D063D5BBF3D657854427343F4C083240F7AACAA2D0F62 DUP9 CALLER SWAP3 LOG4 CALLER EXTCODESIZE PUSH2 0x3D1C JUMPI JUMPDEST POP POP PUSH2 0x3CE6 PUSH1 0x6 SLOAD PUSH2 0x33D1 JUMP JUMPDEST PUSH1 0x6 SSTORE DUP3 MLOAD SWAP5 DUP6 MSTORE DUP5 ADD MSTORE DUP3 ADD MSTORE PUSH32 0xCA8AB07E9ED17D119729FC652DD24DF9D8430CA862DDA4631925B5B4B99DA362 PUSH1 0x60 CALLER SWAP3 LOG2 JUMP JUMPDEST DUP5 MLOAD DUP4 DUP2 DUP1 PUSH2 0x3D5A PUSH4 0xF23A6E61 PUSH1 0xE0 SHL SWAP6 DUP7 DUP4 MSTORE CALLER PUSH1 0x4 DUP5 ADD MSTORE PUSH1 0x0 PUSH1 0x24 DUP5 ADD MSTORE DUP13 PUSH1 0x44 DUP5 ADD MSTORE DUP8 PUSH1 0x64 DUP5 ADD MSTORE PUSH1 0xA0 PUSH1 0x84 DUP5 ADD MSTORE PUSH1 0xA4 DUP4 ADD SWAP1 PUSH2 0x2EAC JUMP JUMPDEST SUB DUP2 PUSH1 0x0 CALLER GAS CALL PUSH1 0x0 SWAP2 DUP2 PUSH2 0x3E05 JUMPI JUMPDEST POP PUSH2 0x3DDC JUMPI POP POP PUSH2 0x3D79 PUSH2 0x35A9 JUMP JUMPDEST PUSH4 0x8C379A0 EQ PUSH2 0x3DA8 JUMPI JUMPDEST PUSH2 0x3D90 JUMPI JUMPDEST CODESIZE DUP1 PUSH2 0x3CD9 JUMP JUMPDEST DUP3 MLOAD PUSH3 0x461BCD PUSH1 0xE5 SHL DUP2 MSTORE DUP1 PUSH2 0x569 PUSH1 0x4 DUP3 ADD PUSH2 0x3638 JUMP JUMPDEST PUSH2 0x3DB0 PUSH2 0x35C7 JUMP JUMPDEST DUP1 PUSH2 0x3DBB JUMPI POP PUSH2 0x3D84 JUMP JUMPDEST DUP3 PUSH2 0x569 DUP7 MLOAD SWAP3 DUP4 SWAP3 PUSH3 0x461BCD PUSH1 0xE5 SHL DUP5 MSTORE PUSH1 0x4 DUP5 ADD MSTORE PUSH1 0x24 DUP4 ADD SWAP1 PUSH2 0x2EAC JUMP JUMPDEST PUSH1 0x1 PUSH1 0x1 PUSH1 0xE0 SHL SUB NOT AND EQ SWAP1 POP PUSH2 0x3D89 JUMPI DUP3 MLOAD PUSH3 0x461BCD PUSH1 0xE5 SHL DUP2 MSTORE DUP1 PUSH2 0x569 PUSH1 0x4 DUP3 ADD PUSH2 0x3560 JUMP JUMPDEST PUSH2 0x3E1D SWAP2 SWAP3 POP DUP6 RETURNDATASIZE DUP8 GT PUSH2 0x5F4 JUMPI PUSH2 0x5E5 DUP2 DUP4 PUSH2 0x2F71 JUMP JUMPDEST SWAP1 CODESIZE PUSH2 0x3D6A JUMP JUMPDEST DUP2 MLOAD DUP2 LT ISZERO PUSH2 0x3E63 JUMPI DUP1 PUSH2 0x3E3B PUSH2 0x3E5D SWAP3 DUP7 PUSH2 0x3403 JUMP JUMPDEST MLOAD PUSH2 0x3E46 DUP3 DUP6 PUSH2 0x3403 JUMP JUMPDEST MLOAD PUSH1 0x0 MSTORE PUSH1 0x4 DUP10 MSTORE PUSH2 0x701 DUP12 PUSH1 0x0 KECCAK256 SWAP2 DUP3 SLOAD PUSH2 0x3533 JUMP JUMPDEST DUP3 PUSH2 0x3C72 JUMP JUMPDEST PUSH2 0x3C77 JUMP JUMPDEST DUP5 MLOAD PUSH3 0x461BCD PUSH1 0xE5 SHL DUP2 MSTORE PUSH1 0x4 DUP2 ADD DUP5 SWAP1 MSTORE PUSH1 0x21 PUSH1 0x24 DUP3 ADD MSTORE PUSH32 0x455243313135353A206D696E7420746F20746865207A65726F20616464726573 PUSH1 0x44 DUP3 ADD MSTORE PUSH1 0x73 PUSH1 0xF8 SHL PUSH1 0x64 DUP3 ADD MSTORE PUSH1 0x84 SWAP1 REVERT JUMPDEST ADD MLOAD SWAP1 POP CODESIZE DUP1 PUSH2 0x3BF6 JUMP JUMPDEST SWAP5 SWAP4 SWAP3 SWAP2 DUP9 SWAP2 PUSH1 0x1F NOT DUP3 AND SWAP1 DUP9 PUSH1 0x0 MSTORE DUP12 PUSH1 0x0 KECCAK256 SWAP2 PUSH1 0x0 JUMPDEST DUP14 DUP3 DUP3 LT PUSH2 0x3F13 JUMPI POP POP SWAP8 DUP4 PUSH1 0x3 SWAP10 LT PUSH2 0x3EFB JUMPI JUMPDEST POP POP POP DUP2 SHL ADD DUP6 SSTORE PUSH2 0x3C08 JUMP JUMPDEST ADD MLOAD PUSH1 0x0 NOT DUP4 DUP10 SHL PUSH1 0xF8 AND SHR NOT AND SWAP1 SSTORE CODESIZE DUP1 DUP1 PUSH2 0x3EEE JUMP JUMPDEST DUP4 DUP12 ADD MLOAD DUP6 SSTORE DUP14 SWAP7 SWAP1 SWAP5 ADD SWAP4 SWAP3 DUP4 ADD SWAP3 ADD PUSH2 0x3ED9 JUMP JUMPDEST PUSH2 0x3F53 SWAP1 DUP8 PUSH1 0x0 MSTORE DUP11 PUSH1 0x0 KECCAK256 PUSH1 0x1F DUP6 ADD PUSH1 0x5 SHR DUP2 ADD SWAP2 DUP13 DUP7 LT PUSH2 0x1E17 JUMPI PUSH1 0x1F ADD PUSH1 0x5 SHR ADD SWAP1 PUSH2 0x3A7A JUMP JUMPDEST CODESIZE PUSH2 0x3BD8 JUMP JUMPDEST SWAP1 POP PUSH1 0xFF DUP3 EQ PUSH2 0x33E0 JUMPI PUSH1 0x1 PUSH1 0xFF SWAP3 ADD SWAP1 PUSH2 0x3B6A JUMP JUMPDEST PUSH1 0x40 MLOAD PUSH3 0x461BCD PUSH1 0xE5 SHL DUP2 MSTORE PUSH1 0x20 PUSH1 0x4 DUP3 ADD MSTORE PUSH1 0x15 PUSH1 0x24 DUP3 ADD MSTORE PUSH21 0x506C6179657220697320696E206120626174746C65 PUSH1 0x58 SHL PUSH1 0x44 DUP3 ADD MSTORE PUSH1 0x64 SWAP1 REVERT JUMPDEST SWAP2 SWAP1 DUP3 SUB SWAP2 DUP3 GT PUSH2 0x33E0 JUMPI JUMP JUMPDEST PUSH1 0xA SWAP1 PUSH1 0x40 MLOAD PUSH1 0x20 DUP2 ADD SWAP2 DIFFICULTY DUP4 MSTORE TIMESTAMP PUSH1 0x40 DUP4 ADD MSTORE PUSH12 0xFFFFFFFFFFFFFFFFFFFFFFFF NOT SWAP1 PUSH1 0x60 SHL AND PUSH1 0x60 DUP3 ADD MSTORE PUSH1 0x54 DUP2 MSTORE PUSH2 0x3FF2 DUP2 PUSH2 0x2F56 JUMP JUMPDEST MLOAD SWAP1 KECCAK256 MOD DUP1 ISZERO PUSH2 0x3FFF JUMPI SWAP1 JUMP JUMPDEST POP PUSH1 0x5 SWAP1 JUMP JUMPDEST SWAP3 SWAP2 SWAP1 PUSH2 0x1E37 JUMPI DUP1 MLOAD SWAP3 PUSH1 0x3 DUP1 DUP6 LT ISZERO PUSH2 0x19FE JUMPI PUSH1 0xFF NOT DUP3 SLOAD AND PUSH1 0xFF DUP1 SWAP7 AND OR DUP3 SSTORE PUSH1 0x20 SWAP1 DUP2 DUP5 ADD MLOAD SWAP1 PUSH1 0x1 SWAP2 DUP3 DUP6 ADD SSTORE PUSH1 0x2 SWAP1 DUP2 DUP6 ADD PUSH1 0x40 DUP8 ADD MLOAD DUP1 MLOAD SWAP1 PUSH1 0x1 PUSH1 0x1 PUSH1 0x40 SHL SUB DUP3 GT PUSH2 0x1E21 JUMPI DUP2 SWAP1 PUSH2 0x405E DUP5 SLOAD PUSH2 0x31D6 JUMP JUMPDEST PUSH1 0x1F DUP2 GT PUSH2 0x41A5 JUMPI JUMPDEST POP DUP8 SWAP1 PUSH1 0x1F DUP4 GT PUSH1 0x1 EQ PUSH2 0x4143 JUMPI PUSH1 0x0 SWAP3 PUSH2 0x4138 JUMPI JUMPDEST POP POP PUSH1 0x0 NOT DUP3 DUP6 SHL SHR NOT AND SWAP1 DUP6 SHL OR SWAP1 SSTORE JUMPDEST PUSH1 0x60 DUP7 ADD MLOAD PUSH1 0x0 JUMPDEST DUP4 DUP2 LT PUSH2 0x411C JUMPI POP POP POP SWAP1 PUSH1 0x80 DUP6 ADD MLOAD SWAP2 PUSH1 0x0 SWAP4 DUP5 JUMPDEST DUP3 DUP2 LT PUSH2 0x40EC JUMPI POP POP POP POP POP PUSH1 0x5 DUP3 ADD SSTORE PUSH1 0xA0 SWAP1 SWAP2 ADD MLOAD PUSH1 0x6 SWAP2 SWAP1 SWAP2 ADD DUP1 SLOAD PUSH1 0x1 PUSH1 0x1 PUSH1 0xA0 SHL SUB NOT AND PUSH1 0x1 PUSH1 0x1 PUSH1 0xA0 SHL SUB SWAP3 SWAP1 SWAP3 AND SWAP2 SWAP1 SWAP2 OR SWAP1 SSTORE SWAP1 POP JUMP JUMPDEST SWAP1 SWAP2 SWAP3 DUP3 PUSH2 0x4110 DUP7 SWAP8 DUP5 DUP14 DUP6 SWAP10 MLOAD AND SWAP2 SWAP1 PUSH1 0x3 SHL PUSH1 0xFF DUP2 SHL SWAP3 DUP4 SWAP2 SHL AND SWAP2 NOT AND OR SWAP1 JUMP JUMPDEST SWAP7 ADD SWAP5 SWAP4 SWAP3 SWAP2 ADD PUSH2 0x40AD JUMP JUMPDEST DUP2 MLOAD PUSH1 0x1 PUSH1 0x1 PUSH1 0xA0 SHL SUB AND DUP8 DUP3 ADD DUP5 ADD SSTORE SWAP1 DUP6 ADD SWAP1 DUP5 ADD PUSH2 0x4097 JUMP JUMPDEST ADD MLOAD SWAP1 POP CODESIZE DUP1 PUSH2 0x407D JUMP JUMPDEST SWAP1 DUP8 SWAP4 POP PUSH1 0x1F NOT DUP4 AND SWAP2 DUP6 PUSH1 0x0 MSTORE DUP10 PUSH1 0x0 KECCAK256 SWAP3 PUSH1 0x0 JUMPDEST DUP12 DUP3 DUP3 LT PUSH2 0x418F JUMPI POP POP DUP5 GT PUSH2 0x4177 JUMPI JUMPDEST POP POP POP DUP2 SHL ADD SWAP1 SSTORE PUSH2 0x408F JUMP JUMPDEST ADD MLOAD PUSH1 0x0 NOT DUP4 DUP8 SHL PUSH1 0xF8 AND SHR NOT AND SWAP1 SSTORE CODESIZE DUP1 DUP1 PUSH2 0x416A JUMP JUMPDEST DUP4 DUP6 ADD MLOAD DUP7 SSTORE DUP12 SWAP8 SWAP1 SWAP6 ADD SWAP5 SWAP4 DUP5 ADD SWAP4 ADD PUSH2 0x4159 JUMP JUMPDEST PUSH2 0x41CF SWAP1 DUP6 PUSH1 0x0 MSTORE DUP10 PUSH1 0x0 KECCAK256 PUSH1 0x1F DUP6 ADD PUSH1 0x5 SHR DUP2 ADD SWAP2 DUP12 DUP7 LT PUSH2 0x1E17 JUMPI PUSH1 0x1F ADD PUSH1 0x5 SHR ADD SWAP1 PUSH2 0x3A7A JUMP JUMPDEST CODESIZE PUSH2 0x4067 JUMP JUMPDEST SWAP1 PUSH2 0x41DF DUP3 PUSH2 0x38C1 JUMP JUMPDEST ISZERO PUSH2 0x4203 JUMPI PUSH2 0x2955 PUSH2 0xC5B PUSH1 0x20 PUSH2 0x324E SWAP5 DUP2 PUSH1 0x40 MLOAD SWAP4 DUP3 DUP6 DUP1 SWAP5 MLOAD SWAP4 DUP5 SWAP3 ADD PUSH2 0x2E89 JUMP JUMPDEST PUSH1 0x40 MLOAD PUSH3 0x461BCD PUSH1 0xE5 SHL DUP2 MSTORE PUSH1 0x20 PUSH1 0x4 DUP3 ADD MSTORE PUSH1 0x14 PUSH1 0x24 DUP3 ADD MSTORE PUSH20 0x10985D1D1B1948191BD95CDB89DD08195E1A5CDD PUSH1 0x62 SHL PUSH1 0x44 DUP3 ADD MSTORE PUSH1 0x64 SWAP1 REVERT JUMPDEST PUSH2 0x4247 PUSH2 0x38F2 JUMP JUMPDEST POP DUP2 MLOAD PUSH1 0x3 DUP2 LT ISZERO PUSH2 0x19FE JUMPI PUSH1 0x2 EQ PUSH2 0x4366 JUMPI PUSH1 0x2 DUP3 MSTORE PUSH1 0x1 DUP1 PUSH1 0xA0 SHL SUB DUP1 SWAP2 AND DUP1 PUSH1 0xA0 DUP5 ADD MSTORE PUSH32 0xAE6E5EAFB6CD1CB4B139E7A0B9140AA182EE7D50E99F50D660156F79212ACBC0 PUSH1 0x40 DUP5 ADD SWAP3 PUSH2 0x429F DUP6 DUP6 MLOAD PUSH2 0x41D5 JUMP JUMPDEST DUP1 PUSH1 0x60 DUP7 ADD DUP2 DUP2 MLOAD MLOAD AND PUSH1 0x0 MSTORE PUSH1 0x7 PUSH1 0x20 MSTORE PUSH1 0xA PUSH1 0x2 PUSH2 0x4325 PUSH1 0x40 PUSH1 0x0 KECCAK256 SLOAD DUP6 PUSH1 0x20 DUP7 MLOAD ADD MLOAD AND PUSH1 0x0 MSTORE PUSH1 0x40 PUSH1 0x0 KECCAK256 SLOAD SWAP1 DUP5 DUP5 PUSH2 0x4302 PUSH1 0x4 PUSH2 0x42E0 DUP6 PUSH2 0x32D5 JUMP JUMPDEST POP ADD SWAP4 PUSH1 0xFF NOT SWAP5 DUP6 DUP2 SLOAD AND SWAP1 SSTORE PUSH1 0x19 PUSH1 0x3 PUSH2 0x42FA DUP4 PUSH2 0x32D5 JUMP JUMPDEST POP ADD SSTORE PUSH2 0x32D5 JUMP JUMPDEST POP ADD SSTORE PUSH1 0x4 PUSH2 0x4310 DUP4 PUSH2 0x32D5 JUMP JUMPDEST POP ADD SWAP1 DUP2 SLOAD AND SWAP1 SSTORE PUSH1 0x19 PUSH1 0x3 PUSH2 0x42FA DUP4 PUSH2 0x32D5 JUMP JUMPDEST POP ADD SSTORE MLOAD DUP1 MLOAD DUP3 AND DUP6 DUP2 SUB PUSH2 0x435D JUMPI POP PUSH1 0x20 ADD MLOAD AND SWAP4 JUMPDEST MLOAD SWAP4 PUSH2 0x4357 PUSH1 0x40 MLOAD SWAP3 DUP4 SWAP3 PUSH1 0x20 DUP5 MSTORE AND SWAP6 PUSH1 0x20 DUP4 ADD SWAP1 PUSH2 0x2EAC JUMP JUMPDEST SUB SWAP1 LOG3 SWAP1 JUMP JUMPDEST SWAP2 POP POP SWAP4 PUSH2 0x433C JUMP JUMPDEST PUSH1 0x40 MLOAD PUSH3 0x461BCD PUSH1 0xE5 SHL DUP2 MSTORE PUSH1 0x20 PUSH1 0x4 DUP3 ADD MSTORE PUSH1 0x14 PUSH1 0x24 DUP3 ADD MSTORE PUSH20 0x10985D1D1B1948185B1C9958591E48195B991959 PUSH1 0x62 SHL PUSH1 0x44 DUP3 ADD MSTORE PUSH1 0x64 SWAP1 REVERT JUMPDEST DUP1 ISZERO PUSH2 0x4464 JUMPI DUP1 DUP2 PUSH1 0x0 SWAP3 JUMPDEST PUSH2 0x4450 JUMPI POP PUSH2 0x43BC DUP3 PUSH2 0x2F92 JUMP JUMPDEST SWAP2 PUSH2 0x43CA PUSH1 0x40 MLOAD SWAP4 DUP5 PUSH2 0x2F71 JUMP JUMPDEST DUP1 DUP4 MSTORE DUP2 PUSH1 0x1F NOT PUSH2 0x43DA DUP4 PUSH2 0x2F92 JUMP JUMPDEST ADD SWAP2 PUSH1 0x20 SWAP3 CALLDATASIZE DUP5 DUP8 ADD CALLDATACOPY SWAP3 JUMPDEST PUSH2 0x43F0 JUMPI POP POP POP SWAP1 JUMP JUMPDEST PUSH1 0x0 NOT DUP4 ADD SWAP3 DUP4 GT PUSH2 0x33E0 JUMPI DUP3 PUSH1 0xA DUP1 DUP4 DIV SWAP3 DUP2 DUP5 MUL SWAP2 DUP5 DUP4 DIV EQ DUP5 ISZERO OR ISZERO PUSH2 0x33E0 JUMPI PUSH2 0x4420 PUSH1 0xFF SWAP3 DUP4 SWAP3 PUSH2 0x3FAC JUMP JUMPDEST AND PUSH1 0x30 ADD SWAP1 DUP2 GT PUSH2 0x33E0 JUMPI DUP6 MLOAD DUP3 LT ISZERO PUSH2 0x31C0 JUMPI PUSH1 0xF8 SHL PUSH1 0x1 PUSH1 0x1 PUSH1 0xF8 SHL SUB NOT AND PUSH1 0x0 BYTE SWAP1 DUP6 ADD DUP4 ADD MSTORE8 DUP1 PUSH2 0x43E6 JUMP JUMPDEST SWAP2 PUSH2 0x445C PUSH1 0xA SWAP2 PUSH2 0x33D1 JUMP JUMPDEST SWAP3 DIV DUP1 PUSH2 0x43AE JUMP JUMPDEST POP PUSH1 0x40 MLOAD PUSH2 0x4471 DUP2 PUSH2 0x2F05 JUMP JUMPDEST PUSH1 0x1 DUP2 MSTORE PUSH1 0x3 PUSH1 0xFC SHL PUSH1 0x20 DUP3 ADD MSTORE SWAP1 JUMP INVALID LOG2 PUSH5 0x6970667358 0x22 SLT KECCAK256 LOG0 0xBF DUP9 BLOCKHASH 0xDC 0xD2 0xB2 SLT 0xAF CREATE 0xD8 0xE7 0x5C 0x22 SWAP15 0x2D STOP 0xEE 0xD8 0xAA 0xA6 CALL 0xE5 0xA6 RETURNDATASIZE PUSH26 0x76B82B6082D464736F6C63430008110033405787FA12A823E0F2 0xB7 PUSH4 0x1CC41B3B 0xA8 DUP3 DUP12 CALLER 0x21 0xCA DUP2 GT GT STATICCALL PUSH22 0xCD3AA3BB5ACE00000000000000000000000000000000 "},"methodIdentifiers":{"CELESTION()":"9e4ecd11","DEVIL()":"d2198cc5","FIREBIRD()":"703730a5","GRIFFIN()":"de96cefc","KAMO()":"0677aa4e","KUKULKAN()":"f1da7339","MAX_ATTACK_DEFEND_STRENGTH()":"0daea2cd","attackOrDefendChoice(uint8,string)":"ba274956","balanceOf(address,uint256)":"00fdd58e","balanceOfBatch(address[],uint256[])":"4e1273f4","baseURI()":"6c0360eb","battleInfo(string)":"3835e2b5","battles(uint256)":"606d2e96","createBattle(string)":"2ca04522","createRandomGameToken(string)":"9ec40aa3","exists(uint256)":"4f558e79","gameTokens(uint256)":"bf034b69","getAllBattles()":"5c93fc3d","getAllPlayerTokens()":"015a3792","getAllPlayers()":"efa1c482","getBattle(string)":"16801d17","getBattleMoves(string)":"9b09cc87","getPlayer(address)":"5c12cd4b","getPlayerName(address)":"e18d38ce","getPlayerToken(address)":"10898e4c","getTotalSupply()":"c4e41b22","isApprovedForAll(address,address)":"e985e9c5","isBattle(string)":"1107ae3d","isPlayer(address)":"09c95e10","isPlayerToken(address)":"bf103a4d","joinBattle(string)":"a1b4f57c","owner()":"8da5cb5b","playerInfo(address)":"4b114691","playerTokenInfo(address)":"2711162e","players(uint256)":"f71d96cb","quitBattle(string)":"996d7bea","registerPlayer(string,string)":"845f433b","renounceOwnership()":"715018a6","safeBatchTransferFrom(address,address,uint256[],uint256[],bytes)":"2eb2c2d6","safeTransferFrom(address,address,uint256,uint256,bytes)":"f242432a","setApprovalForAll(address,bool)":"a22cb465","setURI(string)":"02fe5305","supportsInterface(bytes4)":"01ffc9a7","tokenURI(uint256)":"c87b56dd","totalSupply()":"18160ddd","totalSupply(uint256)":"bd85b039","transferOwnership(address)":"f2fde38b","uri(uint256)":"0e89341c"}}}}}