{
  "_format": "hh-sol-artifact-1",
  "contractName": "CardBizz",
  "sourceName": "contracts/AvaxGods.sol",
  "abi": [
    {
      "inputs": [
        {
          "internalType": "string",
          "name": "_metadataURI",
          "type": "string"
        }
      ],
      "stateMutability": "nonpayable",
      "type": "constructor"
    },
    {
      "anonymous": false,
      "inputs": [
        {
          "indexed": true,
          "internalType": "address",
          "name": "account",
          "type": "address"
        },
        {
          "indexed": true,
          "internalType": "address",
          "name": "operator",
          "type": "address"
        },
        {
          "indexed": false,
          "internalType": "bool",
          "name": "approved",
          "type": "bool"
        }
      ],
      "name": "ApprovalForAll",
      "type": "event"
    },
    {
      "anonymous": false,
      "inputs": [
        {
          "indexed": false,
          "internalType": "string",
          "name": "battleName",
          "type": "string"
        },
        {
          "indexed": true,
          "internalType": "address",
          "name": "winner",
          "type": "address"
        },
        {
          "indexed": true,
          "internalType": "address",
          "name": "loser",
          "type": "address"
        }
      ],
      "name": "BattleEnded",
      "type": "event"
    },
    {
      "anonymous": false,
      "inputs": [
        {
          "indexed": true,
          "internalType": "string",
          "name": "battleName",
          "type": "string"
        },
        {
          "indexed": true,
          "internalType": "bool",
          "name": "isFirstMove",
          "type": "bool"
        }
      ],
      "name": "BattleMove",
      "type": "event"
    },
    {
      "anonymous": false,
      "inputs": [
        {
          "indexed": false,
          "internalType": "string",
          "name": "battleName",
          "type": "string"
        },
        {
          "indexed": true,
          "internalType": "address",
          "name": "player1",
          "type": "address"
        },
        {
          "indexed": true,
          "internalType": "address",
          "name": "player2",
          "type": "address"
        }
      ],
      "name": "NewBattle",
      "type": "event"
    },
    {
      "anonymous": false,
      "inputs": [
        {
          "indexed": true,
          "internalType": "address",
          "name": "owner",
          "type": "address"
        },
        {
          "indexed": false,
          "internalType": "uint256",
          "name": "id",
          "type": "uint256"
        },
        {
          "indexed": false,
          "internalType": "uint256",
          "name": "attackStrength",
          "type": "uint256"
        },
        {
          "indexed": false,
          "internalType": "uint256",
          "name": "defenseStrength",
          "type": "uint256"
        }
      ],
      "name": "NewGameToken",
      "type": "event"
    },
    {
      "anonymous": false,
      "inputs": [
        {
          "indexed": true,
          "internalType": "address",
          "name": "owner",
          "type": "address"
        },
        {
          "indexed": false,
          "internalType": "string",
          "name": "name",
          "type": "string"
        }
      ],
      "name": "NewPlayer",
      "type": "event"
    },
    {
      "anonymous": false,
      "inputs": [
        {
          "indexed": true,
          "internalType": "address",
          "name": "previousOwner",
          "type": "address"
        },
        {
          "indexed": true,
          "internalType": "address",
          "name": "newOwner",
          "type": "address"
        }
      ],
      "name": "OwnershipTransferred",
      "type": "event"
    },
    {
      "anonymous": false,
      "inputs": [
        {
          "indexed": false,
          "internalType": "address[2]",
          "name": "damagedPlayers",
          "type": "address[2]"
        }
      ],
      "name": "RoundEnded",
      "type": "event"
    },
    {
      "anonymous": false,
      "inputs": [
        {
          "indexed": true,
          "internalType": "address",
          "name": "operator",
          "type": "address"
        },
        {
          "indexed": true,
          "internalType": "address",
          "name": "from",
          "type": "address"
        },
        {
          "indexed": true,
          "internalType": "address",
          "name": "to",
          "type": "address"
        },
        {
          "indexed": false,
          "internalType": "uint256[]",
          "name": "ids",
          "type": "uint256[]"
        },
        {
          "indexed": false,
          "internalType": "uint256[]",
          "name": "values",
          "type": "uint256[]"
        }
      ],
      "name": "TransferBatch",
      "type": "event"
    },
    {
      "anonymous": false,
      "inputs": [
        {
          "indexed": true,
          "internalType": "address",
          "name": "operator",
          "type": "address"
        },
        {
          "indexed": true,
          "internalType": "address",
          "name": "from",
          "type": "address"
        },
        {
          "indexed": true,
          "internalType": "address",
          "name": "to",
          "type": "address"
        },
        {
          "indexed": false,
          "internalType": "uint256",
          "name": "id",
          "type": "uint256"
        },
        {
          "indexed": false,
          "internalType": "uint256",
          "name": "value",
          "type": "uint256"
        }
      ],
      "name": "TransferSingle",
      "type": "event"
    },
    {
      "anonymous": false,
      "inputs": [
        {
          "indexed": false,
          "internalType": "string",
          "name": "value",
          "type": "string"
        },
        {
          "indexed": true,
          "internalType": "uint256",
          "name": "id",
          "type": "uint256"
        }
      ],
      "name": "URI",
      "type": "event"
    },
    {
      "inputs": [],
      "name": "CELESTION",
      "outputs": [
        {
          "internalType": "uint256",
          "name": "",
          "type": "uint256"
        }
      ],
      "stateMutability": "view",
      "type": "function"
    },
    {
      "inputs": [],
      "name": "DEVIL",
      "outputs": [
        {
          "internalType": "uint256",
          "name": "",
          "type": "uint256"
        }
      ],
      "stateMutability": "view",
      "type": "function"
    },
    {
      "inputs": [],
      "name": "FIREBIRD",
      "outputs": [
        {
          "internalType": "uint256",
          "name": "",
          "type": "uint256"
        }
      ],
      "stateMutability": "view",
      "type": "function"
    },
    {
      "inputs": [],
      "name": "GRIFFIN",
      "outputs": [
        {
          "internalType": "uint256",
          "name": "",
          "type": "uint256"
        }
      ],
      "stateMutability": "view",
      "type": "function"
    },
    {
      "inputs": [],
      "name": "KAMO",
      "outputs": [
        {
          "internalType": "uint256",
          "name": "",
          "type": "uint256"
        }
      ],
      "stateMutability": "view",
      "type": "function"
    },
    {
      "inputs": [],
      "name": "KUKULKAN",
      "outputs": [
        {
          "internalType": "uint256",
          "name": "",
          "type": "uint256"
        }
      ],
      "stateMutability": "view",
      "type": "function"
    },
    {
      "inputs": [],
      "name": "MAX_ATTACK_DEFEND_STRENGTH",
      "outputs": [
        {
          "internalType": "uint256",
          "name": "",
          "type": "uint256"
        }
      ],
      "stateMutability": "view",
      "type": "function"
    },
    {
      "inputs": [
        {
          "internalType": "uint8",
          "name": "_choice",
          "type": "uint8"
        },
        {
          "internalType": "string",
          "name": "_battleName",
          "type": "string"
        }
      ],
      "name": "attackOrDefendChoice",
      "outputs": [],
      "stateMutability": "nonpayable",
      "type": "function"
    },
    {
      "inputs": [
        {
          "internalType": "address",
          "name": "account",
          "type": "address"
        },
        {
          "internalType": "uint256",
          "name": "id",
          "type": "uint256"
        }
      ],
      "name": "balanceOf",
      "outputs": [
        {
          "internalType": "uint256",
          "name": "",
          "type": "uint256"
        }
      ],
      "stateMutability": "view",
      "type": "function"
    },
    {
      "inputs": [
        {
          "internalType": "address[]",
          "name": "accounts",
          "type": "address[]"
        },
        {
          "internalType": "uint256[]",
          "name": "ids",
          "type": "uint256[]"
        }
      ],
      "name": "balanceOfBatch",
      "outputs": [
        {
          "internalType": "uint256[]",
          "name": "",
          "type": "uint256[]"
        }
      ],
      "stateMutability": "view",
      "type": "function"
    },
    {
      "inputs": [],
      "name": "baseURI",
      "outputs": [
        {
          "internalType": "string",
          "name": "",
          "type": "string"
        }
      ],
      "stateMutability": "view",
      "type": "function"
    },
    {
      "inputs": [
        {
          "internalType": "string",
          "name": "",
          "type": "string"
        }
      ],
      "name": "battleInfo",
      "outputs": [
        {
          "internalType": "uint256",
          "name": "",
          "type": "uint256"
        }
      ],
      "stateMutability": "view",
      "type": "function"
    },
    {
      "inputs": [
        {
          "internalType": "uint256",
          "name": "",
          "type": "uint256"
        }
      ],
      "name": "battles",
      "outputs": [
        {
          "internalType": "enum CardBizz.BattleStatus",
          "name": "battleStatus",
          "type": "uint8"
        },
        {
          "internalType": "bytes32",
          "name": "battleHash",
          "type": "bytes32"
        },
        {
          "internalType": "string",
          "name": "name",
          "type": "string"
        },
        {
          "internalType": "address",
          "name": "winner",
          "type": "address"
        }
      ],
      "stateMutability": "view",
      "type": "function"
    },
    {
      "inputs": [
        {
          "internalType": "string",
          "name": "_name",
          "type": "string"
        }
      ],
      "name": "createBattle",
      "outputs": [
        {
          "components": [
            {
              "internalType": "enum CardBizz.BattleStatus",
              "name": "battleStatus",
              "type": "uint8"
            },
            {
              "internalType": "bytes32",
              "name": "battleHash",
              "type": "bytes32"
            },
            {
              "internalType": "string",
              "name": "name",
              "type": "string"
            },
            {
              "internalType": "address[2]",
              "name": "players",
              "type": "address[2]"
            },
            {
              "internalType": "uint8[2]",
              "name": "moves",
              "type": "uint8[2]"
            },
            {
              "internalType": "address",
              "name": "winner",
              "type": "address"
            }
          ],
          "internalType": "struct CardBizz.Battle",
          "name": "",
          "type": "tuple"
        }
      ],
      "stateMutability": "nonpayable",
      "type": "function"
    },
    {
      "inputs": [
        {
          "internalType": "string",
          "name": "_name",
          "type": "string"
        }
      ],
      "name": "createRandomGameToken",
      "outputs": [],
      "stateMutability": "nonpayable",
      "type": "function"
    },
    {
      "inputs": [
        {
          "internalType": "uint256",
          "name": "id",
          "type": "uint256"
        }
      ],
      "name": "exists",
      "outputs": [
        {
          "internalType": "bool",
          "name": "",
          "type": "bool"
        }
      ],
      "stateMutability": "view",
      "type": "function"
    },
    {
      "inputs": [
        {
          "internalType": "uint256",
          "name": "",
          "type": "uint256"
        }
      ],
      "name": "gameTokens",
      "outputs": [
        {
          "internalType": "string",
          "name": "name",
          "type": "string"
        },
        {
          "internalType": "uint256",
          "name": "id",
          "type": "uint256"
        },
        {
          "internalType": "uint256",
          "name": "attackStrength",
          "type": "uint256"
        },
        {
          "internalType": "uint256",
          "name": "defenseStrength",
          "type": "uint256"
        }
      ],
      "stateMutability": "view",
      "type": "function"
    },
    {
      "inputs": [],
      "name": "getAllBattles",
      "outputs": [
        {
          "components": [
            {
              "internalType": "enum CardBizz.BattleStatus",
              "name": "battleStatus",
              "type": "uint8"
            },
            {
              "internalType": "bytes32",
              "name": "battleHash",
              "type": "bytes32"
            },
            {
              "internalType": "string",
              "name": "name",
              "type": "string"
            },
            {
              "internalType": "address[2]",
              "name": "players",
              "type": "address[2]"
            },
            {
              "internalType": "uint8[2]",
              "name": "moves",
              "type": "uint8[2]"
            },
            {
              "internalType": "address",
              "name": "winner",
              "type": "address"
            }
          ],
          "internalType": "struct CardBizz.Battle[]",
          "name": "",
          "type": "tuple[]"
        }
      ],
      "stateMutability": "view",
      "type": "function"
    },
    {
      "inputs": [],
      "name": "getAllPlayerTokens",
      "outputs": [
        {
          "components": [
            {
              "internalType": "string",
              "name": "name",
              "type": "string"
            },
            {
              "internalType": "uint256",
              "name": "id",
              "type": "uint256"
            },
            {
              "internalType": "uint256",
              "name": "attackStrength",
              "type": "uint256"
            },
            {
              "internalType": "uint256",
              "name": "defenseStrength",
              "type": "uint256"
            }
          ],
          "internalType": "struct CardBizz.GameToken[]",
          "name": "",
          "type": "tuple[]"
        }
      ],
      "stateMutability": "view",
      "type": "function"
    },
    {
      "inputs": [],
      "name": "getAllPlayers",
      "outputs": [
        {
          "components": [
            {
              "internalType": "address",
              "name": "playerAddress",
              "type": "address"
            },
            {
              "internalType": "string",
              "name": "playerName",
              "type": "string"
            },
            {
              "internalType": "uint256",
              "name": "playerMana",
              "type": "uint256"
            },
            {
              "internalType": "uint256",
              "name": "playerHealth",
              "type": "uint256"
            },
            {
              "internalType": "bool",
              "name": "inBattle",
              "type": "bool"
            }
          ],
          "internalType": "struct CardBizz.Player[]",
          "name": "",
          "type": "tuple[]"
        }
      ],
      "stateMutability": "view",
      "type": "function"
    },
    {
      "inputs": [
        {
          "internalType": "string",
          "name": "_name",
          "type": "string"
        }
      ],
      "name": "getBattle",
      "outputs": [
        {
          "components": [
            {
              "internalType": "enum CardBizz.BattleStatus",
              "name": "battleStatus",
              "type": "uint8"
            },
            {
              "internalType": "bytes32",
              "name": "battleHash",
              "type": "bytes32"
            },
            {
              "internalType": "string",
              "name": "name",
              "type": "string"
            },
            {
              "internalType": "address[2]",
              "name": "players",
              "type": "address[2]"
            },
            {
              "internalType": "uint8[2]",
              "name": "moves",
              "type": "uint8[2]"
            },
            {
              "internalType": "address",
              "name": "winner",
              "type": "address"
            }
          ],
          "internalType": "struct CardBizz.Battle",
          "name": "",
          "type": "tuple"
        }
      ],
      "stateMutability": "view",
      "type": "function"
    },
    {
      "inputs": [
        {
          "internalType": "string",
          "name": "_battleName",
          "type": "string"
        }
      ],
      "name": "getBattleMoves",
      "outputs": [
        {
          "internalType": "uint256",
          "name": "P1Move",
          "type": "uint256"
        },
        {
          "internalType": "uint256",
          "name": "P2Move",
          "type": "uint256"
        }
      ],
      "stateMutability": "view",
      "type": "function"
    },
    {
      "inputs": [
        {
          "internalType": "address",
          "name": "addr",
          "type": "address"
        }
      ],
      "name": "getPlayer",
      "outputs": [
        {
          "components": [
            {
              "internalType": "address",
              "name": "playerAddress",
              "type": "address"
            },
            {
              "internalType": "string",
              "name": "playerName",
              "type": "string"
            },
            {
              "internalType": "uint256",
              "name": "playerMana",
              "type": "uint256"
            },
            {
              "internalType": "uint256",
              "name": "playerHealth",
              "type": "uint256"
            },
            {
              "internalType": "bool",
              "name": "inBattle",
              "type": "bool"
            }
          ],
          "internalType": "struct CardBizz.Player",
          "name": "",
          "type": "tuple"
        }
      ],
      "stateMutability": "view",
      "type": "function"
    },
    {
      "inputs": [
        {
          "internalType": "address",
          "name": "addr",
          "type": "address"
        }
      ],
      "name": "getPlayerName",
      "outputs": [
        {
          "internalType": "string",
          "name": "",
          "type": "string"
        }
      ],
      "stateMutability": "view",
      "type": "function"
    },
    {
      "inputs": [
        {
          "internalType": "address",
          "name": "addr",
          "type": "address"
        }
      ],
      "name": "getPlayerToken",
      "outputs": [
        {
          "components": [
            {
              "internalType": "string",
              "name": "name",
              "type": "string"
            },
            {
              "internalType": "uint256",
              "name": "id",
              "type": "uint256"
            },
            {
              "internalType": "uint256",
              "name": "attackStrength",
              "type": "uint256"
            },
            {
              "internalType": "uint256",
              "name": "defenseStrength",
              "type": "uint256"
            }
          ],
          "internalType": "struct CardBizz.GameToken",
          "name": "",
          "type": "tuple"
        }
      ],
      "stateMutability": "view",
      "type": "function"
    },
    {
      "inputs": [],
      "name": "getTotalSupply",
      "outputs": [
        {
          "internalType": "uint256",
          "name": "",
          "type": "uint256"
        }
      ],
      "stateMutability": "view",
      "type": "function"
    },
    {
      "inputs": [
        {
          "internalType": "address",
          "name": "account",
          "type": "address"
        },
        {
          "internalType": "address",
          "name": "operator",
          "type": "address"
        }
      ],
      "name": "isApprovedForAll",
      "outputs": [
        {
          "internalType": "bool",
          "name": "",
          "type": "bool"
        }
      ],
      "stateMutability": "view",
      "type": "function"
    },
    {
      "inputs": [
        {
          "internalType": "string",
          "name": "_name",
          "type": "string"
        }
      ],
      "name": "isBattle",
      "outputs": [
        {
          "internalType": "bool",
          "name": "",
          "type": "bool"
        }
      ],
      "stateMutability": "view",
      "type": "function"
    },
    {
      "inputs": [
        {
          "internalType": "address",
          "name": "addr",
          "type": "address"
        }
      ],
      "name": "isPlayer",
      "outputs": [
        {
          "internalType": "bool",
          "name": "",
          "type": "bool"
        }
      ],
      "stateMutability": "view",
      "type": "function"
    },
    {
      "inputs": [
        {
          "internalType": "address",
          "name": "addr",
          "type": "address"
        }
      ],
      "name": "isPlayerToken",
      "outputs": [
        {
          "internalType": "bool",
          "name": "",
          "type": "bool"
        }
      ],
      "stateMutability": "view",
      "type": "function"
    },
    {
      "inputs": [
        {
          "internalType": "string",
          "name": "_name",
          "type": "string"
        }
      ],
      "name": "joinBattle",
      "outputs": [
        {
          "components": [
            {
              "internalType": "enum CardBizz.BattleStatus",
              "name": "battleStatus",
              "type": "uint8"
            },
            {
              "internalType": "bytes32",
              "name": "battleHash",
              "type": "bytes32"
            },
            {
              "internalType": "string",
              "name": "name",
              "type": "string"
            },
            {
              "internalType": "address[2]",
              "name": "players",
              "type": "address[2]"
            },
            {
              "internalType": "uint8[2]",
              "name": "moves",
              "type": "uint8[2]"
            },
            {
              "internalType": "address",
              "name": "winner",
              "type": "address"
            }
          ],
          "internalType": "struct CardBizz.Battle",
          "name": "",
          "type": "tuple"
        }
      ],
      "stateMutability": "nonpayable",
      "type": "function"
    },
    {
      "inputs": [],
      "name": "owner",
      "outputs": [
        {
          "internalType": "address",
          "name": "",
          "type": "address"
        }
      ],
      "stateMutability": "view",
      "type": "function"
    },
    {
      "inputs": [
        {
          "internalType": "address",
          "name": "",
          "type": "address"
        }
      ],
      "name": "playerInfo",
      "outputs": [
        {
          "internalType": "uint256",
          "name": "",
          "type": "uint256"
        }
      ],
      "stateMutability": "view",
      "type": "function"
    },
    {
      "inputs": [
        {
          "internalType": "address",
          "name": "",
          "type": "address"
        }
      ],
      "name": "playerTokenInfo",
      "outputs": [
        {
          "internalType": "uint256",
          "name": "",
          "type": "uint256"
        }
      ],
      "stateMutability": "view",
      "type": "function"
    },
    {
      "inputs": [
        {
          "internalType": "uint256",
          "name": "",
          "type": "uint256"
        }
      ],
      "name": "players",
      "outputs": [
        {
          "internalType": "address",
          "name": "playerAddress",
          "type": "address"
        },
        {
          "internalType": "string",
          "name": "playerName",
          "type": "string"
        },
        {
          "internalType": "uint256",
          "name": "playerMana",
          "type": "uint256"
        },
        {
          "internalType": "uint256",
          "name": "playerHealth",
          "type": "uint256"
        },
        {
          "internalType": "bool",
          "name": "inBattle",
          "type": "bool"
        }
      ],
      "stateMutability": "view",
      "type": "function"
    },
    {
      "inputs": [
        {
          "internalType": "string",
          "name": "_battleName",
          "type": "string"
        }
      ],
      "name": "quitBattle",
      "outputs": [],
      "stateMutability": "nonpayable",
      "type": "function"
    },
    {
      "inputs": [
        {
          "internalType": "string",
          "name": "_name",
          "type": "string"
        },
        {
          "internalType": "string",
          "name": "_gameTokenName",
          "type": "string"
        }
      ],
      "name": "registerPlayer",
      "outputs": [],
      "stateMutability": "nonpayable",
      "type": "function"
    },
    {
      "inputs": [],
      "name": "renounceOwnership",
      "outputs": [],
      "stateMutability": "nonpayable",
      "type": "function"
    },
    {
      "inputs": [
        {
          "internalType": "address",
          "name": "from",
          "type": "address"
        },
        {
          "internalType": "address",
          "name": "to",
          "type": "address"
        },
        {
          "internalType": "uint256[]",
          "name": "ids",
          "type": "uint256[]"
        },
        {
          "internalType": "uint256[]",
          "name": "amounts",
          "type": "uint256[]"
        },
        {
          "internalType": "bytes",
          "name": "data",
          "type": "bytes"
        }
      ],
      "name": "safeBatchTransferFrom",
      "outputs": [],
      "stateMutability": "nonpayable",
      "type": "function"
    },
    {
      "inputs": [
        {
          "internalType": "address",
          "name": "from",
          "type": "address"
        },
        {
          "internalType": "address",
          "name": "to",
          "type": "address"
        },
        {
          "internalType": "uint256",
          "name": "id",
          "type": "uint256"
        },
        {
          "internalType": "uint256",
          "name": "amount",
          "type": "uint256"
        },
        {
          "internalType": "bytes",
          "name": "data",
          "type": "bytes"
        }
      ],
      "name": "safeTransferFrom",
      "outputs": [],
      "stateMutability": "nonpayable",
      "type": "function"
    },
    {
      "inputs": [
        {
          "internalType": "address",
          "name": "operator",
          "type": "address"
        },
        {
          "internalType": "bool",
          "name": "approved",
          "type": "bool"
        }
      ],
      "name": "setApprovalForAll",
      "outputs": [],
      "stateMutability": "nonpayable",
      "type": "function"
    },
    {
      "inputs": [
        {
          "internalType": "string",
          "name": "newuri",
          "type": "string"
        }
      ],
      "name": "setURI",
      "outputs": [],
      "stateMutability": "nonpayable",
      "type": "function"
    },
    {
      "inputs": [
        {
          "internalType": "bytes4",
          "name": "interfaceId",
          "type": "bytes4"
        }
      ],
      "name": "supportsInterface",
      "outputs": [
        {
          "internalType": "bool",
          "name": "",
          "type": "bool"
        }
      ],
      "stateMutability": "view",
      "type": "function"
    },
    {
      "inputs": [
        {
          "internalType": "uint256",
          "name": "tokenId",
          "type": "uint256"
        }
      ],
      "name": "tokenURI",
      "outputs": [
        {
          "internalType": "string",
          "name": "",
          "type": "string"
        }
      ],
      "stateMutability": "view",
      "type": "function"
    },
    {
      "inputs": [],
      "name": "totalSupply",
      "outputs": [
        {
          "internalType": "uint256",
          "name": "",
          "type": "uint256"
        }
      ],
      "stateMutability": "view",
      "type": "function"
    },
    {
      "inputs": [
        {
          "internalType": "uint256",
          "name": "id",
          "type": "uint256"
        }
      ],
      "name": "totalSupply",
      "outputs": [
        {
          "internalType": "uint256",
          "name": "",
          "type": "uint256"
        }
      ],
      "stateMutability": "view",
      "type": "function"
    },
    {
      "inputs": [
        {
          "internalType": "address",
          "name": "newOwner",
          "type": "address"
        }
      ],
      "name": "transferOwnership",
      "outputs": [],
      "stateMutability": "nonpayable",
      "type": "function"
    },
    {
      "inputs": [
        {
          "internalType": "uint256",
          "name": "",
          "type": "uint256"
        }
      ],
      "name": "uri",
      "outputs": [
        {
          "internalType": "string",
          "name": "",
          "type": "string"
        }
      ],
      "stateMutability": "view",
      "type": "function"
    }
  ],
  "bytecode": "0x60806040523462000aad576200500a803803806200001d8162000af2565b92833981019060208183031262000aad578051906001600160401b03821162000aad570181601f8201121562000aad578051906001600160401b038211620007355762000074601f8301601f191660200162000af2565b928284526020838301011162000aad5760005b82811062000a9757600083850160200152835184906001600160401b0381116200073557600254600181811c9116801562000a8c575b60208210146200071457601f811162000a4a575b50806020601f8211600114620009d257600091620009c6575b508160011b916000199060031b1c1916176002555b60038054336001600160a01b0319821681179092556001600160a01b03167f8be0079c531659141344cd1fd0a4f28419497f9722a3daafe3b4186f6b6457e0600080a380516001600160401b0381116200073557600554600181811c91168015620009bb575b60208210146200071457601f811162000984575b50602091601f82116001146200091a579181926000926200090e575b50508160011b916000199060031b1c1916176005555b604051608081016001600160401b038111828210176200073557604052620001d262000ad2565b6000815281526020810190600082526040810160008152606082019060008252600b546801000000000000000081101562000735576001810180600b558110156200076157600b600052925180519460029490941b7f0175b7a638427703f0dbe7bb9bbf987a2551717b34e79f33b5b1008d1fa01db90193906001600160401b03861162000735578454600181811c9116801562000903575b60208210146200071457601f8111620008cd575b50602090601f87116001146200085e579580916003969760009262000852575b50508160011b9160001990871b1c19161785555b5160018501555160028401555191015560405160a081016001600160401b03811182821017620007355760405260008152620002ee62000ad2565b600081526020820152600060408201526000606082015260006080820152600a54906801000000000000000082101562000735576001820180600a558210156200076157600a6000528051600583027fc65a7bb8d6351c1cf70c95a316cc6a92839c986682d98bc35f958f4883f9d2a890810180546001600160a01b0319166001600160a01b039390931692909217909155602082015180519093906001600160401b038111620007355760016005830284010154600181811c9116801562000847575b60208210146200071457601f811162000809575b506020601f821160011462000783579181600592600495946080979860009262000777575b50508160011b916000199060031b1c1916176001838302850101555b60408601516002838302850101556060860151600383830285010155020101910151151560ff801983541691161790556200044162000ab2565b60008152600060208201526200045662000ab2565b60008082526020820152604051916001600160401b0360c0840190811190841117620007355760c0830160405260008352600060208401526200049862000ad2565b60008152604084015260608301526080820152600060a0820152600c54906801000000000000000082101562000735576001820180600c558210156200076157600c60005280517fdf6966c971051c3d54ec59162606531493a51404a002842f56009d7e5cf4a8c79060038110156200074b57600784028201805460ff191660ff929092169190911781556020830151600182015560408301518051600290920191906001600160401b0382116200073557825490600182811c921680156200072a575b6020831014620007145781601f849311620006d2575b50602090601f831160011462000667576000926200065b575b50508160011b916000199060031b1c19161790555b606082015160005b6002811062000635575050608082015192600093845b600281106200060d576007830284016005810187905560a086015160069190910180546001600160a01b0319166001600160a01b03929092169190911790556040516144b8908162000b328239f35b9094602060019160ff885116908460031b60ff811b9283911b169119161796019101620005be565b81516001600160a01b0316600360078702850183010155602090910190600101620005a8565b0151905086806200058b565b6000858152602081209350601f198516905b818110620006b957509084600195949392106200069f575b505050811b019055620005a0565b015160001960f88460031b161c1916905586808062000691565b9293602060018192878601518155019501930162000679565b6200070290856000526020600020601f850160051c8101916020861062000709575b601f0160051c019062000b18565b8762000572565b9091508190620006f4565b634e487b7160e01b600052602260045260246000fd5b91607f16916200055c565b634e487b7160e01b600052604160045260246000fd5b634e487b7160e01b600052602160045260246000fd5b634e487b7160e01b600052603260045260246000fd5b015190508880620003eb565b60016005840285010160005260206000209560005b601f1984168110620007f0575082608096976004969593600193600596601f19811610620007d6575b505050811b0160018383028501015562000407565b015160001960f88460031b161c19169055888080620007c1565b8282015188556001909701966020928301920162000798565b62000840906001600585028601016000526020600020601f840160051c810191602085106200070957601f0160051c019062000b18565b85620003c6565b90607f1690620003b2565b0151905087806200029f565b90601f198716918660005260206000209260005b818110620008b457509160019391896003999a94106200089b575b505050811b018555620002b3565b015160001983891b60f8161c191690558780806200088d565b9293602060018192878601518155019501930162000872565b620008fc90866000526020600020601f890160051c81019160208a106200070957601f0160051c019062000b18565b866200027f565b90607f16906200026b565b01519050828062000195565b601f19821692600560005260206000209160005b8581106200096b5750836001951062000951575b505050811b01600555620001ab565b015160001960f88460031b161c1916905582808062000942565b919260206001819286850151815501940192016200092e565b620009b49060056000526020600020601f840160051c810191602085106200070957601f0160051c019062000b18565b8262000179565b90607f169062000165565b905082015183620000ea565b6002600090815260008051602062004fea8339815191529250601f198416905b81811062000a315750908360019493921062000a17575b5050811b01600255620000ff565b84015160001960f88460031b161c19169055838062000a09565b91926020600181928689015181550194019201620009f2565b600260005262000a859060008051602062004fea833981519152601f840160051c810191602085106200070957601f0160051c019062000b18565b82620000d1565b90607f1690620000bd565b8060208092840101518282870101520162000087565b600080fd5b60408051919082016001600160401b038111838210176200073557604052565b60405190602082016001600160401b038111838210176200073557604052565b6040519190601f01601f191682016001600160401b038111838210176200073557604052565b81811062000b24575050565b6000815560010162000b1856fe6080604052600436101561001257600080fd5b60003560e01c8062fdd58e14612e2e578063015a379214612d4557806301ffc9a714612cd757806302fe530514612bae5780630677aa4e14612b9257806309c95e1014612b6f5780630daea2cd14612b535780630e89341c14612aa257806310898e4c14612a6a5780631107ae3d14612a3057806316801d17146129e657806318160ddd14610a325780632711162e146129ac5780632ca045221461282f5780632eb2c2d6146123ee5780633835e2b5146123925780634b114691146123585780634e1273f4146121ba5780634f558e791461218c5780635c12cd4b146121595780635c93fc3d14612070578063606d2e9614611fe95780636c0360eb14611f07578063703730a514611eeb578063715018a614611e8e578063845f433b14611bba5780638da5cb5b14611b91578063996d7bea14611abe5780639b09cc8714611a685780639e4ecd1114611a4c5780639ec40aa314611a14578063a1b4f57c146117fa578063a22cb4651461170d578063ba27495614610b38578063bd85b03914610b0c578063bf034b6914610a7d578063bf103a4d14610a50578063c4e41b2214610a32578063c87b56dd1461092a578063d2198cc51461090e578063de96cefc146108f2578063e18d38ce146108a1578063e985e9c51461084b578063efa1c48214610762578063f1da733914610746578063f242432a1461037d578063f2fde38b146102ba5763f71d96cb1461022b57600080fd5b346102b55760203660031901126102b557600435600a548110156102b557600a6000526005602060002091020160018060a01b0381541661026e60018301613210565b9160028101549060ff60046003830154920154169061029f604051958695865260a0602087015260a0860190612eac565b9260408501526060840152151560808301520390f35b600080fd5b346102b55760203660031901126102b5576102d3612e5d565b6102db6132f4565b6001600160a01b0390811690811561032957600380546001600160a01b031981168417909155167f8be0079c531659141344cd1fd0a4f28419497f9722a3daafe3b4186f6b6457e0600080a3005b60405162461bcd60e51b815260206004820152602660248201527f4f776e61626c653a206e6577206f776e657220697320746865207a65726f206160448201526564647265737360d01b6064820152608490fd5b346102b55760a03660031901126102b557610396612e5d565b61039e612e73565b90608480356001600160401b0381116102b5576103bf903690600401612fad565b6001600160a01b0391908383163314801561071b575b6103de90613417565b828516156103ec811561347a565b6103f760443561368d565b61040260643561368d565b91858716156106bb575b6105fb575b505060443560005260209460008652604060002084861660005286526040600020546104416064358210156134d4565b604435600052600087526040600020858716600052875260643590036040600020556044356000526000865260406000208482166000528652604060002061048c6064358254613533565b905560405160443581526064358782015284821690858716907fc3d58168c5ae7397731d063d5bbf3d657854427343f4c083240f7aacaa2d0f6260403392a4803b6104d357005b60a0600061051d958895604051978896879586938563f23a6e6160e01b9d8e87523360048801521660248601526044356044860152606435606486015284015260a4830190612eac565b0393165af1600091816105cc575b506105a257505060019061053d6135a9565b6308c379a01461056d575b50610550575b005b60405162461bcd60e51b81528061056960048201613638565b0390fd5b6105756135c7565b90816105815750610548565b61056960405192839262461bcd60e51b845260048401526024830190612eac565b6001600160e01b03191614905061054e5760405162461bcd60e51b81528061056960048201613560565b6105ed919250843d86116105f4575b6105e58183612f71565b810190613540565b908461052b565b503d6105db565b92959194909360005b84518110156106ac576106178186613403565b51906106238188613403565b5182600052600460205260406000205481811061065757610652936000526004602052036040600020556133d1565b610604565b60405162461bcd60e51b815260206004820152602860248201527f455243313135353a206275726e20616d6f756e74206578636565647320746f74604482015267616c537570706c7960c01b60648201528b90fd5b50935093909491508580610411565b959260009794919592975b865181101561070d57806106dd610708928b613403565b516106e8828a613403565b5160005260046020526107016040600020918254613533565b90556133d1565b6106c6565b50929596919490939661040c565b5082841660005260016020526040600020336000526020526103de60ff6040600020541690506103d5565b346102b55760003660031901126102b557602060405160048152f35b346102b55760003660031901126102b557600a5461077f816130b0565b9061078d6040519283612f71565b808252600a6000908152602091828401917fc65a7bb8d6351c1cf70c95a316cc6a92839c986682d98bc35f958f4883f9d2a8835b8383106108285750505050604051918083019381845251809452604083019360408160051b85010192916000955b8287106107fc5785850386f35b909192938280610818600193603f198a82030186528851613159565b96019201960195929190926107ef565b60058660019261083a859a999a613713565b8152019201920191909594956107c1565b346102b55760403660031901126102b557610864612e5d565b61086c612e73565b9060018060a01b03809116600052600160205260406000209116600052602052602060ff604060002054166040519015158152f35b346102b55760203660031901126102b5576108ee60206108d86108c2612e5d565b6108d36108ce826136b2565b6136cf565b613763565b0151604051918291602083526020830190612eac565b0390f35b346102b55760003660031901126102b557602060405160018152f35b346102b55760003660031901126102b557602060405160008152f35b346102b5576020806003193601126102b5576109476004356143a2565b9060405191826000916005549261095d846131d6565b600194868682169182600014610a0d5750506001146109cb575b509264173539b7b760d91b6006939285602f60f81b6109b797526109a3825180938a8785019101612e89565b019182015203601919810185520183612f71565b6108ee604051928284938452830190612eac565b8591506005600052816000206000905b8282106109f557505083010164173539b7b760d91b610977565b805489830185015288955087939091019086016109db565b60ff1916818701528215159092028501909101915064173539b7b760d91b9050610977565b346102b55760003660031901126102b5576020600654604051908152f35b346102b55760203660031901126102b5576020610a73610a6e612e5d565b6137be565b6040519015158152f35b346102b55760203660031901126102b557600435600b548110156102b557600b600052610af89060021b7f0175b7a638427703f0dbe7bb9bbf987a2551717b34e79f33b5b1008d1fa01db901610ad281613210565b906001810154906003600282015491015490604051948594608086526080860190612eac565b926020850152604084015260608301520390f35b346102b55760203660031901126102b55760043560005260046020526020604060002054604051908152f35b346102b55760403660031901126102b55760043560ff81168091036102b55760249081356001600160401b0381116102b557610b78903690600401612fad565b90610b8282613a01565b8051600381101561168457600103611699578051600381101561168457600214611645576060810190815160018060a01b03815116331490811561162e575b50156115ea57608001518151516001600160a01b031633036115e2576000905b600260ff831610156114de57611fe060ff9260051b1601511661159e5751516001600160a01b031633036115975760005b6001821480801561158d575b1561154957156115425760036040610c3533613763565b015110155b156114f35760405191610c6b84519360208181880196610c5b81838a612e89565b81016009815203019020546131a1565b5090600260ff841610156114de57601f6005610ca193600786831c160101931683549060031b60ff811b9283911b169119161790565b90556080610cae83613a01565b0180515160ff166114d55760ff60005b166002039060ff821161125857516020015160ff166114cb5760ff8060005b1691160360ff81116111785760ff1690600182036114c057610d0d6001915b604051809281928751928391612e89565b8101039020901515907f54b82b77e7ae55a8e6c9e89deba70c7191dea2a3b08ae647b380e9f981d6a0f8600080a315610d4257005b610d4b90613a01565b606081015180516001600160a01b031633149081156114a9575b501561145157608081015160ff81511615159081611440575b50156113f25760018060a01b0360608201515116600052600760205260406000205460ff608083015151166060610dc060018060a01b03828601515116613763565b0151606084015151604090610ddd906001600160a01b0316613842565b015160608581015151919291610dfb906001600160a01b0316613842565b01519260405194610e0b86612f3b565b8552602085015260408401526060830152608082015260018060a01b0360206060840151015116600052600760205260406000205460ff602060808501510151166060610e6660018060a01b03602083880151015116613763565b0151606085015160200151604090610e86906001600160a01b0316613842565b015160608681015160200151919291610ea7906001600160a01b0316613842565b01519260405194610eb786612f3b565b8552602085015260408401526060830152608082015260405191610eda83612f05565b6000835260006020840152826020820151600181148080916113e4575b156111a25750505060608101516040830151116110c7575050606082015151610f2a9083906001600160a01b031661423f565b505b604051906000825b600282106110a75750505060407fc6bf860cbc15f7020f73993a671f01bbb1831a8a7a12c126ca735eb632e7577591a160006080820151526000602060808301510152610f858160408101516141d5565b606081015151610f9d906001600160a01b0316613fb9565b60018060a01b03606083015151166000526008602052806002610fc46040600020546132b6565b500155600a03600a81116110925760018060a01b036060830151511660005260086020526003610ff86040600020546132b6565b500155606081015160200151611016906001600160a01b0316613fb9565b60018060a01b036020606084015101511660005260086020528060026110406040600020546132b6565b500155600a0391600a831161107e57506020606060018060a01b03920151015116600052600860205260036110796040600020546132b6565b500155005b634e487b7160e01b60009081526011600452fd5b82634e487b7160e01b60005260116004526000fd5b82516001600160a01b031681526020928301926001929092019101610f34565b6060820151604082015181106110fd575050506060820151602001516110f79083906001600160a01b031661423f565b50610f2c565b60029293509061113e91611120600361111684516132d5565b5001918254613fac565b90556060810151611136600361111687516132d5565b9055516132d5565b50018054600219928382019291831161118d5760029261115f9255516132d5565b5001805491820191821161117857556060810151610f2c565b83634e487b7160e01b60005260116004526000fd5b85634e487b7160e01b60005260116004526000fd5b806113d6575b1561129057506111c16040840151608085015190613533565b6060830151909290918383106111f0575050506060840151516110f792508491506001600160a01b031661423f565b600293611223938060808801511160001461126d5750505060408401515b600361121a86516132d5565b500155516132d5565b5001805460021981019290831161118d576002926112429255516132d5565b5001805490600382018092116112585755610f2c565b84634e487b7160e01b60005260116004526000fd5b61127691613fac565b6060880151602001516001600160a01b031690915261120e565b60021480806113c8575b1561136457506112b36040830151608084015190613533565b6060840151909290918383106112e5575050506060840151602001516110f792508491506001600160a01b031661423f565b60029361130f93806080850151116000146113445750505060408101515b600361121a83516132d5565b50018054916003830180931161118d5760029261132d9255516132d5565b500180546002198101919082116112585755610f2c565b61134d91613fac565b6060880151516001600160a01b0316909152611303565b9050806113ba575b611378575b5050610f2c565b611384600291516132d5565b50018054916003830180931161118d576002926113a29255516132d5565b50018054906003820180921161125857558380611371565b50600260208301511461136c565b50600160208501511461129a565b5060026020850151146111a8565b506001602086015114610ef7565b60405162461bcd60e51b8152602060048201526021818401527f506c6179657273207374696c6c206e65656420746f206d616b652061206d6f766044820152606560f81b6064820152608490fd5b60ff91506020015116151583610d7e565b60405162461bcd60e51b815260206004820152602b818401527f4f6e6c7920706c617965727320696e207468697320626174746c652063616e2060448201526a6d616b652061206d6f766560a81b6064820152608490fd5b602001516001600160a01b03163314905083610d65565b610d0d600091610cfc565b60ff806001610cdd565b60ff6001610cbe565b85634e487b7160e01b60005260326004526000fd5b60405162461bcd60e51b8152602060048201526022818601527f4d616e61206e6f742073756666696369656e7420666f722061747461636b696e604482015261672160f01b6064820152608490fd5b6001610c3a565b60405162461bcd60e51b815260206004820152601f818701527f43686f6963652073686f756c64206265206569746865722031206f72203221006044820152606490fd5b5060028314610c1e565b6001610c12565b60405162461bcd60e51b815260206004820152601d818601527f596f75206861766520616c7265616479206d6164652061206d6f7665210000006044820152606490fd5b600190610be1565b60405162461bcd60e51b815260206004820152601a818701527f596f7520617265206e6f7420696e207468697320626174746c650000000000006044820152606490fd5b602001516001600160a01b03163314905086610bc1565b60405162461bcd60e51b8152602060048201526018818601527710985d1d1b19481a185cc8185b1c9958591e48195b99195960421b6044820152606490fd5b84634e487b7160e01b60005260216004526000fd5b60405162461bcd60e51b8152602060048201526041818601527f426174746c65206e6f7420737461727465642e20506c656173652074656c6c2060448201527f616e6f7468657220706c6179657220746f206a6f696e2074686520626174746c6064820152606560f81b608482015260a490fd5b346102b55760403660031901126102b557611726612e5d565b60243590811515908183036102b5576001600160a01b0316913383146117a3576117759033600052600160205260406000208460005260205260406000209060ff801983541691151516179055565b6040519081527f17307eab39ab6107e8899845ad3d59bd9653f200f220920489ca2b5937696c3160203392a3005b60405162461bcd60e51b815260206004820152602960248201527f455243313135353a2073657474696e6720617070726f76616c20737461747573604482015268103337b91039b2b63360b91b6064820152608490fd5b346102b5576020806003193601126102b5576004356001600160401b0381116102b55761182b903690600401612fad565b906118346138f2565b5061183e82613a01565b91825160038110156119fe576119bf576060830180515190916001600160a01b03918216331461197057608061187333613763565b0151611937578461188d91600182523386865101526141d5565b80825151166000526007835260046118a96040600020546132d5565b500160ff19906001828254161790558184845101511660005260078452600160046118d86040600020546132d5565b5001918254161790556040840151915151167f024187b16c217a79f8d8e6252b542ec6e278fa91304acd9cfd866f2bbf00bd0860405184815280611920339587830190612eac565b0390a36108ee604051928284938452830190613001565b60405162461bcd60e51b8152600481018590526011602482015270416c726561647920696e20626174746c6560781b6044820152606490fd5b60405162461bcd60e51b815260048101859052602160248201527f4f6e6c7920706c617965722074776f2063616e206a6f696e206120626174746c6044820152606560f81b6064820152608490fd5b60405162461bcd60e51b8152600481018390526017602482015276426174746c6520616c726561647920737461727465642160481b6044820152606490fd5b634e487b7160e01b600052602160045260246000fd5b346102b55760203660031901126102b5576004356001600160401b0381116102b557611a4761054e913690600401612fad565b613add565b346102b55760003660031901126102b557602060405160058152f35b346102b55760203660031901126102b5576004356001600160401b0381116102b5576080611aa4611a9f6040933690600401612fad565b613a01565b015160ff6020818351169201511682519182526020820152f35b346102b55760203660031901126102b5576004356001600160401b0381116102b557611a9f611af1913690600401612fad565b6060810190815160018060a01b0390818151163314908115611b81575b5015611b3c578251518116338103611b305750602061054e935101511661423f565b905061054e925061423f565b60405162461bcd60e51b815260206004820152601b60248201527f596f7520617265206e6f7420696e207468697320626174746c652100000000006044820152606490fd5b6020015182163314905084611b0e565b346102b55760003660031901126102b5576003546040516001600160a01b039091168152602090f35b346102b55760403660031901126102b5576001600160401b036004358181116102b557611beb903690600401612fad565b6024358281116102b557611c03903690600401612fad565b611c0c336136b2565b611e4d57600a54604051611c1f81612f3b565b338152602081019084825260408101600a815260608201906019825260006080840152600160401b851015611e215760018501600a55611c5e856132d5565b949094611e3757835185546001600160a01b0319166001600160a01b039190911617855551805190988111611e2157611c9a60018601546131d6565b601f8111611de1575b506020601f8211600114611d63579260809282611d07979693600496611d1b9c9d600092611d58575b50508160011b916000199060031b1c19161760018701555b5160028601555160038501550151151591019060ff801983541691151516179055565b336000526007602052604060002055613add565b7f81ef79d1cda814a60c0fc60792e648a06d9c6bae67176346d1cc8b63030bfccd6040516020815280611d5333946020830190612eac565b0390a2005b015190508d80611ccc565b6001860160005260206000209960005b601f1984168110611dc9575092600183611d1b9b9c60049794608097611d079b9a97601f19811610611db0575b505050811b016001870155611ce4565b015160001960f88460031b161c191690558d8080611da0565b828201518c556001909b019a60209283019201611d73565b611e1190600187016000526020600020601f840160051c81019160208510611e17575b601f0160051c0190613a7a565b89611ca3565b9091508190611e04565b634e487b7160e01b600052604160045260246000fd5b634e487b7160e01b600052600060045260246000fd5b60405162461bcd60e51b8152602060048201526019602482015278141b185e595c88185b1c9958591e481c9959da5cdd195c9959603a1b6044820152606490fd5b346102b55760003660031901126102b557611ea76132f4565b600380546001600160a01b031981169091556000906001600160a01b03167f8be0079c531659141344cd1fd0a4f28419497f9722a3daafe3b4186f6b6457e08280a3005b346102b55760003660031901126102b557602060405160028152f35b346102b55760003660031901126102b557604051600090600554611f2a816131d6565b808352600191808316908115611fc15750600114611f67575b6108ee83611f5381870382612f71565b604051918291602083526020830190612eac565b6005600090815260209450917f036b6384b5eca791c62761152d0c79bb0604c104a5fb6f4eb0703f3154bb3db05b828410611fae57505050810190910190611f5381611f43565b8054858501870152928501928101611f95565b6108ee9550611f5393506020915091849260ff191682840152151560051b8201019350611f43565b346102b55760203660031901126102b557600435600c548110156102b55761205090600c6000526007602060002091020160ff8154169061206660018201549161203560028201613210565b90600660018060a01b03910154169260405195868096612ff4565b6020850152608060408501526080840190612eac565b9060608301520390f35b346102b55760003660031901126102b557600c5461208d816130b0565b9061209b6040519283612f71565b808252600c6000908152602091828401917fdf6966c971051c3d54ec59162606531493a51404a002842f56009d7e5cf4a8c7835b8383106121365750505050604051918083019381845251809452604083019360408160051b85010192916000955b82871061210a5785850386f35b909192938280612126600193603f198a82030186528851613001565b96019201960195929190926120fd565b600786600192612148859a999a613941565b8152019201920191909594956120cf565b346102b55760203660031901126102b5576108ee6121786108d3612e5d565b604051918291602083526020830190613159565b346102b55760203660031901126102b557600435600052600460205260206040600020541515604051908152f35b346102b55760403660031901126102b5576004356001600160401b038082116102b557366023830112156102b5578160040135906121f7826130b0565b926122056040519485612f71565b82845260209260248486019160051b830101913683116102b557602401905b828210612339575050506024359081116102b5576122469036906004016130c7565b82518151036122e25782519261225b846130b0565b936122696040519586612f71565b808552612278601f19916130b0565b01368486013760005b81518110156122cb576122c6906122b66001600160a01b036122a38386613403565b51166122af8387613403565b519061334c565b6122c08288613403565b526133d1565b612281565b5050506108ee604051928284938452830190613125565b60405162461bcd60e51b815260048101839052602960248201527f455243313135353a206163636f756e747320616e6420696473206c656e677468604482015268040dad2e6dac2e8c6d60bb1b6064820152608490fd5b81356001600160a01b03811681036102b5578152908401908401612224565b346102b55760203660031901126102b5576001600160a01b03612379612e5d565b1660005260076020526020604060002054604051908152f35b346102b55760203660031901126102b5576004356001600160401b0381116102b5576123db60206123c881933690600401612fad565b8160405193828580945193849201612e89565b8101600981520301902054604051908152f35b346102b55760031960a0368201126102b557612408612e5d565b90612411612e73565b906001600160401b03604480358281116102b5576124339036906004016130c7565b9060649081358481116102b55761244e9036906004016130c7565b9460849485359081116102b557612469903690600401612fad565b6001600160a01b0398891698909190338a148015612806575b61248b90613417565b85518851036127b35788169586156124a3811561347a565b8a15612770575b6126ab575b60005b865181101561254257806124c961253d9289613403565b518c6124d5838d613403565b5191806000528260209260008452604060002081600052845260406000205490612501838310156134d4565b8360005260008552604060002090600052845203604060002055600052600081526040600020908b600052526107016040600020918254613533565b6124b2565b5090919293968998878a604051604081527f4a39dc06d4c0dbc64b70af90fd698a233a518aa5d07e595d983b8c0526c8f7fb612581604083018c613125565b91808303602082015280612596339489613125565b0390a43b6125a057005b604051978896879663bc197c8160e01b9b8c89523360048a01526024890152870160a0905260a487016125d291613125565b908487830301908701526125e591613125565b9184830301908401526125f791612eac565b03815a602094600091f16000918161268b575b50612663575050600161261b6135a9565b6308c379a01461262c575b61055057005b6126346135c7565b8061263f5750612626565b60405162461bcd60e51b815260206004820152908190610569906024830190612eac565b6001600160e01b0319161461054e5760405162461bcd60e51b81528061056960048201613560565b6126a491925060203d81116105f4576105e58183612f71565b908361260a565b96949398929590979160005b8551811015612761576126ca8187613403565b516126d58289613403565b5190806000526020600481526040600020549183831061270e576127099493929160049160005252036040600020556133d1565b6126b7565b508b9067616c537570706c7960c01b8f7f455243313135353a206275726e20616d6f756e74206578636565647320746f748e6040519462461bcd60e51b8652600486015260286024860152840152820152fd5b509197909592989394966124af565b98959996949392919060005b8b518110156127a457808c6106e88261279861279f958f613403565b5192613403565b61277c565b509091929394969995986124aa565b60405162461bcd60e51b815260206004820152602860248201527f455243313135353a2069647320616e6420616d6f756e7473206c656e6774682081860152670dad2e6dac2e8c6d60c31b818701528790fd5b5089600052600160205260406000203360005260205261248b60ff604060002054169050612482565b346102b5576020806003193601126102b5576004356001600160401b0381116102b557612860903690600401612fad565b906128696138f2565b5061287b612876336136b2565b613a91565b612884826138c1565b61296f5780604051818101908282526128b2816128a46040820188612eac565b03601f198101835282612f71565b519020926040516128c281612f05565b338152600083820152604051906128d882612f05565b60008252600084830152604051956128ef87612f20565b600087528487015282604087015260608601526080850152600060a085015261292a600c549283928160405193828580945193849201612e89565b8101600981520301902055600160401b811015611e21578261295582600161295b9401600c556131a1565b90614005565b6108ee604051928284938452830190613001565b6064906040519062461bcd60e51b825260048201526016602482015275426174746c6520616c7265616479206578697374732160501b6044820152fd5b346102b55760203660031901126102b5576001600160a01b036129cd612e5d565b1660005260086020526020604060002054604051908152f35b346102b55760203660031901126102b5576004356001600160401b0381116102b557612a1c611a9f6108ee923690600401612fad565b604051918291602083526020830190613001565b346102b55760203660031901126102b5576004356001600160401b0381116102b557610a73612a656020923690600401612fad565b6138c1565b346102b55760203660031901126102b5576108ee612a8e612a89612e5d565b613842565b604051918291602083526020830190612ed1565b346102b5576020806003193601126102b5576040519060008260025491612ac8836131d6565b92838352600190858282169182600014612b33575050600114612af3575b506109b792500383612f71565b849150600260005281600020906000915b858310612b1b5750506109b7935082010185612ae6565b80548389018501528794508693909201918101612b04565b60ff1916858201526109b795151560051b8501019250879150612ae69050565b346102b55760003660031901126102b5576020604051600a8152f35b346102b55760203660031901126102b5576020610a73612b8d612e5d565b6136b2565b346102b55760003660031901126102b557602060405160038152f35b346102b5576020806003193601126102b5576001600160401b036004358181116102b557612be0903690600401612fad565b91612be96132f4565b8251918211611e2157612bfd6002546131d6565b601f8111612ca6575b5080601f8311600114612c4257508192600092612c37575b5050600019600383901b1c191660019190911b17600255005b015190508280612c1e565b90601f19831693600260005282600020926000905b868210612c8e5750508360019510612c75575b505050811b01600255005b015160001960f88460031b161c19169055828080612c6a565b80600185968294968601518155019501930190612c57565b612cd190600260005282600020601f850160051c810191848610611e1757601f0160051c0190613a7a565b83612c06565b346102b55760203660031901126102b55760043563ffffffff60e01b81168091036102b557602090636cdb3d1360e11b8114908115612d34575b8115612d23575b506040519015158152f35b6301ffc9a760e01b14905082612d18565b6303a24d0760e21b81149150612d11565b346102b55760003660031901126102b557600b54612d62816130b0565b90612d706040519283612f71565b808252600b6000908152602091828401917f0175b7a638427703f0dbe7bb9bbf987a2551717b34e79f33b5b1008d1fa01db9835b838310612e0b5750505050604051918083019381845251809452604083019360408160051b85010192916000955b828710612ddf5785850386f35b909192938280612dfb600193603f198a82030186528851612ed1565b9601920196019592919092612dd2565b600486600192612e1d859a999a613809565b815201920192019190959495612da4565b346102b55760403660031901126102b5576020612e55612e4c612e5d565b6024359061334c565b604051908152f35b600435906001600160a01b03821682036102b557565b602435906001600160a01b03821682036102b557565b60005b838110612e9c5750506000910152565b8181015183820152602001612e8c565b90602091612ec581518092818552858086019101612e89565b601f01601f1916010190565b90606080612ee88451608085526080850190612eac565b936020810151602085015260408101516040850152015191015290565b604081019081106001600160401b03821117611e2157604052565b60c081019081106001600160401b03821117611e2157604052565b60a081019081106001600160401b03821117611e2157604052565b608081019081106001600160401b03821117611e2157604052565b90601f801991011681019081106001600160401b03821117611e2157604052565b6001600160401b038111611e2157601f01601f191660200190565b81601f820112156102b557803590612fc482612f92565b92612fd26040519485612f71565b828452602083830101116102b557816000926020809301838601378301015290565b9060038210156119fe5752565b9061300d818351612ff4565b60209182810151838301526130316040820151610100806040860152840190612eac565b926060820151606084016000905b83600283106130925750505050608082015190600060a085015b6002821061307a575050505060e09060a0600180821b039101511691015290565b828060019260ff875116815201940191019092613059565b83516001600160a01b0316825292830192600192909201910161303f565b6001600160401b038111611e215760051b60200190565b81601f820112156102b5578035916130de836130b0565b926130ec6040519485612f71565b808452602092838086019260051b8201019283116102b5578301905b828210613116575050505090565b81358152908301908301613108565b90815180825260208080930193019160005b828110613145575050505090565b835185529381019392810192600101613137565b9060018060a01b038251168152608080613182602085015160a0602086015260a0850190612eac565b9360408101516040850152606081015160608501520151151591015290565b600c548110156131c057600c6000526007602060002091020190600090565b634e487b7160e01b600052603260045260246000fd5b90600182811c92168015613206575b60208310146131f057565b634e487b7160e01b600052602260045260246000fd5b91607f16916131e5565b9060405191826000825492613224846131d6565b9081845260019485811690816000146132935750600114613250575b505061324e92500383612f71565b565b9093915060005260209081600020936000915b81831061327b57505061324e93508201013880613240565b85548884018501529485019487945091830191613263565b91505061324e94506020925060ff191682840152151560051b8201013880613240565b600b548110156131c057600b60005260206000209060021b0190600090565b600a548110156131c057600a6000526005602060002091020190600090565b6003546001600160a01b0316330361330857565b606460405162461bcd60e51b815260206004820152602060248201527f4f776e61626c653a2063616c6c6572206973206e6f7420746865206f776e65726044820152fd5b6001600160a01b031690811561337957600052600060205260406000209060005260205260406000205490565b60405162461bcd60e51b815260206004820152602a60248201527f455243313135353a2061646472657373207a65726f206973206e6f742061207660448201526930b634b21037bbb732b960b11b6064820152608490fd5b60001981146133e05760010190565b634e487b7160e01b600052601160045260246000fd5b8051156131c05760200190565b80518210156131c05760209160051b010190565b1561341e57565b60405162461bcd60e51b815260206004820152602e60248201527f455243313135353a2063616c6c6572206973206e6f7420746f6b656e206f776e60448201526d195c881bdc88185c1c1c9bdd995960921b6064820152608490fd5b1561348157565b60405162461bcd60e51b815260206004820152602560248201527f455243313135353a207472616e7366657220746f20746865207a65726f206164604482015264647265737360d81b6064820152608490fd5b156134db57565b60405162461bcd60e51b815260206004820152602a60248201527f455243313135353a20696e73756666696369656e742062616c616e636520666f60448201526939103a3930b739b332b960b11b6064820152608490fd5b919082018092116133e057565b908160209103126102b557516001600160e01b0319811681036102b55790565b60809060208152602860208201527f455243313135353a204552433131353552656365697665722072656a656374656040820152676420746f6b656e7360c01b60608201520190565b60009060033d116135b657565b905060046000803e60005160e01c90565b600060443d1061362457604051600319913d83016004833e81516001600160401b03918282113d6024840111176136275781840194855193841161362f573d85010160208487010111613627575061362492910160200190612f71565b90565b949350505050565b50949350505050565b60809060208152603460208201527f455243313135353a207472616e7366657220746f206e6f6e2d455243313135356040820152732932b1b2b4bb32b91034b6b83632b6b2b73a32b960611b60608201520190565b6040519061369a82612f05565b60018252602036818401376136ae826133f6565b5290565b6001600160a01b0316600090815260076020526040902054151590565b156136d657565b60405162461bcd60e51b8152602060048201526015602482015274506c6179657220646f65736e27742065786973742160581b6044820152606490fd5b9060405161372081612f3b565b608060ff6004839560018060a01b03815416855261374060018201613210565b602086015260028101546040860152600381015460608601520154161515910152565b6137b86040608061362493825161377981612f3b565b600092818480935260606020820152828682015282606082015201526137a16108ce826136b2565b6001600160a01b03168152600760205220546132d5565b50613713565b6001600160a01b03166000908152600860205260409020546137df57600090565b600190565b604051906137f182612f56565b60006060838181528260208201528260408201520152565b9060405161381681612f56565b60606003829461382581613210565b845260018101546020850152600281015460408501520154910152565b61384a6137e4565b50613854816137be565b156138805760018060a01b0316600052600860205261362461387a6040600020546132b6565b50613809565b60405162461bcd60e51b815260206004820152601960248201527847616d6520746f6b656e20646f65736e27742065786973742160381b6044820152606490fd5b60206138da918160405193828580945193849201612e89565b8101600981520301902054156000146137df57600090565b604090600060a0835161390481612f20565b8094838252836020830152606081830152805161392081612f05565b81368237606083015280519061393582612f05565b36823760808201520152565b9060405161394e81612f20565b809260ff81541660038110156119fe578252600180820154906020918285015260029061397c828501613210565b60408601526040519182600386016000915b8383106139e557505050505090816139a860a09493612f05565b60608501526040519060ff6005840154818116845260081c16908201526139ce81612f05565b6080840152600601546000196001831b0116910152565b81546001600160a01b031681529184019190840190860161398e565b613a096138f2565b50613a13816138c1565b15613a3d57613a37610c5b6020613624938160405193828580945193849201612e89565b50613941565b60405162461bcd60e51b8152602060048201526015602482015274426174746c6520646f65736e27742065786973742160581b6044820152606490fd5b818110613a85575050565b60008155600101613a7a565b15613a9857565b60405162461bcd60e51b815260206004820152601c60248201527f506c6561736520526567697374657220506c61796572204669727374000000006044820152606490fd5b6080613ae833613763565b0151613f6f57613afa612876336136b2565b613b026137e4565b50613b0c33613fb9565b80600a0390600a82116133e0576040908151602090818101904282523360601b858201526034815260608101966001600160401b0392828910848a1117611e215760ff60646006928b8a528551902006160660ff8116918215613f59575b60ff9250613b778a612f56565b89521696608082019188835260c060a08201918783520190888252600b5493600160401b851015611e2157600195868601600b55613bb4866132b6565b959095611e3757518051918211611e2157613bcf86546131d6565b601f8111613f29575b508890601f8311600114613ec1576003959493929160009183613eb6575b505060001982871b1c191690881b1785555b518685015551600284015551910155336000526008835284600020558351613c2f81612f05565b600381526203078360ec1b838201523315613e6857613c4d8761368d565b82865191613c5a83612f05565b81835285368185013781613c6d846133f6565b526000825b613e24575b50505050866000526000835284600020336000528352846000208054908382018092116133e0575584518781528284820152600033917fc3d58168c5ae7397731d063d5bbf3d657854427343f4c083240f7aacaa2d0f62883392a4333b613d1c575b5050613ce66006546133d1565b60065582519485528401528201527fca8ab07e9ed17d119729fc652dd24df9d8430ca862dda4631925b5b4b99da36260603392a2565b8451838180613d5a63f23a6e6160e01b95868352336004840152600060248401528c604484015287606484015260a0608484015260a4830190612eac565b03816000335af160009181613e05575b50613ddc575050613d796135a9565b6308c379a014613da8575b613d90575b3880613cd9565b825162461bcd60e51b81528061056960048201613638565b613db06135c7565b80613dbb5750613d84565b82610569865192839262461bcd60e51b845260048401526024830190612eac565b6001600160e01b031916149050613d8957825162461bcd60e51b81528061056960048201613560565b613e1d919250853d87116105f4576105e58183612f71565b9038613d6a565b8151811015613e635780613e3b613e5d9286613403565b51613e468285613403565b51600052600489526107018b600020918254613533565b82613c72565b613c77565b845162461bcd60e51b815260048101849052602160248201527f455243313135353a206d696e7420746f20746865207a65726f206164647265736044820152607360f81b6064820152608490fd5b015190503880613bf6565b949392918891601f19821690886000528b6000209160005b8d828210613f13575050978360039910613efb575b505050811b018555613c08565b015160001983891b60f8161c19169055388080613eee565b838b015185558d96909401939283019201613ed9565b613f5390876000528a600020601f850160051c8101918c8610611e1757601f0160051c0190613a7a565b38613bd8565b905060ff82146133e057600160ff920190613b6a565b60405162461bcd60e51b8152602060048201526015602482015274506c6179657220697320696e206120626174746c6560581b6044820152606490fd5b919082039182116133e057565b600a9060405160208101914483524260408301526bffffffffffffffffffffffff199060601b16606082015260548152613ff281612f56565b519020068015613fff5790565b50600590565b929190611e37578051926003808510156119fe5760ff1982541660ff80961617825560209081840151906001918285015560029081850160408701518051906001600160401b038211611e2157819061405e84546131d6565b601f81116141a5575b508790601f831160011461414357600092614138575b505060001982851b1c191690851b1790555b606086015160005b83811061411c5750505090608085015191600093845b8281106140ec575050505050600582015560a09091015160069190910180546001600160a01b0319166001600160a01b03929092169190911790559050565b909192826141108697848d85995116919060031b60ff811b9283911b169119161790565b960194939291016140ad565b81516001600160a01b0316878201840155908501908401614097565b01519050388061407d565b90879350601f1983169185600052896000209260005b8b82821061418f5750508411614177575b505050811b01905561408f565b015160001983871b60f8161c1916905538808061416a565b8385015186558b97909501949384019301614159565b6141cf908560005289600020601f850160051c8101918b8610611e1757601f0160051c0190613a7a565b38614067565b906141df826138c1565b1561420357612955610c5b602061324e948160405193828580945193849201612e89565b60405162461bcd60e51b815260206004820152601460248201527310985d1d1b1948191bd95cdb89dd08195e1a5cdd60621b6044820152606490fd5b6142476138f2565b50815160038110156119fe57600214614366576002825260018060a01b038091168060a08401527fae6e5eafb6cd1cb4b139e7a0b9140aa182ee7d50e99f50d660156f79212acbc0604084019261429f8585516141d5565b806060860181815151166000526007602052600a6002614325604060002054856020865101511660005260406000205490848461430260046142e0856132d5565b50019360ff1994858154169055601960036142fa836132d5565b5001556132d5565b5001556004614310836132d5565b5001908154169055601960036142fa836132d5565b500155518051821685810361435d57506020015116935b51936143576040519283926020845216956020830190612eac565b0390a390565b9150509361433c565b60405162461bcd60e51b815260206004820152601460248201527310985d1d1b1948185b1c9958591e48195b99195960621b6044820152606490fd5b80156144645780816000925b61445057506143bc82612f92565b916143ca6040519384612f71565b80835281601f196143da83612f92565b01916020923684870137925b6143f05750505090565b60001983019283116133e05782600a808304928184029184830414841517156133e05761442060ff928392613fac565b166030019081116133e05785518210156131c05760f81b6001600160f81b03191660001a908501830153806143e6565b9161445c600a916133d1565b9204806143ae565b5060405161447181612f05565b60018152600360fc1b60208201529056fea2646970667358221220a0bf8840dcd2b212aff0d8e75c229e2d00eed8aaa6f1e5a63d7976b82b6082d464736f6c63430008110033405787fa12a823e0f2b7631cc41b3ba8828b3321ca811111fa75cd3aa3bb5ace",
  "linkReferences": {},
  "deployedLinkReferences": {}
}